S01600002E2F44656275672F5254532D4C61622E73313936
S3152000000000BFDFF814D001F0A0FC02F0E9FA01F0FD
S31520000010AEBCFEE700BF000000C0012080B500AFE7
S3152000002001214FF4804003F0AFFC00214FF48040C3
S3152000003003F0AAFC00BF80BD80B483B000AF0346A6
S31520000040FB71044AFB79136000BF0C37BD465DF88F
S31520000050047B70470038014080B483B000AF03466C
S31520000060FB71044AFB79136000BF0C37BD465DF86F
S31520000070047B70472000274280B485B000AF03463A
S315200000800A46FB711346BB710023FB60BB7903F064
S3152000009003039B000F2202FA03F3FB60164ABB7987
S315200000A09B08DBB2023352F82320FB68DB4312485D
S315200000B0B9798908C9B21A408B1C40F823200E4A08
S315200000C0BB799B08DBB2023352F82320F979BB793E
S315200000D003F003039B0001FA03F30748B979890863
S315200000E0C9B21A438B1C40F8232000BF1437BD46E3
S315200000F05DF8047B704700BF0038014080B483B0B0
S3152000010000AF7860044A7B68136000BF0C37BD4699
S315200001105DF8047B704700BFDC00274280B483B0C3
S3152000012000AF0346FB71044AFB79136000BF0C370E
S31520000130BD465DF8047B70470004274280B483B037
S3152000014000AF0023FB71094B1B6A03F48073002B5D
S3152000015002D00123FB7101E00023FB71FB791846D5
S315200001600C37BD465DF8047B704700BF0038014060
S3152000017080B400AF094B00221A60084B00225A6057
S31520000180064B00229A60054B0022DA60034B044A94
S315200001905A6100BFBD465DF8047B7047003C0140B4
S315200001A0FFFF7F0080B485B000AF78600023FB603E
S315200001B0344BFB607B689B79002B4FD0314B1A6800
S315200001C07B681B68DB432F4913400B602D4B5A6815
S315200001D07B681B68DB432B4913404B607B681B798C
S315200001E01A46FB681344FB60FB6819687B681A682B
S315200001F0FB680A431A60234B9A687B681B68DB43BB
S31520000200204913408B601F4BDA687B681B68DB43F1
S315200002101C491340CB607B685B79102B0ED1194BA0
S315200002209A687B681B68174913438B60154BDA68FD
S315200002307B681B6813491343CB601DE0114BFB60A1
S315200002407B685B791A46FB681344FB60FB68196878
S315200002507B681A68FB680A431A600DE07B681B7985
S315200002601A46FB681344FB60FB6819687B681B68A9
S31520000270DA43FB680A401A6000BF1437BD465DF8B2
S31520000280047B7047003C014080B483B000AF7860A7
S315200002907B6800221A607B6800221A717B680C2218
S315200002A05A717B6800229A7100BF0C37BD465DF8F3
S315200002B0047B704780B483B000AF7860054B1A6921
S315200002C004497B6813430B6100BF0C37BD465DF8BC
S315200002D0047B7047003C014080B485B000AF786055
S315200002E00023FB73084B5A697B681340002B02D00E
S315200002F00123FB7301E00023FB73FB7B18461437B5
S31520000300BD465DF8047B7047003C014080B483B055
S3152000031000AF7860044A7B68536100BF0C37BD4646
S315200003205DF8047B704700BF003C014080B485B077
S3152000033000AF78600023FB73084B5A697B68134033
S31520000340002B02D00123FB7301E00023FB73FB7B10
S3152000035018461437BD465DF8047B7047003C0140C3
S3152000036080B483B000AF7860044A7B68536100BFD5
S315200003700C37BD465DF8047B704700BF003C01404A
S31520000380314900E03149EFF3088020ED108A7246AA
S31520000390EFF3118320E9FC0F2D4FD7F80080C8F822
S315200003A000001EE0084600F0F3F92A4800F0F0F9B4
S315200003B0294800F0EDF9D8F8040000F035FA27486E
S315200003C000F0E6F9D8F8000000F0FFF9244800F024
S315200003D0DFF9D8F80000006800F0F7F91D4800F0B2
S315200003E0D7F9DFF88080D8F80080C7F8008018E0B9
S315200003F01D4800F0CDF9D8F8040000F015FA1B4886
S3152000040000F0C6F9D8F8000000F0DFF9144800F033
S31520000410BFF9D8F80000006800F0D7F90D4800F0C1
S31520000420B7F9134A536843F00063536000BFD8F806
S315200004300000B0E8FC0F83F311889646B0EC108AD2
S3152000044080F3088870470000D0920020E1920020B7
S315200004507493002051930020029300201A930020C9
S3152000046022930020341C01202B930020409300204F
S3152000047000ED00E080B483B000AF0346FB71FB794A
S3152000048003F01F03012202FA03F1064A97F9073007
S315200004905B0942F8231000BF0C37BD465DF8047B8C
S315200004A0704700BF00E100E080B483B000AF034690
S315200004B03960FB7197F90730002B0BDA3B68DAB20B
S315200004C00C49FB7903F00F03043B1201D2B20B4413
S315200004D01A7609E03B68DAB2074997F90730120124
S315200004E0D2B20B4483F8002300BF0C37BD465DF81B
S315200004F0047B704700ED00E000E100E080B582B0AB
S3152000050000AF786039607B6800229A617B689A69BF
S315200005107B685A617B685A697B68DA61012240F2FE
S3152000052025510A4802F046FC002240F2277107486E
S3152000053002F040FC02212520FFF7B6FF2520FFF719
S3152000054099FF00BF0837BD4680BD00BF001001409F
S3152000055080B483B000AF78600B46FB707B68DB69A4
S31520000560B3F5806F17DA7B685B697A681344FA788B
S3152000057083F820207B685B6901335A42C3F3090361
S31520000580C2F3090258BF53427A6853617B68DB691C
S315200005905A1C7B68DA6100BF0C37BD465DF8047BC8
S315200005A0704780B582B000AF786039607B68DB69C0
S315200005B0002B18D17B689B68012240F227711846D0
S315200005C002F0F8FB0FE03B681B780A2B03D10D21C4
S315200005D07868FFF7BDFF3B685A1C3A601B781946BE
S315200005E07868FFF7B5FF3B681B78002BEBD100BF7F
S315200005F000BF0837BD4680BD80B582B000AF7860A9
S3152000060039607B68DB69002B07D17B689B680122F8
S3152000061040F22771184602F0CDFB3B68DBB2194643
S315200006207868FFF795FF00BF0837BD4680BD80B5C7
S3152000063086B002AF786039607B689B6820211846B7
S3152000064002F000FC0346012B18D17B689B681846F4
S3152000065002F01BFA0346FB607B68DB68002B0DD09B
S315200006607B68DA687B681969FB6800930B46002172
S31520000670002000F0C7FC234B01221A607B689B6890
S315200006808021184602F0DEFB0346012B34D17B681D
S31520000690DB69002B28DD7B6898687B689B697A6814
S315200006A0134493F82030194602F0DDF97B689B69E4
S315200006B001335A42C3F30903C2F3090258BF534216
S315200006C07A6893617B68DB695A1E7B68DA617B688E
S315200006D0DB69002B10D17B689B68002240F22771D2
S315200006E0184602F067FB07E07B689B68002240F211
S315200006F02771184602F05EFB002318461037BD46C8
S3152000070080BD00BF281C012080B483B000AF034603
S31520000710FB71FB7903F01F03012202FA03F1064A5B
S3152000072097F907305B0942F8231000BF0C37BD4606
S315200007305DF8047B704700BF00E100E080B483B021
S3152000074000AF03463960FB7197F90730002B0BDAAF
S315200007503B68DAB20C49FB7903F00F03043B120124
S31520000760D2B20B441A7609E03B68DAB2074997F908
S3152000077007301201D2B20B4483F8002300BF0C3796
S31520000780BD465DF8047B704700ED00E000E100E027
S3152000079080B582B000AF78600EE07B681B780D2BA9
S315200007A007D07B685A1C7A601B78184600F05EF9E1
S315200007B002E07B6801337B607B681B78002BECD1E1
S315200007C000BF00BF0837BD4680BD80B586B000AFEC
S315200007D0786000237B617B6803F00F027B69591CDC
S315200007E0796110498A5C18333B4403F80C2C7B68EA
S315200007F01B097B607B68002BEDD10AE07B69013BFE
S315200008007B6107F10C027B6913441B78184600F0C4
S315200008102DF97B69002BF1D100BF00BF1837BD46EB
S3152000082080BD00BF5493002080B59EB000AF786095
S315200008307B68002B02DA4FF0FF3300E001233B6791
S315200008407B683A6F02FB03F37B6000237B67796842
S315200008501C4B83FB01239A10CB17D21A13469B00FD
S3152000086013445B00CA1A7B6F591C796716498A5C48
S3152000087078333B4403F86C2C7B68124A82FB0312C4
S315200008809210DB17D31A7B607B68002BDFD13B6F7E
S31520000890002B0EDA2D2000F0E9F80AE07B6F013BF1
S315200008A07B6707F10C027B6F13441B78184600F018
S315200008B0DDF87B6F002BF1D100BF00BF7837BD4636
S315200008C080BD00BF676666665493002080B483B0FF
S315200008D000AF10237B607B6883F3118800BF00BFC5
S315200008E00C37BD465DF8047B704780B483B000AFFB
S315200008F030237B607B6883F3118800BF00BF0C37F1
S31520000900BD465DF8047B704780B584B000AF786043
S315200009100B48FFF73DFF0B4B1B68002B02D1094B01
S31520000920094A1A60074B1B68FB60064B1A687B68EE
S315200009301344044A1360FB6818461037BD4680BD31
S3152000094064880020E0980020681C012080B485B0CF
S3152000095000AF786039603B6803F5F95310337A6845
S3152000096013607B681B68BB600023FB6009E0FB68A3
S315200009709A00BB6813441A4600231360FB680133B0
S31520000980FB60FB68332BF2DDBB686FF016021A6042
S31520000990BB6804331A4603231360BB6884331A46A4
S315200009A04FF08073136000BF1437BD465DF8047B9B
S315200009B0704780B485B000AF786039607B681B686B
S315200009C08033FB60FB683A681A6000BF1437BD4667
S315200009D05DF8047B704780B584B000AF1C4805F0F5
S315200009E0B3FA3B1D184605F0FBFB40F24733BB80AC
S315200009F03B1D1946164805F087FB164B164A1A600A
S31520000A0002216FF00100FFF799FE144B144A1A6079
S31520000A1000216FF00400FFF791FE124B124A1A6074
S31520000A2002213220FFF78AFE3220FFF76DFE0021D9
S31520000A30074805F01FFC0121054805F0E8FC0122C6
S31520000A400221034806F0B7FC00BF1037BD4680BD23
S31520000A50000C004038C00120850300202CC0012056
S31520000A608103002008C10120F30D002080B582B04B
S31520000A7000AF0346FB71FB799BB21946074801F08C
S31520000A80F2FF00BF8021054802F0DCF90346002B67
S31520000A90F8D000BF00BF0837BD4680BD001001401A
S31520000AA080B500AF124805F001FC03461A46114BEB
S31520000AB01A60114B01221A60104B00221A60104B4B
S31520000AC01B68002B06D00E4B1B680E4A12680021AD
S31520000AD010469847084B00221A60084B1B68002BCB
S31520000AE001D000F05DFA054B00221A6080BD00BFE0
S31520000AF0000C00402C1C0120241C0120281C012055
S31520000B00381C0120441C012080B500AF124805F096
S31520000B10CDFB03461A46114B1A60114B01221A606F
S31520000B20104B00221A60104B5B68002B06D00E4B30
S31520000B305B680E4A5268012110469847084B0022EE
S31520000B401A60084B1B68002B01D000F029FA054BD0
S31520000B5000221A6080BD00BF000C00402C1C012022
S31520000B60241C0120281C0120381C0120441C0120A3
S31520000B7080B500AF124805F099FB03461A46114B83
S31520000B801A60114B01221A60104B00221A60104B7A
S31520000B909B68002B06D00E4B9B680E4A926802215A
S31520000BA010469847084B00221A60084B1B68002BFA
S31520000BB001D000F0F5F9054B00221A6080BD00BF78
S31520000BC0000C00402C1C0120241C0120281C012084
S31520000BD0381C0120441C012080B485B000AF786009
S31520000BE039600023FB603B681B68BB6004E0BB6880
S31520000BF0FB60BB681B68BB60BB68002B05D0BB686D
S31520000C009A687B689B689A42F1DD7B68BA681A60AD
S31520000C10FB68002B03D13B687A681A6002E0FB6808
S31520000C207A681A6000BF1437BD465DF8047B7047AA
S31520000C3080B485B000AF786039600023FB603B68E4
S31520000C401B68BB6004E0BB68FB60BB681B68BB60BD
S31520000C50BB68002B05D0BB685A687B685B689A42E4
S31520000C60F1DD7B68BA681A60FB68002B03D13B680C
S31520000C707A681A6002E0FB687A681A6000BF143747
S31520000C80BD465DF8047B704780B584B000AF7860C0
S31520000C907B681B68FB60FB68002B04D0FB681A6826
S31520000CA07B681A600CE00948FFF772FD00220221DA
S31520000CB0074804F09EFE0748FFF76AFD30BFFDE7B0
S31520000CC0FB6818461037BD4680BD00BF7C880020D3
S31520000CD0000402408888002080B584B000AF786088
S31520000CE07B681B68FB60FB68002B04D0FB681A68D6
S31520000CF07B681A600CE00948FFF74AFD00220221B2
S31520000D00074804F076FE0748FFF742FD30BFFDE7AF
S31520000D10FB6818461037BD4680BD00BF7C88002082
S31520000D20000402409488002080B483B000AF78602D
S31520000D3039603B681A687B681A603B687A681A6073
S31520000D4000BF0C37BD465DF8047B704780B483B086
S31520000D5000AF786039603B681A687B689A603B68A8
S31520000D607A681A6000BF0C37BD465DF8047B704771
S31520000D7080B485B000AF78607B681B68FB60FB6839
S31520000D809A687B681A60FB6818461437BD465DF87A
S31520000D90047B704780B485B000AF7860396000234B
S31520000DA0FB603B681B68BB6004E0BB68FB60BB68FC
S31520000DB01B68BB60BB68002B03D0BA687B689A426D
S31520000DC0F3D1BB68002B0DD0FB68002B04D0BB6889
S31520000DD01A68FB681A6003E0BB681A683B681A60E9
S31520000DE0012300E0002318461437BD465DF8047B36
S31520000DF0704780B582B000AF02211E4806F065FB21
S31520000E001C4805F053FA03467B6007E01A48FFF7B3
S31520000E103BFF034619491846FFF7DEFE164B1B68B3
S31520000E20002B06D0144B1B685A687B68D31A002BFC
S31520000E30ECDD114B1B68002B16D00E4805F036FA58
S31520000E4003463B600C4B1B685B683A689A4204DD9C
S31520000E50002202210A4804F0CCFD074B1B685B6880
S31520000E601946044805F061FD00F09AF800BF0837DE
S31520000E70BD4680BD000C0040201C01201C1C01200A
S31520000E80000402400346024A136010DFF74600BF03
S31520000E90341C01200346054A1360054B5B68044A4F
S31520000EA043F080535360F74600BF00BF341C012037
S31520000EB000ED00E080B582B000AF7860094B5B683A
S31520000EC0C3F30803002B03D17868FFF7DBFF02E0AA
S31520000ED07868FFF7DFFFFFF708FD00BF0837BD463C
S31520000EE080BD00BF00ED00E090B585B000AF234B7C
S31520000EF01C682348FFF7C8FE0346E360E368BB602F
S31520000F00FFF7F3FCBB68D868BB681969BB685B69E7
S31520000F101A4600F015F9FFF7D9FC1A49B868FFF709
S31520000F2003FF194B1B689B68DB687B60144B1B68AF
S31520000F30002B0AD07B68002BD9D0114B1B689A68EE
S31520000F407B689B68D31A002BD1DD0F48FFF710FF73
S31520000F5003460E491846FFF7F9FE0B4B1B68FB604C
S31520000F6003E0FB681B691B68FB60FB681B69002BA1
S31520000F70F7D1F868FFF79EFFB9E700BF749300200A
S31520000F801C1C012068930020709300206C93002085
S31520000F9080B500AF00F004F8FFF7A7FC30BFFBE7F1
S31520000FA080B582B000AF144B1B68DB687B60134BA7
S31520000FB01B68002B1BD0124B1B68002B17D07B689D
S31520000FC0002B07D00D4B1B689A687B689B68D31A49
S31520000FD0002B0CDA0A48FFF7CBFE034606491846D3
S31520000FE0FFF7B4FE044B1B681846FFF763FF00BFEC
S31520000FF00837BD4680BD00BF709300201C1C012011
S315200010006C93002080B588B000AFF860B9607A6034
S315200010103B60EFF312833B613B691B09012B14BF35
S3152000102001230023DBB2FB77FFF750FC3A48FFF79A
S3152000103053FEB861BB697A68DA60BB693A681A619F
S31520001040BB69BA6A5A61354B1B68002B04D1344BF5
S315200010501B68DB685B6801E0324B1B68FA681A4440
S31520001060BB695A60BB695A68BB68002B01DDBB6847
S3152000107001E06FF000431A44BB699A602A4805F0E4
S3152000108015F903467B61BB695A687B69D31A002B25
S3152000109016DD2649B869FFF7CBFD244B1B685B6834
S315200010A07A699A4204DD00220221214804F0A1FC3B
S315200010B01E4B1B685B6819461B4805F036FC21E071
S315200010C01C49B869FFF788FDFB7F002B1AD01A4B05
S315200010D01B68002B16D0174B1B689A68174B1B688A
S315200010E0DB689B68D31A002B0CDA1348FFF740FE07
S315200010F0034612491846FFF729FE104B1B6818466F
S31520001100FFF7D8FEFB7F002B01D0FFF7EEFBBB6974
S3152000111018462037BD4680BD68930020241C012038
S31520001120749300202C1C0120000C0040201C012060
S31520001130000402401C1C01206C93002070930020A8
S3152000114080B588B000AFF860B9607A60EFF312839B
S315200011503B613B691B09012B14BF01230023DBB232
S31520001160FB76FFF7B3FBFB681B68FB61FB69002B73
S3152000117037D003E0FB691B691B68FB61FB691B69B0
S31520001180002BF7D1304B1B68FA699A4202D0FB7EBE
S31520001190002B07D1FB7E002B01D0FFF7A6FB4FF0DB
S315200011A0FF334DE0FB685B68002B03D0FB685B6870
S315200011B000221A61244B1A68FB685A60224B1B686E
S315200011C0FA681A61F869FFF775FE1F4B1B68DB6822
S315200011D0002B06D1FB7E002B01D0FFF786FB0023D8
S315200011E02EE0194B1A68FB681A60FB7E002B05D08F
S315200011F0FB685B68012B01D0FFF777FBBB6879683A
S31520001200F86898477861FFF761FBFB6800221A604F
S31520001210FB685B68FB61FB69002B0BD0FB69012B2C
S3152000122008D0FB6800225A60FB6900221A61F8691F
S31520001230FFF740FEFB7E002B01D0FFF756FB7B69B4
S3152000124018462037BD4680BD7493002080B586B0F1
S3152000125000AF7860EFF31283FB60FB681B09012B5C
S3152000126014BF01230023DBB2FB74FFF72FFB1F49BA
S315200012707868FFF78FFD0346002B06D11C49786856
S31520001280FFF788FD0346002B04D01A497868FFF73C
S315200012904BFD21E0184B1B687B611AE0174B1B683E
S315200012A07A699A4212D07B69DB687A689A420DD1B4
S315200012B07B691A697B68DB689A4207D17B690022C1
S315200012C0DA600C497868FFF72FFD05E07B699B689B
S315200012D07B617B69002BE1D1FB7C002B01D0FFF7E2
S315200012E004FB00BF1837BD4680BD00BF201C01206F
S315200012F01C1C01206893002070930020749300200A
S3152000130080B485B000AF7860EFF31283FB60FB6892
S315200013101B09012B04D0074B1B68DB685B6801E0C7
S31520001320054B1B687A68136000BF1437BD465DF80D
S31520001330047B7047749300202C1C012080B485B058
S3152000134000AF7860EFF31283FB60FB681B09012B6B
S3152000135004D0084B1B68DB685B6801E0064B1B6802
S315200013607A6812689B1A18461437BD465DF8047BC6
S31520001370704700BF749300202C1C012080B584B0D8
S3152000138000AFEFF312837B607B681B09012B14BF30
S3152000139001230023DBB2FB73FFF798FA0C4804F015
S315200013A085FF0346BB60FB7B002B01D0FFF79DFA30
S315200013B0FB7B002B04D0074B1B68DB685B6801E0D6
S315200013C0054B1B68BA68D31A18461037BD4680BD30
S315200013D0000C0040749300202C1C012080B582B0A4
S315200013E000AF00237B6012E07B685A1C13465B002B
S315200013F01344DB00444A991843487A6813465B0035
S315200014001344DB00034419607B6801337B607B68EF
S315200014101C2BE9DD3C4B0022C3F8B82200237B605D
S3152000142013E07B685A1C13469B0013449B00374AE3
S31520001430991836487A6813469B0013449B00034448
S31520001440083319607B6801337B607B68022BE8DDFB
S315200014502E4B00225A6400237B6030E02B497A68A9
S3152000146013469B0013449B000B4404337A681A608E
S315200014707A6813469B0013449B00244A1A447B68CF
S315200014805B0323490B4419461046FFF75FFA7A6837
S3152000149013469B0013449B001C4A13441D491846BF
S315200014A0FFF787FA19497A6813469B0013449B0075
S315200014B00B44103300221A607B6801337B607B6803
S315200014C0032BCBDD144B4FF0FF325A60124B002218
S315200014D09A60114B00221A610F4B0022DA600F48E6
S315200014E0FFF756F90E48FFF753F90E48FFF750F964
S315200014F00A48FFF74DF90948FFF74AF9FFF76BFA53
S3152000150000BF0837BD4680BDE4980020B49B00206C
S31520001510089C0020E90E0020081C0120A08800203D
S31520001520A4880020B088002080B586B000AFF8607F
S31520001530B9601346FB71FB79022B41D8EFF3128376
S315200015403B613B691B09012B14BF01230023DBB23E
S31520001550FB75FFF7BBF9FB79022B0ED0022B10DCB3
S31520001560002B02D0012B04D00BE0174B174A1A6030
S3152000157014E0174B174A1A6010E0174B174A1A60E7
S315200015800CE01748FFF704F900220221154804F061
S3152000159030FA1548FFF7FCF830BFFDE7FB79134911
S315200015A0FA6841F82320FB791149BA6841F82320CB
S315200015B0FB6801225A60FB7D002B01D0FFF795F9CD
S315200015C000BF1837BD4680BDD4C00120A10A002027
S315200015D090C00120090B00209CC00120710B002027
S315200015E07C88002000040240C8880020441C01207A
S315200015F0381C012080B586B002AFF860B9607A60E9
S31520001600FFF764F9FFF7EAFEBB68002B16D00F48F8
S3152000161004F04CFE03461A460D4B1A600D4B012270
S315200016201A607B680093BB68FA6800210020FFF7E8
S31520001630E9FC084B00221A60FFF7B2FCFFF7A8FC72
S31520001640002318461037BD4680BD00BF000C004061
S315200016502C1C0120241C012080B400AF00BFBD46F5
S315200016605DF8047B704780B586B000AF454803F02F
S31520001670D7FF454802F0FAFE444802F0F7FE012162
S315200016804FF0007002F0C0F801214FF0806002F0A8
S31520001690BBF80121022002F057F809220921394816
S315200016A004F0E0F909220821364804F0DBF907F1B5
S315200016B01003184604F0F5F84FF400733B6102233B
S315200016C03B750023BB750023FB7502237B7507F151
S315200016D0100319462B4804F055F84FF480733B61EC
S315200016E002233B750023BB750123FB7502237B7503
S315200016F007F110031946234804F044F8092206216D
S31520001700204804F0AFF9092205211E4804F0AAF961
S3152000171040233B6102233B750023BB750023FB75E9
S3152000172002237B7507F110031946164804F02AF8A0
S3152000173020233B6102233B750023BB750123FB75E8
S3152000174002237B7507F1100319460E4804F01AF898
S315200017500023BB720023FB7201233B7300233B80D3
S3152000176000237B800023BB800023FB8000233B815A
S3152000177001237B733B46184602F06DFF00BF1837E6
S31520001780BD4680BD00040240006400400068004061
S3152000179080B586B000AF01214FF0005002F034F83A
S315200017A007F11003184604F07CF820233B6103233D
S315200017B03B750023FB7507F1100319460F4803F00C
S315200017C0E1FF04F099F93B46184604F0D7F90023C7
S315200017D03B6000237B600023FB603B4619461020BC
S315200017E004F098F90121102004F0DEF900210820E8
S315200017F004F088FA00BF1837BD4680BD00000240BD
S3152000180080B584B000AF01214FF4804002F01CF86F
S3152000181007210120FEF730FCFEF7AAFC3B461846BE
S31520001820FEF732FD80233B6000233B710C237B7146
S315200018300123BB713B461846FEF7B4FC07F10803AB
S31520001840184604F02EF80223BB6001233B730123C4
S31520001850BB730023FB7301237B7307F1080319462F
S31520001860184803F08FFF0123BB6001233B7301233C
S31520001870BB730023FB7301237B7307F1080319460F
S31520001880104803F07FFF012202210E4804F0B1F830
S31520001890012201210B4804F0ACF88023BB60002311
S315200018A03B730023BB730023FB7301237B7307F178
S315200018B008031946034803F065FF00BF1037BD46ED
S315200018C080BD00BF0004024080B483B000AFEFF3B8
S315200018D014833B603B6823F003037B607B6883F3C0
S315200018E0148800BF094B4FF404725A61074B5B6999
S315200018F0064A43F008035361054B4FF000425A60F5
S3152000190000BF0C37BD465DF8047B704700ED00E054
S3152000191030EF00E080B500AF0121082001F074FF10
S315200019200121082002F0B0F800BF80BD80B400AFCE
S31520001930124A02E0002342F8043B114B9A42F9D3A3
S3152000194000BFBD465DF8047B704780B500AFFFF74A
S31520001950EDFFFFF781FEFFF786FEFFF719FFFFF782
S315200019604FFFFFF7B1FFFFF7D5FF00BF80BD80B463
S3152000197000AF00BFBD465DF8047B7047E0980020AD
S31520001980681C012080B586B000AF7860396007F109
S315200019900C031A460A490B48FFF7D2FB0A4B1A4694
S315200019A00A490B48FFF7CCFB07F10C0303331A4611
S315200019B006490748FFF7C4FB00BF1837BD4680BD60
S315200019C0093F002018980020E8880020A305002061
S315200019D0F893002080B5C2B002AF786007F5807317
S315200019E0A3F580731960A94B1A46A949A948FFF7A0
S315200019F0A7FB07F58073A3F580731A68A649A54847
S31520001A00FFF79EFBA54B1A46A149A248FFF798FB74
S31520001A1007F58073A3F580731B682D3B2D2B00F2F1
S31520001A20DA8401A252F823F0E11A0020D7230020FD
S31520001A30D7230020E11A0020E11A0020E11A002015
S31520001A40E11A0020E11A0020E11A0020E11A002004
S31520001A50E11A0020E11A0020E11A0020D7230020F5
S31520001A60D7230020D7230020D7230020D7230020E8
S31520001A70D7230020D7230020D7230020D7230020D8
S31520001A80D7230020C12200201F210020D723002099
S31520001A90CD1C0020D91B0020D7230020D7230020CF
S31520001AA0031B0020D7230020551E0020D72300200B
S31520001AB0D7230020D7230020D7230020D723002098
S31520001AC0D72300204D200020D7230020831D00206F
S31520001AD0D1210020931E0020D7230020451F00205F
S31520001AE07B689B68591C7A68916007F58072A2F51D
S31520001AF080721268D1B27A6813440A465A7300F08B
S31520001B006BBC7B689B687A68134400225A737B6897
S31520001B1000229A607B680D33184606F0DDF80246EF
S31520001B207B681A647B681B6C002B1AD15C4B1A46A7
S31520001B3057495848FFF704FB00225A495A48FFF7ED
S31520001B40FFFA034607F10800584AC82106F090F824
S31520001B5007F108031A464E494E48FFF7F1FA00F0FE
S31520001B603BBC7B681B6C1A4651494F48FFF7E8FA85
S31520001B7002467B681B6C9A4214D1002249494A4886
S31520001B80FFF7DEFA034607F108004A4AC82106F0A5
S31520001B906FF807F108031A463D493E48FFF7D0FA89
S31520001BA000F01ABC444B1A4639493A48FFF7C8FA9E
S31520001BB000223C493C48FFF7C3FA034607F10800D8
S31520001BC03E4AC82106F054F807F108031A46304960
S31520001BD03048FFF7B5FAFFE37B689B687A681344C1
S31520001BE000225A737B6800229A6000222D492E48D3
S31520001BF0FFF7A6FA02467B681A647B681B6C0133E2
S31520001C00C7F8F030D7F8F030052B18DCD7F8F020DD
S31520001C1027492548FFF794FA02467B681A647B68B1
S31520001C201B6C07F10800234AC82106F021F807F1AA
S31520001C3008031A4616491748FFF782FACCE3204BC9
S31520001C401A4613491348FFF77BFA07F108000523C4
S31520001C5000936FF004031B4AC82106F009F807F128
S31520001C6008031A460A490B48FFF76AFA7B681B6C79
S31520001C7007F10800144AC82105F0FAFF07F1080306
S31520001C801A4603490348FFF75BFAA5E3FC880020C0
S31520001C90A3050020F8930020F905002004890020E0
S31520001CA00889002057410020C49300201C89002069
S31520001CB07141002030890020408900205C89002065
S31520001CC0708900208C890020B88900207B689B6859
S31520001CD07A68134400225A737B6800229A60002295
S31520001CE0B249B348FFF72CFA02467B681A647B6830
S31520001CF01B6C013BC7F8EC30D7F8EC3013F1050F1D
S31520001D0018DBD7F8EC20AB49A948FFF719FA0246A9
S31520001D107B681A647B681B6C07F10800A64AC821F9
S31520001D2005F0A6FF07F108031A46A449A448FFF7C1
S31520001D3007FA51E3A34B1A46A049A148FFF700FA38
S31520001D4007F10800052300936FF004039E4AC8217B
S31520001D5005F08EFF07F108031A4698499848FFF7C1
S31520001D60EFF97B681B6C07F10800984AC82105F03B
S31520001D707FFF07F108031A4690499148FFF7E0F9DB
S31520001D802AE37B689B687A68134400225A737B682F
S31520001D9000229A607B680D33184605F09DFF0246A7
S31520001DA07B685A647B685B6C002B19D1884B1A467A
S31520001DB082498348FFF7C4F9002286497C48FFF709
S31520001DC0BFF9034607F10800834AC82105F050FFF2
S31520001DD007F108031A4679497948FFF7B1F9FBE27A
S31520001DE07B685B6C1A467D497148FFF7A9F9024664
S31520001DF07B685B6C9A4213D1002276496C48FFF7C8
S31520001E009FF9034607F10800754AC82105F030FFFF
S31520001E1007F108031A4669496948FFF791F9DBE299
S31520001E20704B1A4665496648FFF78AF900226949C8
S31520001E305F48FFF785F9034607F108006A4AC8217B
S31520001E4005F016FF07F108031A465C495C48FFF7C0
S31520001E5077F9C1E27B689B687A68134400225A733B
S31520001E607B6800229A60002260495148FFF768F992
S31520001E700346002B06D15E4B1A4650495048FFF7C1
S31520001E805FF9A9E25B4B1A464C494D48FFF758F9D2
S31520001E90A2E27B689B687A68134400225A737B68A7
S31520001EA000229A6000224B494148FFF749F9024631
S31520001EB07B685A647B685B6C0133C7F8F830D7F8C7
S31520001EC0F830142B18DCD7F8F82044493848FFF7A7
S31520001ED037F902467B685A647B685B6C07F1080019
S31520001EE03F4AC82105F0C4FE07F108031A463349C4
S31520001EF03348FFF725F96FE23F4B1A462F49304802
S31520001F00FFF71EF907F108001423009301232E4A38
S31520001F10C82105F0ADFE07F108031A4627492848CF
S31520001F20FFF70EF97B685B6C07F10800334AC8217E
S31520001F3005F09EFE07F108031A4620492048FFF7C0
S31520001F40FFF849E27B689B687A68134400225A733B
S31520001F507B6800229A6000221E491548FFF7F0F898
S31520001F6002467B685A647B685B6C013BC7F8FC3091
S31520001F70D7F8FC30002B43DDD7F8FC2017490C4856
S31520001F80FFF7DEF802467B685A647B685B6C07F1D4
S31520001F900800134AC82105F06BFE07F108031A460C
S31520001FA006490748FFF7CCF816E200BF5741002044
S31520001FB0C49300207141002030890020A305002011
S31520001FC0F8930020708900208C890020B889002091
S31520001FD0CC89002075400020E08900208F40002019
S31520001FE0F4890020088A0020288A0020C940002081
S31520001FF0408A0020508A0020648A0020848A00209B
S31520002000A04B1A46A049A148FFF79AF807F1080005
S315200020101423009301239E4AC82105F029FE07F1C7
S3152000202008031A4698499948FFF78AF87B685B6C3B
S3152000203007F10800974AC82105F01AFE07F10803A0
S315200020401A4691499148FFF77BF8C5E17B689B6862
S315200020507A68134400225A737B6800229A607B6850
S315200020600D33184605F038FE02467B689A647B6875
S315200020709B6C002B19D1884B1A4683498348FFF75E
S315200020805FF8002285498648FFF75AF8034607F18C
S315200020900800844AC82105F0EBFD07F108031A461B
S315200020A079497A48FFF74CF896E17B689B6C1A468B
S315200020B07D497B48FFF744F802467B689B6C9A4231
S315200020C013D1002275497648FFF73AF8034607F1FF
S315200020D00800764AC82105F0CBFD07F108031A4609
S315200020E069496A48FFF72CF876E1714B1A4666492A
S315200020F06648FFF725F8002268496948FFF720F867
S31520002100034607F108006B4AC82105F0B1FD07F127
S3152000211008031A465C495D48FFF712F85CE17B68C4
S315200021209B687A68134400225A737B6800229A605F
S3152000213000225A495A48FFF703F802467B689A64F8
S315200021407B689B6C0A33C7F8E830D7F8E830F02B69
S3152000215018DCD7F8E82054495148FEF7F1FF02462B
S315200021607B689A647B689B6C07F108004F4AC821FC
S3152000217005F07EFD07F108031A4643494348FEF75A
S31520002180DFFF29E14C4B1A463F494048FEF7D8FF6E
S3152000219007F10800F02300933C233D4AC82105F0AF
S315200021A067FD07F108031A4637493848FEF7C8FF86
S315200021B07B689B6C07F10800404AC82105F058FD52
S315200021C007F108031A4630493048FEF7B9FF03E104
S315200021D07B689B687A68134400225A737B680022C6
S315200021E09A6000222D492E48FEF7AAFF02467B68F8
S315200021F09A647B689B6C0A3BC7F8F430D7F8F430B6
S315200022003B2B18DDD7F8F42027492548FEF798FF01
S3152000221002467B689A647B689B6C07F10800234A18
S31520002220C82105F025FD07F108031A461649174867
S31520002230FEF786FFD0E0204B1A4613491348FEF7D7
S315200022407FFF07F10800F02300933C23104AC821A2
S3152000225005F00EFD07F108031A460B490B48FEF759
S315200022606FFF7B689B6C07F10800144AC82105F0B4
S31520002270FFFC07F108031A4603490448FEF760FFEE
S31520002280AAE000BF648A0020A3050020F89300205E
S315200022908C890020848A00209C8A0020034100200B
S315200022A0C4930020B08A00201D410020C48A00204B
S315200022B0D48A0020F48A0020088B0020248B00205A
S315200022C0002248494848FEF73BFFC7F8E4000022B1
S315200022D046494548FEF734FFC7F8E0000022444946
S315200022E04148FEF72DFFC7F8DC00002241493E4851
S315200022F0FEF726FFC7F8D80000223E493A48FEF7E7
S315200023001FFFC7F8D40000223B493748FEF718FFC5
S31520002310C7F8D000394B1A4639493A48FEF710FF1C
S3152000232007F10800D7F8E430374AC82105F0A0FCA9
S3152000233007F108031A4632493248FEF701FF07F132
S315200023400800D7F8E030314AC82105F091FC07F1A2
S3152000235008031A462A492B48FEF7F2FE07F1080021
S31520002360D7F8DC302A4AC82105F082FC07F1080399
S315200023701A4623492348FEF7E3FE07F10800D7F85B
S31520002380D430244AC82105F073FC07F108031A4605
S315200023901B491C48FEF7D4FE07F10800D7F8D830B1
S315200023A01D4AC82105F064FC07F108031A461449A2
S315200023B01448FEF7C5FE07F10800D7F8D030174AB3
S315200023C0C82105F055FC07F108031A460C490D48AB
S315200023D0FEF7B6FE00E000BF00BF07F58077BD46DA
S315200023E080BD00BF55430020C493002095430020A4
S315200023F015440020D54300202F440020388B002090
S31520002400A3050020F8930020608B0020788B002005
S31520002410888B0020A48B0020BC8B0020D48B00202E
S3152000242080B588B002AF7860396000230093524BA4
S31520002430524A00210020FEF7E5FD0022504951486E
S31520002440FEF77EFE002250495048FEF779FE504B9B
S315200024501A4650494D48FEF773FE4F4B1A464D49D2
S315200024604A48FEF76DFE4D4B1A464A494748FEF745
S3152000247067FE4B4B1A4647494448FEF761FE494BD7
S315200024801A4644494148FEF75BFE474B1A464149E6
S315200024903E48FEF755FE454B1A463E493B48FEF759
S315200024A04FFE434B1A463B493848FEF749FE414BFF
S315200024B01A4638493548FEF743FE3F4B1A463549FA
S315200024C03248FEF73DFE3D4B1A4632492F48FEF76D
S315200024D037FE3B4B1A462F492C48FEF731FE394B27
S315200024E01A462C492948FEF72BFE374B1A4629490E
S315200024F02648FEF725FE304B1A4626492348FEF786
S315200025001FFE324B1A4623492048FEF719FE304B50
S315200025101A4620491D48FEF713FE2E4B1A461D4922
S315200025201A48FEF70DFE2C4B1A461A491748FEF795
S3152000253007FE214B1A4617491448FEF701FE0123D0
S315200025403B7301237B730623BB734823FB736523ED
S315200025503B746C237B746C23BB746F23FB74002346
S315200025603B7507F10C031A461C490648FEF7E8FDA1
S3152000257000BF1837BD4680BDA9410020C493002066
S31520002580C93C002018980020FD040020F893002064
S31520002590E88B0020A3050020FC8B00201C8C00204B
S315200025A0608C0020788C0020B88C0020DC8C0020E9
S315200025B0048D00202C8D0020548D0020988D002025
S315200025C0AC8D0020F08D0020148E0020388E002047
S315200025D0508E0020988E0020BC8E0020D33F0020F5
S315200025E080B500AF002208490848FEF79DFF01226A
S315200025F007490848FEF798FF002207490748FEF7D3
S31520002600F9FF0023184680BD2F060020F8930020EE
S31520002610813D002018980020212400207893002056
S3152000262080B582B000AF78607B683B4A934208D180
S315200026300121102001F0A8F90021102001F0A4F9B1
S3152000264065E07B68354A93420AD101214FF4003078
S3152000265001F07AF900214FF4003001F075F956E0C7
S315200026607B682F4A93420AD101214FF4802001F042
S315200026706BF900214FF4802001F066F947E07B6872
S31520002680284A93420AD101214FF4002001F05CF937
S3152000269000214FF4002001F057F938E07B68224AE8
S315200026A093420AD101214FF4801001F04DF9002107
S315200026B04FF4801001F048F929E07B681B4A9342C9
S315200026C008D10121202001F05FF90021202001F00E
S315200026D05BF91CE07B68164A93420AD101214FF030
S315200026E0804001F031F900214FF0804001F02CF9B3
S315200026F00DE07B680F4A934209D101214FF000403B
S3152000270001F022F900214FF0004001F01DF900BF31
S315200027100837BD4680BD00BF001001400044004080
S3152000272000480040004C004000500040001401408A
S3152000273000780040007C004080B58AB000AF786009
S31520002740396000237B6200233B620023FB61002368
S31520002750BB617B681B8A9BB27B627B6A23F44053F6
S315200027607B623B68DB881A467B6A13437B627B6A03
S315200027709AB27B681A827B689B899BB27B627B6A52
S3152000278023F4B05323F00C037B623B689A883B68A2
S315200027901B8913439AB23B685B8913439BB21A4643
S315200027A07B6A13437B627B6A9AB27B689A817B68D9
S315200027B09B8A9BB27B627B6A23F440737B623B6875
S315200027C09B891A467B6A13437B627B6A9AB27B6833
S315200027D09A8207F10803184600F000FE7B68304A0B
S315200027E0934203D07B682F4A934202D17B693B6296
S315200027F001E03B693B627B689B899BB21BB2002B45
S315200028000CDA3A6A13469B0013449A001A443B6832
S315200028101B685B00B2FBF3F3FB610BE03A6A1346DD
S315200028209B0013449A001A443B681B689B00B2FB2A
S31520002830F3F3FB61FB691C4AA2FB03235B091B0123
S315200028407B627B6A1B09642202FB03F3FA69D31AB3
S31520002850BB617B689B899BB21BB2002B0CDABB69E0
S31520002860DB003233104AA2FB03235B0903F0070384
S315200028707A6A13437B620BE0BB691B0132330A4A37
S31520002880A2FB03235B0903F00F037A6A13437B62DF
S315200028907B6A9AB27B681A8100BF2837BD4680BD05
S315200028A000100140001401401F85EB5180B483B015
S315200028B000AF78607B684FF416521A607B6800225E
S315200028C09A807B680022DA807B6800221A817B68E6
S315200028D00C225A817B6800229A8100BF0C37BD46A4
S315200028E05DF8047B704780B485B000AF78603960AE
S315200028F00023FB607B681B8A9BB2FB60FB6823F48A
S315200029007063FB603B681A883B685B8813439AB206
S315200029103B689B8813439AB23B68DB8813439BB280
S315200029201A46FB681343FB60FB689AB27B681A82DF
S3152000293000BF1437BD465DF8047B704780B483B072
S3152000294000AF78607B6800221A807B6800225A805C
S315200029507B6800229A807B680022DA8000BF0C37D1
S31520002960BD465DF8047B704780B483B000AF7860C5
S315200029700B46FB70FB78002B08D07B689B899BB2AB
S3152000298043F400539AB27B689A8107E07B689B895F
S315200029909BB223F400539AB27B689A8100BF0C370E
S315200029A0BD465DF8047B704780B483B000AF786085
S315200029B00B46FB707B681B8B9BB223F0FF039AB2FE
S315200029C07B681A837B681B8B9AB2FB789BB2134376
S315200029D09AB27B681A8300BF0C37BD465DF8047B2C
S315200029E0704780B483B000AF78600B46FB70FB78ED
S315200029F0002B0AD07B689B899BB26FEA43436FEA20
S31520002A0053439AB27B689A8107E07B689B899BB285
S31520002A10C3F30E039AB27B689A8100BF0C37BD467A
S31520002A205DF8047B704780B483B000AF78600B46B6
S31520002A30FB70FB78002B08D07B689B8A9BB243F403
S31520002A4000639AB27B689A8207E07B689B8A9BB276
S31520002A5023F400639AB27B689A8200BF0C37BD4686
S31520002A605DF8047B704780B483B000AF78600B4676
S31520002A707B807B88C3F308039AB27B689A8000BF69
S31520002A800C37BD465DF8047B704780B483B000AF39
S31520002A9078607B689B889BB2C3F308039BB2184679
S31520002AA00C37BD465DF8047B704780B483B000AF19
S31520002AB078600B46FB707B681B8A9BB223F00F0362
S31520002AC09AB27B681A827B681B8A9AB2FB789BB281
S31520002AD013439AB27B681A8200BF0C37BD465DF855
S31520002AE0047B704780B483B000AF78600B46FB70E0
S31520002AF0FB78002B08D07B689B899BB243F00203AE
S31520002B009AB27B689A8107E07B689B899BB223F007
S31520002B1002039AB27B689A8100BF0C37BD465DF8E6
S31520002B20047B704780B483B000AF78600B467B800F
S31520002B307B689B899BB223F400639AB27B689A8157
S31520002B407B689B899AB27B8813439AB27B689A8169
S31520002B5000BF0C37BD465DF8047B704780B483B058
S31520002B6000AF78600B467B807B681B8A9BB223F084
S31520002B7020039AB27B681A827B681B8A9AB27B886A
S31520002B8013439AB27B681A8200BF0C37BD465DF8A4
S31520002B90047B704780B483B000AF78600B46FB702F
S31520002BA0FB78002B08D07B681B8A9BB243F48043BA
S31520002BB09AB27B681A8207E07B681B8A9BB223F451
S31520002BC080439AB27B681A8200BF0C37BD465DF8F7
S31520002BD0047B704780B483B000AF78607B689B89A4
S31520002BE09BB243F001039AB27B689A8100BF0C37EF
S31520002BF0BD465DF8047B704780B483B000AF786033
S31520002C000B46FB70FB78002B08D07B689B8A9BB217
S31520002C1043F008039AB27B689A8207E07B689B8A16
S31520002C209BB223F008039AB27B689A8200BF0C37C6
S31520002C30BD465DF8047B704780B483B000AF7860F2
S31520002C400B46FB707B681B8B9BB2DBB29AB27B6810
S31520002C501A837B681B8B9AB2FB789BB21B029BB2B2
S31520002C6013439AB27B681A8300BF0C37BD465DF8C2
S31520002C70047B704780B483B000AF78600B46FB704E
S31520002C80FB78002B08D07B689B8A9BB243F02003FD
S31520002C909AB27B689A8207E07B689B8A9BB223F074
S31520002CA020039AB27B689A8200BF0C37BD465DF836
S31520002CB0047B704780B483B000AF78600B46FB700E
S31520002CC0FB78002B08D07B689B8A9BB243F01003CD
S31520002CD09AB27B689A8207E07B689B8A9BB223F034
S31520002CE010039AB27B689A8200BF0C37BD465DF806
S31520002CF0047B704780B483B000AF78600B467B803E
S31520002D007B689B8A9BB223F004039AB27B689A82E3
S31520002D107B689B8A9AB27B8813439AB27B689A8295
S31520002D2000BF0C37BD465DF8047B704780B483B086
S31520002D3000AF78600B46FB70FB78002B08D07B68D1
S31520002D409B8A9BB243F002039AB27B689A8207E081
S31520002D507B689B8A9BB223F002039AB27B689A8295
S31520002D6000BF0C37BD465DF8047B704780B483B046
S31520002D7000AF78600B467B8013467B707B78002BF8
S31520002D8008D07B689B8A9AB27B8813439AB27B6869
S31520002D909A8209E07B689B8A9AB27B88DB439BB246
S31520002DA013409AB27B689A8200BF0C37BD465DF805
S31520002DB0047B704780B487B000AF78600B467B8079
S31520002DC013467B7000233B610023FB600023BB601E
S31520002DD000237B617B687B617B88DBB25B09DBB28E
S31520002DE03B617B8803F01F03FB600122FB6802FA2C
S31520002DF003F3BB603B69012B03D17B690C337B61F9
S31520002E0009E03B69022B03D17B6910337B6102E029
S31520002E107B6914337B617B78002B06D07B6919682C
S31520002E207B69BA680A431A6006E07B691968BB6841
S31520002E30DA437B690A401A6000BF1C37BD465DF83D
S31520002E40047B704780B485B000AF78600B467B80EA
S31520002E500023FB737B681B889AB27B8813409BB246
S31520002E60002B02D00123FB7301E00023FB73FB7BC5
S31520002E7018461437BD465DF8047B704780B483B08E
S31520002E8000AF78600B467B807B88DB439AB27B68F9
S31520002E901A8000BF0C37BD465DF8047B704780B4AE
S31520002EA087B000AF78600B467B800023FB60002351
S31520002EB07B610023BB600023FB747B88DBB25B094C
S31520002EC0DBB2BB607B8803F01F037B6101227B6939
S31520002ED002FA03F37B61BB68012B07D17B689B89D0
S31520002EE09BB21A467B6913407B6111E0BB68022BBB
S31520002EF007D17B681B8A9BB21A467B6913407B618C
S31520002F0006E07B689B8A9BB21A467B6913407B61ED
S31520002F107B881B0A9BB2FB600122FB6802FA03F343
S31520002F20FB607B681B889BB21A46FB681340FB60DC
S31520002F307B69002B05D0FB68002B02D00123FB7494
S31520002F4001E00023FB74FB7C18461C37BD465DF868
S31520002F50047B704780B485B000AF78600B467B80D9
S31520002F600023FB810023BB817B881B0AFB81FB8915
S31520002F70012202FA03F3BB81BB89DB439AB27B6849
S31520002F801A8000BF1437BD465DF8047B704700BF2A
S31520002F9080B400AF164B1B68154A43F0010313603B
S31520002FA0134B00229A60124B1B68114A23F0A85338
S31520002FB023F4102313600E4B0E4A5A600C4B0E4A14
S31520002FC0C3F884200A4B0D4AC3F88820084B1B6897
S31520002FD0074A23F480231360054B0022DA60044B52
S31520002FE00022C3F88C2000BFBD465DF8047B7047E5
S31520002FF00038024010300024003000200030002429
S3152000300080B483B000AF0346FB71064B00221A70D2
S31520003010044AFB79137000BF0C37BD465DF8047B6C
S31520003020704700BF0238024080B582B000AF00234F
S315200030303B600023FB710023BB71312000F08AFD29
S315200030400346BB713B6801333B603B68B3F5A04F39
S3152000305002D0BB79002BF0D0312000F07BFD034657
S31520003060002B02D00123FB7101E00023FB71FB79C9
S3152000307018460837BD4680BD80B485B000AF0346EC
S31520003080FB710023FB600A4B1B68FB60FB6823F087
S31520003090F803FB60FB79DB00FA681343FB60044A04
S315200030A0FB68136000BF1437BD465DF8047B70478C
S315200030B00038024080B483B000AF0346FB71044A57
S315200030C0FB79136000BF0C37BD465DF8047B704763
S315200030D00000474280B483B000AF0346FB710D4B1E
S315200030E000221A700B4B00221A70FB79012B02D09A
S315200030F0042B04D007E0074B01221A7003E0054B8E
S3152000310005221A7000BF00BF0C37BD465DF8047B50
S31520003110704700BF7038024080B483B000AF0346CA
S31520003120FB71044AFB79136000BF0C37BD465DF87E
S31520003130047B7047800E474280B485B000AFF860AC
S31520003140B9607A603B607B689A01BB681A433B682A
S315200031505B08013B1B041A43FB681A43BB691B0629
S31520003160044913434B6000BF1437BD465DF8047B0A
S31520003170704700BF0038024080B483B000AF0346DA
S31520003180FB71044AFB79136000BF0C37BD465DF81E
S31520003190047B70476000474280B483B000AF7860FC
S315200031A039607B689A013B681B0705491343C1F8C0
S315200031B0843000BF0C37BD465DF8047B704700BFE6
S315200031C00038024080B483B000AF0346FB71044A46
S315200031D0FB79136000BF0C37BD465DF8047B704752
S315200031E06800474280B485B000AFF860B9607A6065
S315200031F0FB689A01BB681B061A437B681B070549B7
S315200032001343C1F8883000BF1437BD465DF8047BF0
S31520003210704700BF0038024080B483B000AF034639
S31520003220FB71044AFB79136000BF0C37BD465DF87D
S31520003230047B70477000474280B483B000AF0346DA
S31520003240FB71044AFB79136000BF0C37BD465DF85D
S31520003250047B70474C00474280B485B000AF78604D
S3152000326039600023FB600B4B9B68FB60FB6823F0F7
S31520003270EC63FB607A683B681343FA681343FB6090
S31520003280044AFB68936000BF1437BD465DF8047B93
S31520003290704700BF0038024080B485B000AF786028
S315200032A039600023FB600B4B9B68FB60FB6823F0B7
S315200032B07843FB607A683B681343FA681343FB60E4
S315200032C0044AFB68936000BF1437BD465DF8047B53
S315200032D0704700BF0038024080B485B000AF7860E8
S315200032E00023FB60094B9B68FB60FB6823F003030C
S315200032F0FB60FA687B681343FB60044AFB689360B3
S3152000330000BF1437BD465DF8047B70470038024085
S3152000331080B400AF054B9B68DBB203F00C03DBB235
S315200033201846BD465DF8047B704700BF0038024052
S3152000333080B485B000AF78600023FB60094B9B68A2
S31520003340FB60FB6823F0F003FB60FA687B6813439D
S31520003350FB60044AFB68936000BF1437BD465DF8E6
S31520003360047B70470038024080B485B000AF786097
S315200033700023FB60094B9B68FB60FB6823F4E0534A
S31520003380FB60FA687B681343FB60044AFB68936022
S3152000339000BF1437BD465DF8047B704700380240F5
S315200033A080B485B000AF78600023FB600A4B9B6831
S315200033B0FB60FB6823F46043FB607B68DB00FA68F4
S315200033C01343FB60044AFB68936000BF1437BD4675
S315200033D05DF8047B704700BF0038024080B489B096
S315200033E000AF78600023BB6100237B610023FB6173
S315200033F002233B610023FB600223BB604A4B9B6890
S3152000340003F00C03BB61BB69082B11D0BB69082BE9
S3152000341044D8BB69002B03D0BB69042B04D03DE004
S315200034207B68424A1A603DE07B68414A1A6039E06F
S315200034303D4B5B689B0D03F00103FB603A4B5B68D9
S3152000344003F03F03BB60FB68002B0CD0384ABB68F7
S31520003450B2FBF3F3344A52689209C2F3080202FB24
S3152000346003F3FB610BE0314ABB68B2FBF3F32E4A50
S3152000347052689209C2F3080202FB03F3FB612A4B4E
S315200034805B681B0C03F0030301335B003B61FA69A5
S315200034903B69B2FBF3F27B681A6003E07B68234A40
S315200034A01A6000BF204B9B6803F0F003BB61BB6929
S315200034B01B09BB611F4ABB6913441B78DBB27B61C6
S315200034C07B681A687B69DA407B685A60164B9B6872
S315200034D003F4E053BB61BB699B0ABB61154ABB6918
S315200034E013441B78DBB27B617B685A687B69DA40C0
S315200034F07B689A600C4B9B6803F46043BB61BB6995
S315200035005B0BBB610B4ABB6913441B78DBB27B6147
S315200035107B685A687B69DA407B68DA6000BF2437AB
S31520003520BD465DF8047B7047003802400024F40055
S3152000353000127A00E08E002080B485B000AF78605B
S315200035400023FB607B6803F44073B3F5407F11D101
S315200035500F4B9B68FB60FB6823F4F813FB607B68CA
S3152000356023F0704323F44073FA681343FB60084A40
S31520003570FB689360064B1A6F7B68C3F30B03044901
S3152000358013430B6700BF1437BD465DF8047B7047B5
S315200035900038024080B483B000AF0346FB71044A72
S315200035A0FB79136000BF0C37BD465DF8047B70477E
S315200035B03C0E474280B483B000AF0346FB71044AF9
S315200035C0FB79136000BF0C37BD465DF8047B70475E
S315200035D0400E474280B483B000AF7860044A7B68CF
S315200035E0136000BF0C37BD465DF8047B704700BFF3
S315200035F05C01474280B485B000AF78600023FB6051
S315200036000B4BD3F88C30FB60FB6823F01F03FB6069
S315200036107B68013BFA681343FB60054AFB68C2F8E6
S315200036208C3000BF1437BD465DF8047B704700BF61
S315200036300038024080B485B000AF78600023FB607C
S315200036400B4BD3F88C30FB60FB6823F4F853FB60FC
S315200036507B68013B1B02FA681343FB60044AFB6844
S31520003660C2F88C3000BF1437BD465DF8047B704726
S315200036700038024080B485B000AF78600023FB603C
S315200036800A4BD3F88C30FB60FB6823F44013FB60B5
S31520003690FA687B681343FB60044AFB68C2F88C30E7
S315200036A000BF1437BD465DF8047B704700380240E2
S315200036B080B485B000AF78600023FB600A4BD3F856
S315200036C08C30FB60FB6823F44003FB60FA687B6860
S315200036D01343FB60044AFB68C2F88C3000BF1437E2
S315200036E0BD465DF8047B70470038024080B485B043
S315200036F000AF78600023FB600A4BD3F88C30FB6068
S31520003700FB6823F44033FB60FA687B681343FB6055
S31520003710044AFB68C2F88C3000BF1437BD465DF8FA
S31520003720047B70470038024080B483B000AF7860D5
S31520003730044A7B68136000BF0C37BD465DF8047BE6
S31520003740704700BFE011474280B483B000AF786075
S315200037500B46FB70FB78002B06D00A4B1A6B0949E7
S315200037607B6813430B6306E0064B1A6B7B68DB43CF
S31520003770044913400B6300BF0C37BD465DF8047B3C
S31520003780704700BF0038024080B483B000AF786035
S315200037900B46FB70FB78002B06D00A4B5A6B094967
S315200037A07B6813434B6306E0064B5A6B7B68DB430F
S315200037B0044913404B6300BF0C37BD465DF8047BBC
S315200037C0704700BF0038024080B483B000AF7860F5
S315200037D00B46FB70FB78002B06D00A4B9A6B0949E7
S315200037E07B6813438B6306E0064B9A6B7B68DB434F
S315200037F0044913408B6300BF0C37BD465DF8047B3C
S31520003800704700BF0038024080B483B000AF7860B4
S315200038100B46FB70FB78002B06D00A4B1A6C094925
S315200038207B6813430B6406E0064B1A6C7B68DB430C
S31520003830044913400B6400BF0C37BD465DF8047B7A
S31520003840704700BF0038024080B483B000AF786074
S315200038500B46FB70FB78002B06D00A4B5A6C0949A5
S315200038607B6813434B6406E0064B5A6C7B68DB434C
S31520003870044913404B6400BF0C37BD465DF8047BFA
S31520003880704700BF0038024080B483B000AF786034
S315200038900B46FB70FB78002B06D00A4B1A690949A8
S315200038A07B6813430B6106E0064B1A697B68DB4392
S315200038B0044913400B6100BF0C37BD465DF8047BFD
S315200038C0704700BF0038024080B483B000AF7860F4
S315200038D00B46FB70FB78002B06D00A4B5A69094928
S315200038E07B6813434B6106E0064B5A697B68DB43D2
S315200038F0044913404B6100BF0C37BD465DF8047B7D
S31520003900704700BF0038024080B483B000AF7860B3
S315200039100B46FB70FB78002B06D00A4B9A690949A7
S315200039207B6813438B6106E0064B9A697B68DB4311
S31520003930044913408B6100BF0C37BD465DF8047BFC
S31520003940704700BF0038024080B483B000AF786073
S315200039500B46FB70FB78002B06D00A4B1A6A0949E6
S315200039607B6813430B6206E0064B1A6A7B68DB43CF
S31520003970044913400B6200BF0C37BD465DF8047B3B
S31520003980704700BF0038024080B483B000AF786033
S315200039900B46FB70FB78002B06D00A4B5A6A094966
S315200039A07B6813434B6206E0064B5A6A7B68DB430F
S315200039B0044913404B6200BF0C37BD465DF8047BBB
S315200039C0704700BF0038024080B483B000AF7860F3
S315200039D00B46FB70FB78002B06D00A4B1A6D094963
S315200039E07B6813430B6506E0064B1A6D7B68DB4349
S315200039F0044913400B6500BF0C37BD465DF8047BB8
S31520003A00704700BF0038024080B483B000AF7860B2
S31520003A100B46FB70FB78002B06D00A4B5A6D0949E2
S31520003A207B6813434B6506E0064B5A6D7B68DB4388
S31520003A30044913404B6500BF0C37BD465DF8047B37
S31520003A40704700BF0038024080B483B000AF786072
S31520003A500B46FB70FB78002B06D00A4B9A6D094962
S31520003A607B6813438B6506E0064B9A6D7B68DB43C8
S31520003A70044913408B6500BF0C37BD465DF8047BB7
S31520003A80704700BF0038024080B483B000AF786032
S31520003A900B46FB70FB78002B06D00A4B1A6E0949A1
S31520003AA07B6813430B6606E0064B1A6E7B68DB4386
S31520003AB0044913400B6600BF0C37BD465DF8047BF6
S31520003AC0704700BF0038024080B483B000AF7860F2
S31520003AD00B46FB70FB78002B06D00A4B5A6E094921
S31520003AE07B6813434B6606E0064B5A6E7B68DB43C6
S31520003AF0044913404B6600BF0C37BD465DF8047B76
S31520003B00704700BF0038024080B483B000AF034640
S31520003B100A46FB711346BB71BB79002B08D00C4BB0
S31520003B201B78DAB20A49FB791343DBB20B7009E042
S31520003B30074B1B78DAB2FB79DB43DBB2044913402F
S31520003B40DBB20B7000BF0C37BD465DF8047B7047B7
S31520003B500D38024080B487B000AF0346FB710023C6
S31520003B60FB6000237B610023FB74FB795B09DBB2DE
S31520003B70FB60FB68012B03D1124B1B687B6109E0BC
S31520003B80FB68022B03D10F4B1B6F7B6102E00D4BB1
S31520003B905B6F7B61FB7903F01F03FB607A69FB682F
S31520003BA022FA03F303F00103002B02D00123FB7456
S31520003BB001E00023FB74FB7C18461C37BD465DF8EC
S31520003BC0047B70470038024080B400AF054B5B6F22
S31520003BD0044A43F08073536700BFBD465DF8047BFB
S31520003BE0704700BF0038024080B485B000AF03465E
S31520003BF0FB710023FB73094BDA68FB791340002B1A
S31520003C0002D00123FB7301E00023FB73FB7B1846E4
S31520003C101437BD465DF8047B704700BF003802406C
S31520003C2080B483B000AF0346FB71044AFB7913705E
S31520003C3000BF0C37BD465DF8047B70470E38024046
S31520003C4080B483B000AF0346FB71FB7903F01F03FA
S31520003C50012202FA03F1064A97F907305B0942F876
S31520003C60231000BF0C37BD465DF8047B704700BFAC
S31520003C7000E100E080B483B000AF03463960FB71F9
S31520003C8097F90730002B0BDA3B68DAB20C49FB793F
S31520003C9003F00F03043B1201D2B20B441A7609E05B
S31520003CA03B68DAB2074997F907301201D2B20B44C2
S31520003CB083F8002300BF0C37BD465DF8047B7047B0
S31520003CC000ED00E000E100E080B586B000AF78604E
S31520003CD039607B6800229A617B689A697B685A61A1
S31520003CE07B685A697B68DA6107F10C03184600F095
S31520003CF075FD0023BB740023FB7400233B75002352
S31520003D007B750023BB750023FB750023BB73002343
S31520003D10FB7302233B7403237B740723BB8107F1C8
S31520003D200C031946124800F0C5FB0346002B02D1AE
S31520003D301048FCF72DFD07F10C0319460E4800F03C
S31520003D40B9FB0346002B02D10C48FCF721FD0221CA
S31520003D501420FFF78FFF1420FFF772FF01220221A4
S31520003D60034801F079F900BF1837BD4680BD00BF72
S31520003D7000640040F08E002000680040088F00207C
S31520003D80B0B58AB002AF786039607B689B685A49C3
S31520003D90184601F07FF90346012B02D05748FCF75D
S31520003DA0F7FC7B68DB69072B00F39E807B689B68AA
S31520003DB007F108020021184600F054FFBB681B09D2
S31520003DC0DBB27A68526903F07F03D8B2796813466A
S31520003DD09B0013445B0013440B44203302461A70A5
S31520003DE0BB68DBB27A68526903F00F03D8B27968F0
S31520003DF013469B0013445B0013440B4421330246B5
S31520003E001A70BB7C7A68526903F00F03D8B27968BE
S31520003E1013469B0013445B0013440B442233024693
S31520003E201A700023FB7715E0FB7F7A685269F97FC9
S31520003E3020333B4413F80D4C786813469B001344FB
S31520003E405B00134403440B44233322461A70FB7F42
S31520003E500133FB777B685A69796813469B001344C4
S31520003E605B0013440B4422331B78FA7F9A42DBD340
S31520003E707B68DB68002B25D07B68DC687B681D6946
S31520003E807B685A69796813469B0013445B00134488
S31520003E900B4420331B7819017B685A6978681346CE
S31520003EA09B0013445B001344034421331B780B44CB
S31520003EB000932B46224600210020FDF7A3F8104B45
S31520003EC001221A607B685B6901335A4203F00703BB
S31520003ED002F0070258BF53427A6853617B68DB6958
S31520003EE05A1C7B68DA6102E00648FCF751FC00BFE9
S31520003EF02037BD46B0BD00BF03000012208F002032
S31520003F00281C0120488F002090B484B000AF786030
S31520003F1039607B68DB69002B55DD7B689A69796897
S31520003F2013469B0013445B0013440B4420331A783A
S31520003F303B681A707B689A69796813469B0013441C
S31520003F405B0013440B4421331A783B685A707B6814
S31520003F509A69796813469B0013445B0013440B440B
S31520003F6022331A783B689A700023FB7313E07B6830
S31520003F709A69F87BF97B7C6813469B0013445B00A7
S31520003F8013442344034423331A783B680B44DA70E2
S31520003F90FB7B0133FB733B689B78FA7B9A42E6D323
S31520003FA07B689B6901335A4203F0070302F007023C
S31520003FB058BF53427A6893617B68DB695A1E7B68D7
S31520003FC0DA61002300E0012318461037BD4690BC75
S31520003FD0704780B58AB000AF786039607B689B688F
S31520003FE03B620023FB773B681B781B013A685278BB
S31520003FF01344BB6000237B7400233B743B689B788F
S31520004000082B02D93B6808229A703B689B78BB74C0
S31520004010002387F827300FE097F8272097F82730D6
S3152000402039680A44D27828333B4403F8152C97F88C
S315200040302730013387F827303B689B7897F827206D
S315200040409A42E9D307F108031946386A00F08AFC38
S315200040500346FB77FB7F042B04D10548FCF798FB2E
S31520004060012300E0002318462837BD4680BD00BF47
S31520004070688F002080B483B000AF786039607B6899
S315200040801B7A18460C37BD465DF8047B704780B412
S3152000409083B000AF786039603B68002B08DD3B6851
S315200040A0142B05DC3B68DAB27B681A723B6805E0A4
S315200040B07B681A7A7B681A724FF0FF3318460C37E2
S315200040C0BD465DF8047B704780B483B000AF78604E
S315200040D039607B681B7A002B04D17B685A7A7B680F
S315200040E01A7206E07B681A7A7B685A727B6800220D
S315200040F01A727B681B7A18460C37BD465DF8047B1E
S31520004100704780B483B000AF786039607B689B7A53
S3152000411018460C37BD465DF8047B704780B483B0E3
S3152000412000AF786039603B683B2B08DD3B68F02B9D
S3152000413005DC3B68DAB27B689A723B6805E07B68EF
S315200041409A7A7B689A724FF0FF3318460C37BD4631
S315200041505DF8047B704780B483B000AF7860396027
S315200041607B68DB6818460C37BD465DF8047B7047D4
S3152000417080B483B000AF786039603B6813F1050FD7
S3152000418007DB3B68052B04DC7B683A68DA603B6812
S3152000419004E07B68DA687B68DA60062318460C3709
S315200041A0BD465DF8047B704780B588B002AF786065
S315200041B0396000237B617B68DB6803F10A02394999
S315200041C07B6951F8233013443B61374A3B69DB0056
S315200041D013445A687B681A61344A7B6952F8233043
S315200041E07A68927A02FB03F3DA0F13445B10FB60C2
S315200041F02F4AFB6892FBF3F3BB60BB682D4A82FB18
S3152000420003129210DB17D21A7B685A617B68183327
S315200042101846FDF793F802467B685B699A4214DAE2
S315200042207B681B69234A82FB03129210DB17D01A84
S315200042303B68002B0CBF01230023DBB200931E4BEF
S315200042407A680021FCF7DEFE0EE07B681B69194ABE
S3152000425082FB03129210DB17D01A00230093164B11
S315200042607A680021FCF7CEFE0021786800F02AF853
S315200042703B68002B03D1114B00221A6004E07B68B7
S315200042801B7A1A460D4B1A600C4B1A680C4BD2B28D
S315200042901A700021786800F023F800BF1837BD4651
S315200042A080BD00BF7C8F00207C900020FC8F0020EA
S315200042B00087930367666666A9410020501C01208B
S315200042C01C74004080B582B000AF78603960FDF77D
S315200042D055F802467B68DA6100BF0837BD4680BDC7
S315200042E080B584B000AF78603960FDF747F80246A4
S315200042F07B681A627B681A6A7B68DB69D31AFB6063
S315200043007B689A6AFB681A447B689A627B681B6B97
S31520004310FA689A4202DD7B68FA681A637B681B6B2F
S315200043200A4A82FB03125113DA178A1A084901FB3B
S3152000433002F29A1A13469B0013445B001A467B68C6
S315200043401A6300BF1037BD4680BD00BF89B5F8147B
S31520004350A086010080B483B000AF786039607B68A6
S31520004360DB690A4A82FB03125113DA178A1A0849B3
S3152000437001FB02F29A1A13469B0013445B0018466F
S315200043800C37BD465DF8047B704700BF89B5F8142D
S31520004390A086010080B483B000AF786039607B6866
S315200043A01B6A0A4A82FB03125113DA178A1A084932
S315200043B001FB02F29A1A13469B0013445B0018462F
S315200043C00C37BD465DF8047B704700BF89B5F814ED
S315200043D0A086010080B483B000AF786039607B6826
S315200043E09B6A0A4A82FB03125113DA178A1A084972
S315200043F001FB02F29A1A13469B0013445B001846EF
S315200044000C37BD465DF8047B704700BF89B5F814AC
S31520004410A086010080B483B000AF786039607B68E5
S315200044201B6B18460C37BD465DF8047B704780B47D
S3152000443083B000AF786039607B685B69094A82FB8C
S3152000444003125113DA178A1A074901FB02F29A1A44
S3152000445013469B0013445B0018460C37BD465DF897
S31520004460047B704789B5F814A086010080B582B018
S3152000447000AF78607B680E4A93420AD101214FF043
S315200044800070FFF761FA00214FF00070FFF75CFA29
S3152000449009E001214FF08060FFF756FA00214FF026
S315200044A08060FFF751FA00BF0837BD4680BD00BFC8
S315200044B00064004080B485B000AF78603960002386
S315200044C0FB730023BB607B681B6823F002027B68BA
S315200044D01A607B681B6843F001027B681A6002E061
S315200044E0BB680133BB607B685B6803F00103012B6B
S315200044F004D0BB684FF6FF729342F1D17B685B68AC
S3152000450003F00103012B02D00023FB739CE03B68E0
S315200045109B79012B06D17B681B6843F080027B6860
S315200045201A6005E07B681B6823F080027B681A60AE
S315200045303B68DB79012B06D17B681B6843F0400280
S315200045407B681A6005E07B681B6823F040027B6865
S315200045501A603B681B7A012B06D17B681B6843F0E7
S3152000456020027B681A6005E07B681B6823F0200226
S315200045707B681A603B685B7A012B06D17B681B68D7
S3152000458043F010027B681A6005E07B681B6823F005
S3152000459010027B681A603B689B7A012B06D17B68E8
S315200045A01B6843F008027B681A6005E07B681B687D
S315200045B023F008027B681A603B68DB7A012B06D160
S315200045C07B681B6843F004027B681A6005E07B6801
S315200045D01B6823F004027B681A603B689B789A0765
S315200045E03B68DB781B061A433B681B791B041A437E
S315200045F03B685B791B051A433B681B88013B1A43C2
S315200046007B68DA617B681B6823F001027B681A608D
S315200046100023BB6002E0BB680133BB607B685B683C
S3152000462003F00103012B04D1BB684FF6FF729342BE
S31520004630F1D17B685B6803F00103012B02D10023D3
S31520004640FB7301E00123FB73FB7B18461437BD4641
S315200046505DF8047B704790B484B000AF7860002387
S31520004660FB607B689B7A1A4601239340FB605A4B7A
S31520004670D3F80032584A43F00103C2F80032564BB1
S31520004680D3F81C22FB68DB4353491340C1F81C3284
S315200046907B681B7B002B29D14F4BD3F80C22FB6860
S315200046A0DB434D491340C1F80C327B68DB881B0481
S315200046B07A685288144648497A68927A104643EABC
S315200046C0040200F1480341F833207B689B881B04D1
S315200046D07A681288144640497A68927A104643EAE4
S315200046E0040200F14803DB000B445A607B681B7B05
S315200046F0012B28D1384BD3F80C223749FB681343BA
S31520004700C1F80C327B681B881B047A6852881446D1
S3152000471031497A68927A104643EA040200F1480346
S3152000472041F833207B689B881B047A68D28814461C
S3152000473029497A68927A104643EA040200F148032E
S31520004740DB000B445A607B68DB7A002B09D1224BB5
S31520004750D3F80422FB68DB431F491340C1F8043217
S3152000476007E01D4BD3F804221B49FB681343C1F80D
S3152000477004327B681B89002B08D1174BD3F81422EF
S31520004780FB68DB4314491340C1F814327B681B894C
S31520004790012B07D1104BD3F814220F49FB68134382
S315200047A0C1F814327B685B7B012B07D10A4BD3F807
S315200047B01C220949FB681343C1F81C32064BD3F867
S315200047C00032054A23F00103C2F8003200BF103739
S315200047D0BD4690BC704700BF0064004080B483B0E3
S315200047E000AF78607B6800229A717B680022DA71BC
S315200047F07B6800221A727B6800225A727B6800222C
S315200048009A727B680022DA727B6800229A707B6833
S315200048100022DA707B6803221A717B6802225A71A1
S315200048207B6801221A8000BF0C37BD465DF8047BE9
S31520004830704780B483B000AF0346FB71144BD3F8A6
S315200048400032134A43F00103C2F80032104BD3F86A
S3152000485000320F4A23F47C5323F00E03C2F80032B1
S315200048600B4BD3F80022FB791B0209491343C1F8ED
S315200048700032074BD3F80032054A23F00103C2F871
S31520004880003200BF0C37BD465DF8047B704700BF81
S315200048900064004080B483B000AF78600B46FB70A4
S315200048A0FB78002B06D07B681B6843F480327B683C
S315200048B01A6005E07B681B6823F480327B681A60E7
S315200048C000BF0C37BD465DF8047B704780B483B0CB
S315200048D000AF78600B46FB70FB78002B1ED07B6800
S315200048E01B6843F080027B681A607B68D3F88431AA
S315200048F043F480727B68C3F884217B68D3F89431B3
S3152000490043F480727B68C3F894217B68D3F8A43182
S3152000491043F480727B68C3F8A4211DE07B681B6882
S3152000492023F080027B681A607B68D3F8843123F4F5
S3152000493080727B68C3F884217B68D3F8943123F492
S3152000494080727B68C3F894217B68D3F8A43123F462
S3152000495080727B68C3F8A42100BF0C37BD465DF882
S31520004960047B704780B485B000AF7860396000233F
S31520004970FB737B689B6803F08063B3F1806F02D181
S315200049800023FB7315E07B689B6803F00063B3F19B
S31520004990006F02D10123FB730BE07B689B6803F059
S315200049A08053B3F1805F02D10223FB7301E004231D
S315200049B0FB73FB7B042B00F09F80FB7B7A6818330C
S315200049C01B0113441A68FB7B02F001027968183335
S315200049D01B010B441A603B681B7A002B13D1FB7B0F
S315200049E07A6818331B01134419683B681B685B05FA
S315200049F03A68527A1A43FB7B0A43796818331B01BB
S31520004A000B441A6015E0FB7B7A6818331B011344AC
S31520004A1019683B685B68DB003A68127A13433A6888
S31520004A20527A1A43FB7B0A43796818331B010B44DD
S31520004A301A603B689B7A03F00F03DAB23B689A72DE
S31520004A40FB7B7A6818331B01134404331A68FB7BFB
S31520004A5022F00F02796818331B010B4404331A60C5
S31520004A60FB7B7A6818331B01134404331A683B68AE
S31520004A709B7A1946FB7B0A43796818331B010B4442
S31520004A8004331A603B689B7B1A063B685B7B1B04DE
S31520004A901A433B681B7B1B021A433B68DB7A194689
S31520004AA0FB7B0A4379681B010B4403F5C4731A6028
S31520004AB03B689B7C1A063B685B7C1B041A433B685D
S31520004AC01B7C1B021A433B68DB7B1946FB7B0A4394
S31520004AD079681B010B4403F5C6731A60FB7B7A6861
S31520004AE018331B0113441A68FB7B42F001027968D4
S31520004AF018331B010B441A60FB7B18461437BD463E
S31520004B005DF8047B704780B485B000AF78600B46B3
S31520004B10FB700023FB60FB78022B12D0022B16DCE5
S31520004B20002B02D0012B06D011E07B689A68314B0E
S31520004B301340FB600EE07B689A682F4B1340FB60A6
S31520004B4008E07B689A682D4B1340FB6002E0002347
S31520004B50FB6000BFFB68294A93423DD0FB68274A89
S31520004B6093423CD8FB68264A93422CD0FB68244AC1
S31520004B70934234D8FB68204A93422AD0FB681E4AC7
S31520004B8093422CD8FB681F4A934219D0FB681D4AD2
S31520004B90934224D8FB68174A934217D0FB68154ADC
S31520004BA093421CD8FB68002B04D0FB68164A93421C
S31520004BB003D014E00223FB6014E00023FB6011E025
S31520004BC00023FB600EE00023FB600BE00123FB606B
S31520004BD008E00123FB6005E00123FB6002E00023DF
S31520004BE0FB6000BFFB68DBB218461437BD465DF894
S31520004BF0047B704703000004000300080000031034
S31520004C0000000110000100080100000480B483B0F8
S31520004C1000AF78600B46FB70FB78022B14D0022B7A
S31520004C2019DC002B02D0012B07D014E07B689B688F
S31520004C3043F080027B689A600EE07B689B6843F4B1
S31520004C4000427B689A6007E07B689B6843F4000219
S31520004C507B689A6000E000BF00BF0C37BD465DF858
S31520004C60047B704780B485B000AFF8600B467A604D
S31520004C70FB72FB7AFA681B331B0113441B68DBB2F9
S31520004C8003F00403DAB27B681A727B681B7A002B66
S31520004C900BD1FB7AFA681B331B0113441B685B0D8F
S31520004CA0C3F30A027B681A600AE0FB7AFA681B33B0
S31520004CB01B0113441B68DB0823F060427B685A60A3
S31520004CC0FB7AFA681B331B0113441B68DBB203F023
S31520004CD00203DAB27B685A72FB7AFA681B331B012D
S31520004CE0134404331B68DBB203F00F03DAB27B688C
S31520004CF09A72FB7AFA681B331B01134404331B6830
S31520004D001B0ADAB27B68DA74FB7AFA681B01134451
S31520004D1003F5DC731B68DAB27B68DA72FB7AFA6811
S31520004D201B01134403F5DC731B681B0ADAB27B688C
S31520004D301A73FB7AFA681B01134403F5DC731B68AC
S31520004D401B0CDAB27B685A73FB7AFA681B01134490
S31520004D5003F5DC731B681B0EDAB27B689A73FB7A49
S31520004D60FA681B01134403F5DE731B68DAB27B680D
S31520004D70DA73FB7AFA681B01134403F5DE731B68AA
S31520004D801B0ADAB27B681A74FB7AFA681B01134491
S31520004D9003F5DE731B681B0CDAB27B685A74FB7A48
S31520004DA0FA681B01134403F5DE731B681B0EDAB287
S31520004DB07B689A74FB7A002B06D1FB68DB6843F08C
S31520004DC02002FB68DA6005E0FB681B6943F02002DD
S31520004DD0FB681A6100BF1437BD465DF8047B704737
S31520004DE080B483B000AF78600B46FB70FB78002B55
S31520004DF006D17B68DB6843F020027B68DA6005E039
S31520004E007B681B6943F020027B681A6100BF0C3760
S31520004E10BD465DF8047B704780B485B000AF7860EE
S31520004E200B46FB700023FB73FB78002B06D17B68B7
S31520004E30DB68DBB203F00303FB730BE0FB78012B8B
S31520004E4006D17B681B69DBB203F00303FB7301E029
S31520004E500023FB73FB7B18461437BD465DF8047BA5
S31520004E60704780B485B000AF78600B46FB70002396
S31520004E70FB734FF6FF73BB60FB78002B20D17B685A
S31520004E801B6823F0030343F001027B681A6002E0EB
S31520004E90BB68013BBB607B685B6803F00303012BA7
S31520004EA002D0BB68002BF3D17B685B6803F0030359
S31520004EB0012B02D00023FB734AE00123FB7347E05A
S31520004EC0FB78012B1ED17B681B6823F003027B68CD
S31520004ED01A6002E0BB68013BBB607B685B6803F03D
S31520004EE00303002B02D0BB68002BF3D17B685B68E1
S31520004EF003F00303002B02D00023FB7328E00123D9
S31520004F00FB7325E0FB78022B20D17B681B6823F0FE
S31520004F10030343F002027B681A6002E0BB68013B90
S31520004F20BB607B685B6803F00303022B02D0BB687F
S31520004F30002BF3D17B685B6803F00303022B02D0BE
S31520004F400023FB7304E00123FB7301E00023FB73C2
S31520004F50FB7B18461437BD465DF8047B704780B44A
S31520004F6085B000AF78600023FB737B681B6823F055
S31520004F70030343F002027B681A607B685B6803F0D8
S31520004F800303022B01D10123FB73FB7B1846143745
S31520004F90BD465DF8047B704780B485B000AF78606D
S31520004FA04FF6FF73FB600023FB727B681B6823F0C0
S31520004FB002027B681A6002E0FB68013BFB607B68AB
S31520004FC05B6803F00203022B02D1FB68002BF3D1AE
S31520004FD07B685B6803F00203022B01D00123FB727E
S31520004FE0FB7A18461437BD465DF8047B704780B4BB
S31520004FF085B000AF78600023FB737B689B69DBB2CA
S3152000500003F07003FB73FB7B18461437BD465DF82F
S31520005010047B704780B485B000AF78600023FB73B3
S315200050207B689B691B0EFB73FB7B18461437BD46BA
S315200050305DF8047B704780B485B000AF78600023AC
S31520005040FB737B689B691B0CFB73FB7B1846143731
S31520005050BD465DF8047B704780B485B000AFF8602C
S31520005060B9601346FB71FB79002B06D0FB685A69A1
S31520005070BB681A43FB685A6106E0FB685A69BB683D
S31520005080DB431A40FB685A6100BF1437BD465DF802
S31520005090047B704780B485B000AF78603960002308
S315200050A0FB733B6803F47003002B0DD07B689A6971
S315200050B03B681340C3F31303002B02D00123FB7379
S315200050C048E00023FB7345E03B6803F08073002B28
S315200050D00DD07B685A683B681340C3F31303002B3B
S315200050E002D00123FB7335E00023FB7332E03B68DB
S315200050F003F00063002B0DD07B689A683B68134051
S31520005100C3F31303002B02D00123FB7322E00023F9
S31520005110FB731FE03B6803F00073002B0DD07B6808
S31520005120DA683B681340C3F31303002B02D0012334
S31520005130FB730FE00023FB730CE07B681A693B6866
S315200051401340C3F31303002B02D00123FB7301E0AA
S315200051500023FB73FB7B18461437BD465DF8047BA2
S31520005160704780B485B000AF786039600023FB605B
S315200051703B68174A934203D17B6800229A6121E05B
S315200051803B68C3F31303FB603B6803F00073002BFB
S3152000519003D07B68FA68DA6014E03B6803F080632A
S315200051A0002B03D07B68FA681A610BE03B6803F09A
S315200051B00063002B03D07B68FA689A6002E07B6864
S315200051C0FA685A6000BF1437BD465DF8047B704705
S315200051D07000F03080B584B000AF7860396000236D
S315200051E0FB737B685A693B681340002B00F01B81D8
S315200051F03B68B3F5003F00F0DD803B68B3F5003F28
S3152000520000F20E813B68B3F5803F00F0CA803B6810
S31520005210B3F5803F00F204813B68B3F5004F00F000
S31520005220F6803B68B3F5004F00F2FA803B68B3F591
S31520005230006F00F0E3803B68B3F5006F00F2F0806A
S315200052403B68B3F5806F00F0D0803B68B3F5806F84
S3152000525000F2E6803B68B3F5007F00F0BD803B6836
S31520005260B3F5007F00F2DC803B68B3F5807F00F069
S31520005270AA803B68B3F5807F00F2D2803B68202B62
S315200052804CD83B68002B00F0CB803B68013B1F2BA2
S3152000529000F2C68001A252F823F000BF2553002059
S315200052A03753002021540020495300202154002048
S315200052B021540020215400205B530020215400203B
S315200052C02154002021540020215400202154002064
S315200052D021540020215400206D5300202154002009
S315200052E02154002021540020215400202154002044
S315200052F02154002021540020215400202154002034
S315200053002154002021540020215400202154002023
S3152000531021540020215400207F5300203B68402B3D
S3152000532036D07DE07B689B684249184600F060F9DC
S315200053300346FB7379E07B68DB680321184600F09F
S3152000534057F90346FB7370E07B68DB680821184633
S3152000535000F04EF90346FB7367E07B68DB6810219B
S31520005360184600F045F90346FB735EE07B681B692F
S315200053700321184600F03CF90346FB7355E07B6891
S315200053801B690821184600F033F90346FB734CE0ED
S315200053907B681B691021184600F02AF90346FB7327
S315200053A043E07B685B680821184600F021F9034634
S315200053B0FB733AE07B685B681021184600F018F909
S315200053C00346FB7331E07B689B690121184600F098
S315200053D00FF90346FB7328E07B689B690221184678
S315200053E000F006F90346FB731FE07B689B690421E6
S315200053F0184600F0FDF80346FB7316E07B689B69B0
S315200054007021184600F0F4F80346FB730DE07B6824
S315200054105B680421184600F0EBF80346FB7304E0B2
S315200054200023FB7301E00023FB73FB7B1846103738
S31520005430BD4680BD0101010080B483B000AF786015
S3152000544039603B68B3F5003F00F0AA803B68B3F5AE
S31520005450003F00F2C3803B68B3F5803F00F09C809C
S315200054603B68B3F5803F00F2B9803B68B3F5004F47
S3152000547000F0AD803B68B3F5004F00F2AF803B688B
S31520005480B3F5006F00F09C803B68B3F5006F00F227
S31520005490A5803B68B3F5806F00F08E803B68B3F53E
S315200054A0806F00F29B803B68B3F5007F00F0808020
S315200054B03B68B3F5007F00F291803B68B3F5807FAF
S315200054C072D03B68B3F5807F00F288803B68202B42
S315200054D04AD83B68002B00F081803B68013B1F2B9C
S315200054E07CD801A252F823F071550020DD5500200A
S315200054F0DD55002079550020DD550020DD550020A2
