S01600002E2F44656275672F5254532D4C61622E73313936
S3152000000000BFDFF814D001F0A0FC03F08FFA01F056
S31520000010AEBCFEE700BF000000C0012080B500AFE7
S3152000002001214FF4804002F0CBFA00214FF48040AA
S3152000003002F0C6FA00BF80BD80B483B000AF03468D
S31520000040FB71044AFB79136000BF0C37BD465DF88F
S31520000050047B70470038014080B483B000AF03466C
S31520000060FB71044AFB79136000BF0C37BD465DF86F
S31520000070047B70472000274280B485B000AF03463A
S315200000800A46FB711346BB710023FB60BB7903F064
S3152000009003039B000F2202FA03F3FB60164ABB7987
S315200000A09B08DBB2023352F82320FB68DB4312485D
S315200000B0B9798908C9B21A408B1C40F823200E4A08
S315200000C0BB799B08DBB2023352F82320F979BB793E
S315200000D003F003039B0001FA03F30748B979890863
S315200000E0C9B21A438B1C40F8232000BF1437BD46E3
S315200000F05DF8047B704700BF0038014080B483B0B0
S3152000010000AF7860044A7B68136000BF0C37BD4699
S315200001105DF8047B704700BFDC00274280B483B0C3
S3152000012000AF0346FB71044AFB79136000BF0C370E
S31520000130BD465DF8047B70470004274280B483B037
S3152000014000AF0023FB71094B1B6A03F48073002B5D
S3152000015002D00123FB7101E00023FB71FB791846D5
S315200001600C37BD465DF8047B704700BF0038014060
S3152000017080B400AF094B00221A60084B00225A6057
S31520000180064B00229A60054B0022DA60034B044A94
S315200001905A6100BFBD465DF8047B7047003C0140B4
S315200001A0FFFF7F0080B485B000AF78600023FB603E
S315200001B0344BFB607B689B79002B4FD0314B1A6800
S315200001C07B681B68DB432F4913400B602D4B5A6815
S315200001D07B681B68DB432B4913404B607B681B798C
S315200001E01A46FB681344FB60FB6819687B681A682B
S315200001F0FB680A431A60234B9A687B681B68DB43BB
S31520000200204913408B601F4BDA687B681B68DB43F1
S315200002101C491340CB607B685B79102B0ED1194BA0
S315200002209A687B681B68174913438B60154BDA68FD
S315200002307B681B6813491343CB601DE0114BFB60A1
S315200002407B685B791A46FB681344FB60FB68196878
S315200002507B681A68FB680A431A600DE07B681B7985
S315200002601A46FB681344FB60FB6819687B681B68A9
S31520000270DA43FB680A401A6000BF1437BD465DF8B2
S31520000280047B7047003C014080B483B000AF7860A7
S315200002907B6800221A607B6800221A717B680C2218
S315200002A05A717B6800229A7100BF0C37BD465DF8F3
S315200002B0047B704780B483B000AF7860054B1A6921
S315200002C004497B6813430B6100BF0C37BD465DF8BC
S315200002D0047B7047003C014080B485B000AF786055
S315200002E00023FB73084B5A697B681340002B02D00E
S315200002F00123FB7301E00023FB73FB7B18461437B5
S31520000300BD465DF8047B7047003C014080B483B055
S3152000031000AF7860044A7B68536100BF0C37BD4646
S315200003205DF8047B704700BF003C014080B485B077
S3152000033000AF78600023FB73084B5A697B68134033
S31520000340002B02D00123FB7301E00023FB73FB7B10
S3152000035018461437BD465DF8047B7047003C0140C3
S3152000036080B483B000AF7860044A7B68536100BFD5
S315200003700C37BD465DF8047B704700BF003C01404A
S31520000380314900E03149EFF3088020ED108A7246AA
S31520000390EFF3118320E9FC0F2D4FD7F80080C8F822
S315200003A000001EE0084600F0F3F92A4800F0F0F9B4
S315200003B0294800F0EDF9D8F8040000F035FA27486E
S315200003C000F0E6F9D8F8000000F0FFF9244800F024
S315200003D0DFF9D8F80000006800F0F7F91D4800F0B2
S315200003E0D7F9DFF88080D8F80080C7F8008018E0B9
S315200003F01D4800F0CDF9D8F8040000F015FA1B4886
S3152000040000F0C6F9D8F8000000F0DFF9144800F033
S31520000410BFF9D8F80000006800F0D7F90D4800F0C1
S31520000420B7F9134A536843F00063536000BFD8F806
S315200004300000B0E8FC0F83F311889646B0EC108AD2
S3152000044080F308887047000074930020859300206D
S3152000045018940020F5930020A6930020BE93002038
S31520000460C6930020DC1C0120CF930020E4930020BB
S3152000047000ED00E080B483B000AF0346FB71FB794A
S3152000048003F01F03012202FA03F1064A97F9073007
S315200004905B0942F8231000BF0C37BD465DF8047B8C
S315200004A0704700BF00E100E080B483B000AF034690
S315200004B03960FB7197F90730002B0BDA3B68DAB20B
S315200004C00C49FB7903F00F03043B1201D2B20B4413
S315200004D01A7609E03B68DAB2074997F90730120124
S315200004E0D2B20B4483F8002300BF0C37BD465DF81B
S315200004F0047B704700ED00E000E100E080B582B0AB
S3152000050000AF786039607B6800229A617B689A69BF
S315200005107B685A617B685A697B68DA61012240F2FE
S3152000052025510A4807F06CFA002240F22771074845
S3152000053007F066FA02212520FFF7B6FF2520FFF7F0
S3152000054099FF00BF0837BD4680BD00BF001001409F
S3152000055080B483B000AF78600B46FB707B68DB69A4
S31520000560B3F5806F17DA7B685B697A681344FA788B
S3152000057083F820207B685B6901335A42C3F3090361
S31520000580C2F3090258BF53427A6853617B68DB691C
S315200005905A1C7B68DA6100BF0C37BD465DF8047BC8
S315200005A0704780B582B000AF786039607B68DB69C0
S315200005B0002B18D17B689B68012240F227711846D0
S315200005C007F01EFA0FE03B681B780A2B03D10D219A
S315200005D07868FFF7BDFF3B685A1C3A601B781946BE
S315200005E07868FFF7B5FF3B681B78002BEBD100BF7F
S315200005F000BF0837BD4680BD80B582B000AF7860A9
S3152000060039607B68DB69002B07D17B689B680122F8
S3152000061040F22771184607F0F3F93B68DBB219461A
S315200006207868FFF795FF00BF0837BD4680BD80B5C7
S3152000063086B002AF786039607B689B6820211846B7
S3152000064007F026FA0346012B18D17B689B681846CB
S3152000065007F041F80346FB607B68DB68002B0DD072
S315200006607B68DA687B681969FB6800930B46002172
S31520000670002000F0C7FC234B01221A607B689B6890
S315200006808021184607F004FA0346012B34D17B68F3
S31520000690DB69002B28DD7B6898687B689B697A6814
S315200006A0134493F82030194607F003F87B689B69BA
S315200006B001335A42C3F30903C2F3090258BF534216
S315200006C07A6893617B68DB695A1E7B68DA617B688E
S315200006D0DB69002B10D17B689B68002240F22771D2
S315200006E0184607F08DF907E07B689B68002240F2E8
S315200006F02771184607F084F9002318461037BD469F
S3152000070080BD00BFD01C012080B483B000AF03465B
S31520000710FB71FB7903F01F03012202FA03F1064A5B
S3152000072097F907305B0942F8231000BF0C37BD4606
S315200007305DF8047B704700BF00E100E080B483B021
S3152000074000AF03463960FB7197F90730002B0BDAAF
S315200007503B68DAB20C49FB7903F00F03043B120124
S31520000760D2B20B441A7609E03B68DAB2074997F908
S3152000077007301201D2B20B4483F8002300BF0C3796
S31520000780BD465DF8047B704700ED00E000E100E027
S3152000079080B582B000AF78600EE07B681B780D2BA9
S315200007A007D07B685A1C7A601B78184600F05EF9E1
S315200007B002E07B6801337B607B681B78002BECD1E1
S315200007C000BF00BF0837BD4680BD80B586B000AFEC
S315200007D0786000237B617B6803F00F027B69591CDC
S315200007E0796110498A5C18333B4403F80C2C7B68EA
S315200007F01B097B607B68002BEDD10AE07B69013BFE
S315200008007B6107F10C027B6913441B78184600F0C4
S315200008102DF97B69002BF1D100BF00BF1837BD46EB
S3152000082080BD00BFF893002080B59EB000AF7860F1
S315200008307B68002B02DA4FF0FF3300E001233B6791
S315200008407B683A6F02FB03F37B6000237B67796842
S315200008501C4B83FB01239A10CB17D21A13469B00FD
S3152000086013445B00CA1A7B6F591C796716498A5C48
S3152000087078333B4403F86C2C7B68124A82FB0312C4
S315200008809210DB17D31A7B607B68002BDFD13B6F7E
S31520000890002B0EDA2D2000F0E9F80AE07B6F013BF1
S315200008A07B6707F10C027B6F13441B78184600F018
S315200008B0DDF87B6F002BF1D100BF00BF7837BD4636
S315200008C080BD00BF67666666F893002080B483B05B
S315200008D000AF10237B607B6883F3118800BF00BFC5
S315200008E00C37BD465DF8047B704780B483B000AFFB
S315200008F030237B607B6883F3118800BF00BF0C37F1
S31520000900BD465DF8047B704780B584B000AF786043
S315200009100B48FFF73DFF0B4B1B68002B02D1094B01
S31520000920094A1A60074B1B68FB60064B1A687B68EE
S315200009301344044A1360FB6818461037BD4680BD31
S31520000940D488002088990020101D012080B485B00D
S3152000095000AF786039603B6803F5F95310337A6845
S3152000096013607B681B68BB600023FB6009E0FB68A3
S315200009709A00BB6813441A4600231360FB680133B0
S31520000980FB60FB68332BF2DDBB686FF016021A6042
S31520000990BB6804331A4603231360BB6884331A46A4
S315200009A04FF08073136000BF1437BD465DF8047B9B
S315200009B0704780B485B000AF786039607B681B686B
S315200009C08033FB60FB683A681A6000BF1437BD4667
S315200009D05DF8047B704780B584B000AF1C4804F0F6
S315200009E037FE3B1D184604F07FFF40F24733BB809D
S315200009F03B1D1946164804F00BFF164B164A1A6083
S31520000A0002216FF00100FFF799FE144B144A1A6079
S31520000A1000216FF00400FFF791FE124B124A1A6074
S31520000A2002213220FFF78AFE3220FFF76DFE0021D9
S31520000A30074804F0A3FF0121054805F06CF80122C0
S31520000A400221034806F03BF800BF1037BD4680BDA3
S31520000A50000C004038C00120850300202CC0012056
S31520000A608103002008C10120F30D002080B582B04B
S31520000A7000AF0346FB71FB799BB21946074806F087
S31520000A8018FE00BF8021054807F002F80346002B18
S31520000A90F8D000BF00BF0837BD4680BD001001401A
S31520000AA080B500AF124804F085FF03461A46114B65
S31520000AB01A60114B01221A60104B00221A60104B4B
S31520000AC01B68002B06D00E4B1B680E4A12680021AD
S31520000AD010469847084B00221A60084B1B68002BCB
S31520000AE001D000F05DFA054B00221A6080BD00BFE0
S31520000AF0000C0040D41C0120CC1C0120D01C01205D
S31520000B00E01C0120EC1C012080B500AF124804F047
S31520000B1051FF03461A46114B1A60114B01221A60E7
S31520000B20104B00221A60104B5B68002B06D00E4B30
S31520000B305B680E4A5268012110469847084B0022EE
S31520000B401A60084B1B68002B01D000F029FA054BD0
S31520000B5000221A6080BD00BF000C0040D41C01207A
S31520000B60CC1C0120D01C0120E01C0120EC1C012003
S31520000B7080B500AF124804F01DFF03461A46114BFC
S31520000B801A60114B01221A60104B00221A60104B7A
S31520000B909B68002B06D00E4B9B680E4A926802215A
S31520000BA010469847084B00221A60084B1B68002BFA
S31520000BB001D000F0F5F9054B00221A6080BD00BF78
S31520000BC0000C0040D41C0120CC1C0120D01C01208C
S31520000BD0E01C0120EC1C012080B485B000AF7860B9
S31520000BE039600023FB603B681B68BB6004E0BB6880
S31520000BF0FB60BB681B68BB60BB68002B05D0BB686D
S31520000C009A687B689B689A42F1DD7B68BA681A60AD
S31520000C10FB68002B03D13B687A681A6002E0FB6808
S31520000C207A681A6000BF1437BD465DF8047B7047AA
S31520000C3080B485B000AF786039600023FB603B68E4
S31520000C401B68BB6004E0BB68FB60BB681B68BB60BD
S31520000C50BB68002B05D0BB685A687B685B689A42E4
S31520000C60F1DD7B68BA681A60FB68002B03D13B680C
S31520000C707A681A6002E0FB687A681A6000BF143747
S31520000C80BD465DF8047B704780B584B000AF7860C0
S31520000C907B681B68FB60FB68002B04D0FB681A6826
S31520000CA07B681A600CE00948FFF772FD00220221DA
S31520000CB0074804F022FA0748FFF76AFD30BFFDE730
S31520000CC0FB6818461037BD4680BD00BFEC88002063
S31520000CD000040240F888002080B584B000AF786018
S31520000CE07B681B68FB60FB68002B04D0FB681A68D6
S31520000CF07B681A600CE00948FFF74AFD00220221B2
S31520000D00074804F0FAF90748FFF742FD30BFFDE730
S31520000D10FB6818461037BD4680BD00BFEC88002012
S31520000D20000402400489002080B483B000AF7860BC
S31520000D3039603B681A687B681A603B687A681A6073
S31520000D4000BF0C37BD465DF8047B704780B483B086
S31520000D5000AF786039603B681A687B689A603B68A8
S31520000D607A681A6000BF0C37BD465DF8047B704771
S31520000D7080B485B000AF78607B681B68FB60FB6839
S31520000D809A687B681A60FB6818461437BD465DF87A
S31520000D90047B704780B485B000AF7860396000234B
S31520000DA0FB603B681B68BB6004E0BB68FB60BB68FC
S31520000DB01B68BB60BB68002B03D0BA687B689A426D
S31520000DC0F3D1BB68002B0DD0FB68002B04D0BB6889
S31520000DD01A68FB681A6003E0BB681A683B681A60E9
S31520000DE0012300E0002318461437BD465DF8047B36
S31520000DF0704780B582B000AF02211E4805F0E9FE9B
S31520000E001C4804F0D7FD03467B6007E01A48FFF72D
S31520000E103BFF034619491846FFF7DEFE164B1B68B3
S31520000E20002B06D0144B1B685A687B68D31A002BFC
S31520000E30ECDD114B1B68002B16D00E4804F0BAFDD2
S31520000E4003463B600C4B1B685B683A689A4204DD9C
S31520000E50002202210A4804F050F9074B1B685B6800
S31520000E601946044805F0E5F800F09AF800BF08375F
S31520000E70BD4680BD000C0040C81C0120C41C0120BA
S31520000E80000402400346024A136010DFF74600BF03
S31520000E90DC1C01200346054A1360054B5B68044AA7
S31520000EA043F080535360F74600BF00BFDC1C01208F
S31520000EB000ED00E080B582B000AF7860094B5B683A
S31520000EC0C3F30803002B03D17868FFF7DBFF02E0AA
S31520000ED07868FFF7DFFFFFF708FD00BF0837BD463C
S31520000EE080BD00BF00ED00E090B585B000AF234B7C
S31520000EF01C682348FFF7C8FE0346E360E368BB602F
S31520000F00FFF7F3FCBB68D868BB681969BB685B69E7
S31520000F101A4600F015F9FFF7D9FC1A49B868FFF709
S31520000F2003FF194B1B689B68DB687B60144B1B68AF
S31520000F30002B0AD07B68002BD9D0114B1B689A68EE
S31520000F407B689B68D31A002BD1DD0F48FFF710FF73
S31520000F5003460E491846FFF7F9FE0B4B1B68FB604C
S31520000F6003E0FB681B691B68FB60FB681B69002BA1
S31520000F70F7D1F868FFF79EFFB9E700BF1894002065
S31520000F80C41C01200C9400201494002010940020EE
S31520000F9080B500AF00F004F8FFF7A7FC30BFFBE7F1
S31520000FA080B582B000AF144B1B68DB687B60134BA7
S31520000FB01B68002B1BD0124B1B68002B17D07B689D
S31520000FC0002B07D00D4B1B689A687B689B68D31A49
S31520000FD0002B0CDA0A48FFF7CBFE034606491846D3
S31520000FE0FFF7B4FE044B1B681846FFF763FF00BFEC
S31520000FF00837BD4680BD00BF14940020C41C0120C4
S315200010001094002080B588B000AFF860B9607A608F
S315200010103B60EFF312833B613B691B09012B14BF35
S3152000102001230023DBB2FB77FFF750FC3A48FFF79A
S3152000103053FEB861BB697A68DA60BB693A681A619F
S31520001040BB69BA6A5A61354B1B68002B04D1344BF5
S315200010501B68DB685B6801E0324B1B68FA681A4440
S31520001060BB695A60BB695A68BB68002B01DDBB6847
S3152000107001E06FF000431A44BB699A602A4804F0E5
S3152000108099FC03467B61BB695A687B69D31A002B9E
S3152000109016DD2649B869FFF7CBFD244B1B685B6834
S315200010A07A699A4204DD00220221214804F025F8BB
S315200010B01E4B1B685B6819461B4804F0BAFF21E0EB
S315200010C01C49B869FFF788FDFB7F002B1AD01A4B05
S315200010D01B68002B16D0174B1B689A68174B1B688A
S315200010E0DB689B68D31A002B0CDA1348FFF740FE07
S315200010F0034612491846FFF729FE104B1B6818466F
S31520001100FFF7D8FEFB7F002B01D0FFF7EEFBBB6974
S3152000111018462037BD4680BD0C940020CC1C0120EB
S3152000112018940020D41C0120000C0040C81C01206B
S3152000113000040240C41C01201094002014940020B6
S3152000114080B588B000AFF860B9607A60EFF312839B
S315200011503B613B691B09012B14BF01230023DBB232
S31520001160FB76FFF7B3FBFB681B68FB61FB69002B73
S3152000117037D003E0FB691B691B68FB61FB691B69B0
S31520001180002BF7D1304B1B68FA699A4202D0FB7EBE
S31520001190002B07D1FB7E002B01D0FFF7A6FB4FF0DB
S315200011A0FF334DE0FB685B68002B03D0FB685B6870
S315200011B000221A61244B1A68FB685A60224B1B686E
S315200011C0FA681A61F869FFF775FE1F4B1B68DB6822
S315200011D0002B06D1FB7E002B01D0FFF786FB0023D8
S315200011E02EE0194B1A68FB681A60FB7E002B05D08F
S315200011F0FB685B68012B01D0FFF777FBBB6879683A
S31520001200F86898477861FFF761FBFB6800221A604F
S31520001210FB685B68FB61FB69002B0BD0FB69012B2C
S3152000122008D0FB6800225A60FB6900221A61F8691F
S31520001230FFF740FEFB7E002B01D0FFF756FB7B69B4
S3152000124018462037BD4680BD1894002080B586B04C
S3152000125000AF7860EFF31283FB60FB681B09012B5C
S3152000126014BF01230023DBB2FB74FFF72FFB1F49BA
S315200012707868FFF78FFD0346002B06D11C49786856
S31520001280FFF788FD0346002B04D01A497868FFF73C
S315200012904BFD21E0184B1B687B611AE0174B1B683E
S315200012A07A699A4212D07B69DB687A689A420DD1B4
S315200012B07B691A697B68DB689A4207D17B690022C1
S315200012C0DA600C497868FFF72FFD05E07B699B689B
S315200012D07B617B69002BE1D1FB7C002B01D0FFF7E2
S315200012E004FB00BF1837BD4680BD00BFC81C0120C7
S315200012F0C41C01200C940020149400201894002073
S3152000130080B485B000AF7860EFF31283FB60FB6892
S315200013101B09012B04D0074B1B68DB685B6801E0C7
S31520001320054B1B687A68136000BF1437BD465DF80D
S31520001330047B704718940020D41C012080B485B00B
S3152000134000AF7860EFF31283FB60FB681B09012B6B
S3152000135004D0084B1B68DB685B6801E0064B1B6802
S315200013607A6812689B1A18461437BD465DF8047BC6
S31520001370704700BF18940020D41C012080B584B08B
S3152000138000AFEFF312837B607B681B09012B14BF30
S3152000139001230023DBB2FB73FFF798FA0C4804F015
S315200013A009FB0346BB60FB7B002B01D0FFF79DFAB0
S315200013B0FB7B002B04D0074B1B68DB685B6801E0D6
S315200013C0054B1B68BA68D31A18461037BD4680BD30
S315200013D0000C004018940020D41C012080B582B057
S315200013E000AF00237B6012E07B685A1C13465B002B
S315200013F01344DB00444A991843487A6813465B0035
S315200014001344DB00034419607B6801337B607B68EF
S315200014101C2BE9DD3C4B0022C3F8B82200237B605D
S3152000142013E07B685A1C13469B0013449B00374AE3
S31520001430991836487A6813469B0013449B00034448
S31520001440083319607B6801337B607B68022BE8DDFB
S315200014502E4B00225A6400237B6030E02B497A68A9
S3152000146013469B0013449B000B4404337A681A608E
S315200014707A6813469B0013449B00244A1A447B68CF
S315200014805B0323490B4419461046FFF75FFA7A6837
S3152000149013469B0013449B001C4A13441D491846BF
S315200014A0FFF787FA19497A6813469B0013449B0075
S315200014B00B44103300221A607B6801337B607B6803
S315200014C0032BCBDD144B4FF0FF325A60124B002218
S315200014D09A60114B00221A610F4B0022DA600F48E6
S315200014E0FFF756F90E48FFF753F90E48FFF750F964
S315200014F00A48FFF74DF90948FFF74AF9FFF76BFA53
S3152000150000BF0837BD4680BD8C9900205C9C00201A
S31520001510B09C0020E90E0020B01C0120108900207C
S31520001520148900202089002080B586B000AFF8609D
S31520001530B9601346FB71FB79022B41D8EFF3128376
S315200015403B613B691B09012B14BF01230023DBB23E
S31520001550FB75FFF7BBF9FB79022B0ED0022B10DCB3
S31520001560002B02D0012B04D00BE0174B174A1A6030
S3152000157014E0174B174A1A6010E0174B174A1A60E7
S315200015800CE01748FFF704F900220221154803F062
S31520001590B4FD1548FFF7FCF830BFFDE7FB7913498A
S315200015A0FA6841F82320FB791149BA6841F82320CB
S315200015B0FB6801225A60FB7D002B01D0FFF795F9CD
S315200015C000BF1837BD4680BDD4C00120A10A002027
S315200015D090C00120090B00209CC00120710B002027
S315200015E0EC8800200004024038890020EC1C0120F1
S315200015F0E01C012080B586B002AFF860B9607A6041
S31520001600FFF764F9FFF7EAFEBB68002B16D00F48F8
S3152000161004F0D0F903461A460D4B1A600D4B0122F1
S315200016201A607B680093BB68FA6800210020FFF7E8
S31520001630E9FC084B00221A60FFF7B2FCFFF7A8FC72
S31520001640002318461037BD4680BD00BF000C004061
S31520001650D41C0120CC1C012080B400AF00BFBD46A5
S315200016605DF8047B704780B586B000AF454803F02F
S315200016705BFB454801F07AFF444801F077FF0121E2
S315200016804FF0007000F0DCFE01214FF0806000F08A
S31520001690D7FE0121022000F073FE092209213948D4
S315200016A003F064FD09220821364803F05FFD07F1A7
S315200016B01003184603F079FC4FF400733B610223B4
S315200016C03B750023BB750023FB7502237B7507F151
S315200016D0100319462B4803F0D9FB4FF480733B6166
S315200016E002233B750023BB750123FB7502237B7503
S315200016F007F110031946234803F0C8FB09220621E7
S31520001700204803F033FD092205211E4803F02EFD53
S3152000171040233B6102233B750023BB750023FB75E9
S3152000172002237B7507F110031946164803F0AEFB1A
S3152000173020233B6102233B750023BB750123FB75E8
S3152000174002237B7507F1100319460E4803F09EFB12
S315200017500023BB720023FB7201233B7300233B80D3
S3152000176000237B800023BB800023FB8000233B815A
S3152000177001237B733B46184601F0EDFF00BF183767
S31520001780BD4680BD00040240006400400068004061
S3152000179080B586B000AF01214FF0005000F050FE1A
S315200017A007F11003184603F000FC20233B610323B6
S315200017B03B750023FB7507F1100319460F4803F00C
S315200017C065FB03F01DFD3B46184603F05BFD002339
S315200017D03B6000237B600023FB603B4619461020BC
S315200017E003F01CFD0121102003F062FD00210820DA
S315200017F003F00CFE00BF1837BD4680BD0000024036
S3152000180080B584B000AF01214FF4804000F038FE4F
S3152000181007210120FEF730FCFEF7AAFC3B461846BE
S31520001820FEF732FD80233B6000233B710C237B7146
S315200018300123BB713B461846FEF7B4FC07F10803AB
S31520001840184603F0B2FB0223BB6001233B7301233E
S31520001850BB730023FB7301237B7307F1080319462F
S31520001860184803F013FB0123BB6001233B730123BC
S31520001870BB730023FB7301237B7307F1080319460F
S31520001880104803F003FB012202210E4803F035FC29
S31520001890012201210B4803F030FC8023BB6000238A
S315200018A03B730023BB730023FB7301237B7307F178
S315200018B008031946034803F0E9FA00BF1037BD466E
S315200018C080BD00BF0004024080B483B000AFEFF3B8
S315200018D014833B603B6823F003037B607B6883F3C0
S315200018E0148800BF094B4FF404725A61074B5B6999
S315200018F0064A43F008035361054B4FF000425A60F5
S3152000190000BF0C37BD465DF8047B704700ED00E054
S3152000191030EF00E080B500AF0121082000F090FDF7
S315200019200121082000F0CCFE00BF80BD80B400AFAE
S31520001930124A02E0002342F8043B114B9A42F9D3A3
S3152000194000BFBD465DF8047B704780B500AFFFF74A
S31520001950EDFFFFF781FEFFF786FEFFF719FFFFF782
S315200019604FFFFFF7B1FFFFF7D5FF00BF80BD80B463
S3152000197000AF00BFBD465DF8047B70478899002004
S31520001980101D012080B483B000AF786039607B6879
S315200019901B7A18460C37BD465DF8047B704780B528
S315200019A082B000AF786039603B683B2B0FDD3B6827
S315200019B0F02B0CDC3B68DAB27B681A727B681B7AE8
S315200019C01A4608490848FFF7BBFB3B6805E07B68D9
S315200019D01A7A7B681A724FF0FF3318460837BD46CD
S315200019E080BD00BFFF4B00201C99002080B483B02F
S315200019F000AF786039607B68DB6818460C37BD46D7
S31520001A005DF8047B704780B582B000AF786039609E
S31520001A103B6813F1050F0EDB3B68052B0BDC7B685F
S31520001A203A68DA607B68DB681A4607490748FFF799
S31520001A3087FB3B6804E07B68DA687B68DA6006230C
S31520001A4018460837BD4680BDE34B00201C99002070
S31520001A5080B588B002AF786039607B685B691F2BE0
S31520001A6005DC7B685B695A1C7B685A6102E07B68EF
S31520001A7000225A617B68DB6803F10A027B685B6996
S31520001A80324951F8233013447B61314A7B69DB00AC
S31520001A9013445A687B689A617B685B692D4A52F8C1
S31520001AA023307A68127A02FB03F3DA0F13445B10B1
S31520001AB03B614EF660223B6992FBF3F3FB60FB68C9
S31520001AC0323BBB60BB68642203FB02F27B681A616F
S31520001AD07B689B691A4620492048FFF731FB7B68C3
S31520001AE01B691A461E491D48FFF72AFB7B681869A1
S31520001AF07B681B6903F5FA7100230093194B174A7B
S31520001B00FFF780FA7B681B6903F57A607B681B699F
S31520001B1003F58C51143100230093134B7A68FFF799
S31520001B2071FA7B681B6903F58C5014307B681B693E
S31520001B3003F59C510831002300930A4B074AFFF70F
S31520001B4061FA00BF1837BD4680BD00BF5889002006
S31520001B50588A0020D88900201D4C00201C9900207E
S31520001B60394C0020A94B0020511A002080B483B0A4
S31520001B7000AF786039607B681B690A4A82FB0312D2
S31520001B805113DA178A1A084901FB02F29A1A1346E8
S31520001B909B0013445B0018460C37BD465DF8047B5A
S31520001BA0704700BF89B5F814A086010080B483B0C1
S31520001BB000AF786039607B685B6918460C37BD4694
S31520001BC05DF8047B704700BF80B400AF164B1B68DE
S31520001BD0154A43F001031360134B00229A60124BFF
S31520001BE01B68114A23F0A85323F4102313600E4BCD
S31520001BF00E4A5A600C4B0E4AC3F884200A4B0D4AF3
S31520001C00C3F88820084B1B68074A23F480231360F7
S31520001C10054B0022DA60044B0022C3F88C2000BF5B
S31520001C20BD465DF8047B7047003802401030002422
S31520001C30003000200030002480B483B000AF03467B
S31520001C40FB71064B00221A70044AFB79137000BF01
S31520001C500C37BD465DF8047B704700BF0238024052
S31520001C6080B582B000AF00233B600023FB710023C8
S31520001C70BB71312000F08AFD0346BB713B680133FE
S31520001C803B603B68B3F5A04F02D0BB79002BF0D068
S31520001C90312000F07BFD0346002B02D00123FB718F
S31520001CA001E00023FB71FB7918460837BD4680BD4D
S31520001CB080B485B000AF0346FB710023FB600A4B5E
S31520001CC01B68FB60FB6823F0F803FB60FB79DB00F5
S31520001CD0FA681343FB60044AFB68136000BF14379D
S31520001CE0BD465DF8047B70470038024080B483B05F
S31520001CF000AF0346FB71044AFB79136000BF0C3723
S31520001D00BD465DF8047B70470000474280B483B02F
S31520001D1000AF0346FB710D4B00221A700B4B0022BD
S31520001D201A70FB79012B02D0042B04D007E0074B55
S31520001D3001221A7003E0054B05221A7000BF00BF6E
S31520001D400C37BD465DF8047B704700BF70380240F3
S31520001D5080B483B000AF0346FB71044AFB7913605D
S31520001D6000BF0C37BD465DF8047B7047800E4742A6
S31520001D7080B485B000AFF860B9607A603B607B685C
S31520001D809A01BB681A433B685B08013B1B041A4354
S31520001D90FB681A43BB691B06044913434B6000BF0B
S31520001DA01437BD465DF8047B704700BF00380240FB
S31520001DB080B483B000AF0346FB71044AFB791360FD
S31520001DC000BF0C37BD465DF8047B70476000474274
S31520001DD080B483B000AF786039607B689A013B6835
S31520001DE01B0705491343C1F8843000BF0C37BD4695
S31520001DF05DF8047B704700BF0038024080B483B092
S31520001E0000AF0346FB71044AFB79136000BF0C3711
S31520001E10BD465DF8047B70476800474280B485B0B4
S31520001E2000AFF860B9607A60FB689A01BB681B0650
S31520001E301A437B681B0705491343C1F8883000BF46
S31520001E401437BD465DF8047B704700BF003802405A
S31520001E5080B483B000AF0346FB71044AFB7913605C
S31520001E6000BF0C37BD465DF8047B704770004742C3
S31520001E7080B483B000AF0346FB71044AFB7913603C
S31520001E8000BF0C37BD465DF8047B70474C004742C7
S31520001E9080B485B000AF786039600023FB600B4BBF
S31520001EA09B68FB60FB6823F0EC63FB607A683B6809
S31520001EB01343FA681343FB60044AFB68936000BF30
S31520001EC01437BD465DF8047B704700BF00380240DA
S31520001ED080B485B000AF786039600023FB600B4B7F
S31520001EE09B68FB60FB6823F07843FB607A683B685D
S31520001EF01343FA681343FB60044AFB68936000BFF0
S31520001F001437BD465DF8047B704700BF0038024099
S31520001F1080B485B000AF78600023FB60094B9B68D6
S31520001F20FB60FB6823F00303FB60FA687B681343BE
S31520001F30FB60044AFB68936000BF1437BD465DF81A
S31520001F40047B70470038024080B400AF054B9B6885
S31520001F50DBB203F00C03DBB21846BD465DF8047B0A
S31520001F60704700BF0038024080B485B000AF78606B
S31520001F700023FB60094B9B68FB60FB6823F0F003A2
S31520001F80FB60FA687B681343FB60044AFB68936036
S31520001F9000BF1437BD465DF8047B70470038024009
S31520001FA080B485B000AF78600023FB60094B9B6846
S31520001FB0FB60FB6823F4E053FB60FA687B681343FD
S31520001FC0FB60044AFB68936000BF1437BD465DF88A
S31520001FD0047B70470038024080B485B000AF78603B
S31520001FE00023FB600A4B9B68FB60FB6823F460437D
S31520001FF0FB607B68DB00FA681343FB60044AFB68DE
S31520002000936000BF1437BD465DF8047B704700BF60
S315200020100038024080B489B000AF78600023BB61ED
S3152000202000237B610023FB6102233B610023FB60CD
S315200020300223BB604A4B9B6803F00C03BB61BB6960
S31520002040082B11D0BB69082B44D8BB69002B03D0C1
S31520002050BB69042B04D03DE07B68424A1A603DE010
S315200020607B68414A1A6039E03D4B5B689B0D03F063
S315200020700103FB603A4B5B6803F03F03BB60FB68E0
S31520002080002B0CD0384ABB68B2FBF3F3344A5268B3
S315200020909209C2F3080202FB03F3FB610BE0314A0B
S315200020A0BB68B2FBF3F32E4A52689209C2F30802C8
S315200020B002FB03F3FB612A4B5B681B0C03F0030353
S315200020C001335B003B61FA693B69B2FBF3F27B6843
S315200020D01A6003E07B68234A1A6000BF204B9B6886
S315200020E003F0F003BB61BB691B09BB611F4ABB69D7
S315200020F013441B78DBB27B617B681A687B69DA4004
S315200021007B685A60164B9B6803F4E053BB61BB693E
S315200021109B0ABB61154ABB6913441B78DBB27B6102
S315200021207B685A687B69DA407B689A600C4B9B68AF
S3152000213003F46043BB61BB695B0BBB610B4ABB69A4
S3152000214013441B78DBB27B617B685A687B69DA4073
S315200021507B68DA6000BF2437BD465DF8047B704794
S31520002160003802400024F40000127A00208B002060
S3152000217080B485B000AF78600023FB607B6803F4F1
S315200021804073B3F5407F11D10F4B9B68FB60FB6812
S3152000219023F4F813FB607B6823F0704323F4407329
S315200021A0FA681343FB60084AFB689360064B1A6F74
S315200021B07B68C3F30B03044913430B6700BF143733
S315200021C0BD465DF8047B70470038024080B483B07A
S315200021D000AF0346FB71044AFB79136000BF0C373E
S315200021E0BD465DF8047B70473C0E474280B483B001
S315200021F000AF0346FB71044AFB79136000BF0C371E
S31520002200BD465DF8047B7047400E474280B483B0DC
S3152000221000AF7860044A7B68136000BF0C37BD4668
S315200022205DF8047B704700BF5C01474280B485B0EF
S3152000223000AF78600023FB600B4BD3F88C30FB603B
S31520002240FB6823F01F03FB607B68013BFA6813439E
S31520002250FB60054AFB68C2F88C3000BF1437BD46C8
S315200022605DF8047B704700BF0038024080B485B01B
S3152000227000AF78600023FB600B4BD3F88C30FB60FB
S31520002280FB6823F4F853FB607B68013B1B02FA686A
S315200022901343FB60044AFB68C2F88C3000BF143736
S315200022A0BD465DF8047B70470038024080B485B097
S315200022B000AF78600023FB600A4BD3F88C30FB60BC
S315200022C0FB6823F44013FB60FA687B681343FB60CA
S315200022D0044AFB68C2F88C3000BF1437BD465DF84F
S315200022E0047B70470038024080B485B000AF786028
S315200022F00023FB600A4BD3F88C30FB60FB6823F489
S315200023004003FB60FA687B681343FB60044AFB6862
S31520002310C2F88C3000BF1437BD465DF8047B704789
S315200023200038024080B485B000AF78600023FB609F
S315200023300A4BD3F88C30FB60FB6823F44033FB60F8
S31520002340FA687B681343FB60044AFB68C2F88C304A
S3152000235000BF1437BD465DF8047B70470038024045
S3152000236080B483B000AF7860044A7B68136000BFF6
S315200023700C37BD465DF8047B704700BFE01147422D
S3152000238080B483B000AF78600B46FB70FB78002BDF
S3152000239006D00A4B1A6B09497B6813430B6306E088
S315200023A0064B1A6B7B68DB43044913400B6300BF63
S315200023B00C37BD465DF8047B704700BF00380240ED
S315200023C080B483B000AF78600B46FB70FB78002B9F
S315200023D006D00A4B5A6B09497B6813434B6306E0C8
S315200023E0064B5A6B7B68DB43044913404B6300BFA3
S315200023F00C37BD465DF8047B704700BF00380240AD
S3152000240080B483B000AF78600B46FB70FB78002B5E
S3152000241006D00A4B9A6B09497B6813438B6306E007
S31520002420064B9A6B7B68DB43044913408B6300BFE2
S315200024300C37BD465DF8047B704700BF003802406C
S3152000244080B483B000AF78600B46FB70FB78002B1E
S3152000245006D00A4B1A6C09497B6813430B6406E0C5
S31520002460064B1A6C7B68DB43044913400B6400BFA0
S315200024700C37BD465DF8047B704700BF003802402C
S3152000248080B483B000AF78600B46FB70FB78002BDE
S3152000249006D00A4B5A6C09497B6813434B6406E005
S315200024A0064B5A6C7B68DB43044913404B6400BFE0
S315200024B00C37BD465DF8047B704700BF00380240EC
S315200024C080B483B000AF78600B46FB70FB78002B9E
S315200024D006D00A4B1A6909497B6813430B6106E04B
S315200024E0064B1A697B68DB43044913400B6100BF26
S315200024F00C37BD465DF8047B704700BF00380240AC
S3152000250080B483B000AF78600B46FB70FB78002B5D
S3152000251006D00A4B5A6909497B6813434B6106E08A
S31520002520064B5A697B68DB43044913404B6100BF65
S315200025300C37BD465DF8047B704700BF003802406B
S3152000254080B483B000AF78600B46FB70FB78002B1D
S3152000255006D00A4B9A6909497B6813438B6106E0CA
S31520002560064B9A697B68DB43044913408B6100BFA5
S315200025700C37BD465DF8047B704700BF003802402B
S3152000258080B483B000AF78600B46FB70FB78002BDD
S3152000259006D00A4B1A6A09497B6813430B6206E088
S315200025A0064B1A6A7B68DB43044913400B6200BF63
S315200025B00C37BD465DF8047B704700BF00380240EB
S315200025C080B483B000AF78600B46FB70FB78002B9D
S315200025D006D00A4B5A6A09497B6813434B6206E0C8
S315200025E0064B5A6A7B68DB43044913404B6200BFA3
S315200025F00C37BD465DF8047B704700BF00380240AB
S3152000260080B483B000AF78600B46FB70FB78002B5C
S3152000261006D00A4B1A6D09497B6813430B6506E001
S31520002620064B1A6D7B68DB43044913400B6500BFDC
S315200026300C37BD465DF8047B704700BF003802406A
S3152000264080B483B000AF78600B46FB70FB78002B1C
S3152000265006D00A4B5A6D09497B6813434B6506E041
S31520002660064B5A6D7B68DB43044913404B6500BF1C
S315200026700C37BD465DF8047B704700BF003802402A
S3152000268080B483B000AF78600B46FB70FB78002BDC
S3152000269006D00A4B9A6D09497B6813438B6506E081
S315200026A0064B9A6D7B68DB43044913408B6500BF5C
S315200026B00C37BD465DF8047B704700BF00380240EA
S315200026C080B483B000AF78600B46FB70FB78002B9C
S315200026D006D00A4B1A6E09497B6813430B6606E03F
S315200026E0064B1A6E7B68DB43044913400B6600BF1A
S315200026F00C37BD465DF8047B704700BF00380240AA
S3152000270080B483B000AF78600B46FB70FB78002B5B
S3152000271006D00A4B5A6E09497B6813434B6606E07E
S31520002720064B5A6E7B68DB43044913404B6600BF59
S315200027300C37BD465DF8047B704700BF0038024069
S3152000274080B483B000AF03460A46FB711346BB71C3
S31520002750BB79002B08D00C4B1B78DAB20A49FB79DF
S315200027601343DBB20B7009E0074B1B78DAB2FB7917
S31520002770DB43DBB204491340DBB20B7000BF0C37DE
S31520002780BD465DF8047B70470D38024080B487B0A3
S3152000279000AF0346FB710023FB6000237B6100230F
S315200027A0FB74FB795B09DBB2FB60FB68012B03D171
S315200027B0124B1B687B6109E0FB68022B03D10F4B90
S315200027C01B6F7B6102E00D4B5B6F7B61FB7903F036
S315200027D01F03FB607A69FB6822FA03F303F0010307
S315200027E0002B02D00123FB7401E00023FB74FB7C49
S315200027F018461C37BD465DF8047B704700380240FA
S3152000280080B400AF054B5B6F044A43F08073536777
S3152000281000BFBD465DF8047B704700BF003802400C
S3152000282080B485B000AF0346FB710023FB73094BD0
S31520002830DA68FB791340002B02D00123FB7301E0F9
S315200028400023FB73FB7B18461437BD465DF8047BDB
S31520002850704700BF0038024080B483B000AF034603
S31520002860FB71044AFB79137000BF0C37BD465DF837
S31520002870047B70470E38024080B586B000AF786082
S31520002880396007F10C031A460A490B48FEF758FC33
S315200028900A4B1A460A490B48FEF752FC07F10C036D
S315200028A003331A4606490748FEF74AFC00BF183785
S315200028B0BD4680BDE9490020A4980020308B002029
S315200028C0A30500208494002080B5C2B002AF7860B2
S315200028D007F58073A3F580731960AA4B1A46AA4997
S315200028E0AA48FEF72DFC07F58073A3F580731A68B6
S315200028F0A749A648FEF724FCA64B1A46A249A34898
S31520002900FEF71EFC07F58073A3F580731B682D3B2D
S315200029102D2B00F2F68401A252F823F0D5290020AF
S315200029200333002003330020D5290020D529002099
S31520002930D5290020D5290020D5290020D5290020F9
S31520002940D5290020D5290020D5290020D5290020E9
S3152000295003330020033300200333002003330020F9
S3152000296003330020033300200333002003330020E9
S315200029700333002003330020ED31002029300020CE
S3152000298003330020C52B0020CF2A0020033300204C
S3152000299003330020F7290020033300204D2D00208B
S315200029A003330020033300200333002003330020A9
S315200029B00333002003330020492F00200333002057
S315200029C07B2C0020E93000208B2D002003330020B3
S315200029D03D2E00207B689B68591C7A68916007F51C
S315200029E08072A2F580721268D1B27A6813440A46C0
S315200029F05A7300F087BC7B689B687A681344002270
S31520002A005A737B6800229A607B680D33184605F05E
S31520002A109BF902467B681A647B681B6C002B1AD1D3
S31520002A205D4B1A4658495948FEF78AFB00225B49F6
S31520002A305B48FEF785FB034607F10800594AC82183
S31520002A4005F04EF907F108031A464F494F48FEF79D
S31520002A5077FB00F057BC7B681B6C1A4652495048DE
S31520002A60FEF76EFB02467B681B6C9A4214D100224D
S31520002A704A494B48FEF764FB034607F108004B4AD8
S31520002A80C82105F02DF907F108031A463E493F48AB
S31520002A90FEF756FB00F036BC454B1A463A493B48F2
S31520002AA0FEF74EFB00223D493D48FEF749FB034613
S31520002AB007F108003F4AC82105F012F907F108037B
S31520002AC01A4631493148FEF73BFB00F01BBC7B68B8
S31520002AD09B687A68134400225A737B6800229A60A6
S31520002AE000222E492E48FEF72BFB02467B681A64ED
S31520002AF07B681B6C0133C7F8F030D7F8F030052B14
S31520002B0018DCD7F8F02028492548FEF719FB02469D
S31520002B107B681A647B681B6C07F10800234AC8216E
S31520002B2005F0DEF807F108031A4617491748FEF79D
S31520002B3007FBE7E3204B1A4613491448FEF700FB30
S31520002B4007F10800052300936FF004031B4AC821F0
S31520002B5005F0C6F807F108031A460B490B48FEF79D
S31520002B60EFFA7B681B6C07F10800154AC82105F0AF
S31520002B70B7F807F108031A4603490448FEF7E0FAB6
S31520002B80C0E300BF448B0020A305002084940020CE
S31520002B90F90500204C8B0020508B0020ED190020D9
S31520002BA068940020648B0020071A0020788B002070
S31520002BB0888B0020A48B0020B88B0020D48B00208B
S31520002BC0008C00207B689B687A68134400225A7325
S31520002BD07B6800229A600022B249B348FEF7B0FA19
S31520002BE002467B681A647B681B6C013BC7F8EC3095
S31520002BF0D7F8EC3013F1050F18DBD7F8EC20AB49EA
S31520002C00A948FEF79DFA02467B681A647B681B6C0E
S31520002C1007F10800A64AC82105F062F807F1080363
S31520002C201A46A449A448FEF78BFA6BE3A34B1A462F
S31520002C30A049A148FEF784FA07F10800052300936E
S31520002C406FF004039E4AC82105F04AF807F10803ED
S31520002C501A4698499848FEF773FA7B681B6C07F169
S31520002C600800984AC82105F03BF807F108031A46E0
S31520002C7090499148FEF764FA44E37B689B687A683A
S31520002C80134400225A737B6800229A607B680D33B6
S31520002C90184605F059F802467B685A647B685B6CD7
S31520002CA0002B19D1884B1A4682498348FEF748FAE9
S31520002CB0002286498648FEF743FA034607F10800B4
S31520002CC0844AC82105F00CF807F108031A46794909
S31520002CD07948FEF735FA15E37B685B6C1A467E4920
S31520002CE07B48FEF72DFA02467B685B6C9A4213D12D
S31520002CF0002276497648FEF723FA034607F10800B4
S31520002D00764AC82104F0ECFF07F108031A46694900
S31520002D106948FEF715FAF5E2714B1A466549664889
S31520002D20FEF70EFA002269496948FEF709FA0346BA
S31520002D3007F108006B4AC82104F0D2FF07F1080307
S31520002D401A465C495C48FEF7FBF9DBE27B689B6828
S31520002D507A68134400225A737B6800229A60002204
S31520002D6061495B48FEF7ECF90346002B06D15F4B21
S31520002D701A4650495048FEF7E3F9C3E25C4B1A461F
S31520002D804C494D48FEF7DCF9BCE27B689B687A68C3
S31520002D90134400225A737B6800229A6000224B4912
S31520002DA04B48FEF7CDF902467B685A647B685B6C1C
S31520002DB00133C7F8F830D7F8F830142B18DCD7F8D9
S31520002DC0F82045494248FEF7BBF902467B685A641B
S31520002DD07B685B6C07F10800404AC82104F080FF3D
S31520002DE007F108031A4633493348FEF7A9F989E261
S31520002DF0404B1A462F493048FEF7A2F907F1080042
S31520002E001423009301232E4AC82104F069FF07F1F9
S31520002E1008031A4627492848FEF792F97B685B6C17
S31520002E2007F10800344AC82104F05AFF07F10803C5
S31520002E301A4620492048FEF783F963E27B689B689F
S31520002E407A68134400225A737B6800229A60002213
S31520002E501E491F48FEF774F902467B685A647B6850
S31520002E605B6C013BC7F8FC30D7F8FC30002B45DD06
S31520002E70D7F8FC2018491648FEF762F902467B6807
S31520002E805A647B685B6C07F10800144AC82104F079
S31520002E9027FF07F108031A4606490748FEF750F9A7
S31520002EA030E200BFED19002068940020071A0020A8
S31520002EB0788B0020A305002084940020B88B002066
S31520002EC0D48B0020008C0020148C0020554B002031
S31520002ED01C990020288C00206F4B00203C8C002061
S31520002EE0508C0020708C0020A94B0020888C00205C
S31520002EF0988C0020AC8C0020CC8C0020AA4B1A4643
S31520002F00AA49AB48FEF71CF907F1080014230093E1
S31520002F100123A84AC82104F0E3FE07F108031A4654
S31520002F20A249A348FEF70CF97B685B6C07F1080001
S31520002F30A14AC82104F0D4FE07F108031A469B498A
S31520002F409B48FEF7FDF8DDE17B689B687A681344B1
S31520002F5000225A737B6800229A607B680D331846DC
S31520002F6004F0F2FE02467B689A647B689B6C002B19
S31520002F7019D1924B1A468D498D48FEF7E1F8002269
S31520002F808F499048FEF7DCF8034607F108008E4A81
S31520002F90C82104F0A5FE07F108031A468349844890
S31520002FA0FEF7CEF8AEE17B689B6C1A4687498548CA
S31520002FB0FEF7C6F802467B689B6C9A421AD100221D
S31520002FC07F498048FEF7BCF8034607F10800804A8F
S31520002FD0C82104F085FE7B689B6C1A467D497E4895
S31520002FE0FEF7AEF807F108031A4670497048FEF757
S31520002FF0A7F887E1794B1A466C496D48FEF7A0F889
S3152000300000226F496F48FEF79BF8034607F1080038
S31520003010734AC82104F064FE07F108031A4663497F
S315200030206348FEF78DF86DE17B689B687A681344E8
S3152000303000225A737B6800229A6000226049614808
S31520003040FEF77EF802467B689A647B689B6C0A339F
S31520003050C7F8E830D7F8E830F02B1FDCD7F8E8209F
S315200030605A495848FEF76CF802467B689A647B6892
S315200030709B6C1A4657495848FEF762F87B689B6C4A
S3152000308007F10800524AC82104F02AFE07F1080376
S315200030901A4646494648FEF753F833E1514B1A463D
S315200030A042494348FEF74CF807F10800F023009305
S315200030B03C23404AC82104F013FE07F108031A46B0
S315200030C03A493B48FEF73CF87B689B6C07F10800C1
S315200030D0454AC82104F004FE07F108031A4633497D
S315200030E03348FEF72DF80DE17B689B687A68134418
S315200030F000225A737B6800229A60002230493148A8
S31520003100FEF71EF802467B689A647B689B6C0A3B36
S31520003110C7F8F430D7F8F4303B2B1FDDD7F8F4206E
S315200031202A492848FEF70CF802467B689A647B6891
S315200031309B6C1A4627492848FEF702F87B689B6C49
S3152000314007F10800224AC82104F0CAFD07F1080346
S315200031501A4616491648FDF7F3FFD3E0214B1A46C7
S3152000316012491348FDF7ECFF07F10800F0230093FE
S315200031703C23104AC82104F0B3FD07F108031A4680
S315200031800A490B48FDF7DCFF7B689B6C07F10800BA
S31520003190154AC82104F0A4FD07F108031A4603497D
S315200031A00348FDF7CDFFADE0AC8C0020A305002041
S315200031B084940020D48B0020CC8C0020E48C00202A
S315200031C08519002068940020F88C00209F19002083
S315200031D00C8D0020FF4B00201C9900201C8D002008
S315200031E03C8D0020508D00206C8D00200022484907
S315200031F04848FDF7A5FFC7F8E4000022464947489E
S31520003200FDF79EFFC7F8E000002245494348FDF739
S3152000321097FFC7F8DC00002242493E48FDF790FFA1
S31520003220C7F8D800002240493C48FDF789FFC7F877
S31520003230D40000223D493948FDF782FFC7F8D00067
S315200032403B4B1A463B493C48FDF77AFF07F10800FD
S31520003250D7F8E430394AC82104F042FD07F10803C3
S315200032601A4634493448FDF76BFF07F10800D7F8B2
S31520003270E030334AC82104F033FD07F108031A462B
S315200032802C492D48FDF75CFF07F10800D7F8DC3004
S315200032902C4AC82104F024FD07F108031A462549C3
S315200032A02548FDF74DFF07F10800D7F8D830264A04
S315200032B0C82104F015FD07F108031A461D491E48CA
S315200032C0FDF73EFF07F10800D7F8D4301F4AC82182
S315200032D004F006FD07F108031A4616491648FDF7BD
S315200032E02FFF07F10800D7F8D030194AC82104F07B
S315200032F0F7FC07F108031A460E490F48FDF720FF91
S3152000330000E000BF00BF07F58077BD4680BD00BF47
S31520003310AD1B002068940020C14C00201C99002081
S31520003320DB4C00206D1B0020F54C00200F4D0020AB
S31520003330808D0020A305002084940020A88D0020E5
S31520003340B88D0020D88D0020F88D0020188E002002
S31520003350388E002080B588B002AF786039600023AF
S315200033600093564B564A00210020FDF74BFE0023C2
S315200033700093544B544A00210020FDF743FE0022BF
S3152000338052495348FDF7DCFE002252495248FDF7C8
S31520003390D7FE524B1A4652494F48FDF7D1FE514BA4
S315200033A01A464F494C48FDF7CBFE4F4B1A464C491F
S315200033B04948FDF7C5FE4D4B1A4649494648FDF793
S315200033C0BFFE4B4B1A4646494348FDF7B9FE494BCB
S315200033D01A4643494048FDF7B3FE474B1A46404933
S315200033E03D48FDF7ADFE454B1A463D493A48FDF7A7
S315200033F0A7FE434B1A463A493748FDF7A1FE414BF3
S315200034001A4637493448FDF79BFE3F4B1A46344946
S315200034103148FDF795FE3D4B1A4631492E48FDF7BA
S315200034208FFE3B4B1A462E492B48FDF789FE394B1A
S315200034301A462B492848FDF783FE324B1A4628495F
S315200034402548FDF77DFE344B1A4625492248FDF7CF
S3152000345077FE324B1A4622491F48FDF771FE304B44
S315200034601A461F491C48FDF76BFE2E4B1A461C496F
S315200034701948FDF765FE234B1A4619491648FDF7EC
S315200034805FFE01233B7301237B730623BB73482313
S31520003490FB7365233B746C237B746C23BB746F2393
S315200034A0FB7400233B7507F10C031A461E49084896
S315200034B0FDF746FE00BF1837BD4680BD554C00209F
S315200034C01C990020511A002068940020A94700204A
S315200034D0A4980020FD040020849400205C8E002007
S315200034E0A3050020708E0020908E0020D48E002010
S315200034F0EC8E00202C8F0020508F0020788F00200B
S31520003500A08F0020C88F00200C9000202090002043
S315200035106490002088900020AC900020C490002069
S315200035200C91002034910020B34A002080B500AFD2
S31520003530002208490848FDF7F7FF012207490848F5
S31520003540FDF7F2FF002207490748FEF753F800234C
S31520003550184680BD2F060020849400206148002054
S31520003560A4980020553300201C94002080B582B0FA
S3152000357000AF78607B680E4A93420AD101214FF052
S315200035800070FEF7FDFF00214FF00070FEF7F8FFF8
S3152000359009E001214FF08060FEF7F2FF00214FF095
S315200035A08060FEF7EDFF00BF0837BD4680BD00BF37
S315200035B00064004080B485B000AF78603960002395
S315200035C0FB730023BB607B681B6823F002027B68C9
S315200035D01A607B681B6843F001027B681A6002E070
S315200035E0BB680133BB607B685B6803F00103012B7A
S315200035F004D0BB684FF6FF729342F1D17B685B68BB
S3152000360003F00103012B02D00023FB739CE03B68EF
S315200036109B79012B06D17B681B6843F080027B686F
S315200036201A6005E07B681B6823F080027B681A60BD
S315200036303B68DB79012B06D17B681B6843F040028F
S315200036407B681A6005E07B681B6823F040027B6874
S315200036501A603B681B7A012B06D17B681B6843F0F6
S3152000366020027B681A6005E07B681B6823F0200235
S315200036707B681A603B685B7A012B06D17B681B68E6
S3152000368043F010027B681A6005E07B681B6823F014
S3152000369010027B681A603B689B7A012B06D17B68F7
S315200036A01B6843F008027B681A6005E07B681B688C
S315200036B023F008027B681A603B68DB7A012B06D16F
S315200036C07B681B6843F004027B681A6005E07B6810
S315200036D01B6823F004027B681A603B689B789A0774
S315200036E03B68DB781B061A433B681B791B041A438D
S315200036F03B685B791B051A433B681B88013B1A43D1
S315200037007B68DA617B681B6823F001027B681A609C
S315200037100023BB6002E0BB680133BB607B685B684B
S3152000372003F00103012B04D1BB684FF6FF729342CD
S31520003730F1D17B685B6803F00103012B02D10023E2
S31520003740FB7301E00123FB73FB7B18461437BD4650
S315200037505DF8047B704790B484B000AF7860002396
S31520003760FB607B689B7A1A4601239340FB605A4B89
S31520003770D3F80032584A43F00103C2F80032564BC0
S31520003780D3F81C22FB68DB4353491340C1F81C3293
S315200037907B681B7B002B29D14F4BD3F80C22FB686F
S315200037A0DB434D491340C1F80C327B68DB881B0490
S315200037B07A685288144648497A68927A104643EACB
S315200037C0040200F1480341F833207B689B881B04E0
S315200037D07A681288144640497A68927A104643EAF3
S315200037E0040200F14803DB000B445A607B681B7B14
S315200037F0012B28D1384BD3F80C223749FB681343C9
S31520003800C1F80C327B681B881B047A6852881446E0
S3152000381031497A68927A104643EA040200F1480355
S3152000382041F833207B689B881B047A68D28814462B
S3152000383029497A68927A104643EA040200F148033D
S31520003840DB000B445A607B68DB7A002B09D1224BC4
S31520003850D3F80422FB68DB431F491340C1F8043226
S3152000386007E01D4BD3F804221B49FB681343C1F81C
S3152000387004327B681B89002B08D1174BD3F81422FE
S31520003880FB68DB4314491340C1F814327B681B895B
S31520003890012B07D1104BD3F814220F49FB68134391
S315200038A0C1F814327B685B7B012B07D10A4BD3F816
S315200038B01C220949FB681343C1F81C32064BD3F876
S315200038C00032054A23F00103C2F8003200BF103748
S315200038D0BD4690BC704700BF0064004080B483B0F2
S315200038E000AF78607B6800229A717B680022DA71CB
S315200038F07B6800221A727B6800225A727B6800223B
S315200039009A727B680022DA727B6800229A707B6842
S315200039100022DA707B6803221A717B6802225A71B0
S315200039207B6801221A8000BF0C37BD465DF8047BF8
S31520003930704780B483B000AF0346FB71144BD3F8B5
S315200039400032134A43F00103C2F80032104BD3F879
S3152000395000320F4A23F47C5323F00E03C2F80032C0
S315200039600B4BD3F80022FB791B0209491343C1F8FC
S315200039700032074BD3F80032054A23F00103C2F880
S31520003980003200BF0C37BD465DF8047B704700BF90
S315200039900064004080B483B000AF78600B46FB70B3
S315200039A0FB78002B06D07B681B6843F480327B684B
S315200039B01A6005E07B681B6823F480327B681A60F6
S315200039C000BF0C37BD465DF8047B704780B483B0DA
S315200039D000AF78600B46FB70FB78002B1ED07B680F
S315200039E01B6843F080027B681A607B68D3F88431B9
S315200039F043F480727B68C3F884217B68D3F89431C2
S31520003A0043F480727B68C3F894217B68D3F8A43191
S31520003A1043F480727B68C3F8A4211DE07B681B6891
S31520003A2023F080027B681A607B68D3F8843123F404
S31520003A3080727B68C3F884217B68D3F8943123F4A1
S31520003A4080727B68C3F894217B68D3F8A43123F471
S31520003A5080727B68C3F8A42100BF0C37BD465DF891
S31520003A60047B704780B485B000AF7860396000234E
S31520003A70FB737B689B6803F08063B3F1806F02D190
S31520003A800023FB7315E07B689B6803F00063B3F1AA
S31520003A90006F02D10123FB730BE07B689B6803F068
S31520003AA08053B3F1805F02D10223FB7301E004232C
S31520003AB0FB73FB7B042B00F09F80FB7B7A6818331B
S31520003AC01B0113441A68FB7B02F001027968183344
S31520003AD01B010B441A603B681B7A002B13D1FB7B1E
S31520003AE07A6818331B01134419683B681B685B0509
S31520003AF03A68527A1A43FB7B0A43796818331B01CA
S31520003B000B441A6015E0FB7B7A6818331B011344BB
S31520003B1019683B685B68DB003A68127A13433A6897
S31520003B20527A1A43FB7B0A43796818331B010B44EC
S31520003B301A603B689B7A03F00F03DAB23B689A72ED
S31520003B40FB7B7A6818331B01134404331A68FB7B0A
S31520003B5022F00F02796818331B010B4404331A60D4
S31520003B60FB7B7A6818331B01134404331A683B68BD
S31520003B709B7A1946FB7B0A43796818331B010B4451
S31520003B8004331A603B689B7B1A063B685B7B1B04ED
S31520003B901A433B681B7B1B021A433B68DB7A194698
S31520003BA0FB7B0A4379681B010B4403F5C4731A6037
S31520003BB03B689B7C1A063B685B7C1B041A433B686C
S31520003BC01B7C1B021A433B68DB7B1946FB7B0A43A3
S31520003BD079681B010B4403F5C6731A60FB7B7A6870
S31520003BE018331B0113441A68FB7B42F001027968E3
S31520003BF018331B010B441A60FB7B18461437BD464D
S31520003C005DF8047B704780B485B000AF78600B46C2
S31520003C10FB700023FB60FB78022B12D0022B16DCF4
S31520003C20002B02D0012B06D011E07B689A68314B1D
S31520003C301340FB600EE07B689A682F4B1340FB60B5
S31520003C4008E07B689A682D4B1340FB6002E0002356
S31520003C50FB6000BFFB68294A93423DD0FB68274A98
S31520003C6093423CD8FB68264A93422CD0FB68244AD0
S31520003C70934234D8FB68204A93422AD0FB681E4AD6
S31520003C8093422CD8FB681F4A934219D0FB681D4AE1
S31520003C90934224D8FB68174A934217D0FB68154AEB
S31520003CA093421CD8FB68002B04D0FB68164A93422B
S31520003CB003D014E00223FB6014E00023FB6011E034
S31520003CC00023FB600EE00023FB600BE00123FB607A
S31520003CD008E00123FB6005E00123FB6002E00023EE
S31520003CE0FB6000BFFB68DBB218461437BD465DF8A3
S31520003CF0047B704703000004000300080000031043
S31520003D0000000110000100080100000480B483B007
S31520003D1000AF78600B46FB70FB78022B14D0022B89
S31520003D2019DC002B02D0012B07D014E07B689B689E
S31520003D3043F080027B689A600EE07B689B6843F4C0
S31520003D4000427B689A6007E07B689B6843F4000228
S31520003D507B689A6000E000BF00BF0C37BD465DF867
S31520003D60047B704780B485B000AFF8600B467A605C
S31520003D70FB72FB7AFA681B331B0113441B68DBB208
S31520003D8003F00403DAB27B681A727B681B7A002B75
S31520003D900BD1FB7AFA681B331B0113441B685B0D9E
S31520003DA0C3F30A027B681A600AE0FB7AFA681B33BF
S31520003DB01B0113441B68DB0823F060427B685A60B2
S31520003DC0FB7AFA681B331B0113441B68DBB203F032
S31520003DD00203DAB27B685A72FB7AFA681B331B013C
S31520003DE0134404331B68DBB203F00F03DAB27B689B
S31520003DF09A72FB7AFA681B331B01134404331B683F
S31520003E001B0ADAB27B68DA74FB7AFA681B01134460
S31520003E1003F5DC731B68DAB27B68DA72FB7AFA6820
S31520003E201B01134403F5DC731B681B0ADAB27B689B
S31520003E301A73FB7AFA681B01134403F5DC731B68BB
S31520003E401B0CDAB27B685A73FB7AFA681B0113449F
S31520003E5003F5DC731B681B0EDAB27B689A73FB7A58
S31520003E60FA681B01134403F5DE731B68DAB27B681C
S31520003E70DA73FB7AFA681B01134403F5DE731B68B9
S31520003E801B0ADAB27B681A74FB7AFA681B011344A0
S31520003E9003F5DE731B681B0CDAB27B685A74FB7A57
S31520003EA0FA681B01134403F5DE731B681B0EDAB296
S31520003EB07B689A74FB7A002B06D1FB68DB6843F09B
S31520003EC02002FB68DA6005E0FB681B6943F02002EC
S31520003ED0FB681A6100BF1437BD465DF8047B704746
S31520003EE080B483B000AF78600B46FB70FB78002B64
S31520003EF006D17B68DB6843F020027B68DA6005E048
S31520003F007B681B6943F020027B681A6100BF0C376F
S31520003F10BD465DF8047B704780B485B000AF7860FD
S31520003F200B46FB700023FB73FB78002B06D17B68C6
S31520003F30DB68DBB203F00303FB730BE0FB78012B9A
S31520003F4006D17B681B69DBB203F00303FB7301E038
S31520003F500023FB73FB7B18461437BD465DF8047BB4
S31520003F60704780B485B000AF78600B46FB700023A5
S31520003F70FB734FF6FF73BB60FB78002B20D17B6869
S31520003F801B6823F0030343F001027B681A6002E0FA
S31520003F90BB68013BBB607B685B6803F00303012BB6
S31520003FA002D0BB68002BF3D17B685B6803F0030368
S31520003FB0012B02D00023FB734AE00123FB7347E069
S31520003FC0FB78012B1ED17B681B6823F003027B68DC
S31520003FD01A6002E0BB68013BBB607B685B6803F04C
S31520003FE00303002B02D0BB68002BF3D17B685B68F0
S31520003FF003F00303002B02D00023FB7328E00123E8
S31520004000FB7325E0FB78022B20D17B681B6823F00D
S31520004010030343F002027B681A6002E0BB68013B9F
S31520004020BB607B685B6803F00303022B02D0BB688E
S31520004030002BF3D17B685B6803F00303022B02D0CD
S315200040400023FB7304E00123FB7301E00023FB73D1
S31520004050FB7B18461437BD465DF8047B704780B459
S3152000406085B000AF78600023FB737B681B6823F064
S31520004070030343F002027B681A607B685B6803F0E7
S315200040800303022B01D10123FB73FB7B1846143754
S31520004090BD465DF8047B704780B485B000AF78607C
S315200040A04FF6FF73FB600023FB727B681B6823F0CF
S315200040B002027B681A6002E0FB68013BFB607B68BA
S315200040C05B6803F00203022B02D1FB68002BF3D1BD
S315200040D07B685B6803F00203022B01D00123FB728D
S315200040E0FB7A18461437BD465DF8047B704780B4CA
S315200040F085B000AF78600023FB737B689B69DBB2D9
S3152000410003F07003FB73FB7B18461437BD465DF83E
S31520004110047B704780B485B000AF78600023FB73C2
S315200041207B689B691B0EFB73FB7B18461437BD46C9
S315200041305DF8047B704780B485B000AF78600023BB
S31520004140FB737B689B691B0CFB73FB7B1846143740
S31520004150BD465DF8047B704780B485B000AFF8603B
S31520004160B9601346FB71FB79002B06D0FB685A69B0
S31520004170BB681A43FB685A6106E0FB685A69BB684C
S31520004180DB431A40FB685A6100BF1437BD465DF811
S31520004190047B704780B485B000AF78603960002317
S315200041A0FB733B6803F47003002B0DD07B689A6980
S315200041B03B681340C3F31303002B02D00123FB7388
S315200041C048E00023FB7345E03B6803F08073002B37
S315200041D00DD07B685A683B681340C3F31303002B4A
S315200041E002D00123FB7335E00023FB7332E03B68EA
S315200041F003F00063002B0DD07B689A683B68134060
S31520004200C3F31303002B02D00123FB7322E0002308
S31520004210FB731FE03B6803F00073002B0DD07B6817
S31520004220DA683B681340C3F31303002B02D0012343
S31520004230FB730FE00023FB730CE07B681A693B6875
S315200042401340C3F31303002B02D00123FB7301E0B9
S315200042500023FB73FB7B18461437BD465DF8047BB1
S31520004260704780B485B000AF786039600023FB606A
S315200042703B68174A934203D17B6800229A6121E06A
S315200042803B68C3F31303FB603B6803F00073002B0A
S3152000429003D07B68FA68DA6014E03B6803F0806339
S315200042A0002B03D07B68FA681A610BE03B6803F0A9
S315200042B00063002B03D07B68FA689A6002E07B6873
S315200042C0FA685A6000BF1437BD465DF8047B704714
S315200042D07000F03080B584B000AF7860396000237C
S315200042E0FB737B685A693B681340002B00F01B81E7
S315200042F03B68B3F5003F00F0DD803B68B3F5003F37
S3152000430000F20E813B68B3F5803F00F0CA803B681F
S31520004310B3F5803F00F204813B68B3F5004F00F00F
S31520004320F6803B68B3F5004F00F2FA803B68B3F5A0
S31520004330006F00F0E3803B68B3F5006F00F2F08079
S315200043403B68B3F5806F00F0D0803B68B3F5806F93
S3152000435000F2E6803B68B3F5007F00F0BD803B6845
S31520004360B3F5007F00F2DC803B68B3F5807F00F078
S31520004370AA803B68B3F5807F00F2D2803B68202B71
S315200043804CD83B68002B00F0CB803B68013B1F2BB1
S3152000439000F2C68001A252F823F000BF2544002077
S315200043A03744002021450020494400202145002093
S315200043B021450020214500205B4400202145002086
S315200043C021450020214500202145002021450020AF
S315200043D021450020214500206D4400202145002054
S315200043E0214500202145002021450020214500208F
S315200043F0214500202145002021450020214500207F
S31520004400214500202145002021450020214500206E
S3152000441021450020214500207F4400203B68402B79
S3152000442036D07DE07B689B684249184600F060F9EB
S315200044300346FB7379E07B68DB680321184600F0AE
S3152000444057F90346FB7370E07B68DB680821184642
S3152000445000F04EF90346FB7367E07B68DB681021AA
S31520004460184600F045F90346FB735EE07B681B693E
S315200044700321184600F03CF90346FB7355E07B68A0
S315200044801B690821184600F033F90346FB734CE0FC
S315200044907B681B691021184600F02AF90346FB7336
S315200044A043E07B685B680821184600F021F9034643
S315200044B0FB733AE07B685B681021184600F018F918
S315200044C00346FB7331E07B689B690121184600F0A7
S315200044D00FF90346FB7328E07B689B690221184687
S315200044E000F006F90346FB731FE07B689B690421F5
S315200044F0184600F0FDF80346FB7316E07B689B69BF
S315200045007021184600F0F4F80346FB730DE07B6833
S315200045105B680421184600F0EBF80346FB7304E0C1
S315200045200023FB7301E00023FB73FB7B1846103747
S31520004530BD4680BD0101010080B483B000AF786024
S3152000454039603B68B3F5003F00F0AA803B68B3F5BD
S31520004550003F00F2C3803B68B3F5803F00F09C80AB
S315200045603B68B3F5803F00F2B9803B68B3F5004F56
S3152000457000F0AD803B68B3F5004F00F2AF803B689A
S31520004580B3F5006F00F09C803B68B3F5006F00F236
S31520004590A5803B68B3F5806F00F08E803B68B3F54D
S315200045A0806F00F29B803B68B3F5007F00F080802F
S315200045B03B68B3F5007F00F291803B68B3F5807FBE
S315200045C072D03B68B3F5807F00F288803B68202B51
S315200045D04AD83B68002B00F081803B68013B1F2BAB
S315200045E07CD801A252F823F071460020DD46002037
S315200045F0DD46002079460020DD460020DD460020ED
S31520004600DD46002081460020DD460020DD460020D4
S31520004610DD460020DD460020DD460020DD46002068
S31520004620DD460020DD460020DD460020DD46002058
S31520004630DD460020DD460020DD460020DD46002048
S31520004640DD460020DD460020DD460020DD46002038
S31520004650DD460020DD460020DD460020DD46002028
S31520004660DD460020894600203B68402B10D035E0EF
S315200046707B681E4A9A6032E07B680822DA602EE068
S315200046807B681022DA602AE07B6808221A6126E01D
S315200046907B6810221A6122E07B6808225A601EE09D
S315200046A07B6810225A601AE07B6804225A6016E062
S315200046B07B6804225A6012E07B6804225A600EE06E
S315200046C07B6800229A617B6804225A6007E07B6837
S315200046D000229A617B6804225A6000E000BF00BF76
S315200046E00C37BD465DF8047B704700BF0101010011
S315200046F080B485B000AF786039600023FB737A6898
S315200047003B681340002B02D00123FB7301E00023FA
S31520004710FB73FB7B18461437BD465DF8047B704758
S3152000472080B483B000AF0346FB71FB7903F01F030F
S31520004730012202FA03F1064A97F907305B0942F88B
S31520004740231000BF0C37BD465DF8047B704700BFC1
S3152000475000E100E080B483B000AF03463960FB710E
S3152000476097F90730002B0BDA3B68DAB20C49FB7954
S3152000477003F00F03043B1201D2B20B441A7609E070
S315200047803B68DAB2074997F907301201D2B20B44D7
S3152000479083F8002300BF0C37BD465DF8047B7047C5
S315200047A000ED00E000E100E080B586B000AF786063
S315200047B039607B6800229A617B689A697B685A61B6
S315200047C07B685A697B68DA6107F10C031846FFF7A4
S315200047D085F80023BB740023FB7400233B7500235C
S315200047E07B750023BB750023FB750023BB73002359
S315200047F0FB7302233B7403237B740723BB8107F1DE
S315200048000C0319461248FEF7D5FE0346002B02D1AB
S315200048101048FBF7BDFF07F10C0319460E48FEF7BB
S31520004820C9FE0346002B02D10C48FBF7B1FF02213B
S315200048301420FFF78FFF1420FFF772FF01220221B9
S315200048400348FFF789FC00BF1837BD4680BD00BF6F
S31520004850006400405C9100200068004074910020B4
S31520004860B0B58AB002AF786039607B689B685A49D8
S315200048701846FFF78FFC0346012B02D05748FBF75B
S3152000488087FF7B68DB69072B00F39E807B689B682C
S3152000489007F1080200211846FFF764FABB681B09D6
S315200048A0DBB27A68526903F07F03D8B2796813467F
S315200048B09B0013445B0013440B44203302461A70BA
S315200048C0BB68DBB27A68526903F00F03D8B2796805
S315200048D013469B0013445B0013440B4421330246CA
S315200048E01A70BB7C7A68526903F00F03D8B27968D4
S315200048F013469B0013445B0013440B4422330246A9
S315200049001A700023FB7715E0FB7F7A685269F97FDE
S3152000491020333B4413F80D4C786813469B00134410
S315200049205B00134403440B44233322461A70FB7F57
S315200049300133FB777B685A69796813469B001344D9
S315200049405B0013440B4422331B78FA7F9A42DBD355
S315200049507B68DB68002B25D07B68DC687B681D695B
S315200049607B685A69796813469B0013445B0013449D
S315200049700B4420331B7819017B685A6978681346E3
S315200049809B0013445B001344034421331B780B44E0
S3152000499000932B46224600210020FCF733FB104BC8
S315200049A001221A607B685B6901335A4203F00703D0
S315200049B002F0070258BF53427A6853617B68DB696D
S315200049C05A1C7B68DA6102E00648FBF7E1FE00BF6D
S315200049D02037BD46B0BD00BF030000128C910020D9
S315200049E0D01C0120B491002090B484B000AF786030
S315200049F039607B68DB69002B55DD7B689A697968AD
S31520004A0013469B0013445B0013440B4420331A784F
S31520004A103B681A707B689A69796813469B00134431
S31520004A205B0013440B4421331A783B685A707B6829
S31520004A309A69796813469B0013445B0013440B4420
S31520004A4022331A783B689A700023FB7313E07B6845
S31520004A509A69F87BF97B7C6813469B0013445B00BC
S31520004A6013442344034423331A783B680B44DA70F7
S31520004A70FB7B0133FB733B689B78FA7B9A42E6D338
S31520004A807B689B6901335A4203F0070302F0070251
S31520004A9058BF53427A6893617B68DB695A1E7B68EC
S31520004AA0DA61002300E0012318461037BD4690BC8A
S31520004AB0704780B58AB000AF786039607B689B68A4
S31520004AC03B620023FB773B681B781B013A685278D0
S31520004AD01344BB6000237B7400233B743B689B78A4
S31520004AE0082B02D93B6808229A703B689B78BB74D6
S31520004AF0002387F827300FE097F8272097F82730EC
S31520004B0039680A44D27828333B4403F8152C97F8A1
S31520004B102730013387F827303B689B7897F8272082
S31520004B209A42E9D307F108031946386AFEF79AFF35
S31520004B300346FB77FB7F042B04D10548FBF728FEB1
S31520004B40012300E0002318462837BD4680BD00BF5C
S31520004B50D491002080B483B000AF786039607B6840
S31520004B601B7A18460C37BD465DF8047B704780B427
S31520004B7083B000AF786039603B68002B08DD3B6866
S31520004B80142B05DC3B68DAB27B681A723B6805E0B9
S31520004B907B681A7A7B681A724FF0FF3318460C37F7
S31520004BA0BD465DF8047B704780B483B000AF786063
S31520004BB039607B681B7A002B04D17B685A7A7B6824
S31520004BC01A7206E07B681A7A7B685A727B68002222
S31520004BD01A727B681B7A18460C37BD465DF8047B33
S31520004BE0704780B483B000AF786039607B683A68DC
S31520004BF0DA6000BF0C37BD465DF8047B704780B491
S31520004C0083B000AF786039603B68DAB27B689A720D
S31520004C1000BF0C37BD465DF8047B704780B483B077
S31520004C2000AF786039607B683A681A6100BF0C373C
S31520004C30BD465DF8047B704780B483B000AF7860D2
S31520004C4039607B683A685A6100BF0C37BD465DF80B
S31520004C50047B704780B584B002AF786039603B68CA
S31520004C60002B03D1124B00221A6004E07B681B7ACA
S31520004C701A460F4B1A600E4B1A680E4BD2B21A7098
S31520004C807B681B690C4A82FB03129210DB17D01A31
S31520004C903B68002B0CBF01230023DBB20093074B9C
S31520004CA07A680021FCF7AEF900BF0837BD4680BD03
S31520004CB0F81C01201C74004067666666554C00206F
S31520004CC080B483B000AF786039607B68DB681846B3
S31520004CD00C37BD465DF8047B704780B483B000AFC7
S31520004CE0786039607B689B7A18460C37BD465DF83C
S31520004CF0047B704780B483B000AF786039607B68EE
S31520004D001B7A18460C37BD465DF8047B704780B485
S31520004D1083B000AF786039607B685B7A18460C37C1
S31520004D20BD465DF8047B704780B582B000AF7860E1
S31520004D307B684B4A934208D101210120FDF7C0FB35
S31520004D4000210120FDF7BCFB86E07B68454A9342A3
S31520004D5008D101210220FDF7B3FB00210220FDF737
S31520004D60AFFB79E07B68404A934208D101210420B9
S31520004D70FDF7A6FB00210420FDF7A2FB6CE07B6873
S31520004D803A4A934208D101210820FDF799FB0021D8
S31520004D900820FDF795FB5FE07B68354A934208D1F2
S31520004DA001211020FDF78CFB00211020FDF788FB48
S31520004DB052E07B682F4A934208D101212020FDF73B
S31520004DC07FFB00212020FDF77BFB45E07B682A4AFC
S31520004DD0934208D101214020FDF772FB002140209B
S31520004DE0FDF76EFB38E07B68244A934208D1012107
S31520004DF08020FDF765FB00218020FDF761FB2BE07D
S31520004E007B681F4A93420AD101214FF48070FDF737
S31520004E1057FB00214FF48070FDF752FB1CE07B68A6
S31520004E20184A93420AD101214FF40070FDF748FB3E
S31520004E3000214FF40070FDF743FB0DE07B68124A1A
S31520004E40934209D101214FF48060FDF739FB0021FF
S31520004E504FF48060FDF734FB00BF0837BD4680BDA8
S31520004E60000002400004024000080240000C0240FC
S31520004E70001002400014024000180240001C0240AC
S31520004E8000200240002402400028024080B487B05F
S31520004E9000AF7860396000237B6100233B610023EB
S31520004EA0FB6000237B6176E001227B6902FA03F333
S31520004EB03B613B681B683A691340FB60FA683B69B3
S31520004EC09A4265D17B681A687B695B00032101FAE7
S31520004ED003F3DB431A407B681A607B681A683B68D9
S31520004EE01B7919467B695B0001FA03F31A437B6839
S31520004EF01A603B681B79012B03D03B681B79022B78
S31520004F002ED17B689A687B695B00032101FA03F343
S31520004F10DB431A407B689A607B689A683B685B79BA
S31520004F2019467B695B0001FA03F31A437B689A6092
S31520004F307B685A687B699BB2194601238B40DB4309
S31520004F401A407B685A607B685B683A68927911469A
S31520004F507A6992B201FA02F292B21A437B685A60D7
S31520004F607B68DA687B699BB25B00032101FA03F355
S31520004F70DB431A407B68DA607B68DA683B68DB795A
S31520004F8019467B695B0001FA03F31A437B68DA60F2
S31520004F907B6901337B617B690F2B85D900BF00BFFD
S31520004FA01C37BD465DF8047B704780B483B000AFE4
S31520004FB078607B684FF6FF721A607B6800221A7150
S31520004FC07B6800225A717B6800229A717B680022D6
S31520004FD0DA7100BF0C37BD465DF8047B704780B49C
S31520004FE085B000AF78600B467B804FF48033FB6042
S31520004FF07A88FB681343FB60FA687B68DA617A88F3
S315200050007B68DA61FA687B68DA617B68DB69FB605A
S315200050107B68DB69FB6000BF1437BD465DF8047B07
S31520005020704780B485B000AF78600B467B80002344
S31520005030FB737B681A697B881340002B02D00123FF
S31520005040FB7301E00023FB73FB7B18461437BD4638
S315200050505DF8047B704780B483B000AF78607B68CE
S315200050601B699BB218460C37BD465DF8047B70471A
S3152000507080B485B000AF78600B467B800023FB733D
S315200050807B685A697B881340002B02D00123FB736F
S3152000509001E00023FB73FB7B18461437BD465DF801
S315200050A0047B704780B483B000AF78607B685B690F
S315200050B09BB218460C37BD465DF8047B704780B41A
S315200050C083B000AF78600B467B807B687A881A8332
S315200050D000BF0C37BD465DF8047B704780B483B0B3
S315200050E000AF78600B467B807B687A885A8300BF46
S315200050F00C37BD465DF8047B704780B483B000AFA3
S3152000510078600B467B8013467B707B78002B03D020
S315200051107B687A881A8302E07B687A885A8300BF84
S315200051200C37BD465DF8047B704780B483B000AF72
S3152000513078600B467B807A887B685A6100BF0C3783
S31520005140BD465DF8047B704780B483B000AF7860BD
S315200051500B467B807B685A697B885A407B685A61FC
S3152000516000BF0C37BD465DF8047B704780B485B020
S3152000517000AF78600B467B8013467B700023FB6074
S315200051800023BB607A787B8803F007039B0002FA32
S3152000519003F3FB607B88DB089BB21A467B680832E8
S315200051A053F822207B8803F007039B000F2101FA86
S315200051B003F3DB437988C90889B2084602EA03016A
S315200051C07B6800F1080243F822107B88DB089BB23B
S315200051D01A467B68083253F82230FA681343BB60BC
S315200051E07B88DB089BB21A467B680832B96843F88D
S315200051F0221000BF1437BD465DF8047B704700BF00
S3152000520080B500AF01214FF00050FDF7B9F900211C
S315200052104FF00050FDF7B4F900BF80BD80B485B0D3
S3152000522000AF786039600023FB600023BB60144B1D
S315200052301B68FB6040F6FE727B6802FA03F3DB43D1
S31520005240FA681340FB603B681A683B685B681A4340
S315200052503B689B681A433B68DB681343BB60BA68AC
S315200052607B6802FA03F3FA681343FB60044AFB687F
S31520005270136000BF1437BD465DF8047B704700BF3E
S315200052800074004080B483B000AF78607B68002251
S315200052901A607B6800225A607B6800229A607B68CD
S315200052A00022DA6000BF0C37BD465DF8047B7047EC
S315200052B080B483B000AF78600B46FB70FB78002B80
S315200052C009D00D4B1A6801217B6801FA03F30A49BC
S315200052D013430B6009E0084B1A6801217B6801FA29
S315200052E003F3DB43044913400B6000BF0C37BD4674
S315200052F05DF8047B704700BF0074004080B483B023
S3152000530000AF78600B46FB70FB78002B0AD00E4B63
S315200053105A687B681B09012101FA03F30A491343E2
S315200053204B600AE0084B5A687B681B09012101FA89
S3152000533003F3DB43044913404B6000BF0C37BD46E3
S315200053405DF8047B704700BF0074004080B483B0D2
S3152000535000AF0346FB71FB79002B06D0094B5B6837
S31520005360084A43F00303536005E0064B5B68054A91
S3152000537023F00303536000BF0C37BD465DF8047B62
S31520005380704700BF0074004080B485B000AFF8605D
S31520005390B9601346FB71FB79002B09D00C4B1A68B8
S315200053A0B968FB6801FA03F3094913430B6009E066
S315200053B0074B1A68B968FB6801FA03F3DB43044913
S315200053C013400B6000BF1437BD465DF8047B704761
S315200053D00074004080B485B000AF78600B467B80B7
S315200053E00023FB60084BFB60FA687B681344083394
S315200053F0FB60FB681A467B88136000BF1437BD46E6
S315200054005DF8047B704700BF0074004080B485B00F
S3152000541000AF78600B467B800023FB60084BFB6067
S31520005420FA687B6813441433FB60FB681A467B8852
S31520005430136000BF1437BD465DF8047B704700BF7C
S315200054400074004080B485B000AF78600B467B8046
S3152000545013463B800023FB600023BB607B68082B40
S3152000546005D17B881A023B881343FB6004E07B88C6
S315200054701A043B881343FB60074BBB607A68BB6802
S3152000548013442033BB60BB68FA681A6000BF143728
S31520005490BD465DF8047B70470074004080B485B03B
S315200054A000AF78600023FB60084BFB607B689A089E
S315200054B0FB6813442C33FB60FB681B689BB21846C1
S315200054C01437BD465DF8047B704700BF007400406A
S315200054D080B483B000AF78600B46FB70FB78002B5E
S315200054E00AD00E4B1A684FF480517B6801FA03F3F9
S315200054F00A4913430B600AE0084B1A684FF480519F
