S01600002E2F44656275672F5254532D4C61622E73313936
S3152000000000BFDFF814D000F004FB03F0C9FC00F0B9
S3152000001012BBFEE700BF000000C0012080B400AF85
S31520000020094B00221A60084B00225A60064B002218
S315200000309A60054B0022DA60034B044A5A6100BFDE
S31520000040BD465DF8047B7047003C0140FFFF7F0002
S3152000005080B485B000AF78600023FB60344BFB6032
S315200000607B689B79002B4FD0314B1A687B681B68C5
S31520000070DB432F4913400B602D4B5A687B681B6866
S31520000080DB432B4913404B607B681B791A46FB6880
S315200000901344FB60FB6819687B681A68FB680A438F
S315200000A01A60234B9A687B681B68DB432049134000
S315200000B08B601F4BDA687B681B68DB431C49134047
S315200000C0CB607B685B79102B0ED1194B9A687B68C5
S315200000D01B68174913438B60154BDA687B681B68CE
S315200000E013491343CB601DE0114BFB607B685B79A2
S315200000F01A46FB681344FB60FB6819687B681A681C
S31520000100FB680A431A600DE07B681B791A46FB6878
S315200001101344FB60FB6819687B681B68DA43FB683D
S315200001200A401A6000BF1437BD465DF8047B70474D
S31520000130003C014080B483B000AF78607B68002229
S315200001401A607B6800221A717B680C225A717B68C0
S3152000015000229A7100BF0C37BD465DF8047B7047BC
S3152000016080B483B000AF7860054B1A6904497B6878
S3152000017013430B6100BF0C37BD465DF8047B704707
S31520000180003C014080B485B000AF78600023FB734B
S31520000190084B5A697B681340002B02D00123FB735E
S315200001A001E00023FB73FB7B18461437BD465DF840
S315200001B0047B7047003C014080B483B000AF786078
S315200001C0044A7B68536100BF0C37BD465DF8047B4B
S315200001D0704700BF003C014080B485B000AF786016
S315200001E00023FB73084B5A697B681340002B02D00F
S315200001F00123FB7301E00023FB73FB7B18461437B6
S31520000200BD465DF8047B7047003C014080B483B056
S3152000021000AF7860044A7B68536100BF0C37BD4647
S315200002205DF8047B704700BF003C0140314900E087
S315200002303149EFF3088020ED108A7246EFF31183DF
S3152000024020E9FC0F2D4FD7F80080C8F800001EE0EB
S31520000250084600F03FFA2A4800F03CFA294800F008
S3152000026039FAD8F8040000F081FA274800F032FA6B
S31520000270D8F8000000F04BFA244800F02BFAD8F802
S315200002800000006800F043FA1D4800F023FADFF86A
S315200002908080D8F80080C7F8008018E01D4800F05C
S315200002A019FAD8F8040000F061FA1B4800F012FA97
S315200002B0D8F8000000F02BFA144800F00BFAD8F812
S315200002C00000006800F023FA0D4800F003FA134AF4
S315200002D0536843F00063536000BFD8F80000B0E8CD
S315200002E0FC0F83F311889646B0EC108A80F30888B9
S315200002F07047000030A9002041A90020D4A9002081
S31520000300B1A9002062A900207AA9002082A9002094
S3152000031094B000208BA90020A0A9002000ED00E0C9
S3152000032080B400AF00BFBD465DF8047B704780B542
S3152000033086B000AF454804F0ABF9454806F0C2FE4A
S31520000340444806F0BFFE01214FF0007003F084FF01
S3152000035001214FF0806003F07FFF0121022003F08E
S315200003601BFF09220921394804F0B4FB0922082180
S31520000370364804F0AFFB07F11003184604F0C9FA1B
S315200003804FF400733B6102233B750023BB750023AA
S31520000390FB7502237B7507F1100319462B4804F0E1
S315200003A029FA4FF480733B6102233B750023BB750A
S315200003B00123FB7502237B7507F110031946234899
S315200003C004F018FA09220621204804F083FB0922AA
S315200003D005211E4804F07EFB40233B6102233B752A
S315200003E00023BB750023FB7502237B7507F11003E1
S315200003F01946164804F0FEF920233B6102233B757B
S315200004000023BB750123FB7502237B7507F11003BF
S3152000041019460E4804F0EEF90023BB720023FB7246
S3152000042001233B7300233B8000237B800023BB807A
S315200004300023FB8000233B8101237B733B46184628
S3152000044006F035FF00BF1837BD4680BD00040240C8
S31520000450006400400068004080B586B000AF0121EE
S315200004604FF0005003F0F8FE07F11003184604F091
S3152000047050FA20233B6103233B750023FB7507F1CC
S31520000480100319460F4804F0B5F908F0ADFB3B46BA
S31520000490184608F0EBFB00233B6000237B6000231B
S315200004A0FB603B461946102008F0ACFB01211020CA
S315200004B008F0F2FB0021082008F09CFC00BF18374A
S315200004C0BD4680BD0000024080B584B000AF01214A
S315200004D04FF4804003F0E0FE0721012008F0DAFD0A
S315200004E0FFF79CFD3B461846FFF724FE80233B6022
S315200004F000233B710C237B710123BB713B461846BD
S31520000500FFF7A6FD07F10803184604F002FA0223B6
S31520000510BB6001233B730123BB730023FB730123C1
S315200005207B7307F108031946184804F063F9012381
S31520000530BB6001233B730123BB730023FB730123A1
S315200005407B7307F108031946104804F053F901227A
S3152000055002210E4804F085FA012201210B4804F0FD
S3152000056080FA8023BB6000233B730023BB730023E8
S31520000570FB7301237B7307F108031946034804F034
S3152000058039F900BF1037BD4680BD00BF00040240C8
S3152000059080B483B000AFEFF314833B603B6823F055
S315200005A003037B607B6883F3148800BF094B4FF4F9
S315200005B004725A61074B5B69064A43F0080353618C
S315200005C0054B4FF000425A6000BF0C37BD465DF820
S315200005D0047B704700ED00E030EF00E080B500AF0F
S315200005E00121082003F038FE0121082003F074FFC2
S315200005F000BF80BD80B400AF124A02E0002342F85B
S31520000600043B114B9A42F9D300BFBD465DF8047BEB
S31520000610704780B500AFFFF7EDFFFFF781FEFFF7CC
S3152000062086FEFFF719FFFFF74FFFFFF7B1FFFFF732
S31520000630D5FF00BF80BD80B400AF00BFBD465DF8CA
S31520000640047B704750B00020F033012080B483B083
S3152000065000AF0346FB71FB7903F01F03012202FA68
S3152000066003F1064A97F907305B0942F8231000BFC9
S315200006700C37BD465DF8047B704700BF00E100E003
S3152000068080B483B000AF03463960FB7197F9073019
S31520000690002B0BDA3B68DAB20C49FB7903F00F0327
S315200006A0043B1201D2B20B441A7609E03B68DAB257
S315200006B0074997F907301201D2B20B4483F8002379
S315200006C000BF0C37BD465DF8047B704700ED00E0A7
S315200006D000E100E080B582B000AF78600EE07B6874
S315200006E01B780D2B07D07B685A1C7A601B7818461E
S315200006F000F060F902E07B6801337B607B681B7841
S31520000700002BECD100BF00BF0837BD4680BD80B5A9
S3152000071086B000AF786000237B617B6803F00F0210
S315200007207B69591C796110498A5C07F118010B44D1
S3152000073003F80C2C7B681B097B607B68002BECD1B3
S315200007400AE07B69013B7B6107F10C027B6913445C
S315200007501B78184600F02EF97B69002BF1D100BFDB
S3152000076000BF1837BD4680BDB4A9002080B59EB015
S3152000077000AF78607B68002B02DA4FF0FF3300E091
S3152000078001233B677B683A6F02FB03F37B60002300
S315200007907B6779681C4B83FB01239A10CB17D21AEF
S315200007A013469B0013445B00CA1A7B6F591C79675A
S315200007B016498A5C07F178010B4403F86C2C7B6898
S315200007C0114A82FB03129210DB17D31A7B607B68D7
S315200007D0002BDED13B6F002B0EDA2D2000F0EAF83D
S315200007E00AE07B6F013B7B6707F10C027B6F1344AA
S315200007F01B78184600F0DEF87B6F002BF1D100BF86
S3152000080000BF7837BD4680BD67666666B4A90020FE
S3152000081080B483B000AF10237B607B6883F311889C
S3152000082000BF00BF0C37BD465DF8047B704780B41F
S3152000083083B000AF30237B607B6883F3118800BFD1
S3152000084000BF0C37BD465DF8047B704780B584B089
S3152000085000AF78600B48FFF73DFF0B4B1B68002B62
S3152000086002D1094B094A1A60074B1B68FB60064BED
S315200008701A687B681344044A1360FB6818461037CD
S31520000880BD4680BD209E0020D8B30020F033012035
S3152000089080B485B000AF786039603B6803F5F953C2
S315200008A010337A6813607B681B68BB600023FB608B
S315200008B00AE0FB689B001A46BB6813441A460023CD
S315200008C01360FB680133FB60FB68332BF1DDBB68EB
S315200008D06FF016021A60BB6804331A4603231360AE
S315200008E0BB6884331A464FF08073136000BF1437F9
S315200008F0BD465DF8047B704780B485B000AF786054
S3152000090039607B681B688033FB60FB683A681A6035
S3152000091000BF1437BD465DF8047B704780B584B0B0
S3152000092000AF1D4804F014FA3B1D184604F05CFB8A
S3152000093040F24733BB803B1D1946174804F0E8FABE
S31520000940164B174A1A6002216FF00100FFF798FE36
S31520000950144B154A1A6000216FF00400FFF790FE31
S31520000960124B134A1A6002213220FFF789FE3220E9
S31520000970FFF76CFE0021084804F080FB01210648A1
S3152000098004F049FC01220221034805F018FC00BFAF
S315200009901037BD4680BD00BF000C004038C0012086
S315200009A0310200202CC001202D02002008C1012088
S315200009B03B0D002080B582B000AF0346FB71FB796A
S315200009C09BB21946074807F07AFE00BF80210548EA
S315200009D008F064F80346002BF8D000BF00BF0837A4
S315200009E0BD4680BD0010014080B500AF124804F01E
S315200009F061FB03461A46114B1A60114B01221A60FD
S31520000A00104B00221A60104B1B68002B06D00E4B91
S31520000A101B680E4A1268002110469847084B002290
S31520000A201A60084B1B68002B01D000F05DFA054BBD
S31520000A3000221A6000BF80BD000C004060B000207C
S31520000A4058B000205CB00020E8B0002088B000201C
S31520000A5080B500AF124804F02DFB03461A46114B11
S31520000A601A60114B01221A60104B00221A60104B9B
S31520000A705B68002B06D00E4B5B680E4A526801213C
S31520000A8010469847084B00221A60084B1B68002B1B
S31520000A9001D000F029FA054B00221A6000BF80BD64
S31520000AA0000C004060B0002058B000205CB0002050
S31520000AB0E8B0002088B0002080B500AF124804F0CE
S31520000AC0F9FA03461A46114B1A60114B01221A6095
S31520000AD0104B00221A60104B9B68002B06D00E4B41
S31520000AE09B680E4A9268022110469847084B0022BE
S31520000AF01A60084B1B68002B01D000F0F5F9054B56
S31520000B0000221A6000BF80BD000C004060B00020AB
S31520000B1058B000205CB00020E8B0002088B000204B
S31520000B2080B485B000AF786039600023FB603B68F5
S31520000B301B68BB6004E0BB68FB60BB681B68BB60CE
S31520000B40BB68002B05D0BB689A687B689B689A4275
S31520000B50F1DD7B68BA681A60FB68002B03D13B681D
S31520000B607A681A6002E0FB687A681A6000BF143758
S31520000B70BD465DF8047B704780B485B000AF7860D1
S31520000B8039600023FB603B681B68BB6004E0BB68E0
S31520000B90FB60BB681B68BB60BB68002B05D0BB68CD
S31520000BA05A687B685B689A42F1DD7B68BA681A608E
S31520000BB0FB68002B03D13B687A681A6002E0FB6869
S31520000BC07A681A6000BF1437BD465DF8047B70470B
S31520000BD080B584B000AF78607B681B68FB60FB68DB
S31520000BE0002B04D0FB681A687B681A600CE0094861
S31520000BF0FFF770FD00220221074803F032FF074865
S31520000C00FFF768FD30BFFDE7FB6818461037BD4685
S31520000C1080BD00BF389E002000040240449E002074
S31520000C2080B584B000AF78607B681B68FB60FB688A
S31520000C30002B04D0FB681A687B681A600CE0094810
S31520000C40FFF748FD00220221074803F00AFF074864
S31520000C50FFF740FD30BFFDE7FB6818461037BD465D
S31520000C6080BD00BF389E002000040240509E002018
S31520000C7080B483B000AF786039603B681A687B68BF
S31520000C801A603B687A681A6000BF0C37BD465DF86B
S31520000C90047B704780B483B000AF786039603B68CE
S31520000CA01A687B689A603B687A681A6000BF0C37BE
S31520000CB0BD465DF8047B704780B485B000AF786090
S31520000CC07B681B68FB60FB689A687B681A60FB6818
S31520000CD018461437BD465DF8047B704780B485B04E
S31520000CE000AF786039600023FB603B681B68BB60FF
S31520000CF004E0BB68FB60BB681B68BB60BB68002B5D
S31520000D0003D0BA687B689A42F3D1BB68002B0DD01A
S31520000D10FB68002B04D0BB681A68FB681A6003E0E6
S31520000D20BB681A683B681A60012300E00023184656
S31520000D301437BD465DF8047B704780B582B000AF9E
S31520000D4002211E4805F0C5FA1C4804F0B3F90346F3
S31520000D507B6007E01A48FFF73BFF03461949184610
S31520000D60FFF7DEFE164B1B68002B06D0144B1B68C4
S31520000D705A687B68D31A002BECDD114B1B68002BBD
S31520000D8016D00E4804F096F903463B600C4B1B68C0
S31520000D905B683A689A4204DD002202210A4803F081
S31520000DA060FE074B1B685B681946044804F0C1FCCB
S31520000DB000F09AF800BF0837BD4680BD000C004001
S31520000DC054B0002050B00020000402400346024ADE
S31520000DD0136010DFF74600BF94B000200346054A93
S31520000DE01360054B5B68044A43F080535360F74613
S31520000DF000BF00BF94B0002000ED00E080B582B0B7
S31520000E0000AF7860094B5B68C3F30803002B03D15E
S31520000E107868FFF7DBFF02E07868FFF7DFFFFFF770
S31520000E2006FD00BF0837BD4680BD00BF00ED00E0CF
S31520000E3090B585B000AF234B1C682348FFF7C8FE4A
S31520000E400346E360E368BB60FFF7F1FCBB68D86844
S31520000E50BB681969BB685B691A4600F015F9FFF78C
S31520000E60D7FC1A49B868FFF703FF194B1B689B6824
S31520000E70DB687B60144B1B68002B0AD07B68002B39
S31520000E80D9D0114B1B689A687B689B68D31A002BB4
S31520000E90D1DD0F48FFF710FF03460E491846FFF72E
S31520000EA0F9FE0B4B1B68FB6003E0FB681B691B68A4
S31520000EB0FB60FB681B69002BF7D1F868FFF79EFFE4
S31520000EC0B9E700BFD4A9002050B00020C8A900204F
S31520000ED0D0A90020CCA9002080B500AF00F004F8EE
S31520000EE0FFF7A5FC30BFFBE780B582B000AF144BFF
S31520000EF01B68DB687B60134B1B68002B1BD0124BD7
S31520000F001B68002B17D07B68002B07D00D4B1B6866
S31520000F109A687B689B68D31A002B0CDA0A48FFF77D
S31520000F20CBFE034606491846FFF7B4FE044B1B6862
S31520000F301846FFF763FF00BF0837BD4680BD00BFD8
S31520000F40D0A9002050B00020CCA9002080B588B0C0
S31520000F5000AFF860B9607A603B60EFF312833B61C3
S31520000F603B691B09012B14BF01230023DBB2FB774E
S31520000F70FFF74EFC3A48FFF753FEB861BB697A6823
S31520000F80DA60BB693A681A61BB69BA6A5A61354B3D
S31520000F901B68002B04D1344B1B68DB685B6801E0BF
S31520000FA0324B1B68FA681A44BB695A60BB695A6897
S31520000FB0BB68002B01DDBB6801E06FF000431A44DB
S31520000FC0BB699A602A4804F075F803467B61BB69C1
S31520000FD05A687B69D31A002B16DD2649B869FFF7B4
S31520000FE0CBFD244B1B685B687A699A4204DD00229C
S31520000FF00221214803F035FD1E4B1B685B6819460C
S315200010001B4804F096FB21E01C49B869FFF788FDD0
S31520001010FB7F002B1AD01A4B1B68002B16D0174BC0
S315200010201B689A68174B1B68DB689B68D31A002BD2
S315200010300CDA1348FFF740FE034612491846FFF71D
S3152000104029FE104B1B681846FFF7D8FEFB7F002BA6
S3152000105001D0FFF7ECFBBB6918462037BD4680BDA3
S31520001060C8A9002058B00020D4A9002060B00020D4
S31520001070000C004054B000200004024050B0002074
S31520001080CCA90020D0A9002080B588B000AFF86098
S31520001090B9607A60EFF312833B613B691B09012B30
S315200010A014BF01230023DBB2FB76FFF7B1FBFB68FD
S315200010B01B68FB61FB69002B37D003E0FB691B69CA
S315200010C01B68FB61FB691B69002BF7D1304B1B6842
S315200010D0FA699A4202D0FB7E002B07D1FB7E002BB9
S315200010E001D0FFF7A4FB4FF0FF334DE0FB685B68B0
S315200010F0002B03D0FB685B6800221A61244B1A6818
S31520001100FB685A60224B1B68FA681A61F869FFF778
S3152000111075FE1F4B1B68DB68002B06D1FB7E002B60
S3152000112001D0FFF784FB00232EE0194B1A68FB68D9
S315200011301A60FB7E002B05D0FB685B68012B01D073
S31520001140FFF775FBBB687968F86898477861FFF701
S315200011505FFBFB6800221A60FB685B68FB61FB692A
S31520001160002B0BD0FB69012B08D0FB6800225A60AC
S31520001170FB6900221A61F869FFF740FEFB7E002B0F
S3152000118001D0FFF754FB7B6918462037BD4680BD4A
S31520001190D4A9002080B586B000AF7860EFF3128323
S315200011A0FB60FB681B09012B14BF01230023DBB264
S315200011B0FB74FFF72DFB1F497868FFF78FFD034669
S315200011C0002B06D11C497868FFF788FD0346002BC3
S315200011D004D01A497868FFF74BFD21E0184B1B68AD
S315200011E07B611AE0174B1B687A699A4212D07B6999
S315200011F0DB687A689A420DD17B691A697B68DB685D
S315200012009A4207D17B690022DA600C497868FFF799
S315200012102FFD05E07B699B687B617B69002BE1D113
S31520001220FB7C002B01D0FFF702FB00BF1837BD4621
S3152000123080BD00BF54B0002050B00020C8A90020B7
S31520001240D0A90020D4A9002080B485B000AF786052
S31520001250EFF31283FB60FB681B09012B04D0074BBD
S315200012601B68DB685B6801E0054B1B687A681360C6
S3152000127000BF1437BD465DF8047B7047D4A9002013
S3152000128060B0002080B485B000AF7860EFF31283A1
S31520001290FB60FB681B09012B04D0084B1B68DB682D
S315200012A05B6801E0064B1B687A6812689B1A184631
S315200012B01437BD465DF8047B704700BFD4A90020D3
S315200012C060B0002080B584B000AFEFF312837B605E
S315200012D07B681B09012B14BF01230023DBB2FB73A0
S315200012E0FFF796FA0C4803F0E5FE0346BB60FB7B4E
S315200012F0002B01D0FFF79BFAFB7B002B04D0074B7A
S315200013001B68DB685B6801E0054B1B68BA68D31A6B
S3152000131018461037BD4680BD000C0040D4A90020D9
S3152000132060B0002080B582B000AF00237B6012E061
S315200013307B685A1C13465B001344DB00444A991809
S3152000134043487A6813465B001344DB000344196064
S315200013507B6801337B607B681C2BE9DD3C4B0022DC
S31520001360C3F8B82200237B6013E07B685A1C13461F
S315200013709B0013449B00374A991836487A681346CF
S315200013809B0013449B000344083319607B68013398
S315200013907B607B68022BE8DD2E4B00225A640023FB
S315200013A07B6030E02B497A6813469B0013449B00F0
S315200013B00B4404337A681A607A6813469B001344F8
S315200013C09B00244A1A447B685B0323490B44194635
S315200013D01046FFF75DFA7A6813469B0013449B007C
S315200013E01C4A13441D491846FFF786FA19497A689C
S315200013F013469B0013449B000B44103300221A60B3
S315200014007B6801337B607B68032BCBDD144B4FF06D
S31520001410FF325A60124B00229A60114B00221A6149
S315200014200F4B0022DA600F48FFF754F90E48FFF7FA
S3152000143051F90E48FFF74EF90A48FFF74BF90948CC
S31520001440FFF748F9FFF76AFA00BF0837BD4680BDA7
S3152000145008B1002098B00020E0B30020310E002013
S31520001460F4B000205C9E0020609E00206C9E002030
S3152000147080B586B000AFF860B9601346FB71FB7982
S31520001480022B41D8EFF312833B613B691B09012BE9
S3152000149014BF01230023DBB2FB75FFF7B9F9FB79F3
S315200014A0022B0ED0022B10DC002B02D0012B04D0F5
S315200014B00BE0174B174A1A6014E0174B174A1A60AD
S315200014C010E0174B174A1A600CE01748FFF702F98D
S315200014D000220221154803F0C4FA1548FFF7FAF84E
S315200014E030BFFDE7FB791349FA6841F82320FB79E1
S315200014F01149BA6841F82320FB6801225A60FB7D16
S31520001500002B01D0FFF793F900BF1837BD4680BDE9
S31520001510D4C00120E909002090C00120510A0020F2
S315200015209CC00120B90A0020389E002000040240F9
S31520001530849E002088B00020E8B0002080B586B0C8
S3152000154002AFF860B9607A60FFF762F9FFF7EAFE4A
S31520001550BB68002B16D00F4803F0ACFD03461A4695
S315200015600D4B1A600D4B01221A607B680093BB68F5
S31520001570FA6800210020FFF7E9FC084B00221A60D8
S31520001580FFF7B2FCFFF7A8FC002318461037BD462C
S3152000159080BD00BF000C004060B0002058B0002085
S315200015A080B483B000AF0346FB71FB7903F01F03C1
S315200015B0012202FA03F1064A97F907305B0942F83D
S315200015C0231000BF0C37BD465DF8047B704700BF73
S315200015D000E100E080B483B000AF03463960FB71C0
S315200015E097F90730002B0BDA3B68DAB20C49FB7906
S315200015F003F00F03043B1201D2B20B441A7609E022
S315200016003B68DAB2074997F907301201D2B20B4488
S3152000161083F8002300BF0C37BD465DF8047B704776
S3152000162000ED00E000E100E080B582B000AF786018
S3152000163039607B6800229A617B689A697B685A6167
S315200016407B685A697B68DA61012240F225510A4893
S3152000165007F0DCF9002240F22771074807F0D6F997
S3152000166002212520FFF7B6FF2520FFF799FF00BFAF
S315200016700837BD4680BD00BF0010014080B483B04E
S3152000168000AF78600B46FB707B68DB69B3F5806F33
S3152000169017DA7B685B697A681344FA7883F8202026
S315200016A07B685B6901335A42C3F30903C2F309021B
S315200016B058BF53427A6853617B68DB695A1C7B6842
S315200016C0DA6100BF0C37BD465DF8047B704780B5F4
S315200016D082B000AF786039607B68DB69002B18D157
S315200016E07B689B68012240F22771184607F08EF925
S315200016F00FE03B681B780A2B03D10D217868FFF792
S31520001700BDFF3B685A1C3A601B7819467868FFF77C
S31520001710B5FF3B681B78002BEBD100BF00BF083715
S31520001720BD4680BD80B582B000AF786039607B68E9
S31520001730DB69002B07D17B689B68012240F2277169
S31520001740184607F063F93B68DBB219467868FFF75D
S3152000175095FF00BF0837BD4680BD80B586B002AF75
S31520001760786039607B689B682021184607F096F9D7
S315200017700346012B18D17B689B68184606F0B1FFFB
S315200017800346FB607B68DB68002B0DD07B68DA683C
S315200017907B681969FB6800930B4600210020FFF740
S315200017A0D5FB234B01221A607B689B688021184653
S315200017B007F074F90346012B35D17B68DB69002BD2
S315200017C029DD7B6898687B689B697A68134493F85F
S315200017D020309BB2194606F072FF7B689B69013365
S315200017E05A42C3F30903C2F3090258BF53427A6827
S315200017F093617B68DB695A1E7B68DA617B68DB69EB
S31520001800002B10D17B689B68002240F22771184676
S3152000181007F0FCF807E07B689B68002240F22771FE
S31520001820184607F0F3F8002318461037BD4680BD4A
S315200018305CB0002080B483B000AF786039607B68EC
S315200018401B7A002B02D17B685B7A01E07B681B7ACE
S3152000185018460C37BD465DF8047B704780B483B0CC
S3152000186000AF786039607B681B7A002B05D13B6816
S31520001870DAB27B685A723B6815E03B68002B0CDDB8
S315200018803B68052B09DC3B68DAB27B681A723B6839
S31520001890DAB27B685A723B6805E07B681A7A7B6805
S315200018A01A724FF0FF3318460C37BD465DF8047B9D
S315200018B0704780B483B000AF786039607B683A683F
S315200018C05A6100BF0C37BD465DF8047B704780B473
S315200018D083B000AF786039607B685B6918460C3747
S315200018E0BD465DF8047B704780B483B000AF786056
S315200018F039603B68012B0BD17B681B7A002B07D004
S315200019007B681A7A7B685A727B6800221A7202E018
S315200019107B6800221A727B681B7A18460C37BD46F4
S315200019205DF8047B704780B483B000AF786039607F
S315200019307B685B69002B03D17B685A7A7B681A72B5
S315200019407B681B7A18460C37BD465DF8047B7047CA
S3152000195080B483B000AF786039607B683A68DA601B
S3152000196000BF0C37BD465DF8047B704780B483B05A
S3152000197000AF786039603B68DAB27B689A7200BF44
S315200019800C37BD465DF8047B704780B483B000AF4A
S31520001990786039607B683A681A6100BF0C37BD46AB
S315200019A05DF8047B704780B584B002AF78603960FB
S315200019B03B68002B03D1134B00221A6004E07B689E
S315200019C01B7A1A460F4B1A600E4B1A680E4BD2B270
S315200019D01A707B681B690D4A82FB03129210DB1773
S315200019E0D01A3B68002B0CBF01230023DBB20093E7
S315200019F0074B7A680021FFF7A9FA00BF0837BD46D2
S31520001A0080BD00BF68B000201C7400406766666613
S31520001A10A719002080B483B000AF786039607B6856
S31520001A20DB6818460C37BD465DF8047B704780B4EA
S31520001A3083B000AF786039607B689B7A18460C3794
S31520001A40BD465DF8047B704780B483B000AF7860F4
S31520001A5039607B681B7A18460C37BD465DF8047BD7
S31520001A60704780B483B000AF786039607B685B7A5A
S31520001A7018460C37BD465DF8047B704780B586B0A6
S31520001A8000AF7860396007F10C031A46BB49BC48A1
S31520001A90FFF7FAFABB4B1A46BB49BC48FFF7F4FAE4
S31520001AA03B7B013B352B00F2398101A252F823F012
S31520001AB0891B0020B71B0020E51B0020371C0020B7
S31520001AC06F1C00201D1D00200F1D00201D1D002045
S31520001AD01D1D00201D1D00201D1D00201D1D002078
S31520001AE01D1D00201D1D00201D1D00201D1D002068
S31520001AF01D1D00201D1D00201D1D00201D1D002058
S31520001B001D1D00201D1D00201D1D00201D1D002047
S31520001B101D1D00201D1D00201D1D00201D1D002037
S31520001B201D1D00201D1D00201D1D00201D1D002027
S31520001B301D1D00201D1D00201D1D00201D1D002017
S31520001B401D1D00201D1D00201D1D00201D1D002007
S31520001B501D1D00201D1D00201D1D00201D1D0020F7
S31520001B601D1D00201D1D00201D1D00201D1D0020E7
S31520001B701D1D00201D1D00201D1D00201D1D0020D7
S31520001B801D1D0020BF1C0020814B1A467E497F4820
S31520001B90FFF77AFA7B681B6D012B40F0C680002286
S31520001BA07C497D48FFF770FA7C4B1A467649774880
S31520001BB0FFF76AFAB9E07A4B1A4673497348FFF77A
S31520001BC063FA7B681B6D012B40F0B18001227149BD
S31520001BD07148FFF759FA734B1A466B496B48FFF762
S31520001BE053FAA4E0704B1A4667496848FFF74CFA47
S31520001BF07B681B6D012B40F09C8007F10C0303339F
S31520001C00184607F015FB03461A4668496848FFF749
S31520001C103BFA684B1A465C495C48FFF735FA0022C6
S31520001C2065496348FFF730FA03461A46564957482E
S31520001C30FFF72AFA7DE0614B1A4653495348FFF7CE
S31520001C4023FA7B681B6D012B75D17B685B6D002B9E
S31520001C500CBF01230023DBB21A467B685A657B68DA
S31520001C605B6D1A4656495248FFF70EFA63E0554B0C
S31520001C701A4645494548FFF707FA7B681B6D012B35
S31520001C805BD107F10C030333184607F0D1FA03465C
S31520001C901A464D494048FFF7F7F94C4B1A463A4940
S31520001CA03A48FFF7F1F9002249493B48FFF7ECF99A
S31520001CB003461A4634493548FFF7E6F93DE0454BD9
S31520001CC01A4631493148FFF7DFF97B681B6D012B36
S31520001CD035D107F10C030333184607F0A9FA03465A
S31520001CE01A463D492C48FFF7CFF93C4B1A46264960
S31520001CF02648FFF7C9F9002239492748FFF7C4F9D2
S31520001D0003461A4620492148FFF7BEF917E0354B0E
S31520001D101A461D491D48FFF7B7F911E0324B1A46FE
S31520001D2019491A48FFF7B0F90AE000BF08E000BFDA
S31520001D3006E000BF04E000BF02E000BF00E000BFF5
S31520001D402A4B1A4610491148FFF79EF907F10C0352
S31520001D5003331A460C490D48FFF796F97B681B6D2D
S31520001D60012B06D107F10C031A4621492148FFF71A
S31520001D708BF900BF1837BD4680BD00BF3D6C0020E3
S31520001D80C0AE0020A49E0020CF160020A0AA0020CE
S31520001D90B49E0020D16F0020C0AF0020C49E00203A
S31520001DA0DC9E0020EC9E0020049F00205D18002071
S31520001DB0D8A90020149F0020351800202C9F002031
S31520001DC0B31800203C9F0020CB6D00204C9F0020A4
S31520001DD0B16D0020609F0020336E00206C9F002094
S31520001DE0196E0020809F0020909F0020AC9F00202D
S31520001DF0AD4B00206CB0002090B5E9B002AF3B1D82
S31520001E0018603B461960D04B1A46D049D048FFF798
S31520001E103BF93B461A68CF49CD48FFF735F9CE4BFB
S31520001E201A46CA49CA48FFF72FF90323C7F81831BB
S31520001E300323C7F814310123C7F810310423C7F848
S31520001E400C310123C7F808313B461B682D3B2D2B4F
S31520001E5001F2818401A252F823F000BF151F002051
S31520001E605737002057370020151F0020151F002048
S31520001E70151F0020151F0020151F0020151F0020EC
S31520001E80151F0020151F0020151F0020151F0020DC
S31520001E905737002057370020573700205737002064
S31520001EA05737002057370020573700205737002054
S31520001EB057370020573700209936002075310020EB
S31520001EC0573700204924002085210020573700203D
S31520001ED0573700204F1F00205B3600208D29002019
S31520001EE05737002057370020573700205737002014
S31520001EF057370020A5350020F32E00205737002025
S31520001F00E12600206F330020E52A002057370020E5
S31520001F10D12C00203B1D1B689B683A461268D1B223
S31520001F203A1D126813440A4683F85B203B1D1B6842
S31520001F309B68591C3A1D126891603A461268D1B2C4
S31520001F403A1D126813440A465A7301F005BC3B1D1C
S31520001F501B689B683A1D1268134400225A73D7F8EF
S31520001F601831DAB23B1D1B6883F85A203B1D1B68CB
S31520001F70362283F858203B1D1B6800229A603B1DA1
S31520001F801B680D33184607F053F902463B1D1B68A4
S31520001F901A643B1D1B681B6D002B40F09F803B1D68
S31520001FA01B681B6C1A466D496D48FFF76DF8024693
S31520001FB03B1D1B681B6C9A423AD10022694968482E
S31520001FC0FFF762F8034607F11000674AC82107F0B9
S31520001FD067F907F110031A465C495D48FFF754F884
S31520001FE0D7F818113B1D1B681B6C07F108005F4AC8
S31520001FF007F056F90023C7F8943112E007F10802DA
S31520002000D7F89431134419783B1D1A68D7F89431C0
S3152000201013445B330A461A70D7F894310133C7F854
S315200020209431D7F89421D7F818319A42E6DB81E02B
S315200020304F4B1A4645494648FFF726F807F1100048
S31520002040052300936FF004034A4AC82107F028F9B4
S3152000205007F110031A463D493D48FFF715F80022BF
S3152000206040493F48FFF710F8034607F11000424A5F
S31520002070C82107F015F907F110031A4633493448E9
S31520002080FFF702F8D7F81841002236493448FEF700
S31520002090FBFF034607F10800344A214607F000F902
S315200020A00023C7F8903112E007F10802D7F89031E3
S315200020B0134419783B1D1A68D7F8903113445B33C3
S315200020C00A461A70D7F890310133C7F89031D7F8FD
S315200020D09021D7F818319A42E6DB2BE03B1D1B688E
S315200020E01B6D012B26D1D7F818113B1D1B681B6CC5
S315200020F007F108001D4A07F0D3F80023C7F88C31F2
S3152000210012E007F10802D7F88C31134419783B1DE9
S315200021101A68D7F88C3113445B330A461A70D7F8FD
S315200021208C310133C7F88C31D7F88C21D7F8183188
S315200021309A42E6DB3B1D1B6858331A460F49104866
S31520002140FEF7A2FF01F008BBC09F0020CF1600209B
S31520002150A0AA002025170020C89F0020336E00204B
S31520002160C0AF0020196E0020CC9F0020DC9F0020ED
S31520002170E09F0020FC9F002028A00020076D002063
S31520002180C0AE00203B1D1B689B683A1D1268134495
S3152000219000225A733B1D1B6800229A60D7F818311B
S315200021A0DAB23B1D1B6883F85A2000229A499B48C5
S315200021B0FEF76AFF02463B1D1B681A643B1D1B681F
S315200021C0362283F858203B1D1B681B6C0133C7F849
S315200021D0F0303B1D1B681B6D002B40F09580D7F817
S315200021E0F030052B41DCD7F8F0208D498B48FEF7DF
S315200021F04BFF02463B1D1B681A643B1D1B681B6C6C
S3152000220007F11000874AC82107F04AF807F11003A2
S315200022101A4685498548FEF737FFD7F818113B1D22
S315200022201B681B6C07F10800814A07F039F8002368
S31520002230C7F8883112E007F10802D7F8883113442D
S3152000224019783B1D1A68D7F8883113445B330A4640
S315200022501A70D7F888310133C7F88831D7F8882122
S31520002260D7F818319A42E6DBCCE0724B1A466E4913
S315200022706E48FEF709FF07F11000052300936FF063
S3152000228004036D4AC82107F00BF807F110031A461C
S3152000229065496648FEF7F8FE3B1D1B681B6C07F177
S315200022A01000664AC82106F0FBFF07F110031A4604
S315200022B05D495E48FEF7E8FED7F818113B1D1B68FE
S315200022C01B6C07F108005A4A06F0EAFF0023C7F8FC
S315200022D0843112E007F10802D7F8843113441978C3
S315200022E03B1D1A68D7F8843113445B330A461A70AB
S315200022F0D7F884310133C7F88431D7F88421D7F849
S3152000230018319A42E6DB7DE03B1D1B681B6D012BD5
S3152000231078D1D7F8F030052B26DCD7F8181107F13D
S315200023200800D7F8F030424A06F0BAFF0023C7F873
S31520002330803112E007F10802D7F88031134419786A
S315200023403B1D1A68D7F8803113445B330A461A704E
S31520002350D7F880310133C7F88031D7F88021D7F8F4
S3152000236018319A42E6DB4DE0324B1A462E492F4869
S31520002370FEF78AFE07F11000052300936FF0040391
S315200023802D4AC82106F08CFF07F110031A4626496C
S315200023902648FEF779FE3B1D1B681B6C07F11000D3
S315200023A0264AC82106F07CFF07F110031A461E496B
S315200023B01E48FEF769FED7F818113B1D1B681B6CDB
S315200023C007F108001A4A06F06BFF0023C7F87C3194
S315200023D012E007F10802D7F87C31134419783B1D27
S315200023E01A68D7F87C3113445B330A461A70D7F83B
S315200023F07C310133C7F87C31D7F87C21D7F81831E6
S315200024009A42E6DB3B1D1B6858331A460C490D4899
S31520002410FEF73AFE01F0A0B9196E0020C0AF0020E9
S31520002420336E0020CC9F0020CF160020A0AA0020CB
S31520002430DC9F0020E09F0020FC9F00203CA0002085
S31520002440076D0020C0AE00203B1D1B689B683A1D0F
S315200024501268134400225A733B1D1B6800229A609F
S315200024600022C749C748FEF70FFE02463B1D1B68E0
S315200024701A643B1D1B68362283F85820D7F818317A
S31520002480DAB23B1D1B6883F85A203B1D1B681B6C68
S31520002490013BC7F8EC303B1D1B681B6D002B40F041
S315200024A09680D7F8EC3013F1050F41DBD7F8EC20F6
S315200024B0B549B448FEF7E8FD02463B1D1B681A6481
S315200024C03B1D1B681B6C07F11000B04AC82106F0A3
S315200024D0E7FE07F110031A46AD49AE48FEF7D4FDD4
S315200024E0D7F818113B1D1B681B6C07F10800AA4A78
S315200024F006F0D6FE0023C7F8783112E007F108026D
S31520002500D7F87831134419783B1D1A68D7F87831F3
S3152000251013445B330A461A70D7F878310133C7F86B
S315200025207831D7F87821D7F818319A42E6DBCDE012
S315200025309A4B1A4696499748FEF7A6FD07F11000D2
S31520002540052300936FF00403954AC82106F0A8FEE0
S3152000255007F110031A468E498E48FEF795FD3B1D5E
S315200025601B681B6C07F110008E4AC82106F098FEE6
S3152000257007F110031A4686498648FEF785FDD7F8E7
S3152000258018113B1D1B681B6C07F10800824A06F0D8
S3152000259087FE0023C7F8743112E007F10802D7F846
S315200025A07431134419783B1D1A68D7F874311344D3
S315200025B05B330A461A70D7F874310133C7F8743181
S315200025C0D7F87421D7F818319A42E6DB7EE03B1D16
S315200025D01B681B6D012B79D1D7F8EC3013F1050F51
S315200025E026DBD7F8181107F10800D7F8EC306A4A2D
S315200025F006F056FE0023C7F8703112E007F10802F4
S31520002600D7F87031134419783B1D1A68D7F8703102
S3152000261013445B330A461A70D7F870310133C7F872
S315200026207031D7F87021D7F818319A42E6DB4DE0A1
S315200026305A4B1A4656495748FEF726FD07F1100011
S31520002640052300936FF00403554AC82106F028FE9F
S3152000265007F110031A464E494E48FEF715FD3B1D5D
S315200026601B681B6C07F110004E4AC82106F018FEA5
S3152000267007F110031A4646494648FEF705FDD7F8E6
S3152000268018113B1D1B681B6C07F10800424A06F017
S3152000269007FE0023C7F86C3112E007F10802D7F8CD
S315200026A06C31134419783B1D1A68D7F86C311344E2
S315200026B05B330A461A70D7F86C310133C7F86C3190
S315200026C0D7F86C21D7F818319A42E6DB3B1D1B68F8
S315200026D058331A4634493548FEF7D6FC01F03CB843
S315200026E03B1D1B689B683A1D1268134400225A73CF
S315200026F0D7F81431DAB23B1D1B6883F85A203B1DEC
S315200027001B68032283F858203B1D1B6800229A6011
S315200027103B1D1B680D33184606F08AFDC7F8F800E6
S315200027203B1D1B681B6D002B40F0FB80D7F8F83053
S31520002730002B5ED11E4B1A4615491648FEF7A4FCFF
S3152000274000221C491C48FEF79FFC034607F1100097
S315200027501A4AC82106F0A4FD07F110031A460C49AF
S315200027600C48FEF791FCD7F8141107F10800D7F8AA
S31520002770F830094A06F094FD0023C7F8683132E0A4
S31520002780196E0020C0AF0020336E0020CC9F0020A1
S31520002790CF160020A0AA0020DC9F0020E09F00206A
S315200027A0FC9F00203CA00020076D0020C0AE00202A
S315200027B050A0002035180020D8A9002064A00020B1
S315200027C007F10802D7F86831134419783B1D1A68B7
S315200027D0D7F8683113445B330A461A70D7F8683144
S315200027E00133C7F86831D7F86821D7F814319A42EF
S315200027F0E6DBD7F8F830052B3EDCD7F8F830002B8F
S315200028003ADDD7F8F820A649A648FEF73DFC034650
S3152000281007F11000A44AC82106F042FD07F1100373
S315200028201A46A249A248FEF72FFCD7F8141107F141
S315200028300800D7F8F8309F4A06F032FD0023C7F883
S31520002840643112E007F10802D7F86431134419788D
S315200028503B1D1A68D7F8643113445B330A461A7055
S31520002860D7F864310133C7F86431D7F86421D7F833
S3152000287014319A42E6DB7FE08F4B1A468B498C480F
S31520002880FEF702FC07F110000523009301238B4A73
S31520002890C82106F005FD07F110031A46834984482E
S315200028A0FEF7F2FB002286497E48FEF7EDFB034643
S315200028B007F11000834AC82106F0F2FC07F1100345
S315200028C01A467A497A48FEF7DFFBD7F814410022E8
S315200028D07B497448FEF7D8FB034607F10800754A82
S315200028E0214606F0DDFC0023C7F8603112E007F12F
S315200028F00802D7F86031134419783B1D1A68D7F8B7
S31520002900603113445B330A461A70D7F860310133BD
S31520002910C7F86031D7F86021D7F814319A42E6DB40
S315200029202AE03B1D1B681B6D012B25D1D7F81411FE
S3152000293007F10800D7F8F8305E4A06F0B1FC00230C
S31520002940C7F85C3112E007F10802D7F85C3113446E
S3152000295019783B1D1A68D7F85C3113445B330A4655
S315200029601A70D7F85C310133C7F85C31D7F85C218F
S31520002970D7F814319A42E6DB3B1D1B6858331A46BA
S3152000298051495248FEF780FB00F0E6BE3B1D1B680E
S315200029909B683A1D1268134400225A733B1D1B681C
S315200029A000229A603B1D1B68DB6C002B0CBF0123A9
S315200029B00023DBB21A463B1D1B68DA64D7F81031B8
S315200029C0DAB23B1D1B6883F85A203B1D1B68042284
S315200029D083F85820D7F810113B1D1B68DB6C07F1D4
S315200029E00800344A06F05CFC0023C7F8583112E090
S315200029F007F10802D7F85831134419783B1D1A6895
S31520002A00D7F8583113445B330A461A70D7F8583131
S31520002A100133C7F85831D7F85821D7F810319A42E0
S31520002A20E6DB3B1D1B681B6D002B2ED13B1D1B6857
S31520002A30DB6C1A4626491B48FEF726FB3B1D1B6806
S31520002A40DB6C012B0ED1012222491648FEF71CFB16
S31520002A500346002B19D1204B1A4614491448FEF779
S31520002A6013FB12E03B1D1B68DB6C002B0DD10022F3
S31520002A701A490C48FEF708FB0346002B05DD184BC8
S31520002A801A460A490A48FEF7FFFA3B1D1B685833C7
S31520002A901A460D490D48FEF7F7FA00F05DBE00BF55
S31520002AA05D180020D8A9002078A00020CF1600208D
S31520002AB0A0AA0020DC9F00208CA00020FC9F0020E4
S31520002AC035180020ACA00020076D0020C0AE0020E5
S31520002AD0B3180020E9180020C4A0002027190020E0
S31520002AE0D4A000203B1D1B689B683A1D1268134426
S31520002AF000225A733B1D1B6800229A60D7F81431B6
S31520002B00DAB23B1D1B6883F85A203B1D1B68032243
S31520002B1083F858200022C249C248FEF7B5FA024679
S31520002B203B1D1B685A643B1D1B685B6C0133C7F851
S31520002B3000313B1D1B681B6D002B40F09480D7F89D
S31520002B400031052B41DCD7F80021B749B548FEF7FF
S31520002B509BFA02463B1D1B685A643B1D1B685B6C37
S31520002B6007F11000B14AC82106F09AFB07F11003BD
S31520002B701A46AF49AF48FEF787FAD7F814113B1D1E
S31520002B801B685B6C07F10800AB4A06F089FB002343
S31520002B90C7F8543112E007F10802D7F8543113442C
S31520002BA019783B1D1A68D7F8543113445B330A460B
S31520002BB01A70D7F854310133C7F85431D7F8542155
S31520002BC0D7F814319A42E6DB78E09C4B1A469849AE
S31520002BD09848FEF759FA07F11000052300930123C0
S31520002BE0974AC82106F05CFB07F110031A46904964
S31520002BF09048FEF749FA3B1D1B685B6C07F11000F5
S31520002C00904AC82106F04CFB07F110031A46884962
S31520002C108848FEF739FAD7F814113B1D1B685B6C00
S31520002C2007F10800844A06F03BFB0023C7F8503121
S31520002C3012E007F10802D7F85031134419783B1DEA
S31520002C401A68D7F8503113445B330A461A70D7F8FE
S31520002C5050310133C7F85031D7F85021D7F8143105
S31520002C609A42E6DB2AE03B1D1B681B6D012B25D112
S31520002C70D7F8141107F10800D7F800316E4A06F08C
S31520002C800FFB0023C7F84C3112E007F10802D7F8F2
S31520002C904C31134419783B1D1A68D7F84C3113442C
S31520002CA05B330A461A70D7F84C310133C7F84C31DA
S31520002CB0D7F84C21D7F814319A42E6DB3B1D1B6826
S31520002CC058331A4660496148FEF7DEF900F044BDE4
S31520002CD03B1D1B689B683A1D1268134400225A73D9
S31520002CE03B1D1B6800229A60D7F81431DAB23B1DCF
S31520002CF01B6883F85A203B1D1B68032283F8582043
S31520002D00002247494748FEF7BFF902463B1D1B688C
S31520002D105A643B1D1B685B6C013BC7F804313B1DA5
S31520002D201B681B6D002B40F0AF80D7F80431002BB9
S31520002D3041DDD7F804213C493A48FEF7A5F9024679
S31520002D403B1D1B685A643B1D1B685B6C07F110001A
S31520002D50364AC82106F0A4FA07F110031A46344968
S31520002D603448FEF791F9D7F814113B1D1B685B6CAC
S31520002D7007F10800304A06F093FA0023C7F84831D5
S31520002D8012E007F10802D7F84831134419783B1DA1
S31520002D901A68D7F8483113445B330A461A70D7F8B5
S31520002DA048310133C7F84831D7F84821D7F81431CC
S31520002DB09A42E6DB93E0264B1A461D491D48FEF74C
S31520002DC063F907F110000523009301231C4AC8214B
S31520002DD006F066FA07F110031A4615491548FEF75C
S31520002DE053F93B1D1B685B6C07F11000154AC8217F
S31520002DF006F056FA07F110031A460D490D48FEF75C
S31520002E0043F9D7F814113B1D1B685B6C07F10800CA
S31520002E10094A06F045FA0023C7F844312DE000BFE1
S31520002E2035180020D8A900205D18002078A00020A1
S31520002E30CF160020A0AA0020DC9F0020E8A00020BA
S31520002E40FC9F002008A10020076D0020C0AE0020B6
S31520002E508CA0002007F10802D7F8443113441978D2
S31520002E603B1D1A68D7F8443113445B330A461A705F
S31520002E70D7F844310133C7F84431D7F84421D7F87D
S31520002E8014319A42E6DB2AE03B1D1B681B6D012BA1
S31520002E9025D1D7F8141107F10800D7F80431A54A2F
S31520002EA006F0FEF90023C7F8403112E007F10802C8
S31520002EB0D7F84031134419783B1D1A68D7F84031AA
S31520002EC013445B330A461A70D7F840310133C7F8EA
S31520002ED04031D7F84021D7F814319A42E6DB3B1D22
S31520002EE01B6858331A4694499448FEF7CDF800F0EB
S31520002EF033BC3B1D1B689B683A1D12681344002295
S31520002F005A73D7F80C31DAB23B1D1B6883F85A2066
S31520002F103B1D1B6800229A603B1D1B680D3318461B
S31520002F2006F086F902463B1D1B689A643B1D1B680A
S31520002F30052283F858203B1D1B681B6D002B40F093
S31520002F40C4803B1D1B689B6C002B18D17C4B1A46FA
S31520002F507C497D48FEF798F800227C497C48FEF79C
S31520002F6093F8034607F110007A4AC82106F098F92B
S31520002F7007F110031A4673497348FEF785F83B1D7F
S31520002F801B689B6C1A4674497148FEF77DF8024609
S31520002F903B1D1B689B6C9A4242D100226B496C48B0
S31520002FA0FEF772F8034607F110006C4AC82106F0B6
S31520002FB077F93B1D1B689B6C1A4669496948FEF7E1
S31520002FC063F807F110031A465E495F48FEF75CF87E
S31520002FD0D7F80C113B1D1B689B6C07F10800554A5E
S31520002FE006F05EF90023C7F83C3112E007F108022B
S31520002FF0D7F83C31134419783B1D1A68D7F83C3171
S3152000300013445B330A461A70D7F83C310133C7F8AC
S315200030103C31D7F83C21D7F80C319A42E6DB80E0E8
S31520003020514B1A4647494848FEF72EF807F110003B
S31520003030F02300933C234D4AC82106F031F907F1CD
S3152000304010031A463F494048FEF71EF800223F4922
S315200030503F48FEF719F8034607F11000444AC821F5
S3152000306006F01EF907F110031A4636493648FEF7D0
S315200030700BF8D7F80C41002234493548FEF704F8FE
S31520003080034607F108002B4A214606F009F90023DA
S31520003090C7F8383112E007F10802D7F8383113445F
S315200030A019783B1D1A68D7F8383113445B330A4622
S315200030B01A70D7F838310133C7F83831D7F83821A4
S315200030C0D7F80C319A42E6DB2BE03B1D1B681B6DC3
S315200030D0012B26D1D7F80C113B1D1B689B6C07F1E1
S315200030E00800144A06F0DCF80023C7F8343112E051
S315200030F007F10802D7F83431134419783B1D1A68B2
S31520003100D7F8343113445B330A461A70D7F8343172
S315200031100133C7F83431D7F83421D7F80C319A4225
S31520003120E6DB3B1D1B6858331A4603490348FDF767
S31520003130ABFF11E3DC9F0020076D0020C0AE00200E
S3152000314020A10020CF160020A0AA0020B16D0020CB
S31520003150C0AF002034A10020CB6D002048A1002064
S315200031606D190020D8A9002058A10020FC9F00201E
S3152000317078A100203B1D1B689B683A1D12681344EA
S3152000318000225A733B1D1B6800229A60D7F80C3127
S31520003190DAB23B1D1B6883F85A200022B149B24897
S315200031A0FDF772FF02463B1D1B689A643B1D1B6898
S315200031B0052283F858203B1D1B689B6C0A33C7F8F1
S315200031C0E8303B1D1B681B6D002B40F09C80D7F818
S315200031D0E830F02B49DCD7F8E820A449A248FDF7CF
S315200031E053FF02463B1D1B689A643B1D1B689B6C64
S315200031F01A469F499F48FDF747FF3B1D1B689B6C5E
S3152000320007F110009C4AC82106F04AF807F110037E
S315200032101A469A499A48FDF737FFD7F80C113B1DF5
S315200032201B689B6C07F10800964A06F039F80023C4
S31520003230C7F8303112E007F10802D7F830311344CD
S3152000324019783B1D1A68D7F8303113445B330A4688
S315200032501A70D7F830310133C7F83031D7F830211A
S31520003260D7F80C319A42E6DB78E0874B1A46834939
S315200032708348FDF709FF07F11000F02300933C2354
S31520003280824AC82106F00CF807F110031A467B493A
S315200032907B48FDF7F9FE3B1D1B689B6C07F1100070
S315200032A07B4AC82105F0FCFF07F110031A46734933
S315200032B07348FDF7E9FED7F80C113B1D1B689B6C84
S315200032C007F108006F4A05F0EBFF0023C7F82C3101
S315200032D012E007F10802D7F82C31134419783B1D68
S315200032E01A68D7F82C3113445B330A461A70D7F87C
S315200032F02C310133C7F82C31D7F82C21D7F80C31D3
S315200033009A42E6DB2AE03B1D1B681B6D012B25D16B
S31520003310D7F80C1107F10800D7F8E830594A05F01C
S31520003320BFFF0023C7F8283112E007F10802D7F8BB
S315200033302831134419783B1D1A68D7F828311344CD
S315200033405B330A461A70D7F828310133C7F828317B
S31520003350D7F82821D7F80C319A42E6DB3B1D1B68AB
S3152000336058331A464B494C48FDF78EFEF4E13B1D77
S315200033701B689B683A1D1268134400225A733B1D32
S315200033801B6800229A60D7F80C31DAB23B1D1B6805
S3152000339083F85A20002233493348FDF775FE02464A
S315200033A03B1D1B689A643B1D1B68052283F8582029
S315200033B03B1D1B689B6C0A3BC7F8FC303B1D1B68FA
S315200033C01B6D002B40F0B880D7F8FC303B2B65DD19
S315200033D0D7F8FC2025492448FDF756FE02463B1D1A
S315200033E01B689A643B1D1B689B6C1A462049214822
S315200033F0FDF74AFE3B1D1B689B6C07F110001E4A19
S31520003400C82105F04DFF07F110031A461B491C4839
S31520003410FDF73AFED7F80C113B1D1B689B6C07F194
S315200034200800184A05F03CFF0023C7F8243112E0B3
S3152000343007F10802D7F82431134419783B1D1A687E
S31520003440D7F8243113445B330A461A70D7F824314F
S315200034500133C7F82431D7F82421D7F80C319A4202
S31520003460E6DB96E0B16D0020C0AF0020CB6D0020DA
S315200034706D190020D8A9002048A10020CF160020D1
S31520003480A0AA0020DC9F00208CA10020FC9F002009
S31520003490A8A10020076D0020C0AE0020B14B1A461F
S315200034A0B149B248FDF7F0FD07F11000F023009373
S315200034B03C23AF4AC82105F0F3FE07F110031A4654
S315200034C0A949AA48FDF7E0FD3B1D1B689B6C07F147
S315200034D01000A84AC82105F0E3FE07F110031A469A
S315200034E0A149A248FDF7D0FDD7F80C113B1D1B685A
S315200034F09B6C07F10800A04A05F0D2FE0023C7F80E
S31520003500203112E007F10802D7F820311344197848
S315200035103B1D1A68D7F8203113445B330A461A70CC
S31520003520D7F820310133C7F82031D7F82021D7F832
S315200035300C319A42E6DB2CE03B1D1B681B6D012BF0
S3152000354027D1D7F80C310133194607F10800D7F8EF
S31520003550FC30894A05F0A4FE0023C7F81C3112E08E
S3152000356007F10802D7F81C31134419783B1D1A6855
S31520003570D7F81C3113445B330A461A70D7F81C312E
S315200035800133C7F81C31D7F81C21D7F80C319A42E1
S31520003590E6DB3B1D1B6858331A4678497848FDF709
S315200035A073FDD9E03B1D1B689B683A1D12681344C6
S315200035B000225A733B1D1B689B683A1D12681344F0
S315200035C0002283F85B203B1D1B6800229A60D7F8F7
S315200035D00831DAB23B1D1B6883F85A20002269495C
S315200035E06948FDF751FDC7F8F4003B1D1B681B6DAC
S315200035F0002B1AD1D7F8F430012B0BD100226349C6
S315200036006148FDF741FD624B1A4657495748FDF779
S315200036103BFD0AE001225D495B48FDF735FD5D4B28
S315200036201A4651495148FDF72FFDD7F8F430002BA3
S3152000363005D13B1D1B68022283F8582004E03B1D60
S315200036401B68012283F858203B1D1B6858331A46F5
S315200036504A494B48FDF718FD7EE03B1D1B680022BA
S315200036605A653B1D1B681B6D002B0AD13B1D1B6831
S3152000367001221A65484B1A463B493C48FDF704FD92
S315200036806AE03B1D1B6800221A65444B1A463649E0
S315200036903648FDF7F9FC5FE0002241493A48FDF73C
S315200036A0F3FCC7F8E40000223E493F48FDF7ECFC56
S315200036B0C7F8E00000223D493B48FDF7E5FCC7F886
S315200036C0DC0000223A493048FDF7DEFCC7F8D80076
S315200036D0384B1A4624492548FDF7D6FC07F1100039
S315200036E0D7F8E430344AC82105F0DAFD07F1100393
S315200036F01A461D491D48FDF7C7FC07F11000D7F8EB
S31520003700E0302E4AC82105F0CBFD07F110031A46FA
S3152000371015491648FDF7B8FC07F11000D7F8DC303C
S31520003720274AC82105F0BCFD07F110031A460E49A9
S315200037300E48FDF7A9FC07F11000D7F8D830214A2A
S31520003740C82105F0ADFD07F110031A4606490748C2
S31520003750FDF79AFC00E000BF00BF07F5CE77BD4617
S3152000376090BD00BF8CA10020CF160020A0AA00206B
S31520003770FC9F0020A8A10020DC9F0020076D0020D0
S31520003780C0AE002051700020C0AF0020D16F0020B5
S31520003790C49E0020EC9E0020BCA10020D4A10020C5
S315200037A0A9700020151A0020D8A900202F1A002061
S315200037B06B700020ECA1002014A2002024A200207F
S315200037C044A2002064A2002080B588B002AF7860B1
S315200037D0396000230093564B564A00210020FDF7FE
S315200037E0B5FB00230093544B544A00210020FDF7DB
S315200037F0ADFB002252495348FDF746FC00225249B0
S315200038005248FDF741FC524B1A4652494F48FDF7A4
S315200038103BFC514B1A464F494C48FDF735FC4F4B64
S315200038201A464C494948FDF72FFC4D4B1A46494943
S315200038304648FDF729FC4B4B1A4646494348FDF7B7
S3152000384023FC494B1A4643494048FDF71DFC474B8C
S315200038501A4640493D48FDF717FC454B1A463D4957
S315200038603A48FDF711FC434B1A463A493748FDF7CB
S315200038700BFC414B1A4637493448FDF705FC3F4BB4
S315200038801A4634493148FDF7FFFB3D4B1A4631496C
S315200038902E48FDF7F9FB3B4B1A462E492B48FDF7E0
S315200038A0F3FB394B1A462B492848FDF7EDFB324BE3
S315200038B01A4628492548FDF7E7FB344B1A46254981
S315200038C02248FDF7E1FB324B1A4622491F48FDF7F5
S315200038D0DBFB304B1A461F491C48FDF7D5FB2E4B08
S315200038E01A461C491948FDF7CFFB234B1A4619499E
S315200038F01648FDF7C9FB28233B7301237B73062358
S31520003900BB734823FB7365233B746C237B746C2346
S31520003910BB746F23FB7400233B7507F10C031A4617
S315200039201E490848FDF7B0FB00BF1837BD4680BDCD
S31520003930A7190020D8A900207D6E0020C0AF002046
S31520003940F5690020C0AE002029160020A0AA00207C
S3152000395078A20020CF1600208CA20020ACA2002046
S31520003960F0A2002008A3002048A300206CA300207A
S3152000397094A30020BCA30020E4A3002028A40020B8
S315200039803CA4002080A40020A4A40020C8A40020D9
S31520003990E0A4002028A5002050A50020076D0020C7
S315200039A080B500AF002208490848FDF761FD0122D5
S315200039B007490848FDF75CFD002207490748FDF73F
S315200039C0BDFD0023184680BD5B170020A0AA00205D
S315200039D0B56A0020C0AE0020C9370020F0A900201B
S315200039E080B400AF164B1B68154A43F001031360E1
S315200039F0134B00229A60124B1B68114A23F0A853DE
S31520003A0023F4102313600E4B0E4A5A600C4B0E4AB9
S31520003A10C3F884200A4B0D4AC3F88820084B1B683C
S31520003A20074A23F480231360054B0022DA60044BF7
S31520003A300022C3F88C2000BFBD465DF8047B70478A
S31520003A4000380240103000240030002000300024CE
S31520003A5080B483B000AF0346FB71064B00221A7078
S31520003A60044AFB79137000BF0C37BD465DF8047B12
S31520003A70704700BF0238024080B582B000AF0023F5
S31520003A803B600023FB710023BB71312000F08AFDCF
S31520003A900346BB713B6801333B603B68B3F5A04FDF
S31520003AA002D0BB79002BF0D0312000F07BFD0346FD
S31520003AB0002B02D00123FB7101E00023FB71FB796F
S31520003AC018460837BD4680BD80B485B000AF034692
S31520003AD0FB710023FB600A4B1B68FB60FB6823F02D
S31520003AE0F803FB60FB79DB00FA681343FB60044AAA
S31520003AF0FB68136000BF1437BD465DF8047B704732
S31520003B000038024080B483B000AF0346FB71044AFC
S31520003B10FB79136000BF0C37BD465DF8047B704708
S31520003B200000474280B483B000AF0346FB710D4BC3
S31520003B3000221A700B4B00221A70FB79012B02D03F
S31520003B40042B04D007E0074B01221A7003E0054B33
S31520003B5005221A7000BF00BF0C37BD465DF8047BF6
S31520003B60704700BF7038024080B483B000AF034670
S31520003B70FB71044AFB79136000BF0C37BD465DF824
S31520003B80047B7047800E474280B485B000AFF86052
S31520003B90B9607A603B607B689A01BB681A433B68D0
S31520003BA05B08013B1B041A43FB681A43BB691B06CF
S31520003BB0044913434B6000BF1437BD465DF8047BB0
S31520003BC0704700BF0038024080B483B000AF034680
S31520003BD0FB71044AFB79136000BF0C37BD465DF8C4
S31520003BE0047B70476000474280B483B000AF7860A2
S31520003BF039607B689A013B681B0705491343C1F866
S31520003C00843000BF0C37BD465DF8047B704700BF8B
S31520003C100038024080B483B000AF0346FB71044AEB
S31520003C20FB79136000BF0C37BD465DF8047B7047F7
S31520003C306800474280B485B000AFF860B9607A600A
S31520003C40FB689A01BB681B061A437B681B0705495C
S31520003C501343C1F8883000BF1437BD465DF8047B96
S31520003C60704700BF0038024080B483B000AF0346DF
S31520003C70FB71044AFB79136000BF0C37BD465DF823
S31520003C80047B70477000474280B483B000AF034680
S31520003C90FB71044AFB79136000BF0C37BD465DF803
S31520003CA0047B70474C00474280B485B000AF7860F3
S31520003CB039600023FB600B4B9B68FB60FB6823F09D
S31520003CC0EC63FB607A683B681343FA681343FB6036
S31520003CD0044AFB68936000BF1437BD465DF8047B39
S31520003CE0704700BF0038024080B485B000AF7860CE
S31520003CF039600023FB600B4B9B68FB60FB6823F05D
S31520003D007843FB607A683B681343FA681343FB6089
S31520003D10044AFB68936000BF1437BD465DF8047BF8
S31520003D20704700BF0038024080B485B000AF78608D
S31520003D300023FB60094B9B68FB60FB6823F00303B1
S31520003D40FB60FA687B681343FB60044AFB68936058
S31520003D5000BF1437BD465DF8047B7047003802402B
S31520003D6080B400AF054B9B68DBB203F00C03DBB2DB
S31520003D701846BD465DF8047B704700BF00380240F8
S31520003D8080B485B000AF78600023FB60094B9B6848
S31520003D90FB60FB6823F0F003FB60FA687B68134343
S31520003DA0FB60044AFB68936000BF1437BD465DF88C
S31520003DB0047B70470038024080B485B000AF78603D
S31520003DC00023FB60094B9B68FB60FB6823F4E053F0
S31520003DD0FB60FA687B681343FB60044AFB689360C8
S31520003DE000BF1437BD465DF8047B7047003802409B
S31520003DF080B485B000AF78600023FB600A4B9B68D7
S31520003E00FB60FB6823F46043FB607B68DB00FA6899
S31520003E101343FB60044AFB68936000BF1437BD461A
S31520003E205DF8047B704700BF0038024080B489B03B
S31520003E3000AF78600023BB6100237B610023FB6118
S31520003E4002233B610023FB600223BB604A4B9B6835
S31520003E5003F00C03BB61BB69082B11D0BB69082B8F
S31520003E6044D8BB69002B03D0BB69042B04D03DE0AA
S31520003E707B68424A1A603DE07B68414A1A6039E015
S31520003E803D4B5B689B0D03F00103FB603A4B5B687F
S31520003E9003F03F03BB60FB68002B0CD0384ABB689D
S31520003EA0B2FBF3F3344A52689209C2F3080202FBCA
S31520003EB003F3FB610BE0314ABB68B2FBF3F32E4AF6
S31520003EC052689209C2F3080202FB03F3FB612A4BF4
S31520003ED05B681B0C03F0030301335B003B61FA694B
S31520003EE03B69B2FBF3F27B681A6003E07B68234AE6
S31520003EF01A6000BF204B9B6803F0F003BB61BB69CF
S31520003F001B09BB611F4ABB6913441B78DBB27B616B
S31520003F107B681A687B69DA407B685A60164B9B6817
S31520003F2003F4E053BB61BB699B0ABB61154ABB69BD
S31520003F3013441B78DBB27B617B685A687B69DA4065
S31520003F407B689A600C4B9B6803F46043BB61BB693A
S31520003F505B0BBB610B4ABB6913441B78DBB27B61ED
S31520003F607B685A687B69DA407B68DA6000BF243751
S31520003F70BD465DF8047B7047003802400024F400FB
S31520003F8000127A0038AF002080B485B000AF786088
S31520003F900023FB607B6803F44073B3F5407F11D1A7
S31520003FA00F4B9B68FB60FB6823F4F813FB607B6870
S31520003FB023F0704323F44073FA681343FB60084AE6
S31520003FC0FB689360064B1A6F7B68C3F30B030449A7
S31520003FD013430B6700BF1437BD465DF8047B70475B
S31520003FE00038024080B483B000AF0346FB71044A18
S31520003FF0FB79136000BF0C37BD465DF8047B704724
S315200040003C0E474280B483B000AF0346FB71044A9E
S31520004010FB79136000BF0C37BD465DF8047B704703
S31520004020400E474280B483B000AF7860044A7B6874
S31520004030136000BF0C37BD465DF8047B704700BF98
S315200040405C01474280B485B000AF78600023FB60F6
S315200040500B4BD3F88C30FB60FB6823F01F03FB600F
S315200040607B68013BFA681343FB60054AFB68C2F88C
S315200040708C3000BF1437BD465DF8047B704700BF07
S315200040800038024080B485B000AF78600023FB6022
S315200040900B4BD3F88C30FB60FB6823F4F853FB60A2
S315200040A07B68013B1B02FA681343FB60044AFB68EA
S315200040B0C2F88C3000BF1437BD465DF8047B7047CC
S315200040C00038024080B485B000AF78600023FB60E2
S315200040D00A4BD3F88C30FB60FB6823F44013FB605B
S315200040E0FA687B681343FB60044AFB68C2F88C308D
S315200040F000BF1437BD465DF8047B70470038024088
S3152000410080B485B000AF78600023FB600A4BD3F8FB
S315200041108C30FB60FB6823F44003FB60FA687B6805
S315200041201343FB60044AFB68C2F88C3000BF143787
S31520004130BD465DF8047B70470038024080B485B0E8
S3152000414000AF78600023FB600A4BD3F88C30FB600D
S31520004150FB6823F44033FB60FA687B681343FB60FB
S31520004160044AFB68C2F88C3000BF1437BD465DF8A0
S31520004170047B70470038024080B483B000AF78607B
S31520004180044A7B68136000BF0C37BD465DF8047B8C
S31520004190704700BFE011474280B483B000AF78601B
S315200041A00B46FB70FB78002B06D00A4B1A6B09498D
S315200041B07B6813430B6306E0064B1A6B7B68DB4375
S315200041C0044913400B6300BF0C37BD465DF8047BE2
S315200041D0704700BF0038024080B483B000AF7860DB
S315200041E00B46FB70FB78002B06D00A4B5A6B09490D
S315200041F07B6813434B6306E0064B5A6B7B68DB43B5
S31520004200044913404B6300BF0C37BD465DF8047B61
S31520004210704700BF0038024080B483B000AF78609A
S315200042200B46FB70FB78002B06D00A4B9A6B09498C
S315200042307B6813438B6306E0064B9A6B7B68DB43F4
S31520004240044913408B6300BF0C37BD465DF8047BE1
S31520004250704700BF0038024080B483B000AF78605A
S315200042600B46FB70FB78002B06D00A4B1A6C0949CB
S315200042707B6813430B6406E0064B1A6C7B68DB43B2
S31520004280044913400B6400BF0C37BD465DF8047B20
S31520004290704700BF0038024080B483B000AF78601A
S315200042A00B46FB70FB78002B06D00A4B5A6C09494B
S315200042B07B6813434B6406E0064B5A6C7B68DB43F2
S315200042C0044913404B6400BF0C37BD465DF8047BA0
S315200042D0704700BF0038024080B483B000AF7860DA
S315200042E00B46FB70FB78002B06D00A4B1A6909494E
S315200042F07B6813430B6106E0064B1A697B68DB4338
S31520004300044913400B6100BF0C37BD465DF8047BA2
S31520004310704700BF0038024080B483B000AF786099
S315200043200B46FB70FB78002B06D00A4B5A690949CD
S315200043307B6813434B6106E0064B5A697B68DB4377
S31520004340044913404B6100BF0C37BD465DF8047B22
S31520004350704700BF0038024080B483B000AF786059
S315200043600B46FB70FB78002B06D00A4B9A6909494D
S315200043707B6813438B6106E0064B9A697B68DB43B7
S31520004380044913408B6100BF0C37BD465DF8047BA2
S31520004390704700BF0038024080B483B000AF786019
S315200043A00B46FB70FB78002B06D00A4B1A6A09498C
S315200043B07B6813430B6206E0064B1A6A7B68DB4375
S315200043C0044913400B6200BF0C37BD465DF8047BE1
S315200043D0704700BF0038024080B483B000AF7860D9
S315200043E00B46FB70FB78002B06D00A4B5A6A09490C
S315200043F07B6813434B6206E0064B5A6A7B68DB43B5
S31520004400044913404B6200BF0C37BD465DF8047B60
S31520004410704700BF0038024080B483B000AF786098
S315200044200B46FB70FB78002B06D00A4B1A6D094908
S315200044307B6813430B6506E0064B1A6D7B68DB43EE
S31520004440044913400B6500BF0C37BD465DF8047B5D
S31520004450704700BF0038024080B483B000AF786058
S315200044600B46FB70FB78002B06D00A4B5A6D094988
S315200044707B6813434B6506E0064B5A6D7B68DB432E
S31520004480044913404B6500BF0C37BD465DF8047BDD
S31520004490704700BF0038024080B483B000AF786018
S315200044A00B46FB70FB78002B06D00A4B9A6D094908
S315200044B07B6813438B6506E0064B9A6D7B68DB436E
S315200044C0044913408B6500BF0C37BD465DF8047B5D
S315200044D0704700BF0038024080B483B000AF7860D8
S315200044E00B46FB70FB78002B06D00A4B1A6E094947
S315200044F07B6813430B6606E0064B1A6E7B68DB432C
S31520004500044913400B6600BF0C37BD465DF8047B9B
S31520004510704700BF0038024080B483B000AF786097
S315200045200B46FB70FB78002B06D00A4B5A6E0949C6
S315200045307B6813434B6606E0064B5A6E7B68DB436B
S31520004540044913404B6600BF0C37BD465DF8047B1B
S31520004550704700BF0038024080B483B000AF0346E6
S315200045600A46FB711346BB71BB79002B08D00C4B56
S315200045701B78DAB20A49FB791343DBB20B7009E0E8
S31520004580074B1B78DAB2FB79DB43DBB204491340D5
S31520004590DBB20B7000BF0C37BD465DF8047B70475D
S315200045A00D38024080B487B000AF0346FB7100236C
S315200045B0FB6000237B610023FB74FB795B09DBB284
S315200045C0FB60FB68012B03D1124B1B687B6109E062
S315200045D0FB68022B03D10F4B1B6F7B6102E00D4B57
S315200045E05B6F7B61FB7903F01F03FB607A69FB68D5
S315200045F022FA03F303F00103002B02D00123FB74FC
S3152000460001E00023FB74FB7C18461C37BD465DF891
S31520004610047B70470038024080B400AF054B5B6FC7
S31520004620044A43F08073536700BFBD465DF8047BA0
S31520004630704700BF0038024080B485B000AF034603
S31520004640FB710023FB73094BDA68FB791340002BBF
S3152000465002D00123FB7301E00023FB73FB7B18468A
S315200046601437BD465DF8047B704700BF0038024012
S3152000467080B483B000AF0346FB71044AFB79137004
S3152000468000BF0C37BD465DF8047B70470E380240EC
S3152000469080B582B000AF78607B684B4A934208D1E0
S315200046A001210120FFF718FE00210120FFF714FE4B
S315200046B086E07B68454A934208D101210220FFF714
S315200046C00BFE00210220FFF707FE79E07B68404AB7
S315200046D0934208D101210420FFF7FEFD002104208A
S315200046E0FFF7FAFD6CE07B683A4A934208D1012134
S315200046F00820FFF7F1FD00210820FFF7EDFD5FE020
S315200047007B68354A934208D101211020FFF7E4FD4A
S3152000471000211020FFF7E0FD52E07B682F4A9342EC
S3152000472008D101212020FFF7D7FD00212020FFF707
S31520004730D3FD45E07B682A4A934208D101214020D7
S31520004740FFF7CAFD00214020FFF7C6FD38E07B6851
S31520004750244A934208D101218020FFF7BDFD002184
S315200047608020FFF7B9FD2BE07B681F4A93420AD1D0
S3152000477001214FF48070FFF7AFFD00214FF48070C8
S31520004780FFF7AAFD1CE07B68184A93420AD1012153
S315200047904FF40070FFF7A0FD00214FF40070FFF7E3
S315200047A09BFD0DE07B68124A934209D101214FF40B
S315200047B08060FFF791FD00214FF48060FFF78CFDAC
S315200047C000BF0837BD4680BD0000024000040240FD
S315200047D000080240000C0240001002400014024073
S315200047E000180240001C0240002002400024024023
S315200047F00028024080B487B000AF7860396000237B
S315200048007B6100233B610023FB6000237B6176E014
S3152000481001227B6902FA03F33B613B681B683A6914
S315200048201340FB60FA683B699A4265D17B681A6837
S315200048307B695B00032101FA03F3DB431A407B68A3
S315200048401A607B681A683B681B7919467B695B008E
S3152000485001FA03F31A437B681A603B681B79012B24
S3152000486003D03B681B79022B2ED17B689A687B6923
S315200048705B00032101FA03F3DB431A407B689A604D
S315200048807B689A683B685B7919467B695B0001FA0D
S3152000489003F31A437B689A607B685A687B699BB2EC
S315200048A0194601238B40DB431A407B685A607B689C
S315200048B05B683A68927911467A6992B201FA02F2F5
S315200048C092B21A437B685A607B68DA687B699BB22E
S315200048D05B00032101FA03F3DB431A407B68DA60AD
S315200048E07B68DA683B68DB7919467B695B0001FAED
S315200048F003F31A437B68DA607B6901337B617B694A
S315200049000F2B85D900BF00BF1C37BD465DF8047B41
S31520004910704780B483B000AF78607B684FF6FF7233
S315200049201A607B6800221A717B6800225A717B68A4
S3152000493000229A717B680022DA7100BF0C37BD46CF
S315200049405DF8047B704780B485B000AF78600B4675
S315200049507B804FF48033FB607A88FB681343FB60CF
S31520004960FA687B68DA617A887B68DA61FA687B683C
S31520004970DA617B68DB69FB607B68DB69FB6000BF13
S315200049801437BD465DF8047B704780B485B000AF10
S3152000499078600B467B800023FB737B681A697B88D3
S315200049A01340002B02D00123FB7301E00023FB738D
S315200049B0FB7B18461437BD465DF8047B704780B4F0
S315200049C083B000AF78607B681B699BB218460C37B2
S315200049D0BD465DF8047B704780B485B000AF786033
S315200049E00B467B800023FB737B685A697B881340C8
S315200049F0002B02D00123FB7301E00023FB73FB7B1A
S31520004A0018461437BD465DF8047B704780B483B0E2
S31520004A1000AF78607B685B699BB218460C37BD4651
S31520004A205DF8047B704780B483B000AF78600B4696
S31520004A307B807B687A881A8300BF0C37BD465DF879
S31520004A40047B704780B483B000AF78600B467B80D0
S31520004A507B687A885A8300BF0C37BD465DF8047B95
S31520004A60704780B483B000AF78600B467B801346D6
S31520004A707B707B78002B03D07B687A881A8302E0D0
S31520004A807B687A885A8300BF0C37BD465DF8047B65
S31520004A90704780B483B000AF78600B467B807A88FD
S31520004AA07B685A6100BF0C37BD465DF8047B7047B2
S31520004AB080B483B000AF78600B467B807B685A69F0
S31520004AC07B885A407B685A6100BF0C37BD465DF82B
S31520004AD0047B704780B485B000AF78600B467B803E
S31520004AE013467B700023FB600023BB607A787B88AB
S31520004AF003F007039B0002FA03F3FB607B88DB08C5
S31520004B009BB21A467B68083253F822207B8803F032
S31520004B1007039B000F2101FA03F3DB437988C908B9
S31520004B2089B2084602EA03017B6800F1080243F8CD
S31520004B3022107B88DB089BB21A467B68083253F822
S31520004B402230FA681343BB607B88DB089BB21A4687
S31520004B507B680832B96843F8221000BF1437BD4677
S31520004B605DF8047B704700BF80B483B000AF7860E7
S31520004B7039607B689B68002B0CBF01230023DBB2C6
S31520004B801A467B689A6000BF0C37BD465DF8047BE9
S31520004B90704780B483B000AF786039607B689B68CB
S31520004BA018460C37BD465DF8047B704780B584B047
S31520004BB000AFF860384680E80E00FB6801221A61D3
S31520004BC03B78013B352B00F2938001A252F823F06B
S31520004BD0F14C0020F14C0020A94C0020B94C0020BB
S31520004BE0C54C0020F14C0020E54C0020F14C002063
S31520004BF0F14C0020F14C0020F14C0020F14C00201B
S31520004C00F14C0020F14C0020F14C0020F14C00200A
S31520004C10F14C0020F14C0020F14C0020F14C0020FA
S31520004C20F14C0020F14C0020F14C0020F14C0020EA
S31520004C30F14C0020F14C0020F14C0020F14C0020DA
S31520004C40F14C0020F14C0020F14C0020F14C0020CA
S31520004C50F14C0020F14C0020F14C0020F14C0020BA
S31520004C60F14C0020F14C0020F14C0020F14C0020AA
S31520004C70F14C0020F14C0020F14C0020F14C00209A
S31520004C80F14C0020F14C0020F14C0020F14C00208A
S31520004C90F14C0020F14C0020F14C0020F14C00207A
S31520004CA0F14C0020D54C00203B4603331A461349CD
S31520004CB01348FCF7E9F91CE0002212491048FCF7DA
S31520004CC0E3F916E03B4603331A460F490F48FCF733
S31520004CD0DBF90EE0FB68DB681A460D490B48FCF74A
S31520004CE0D3F906E000220B490B48FCF7CDF900E08A
S31520004CF000BF00BF1037BD4680BD00BF5D18002035
S31520004D00D8A90020B3180020CB6D0020C0AF00200A
S31520004D10336E0020694B00206CB0002080B483B035
S31520004D2000AF786039607B68DB6818460C37BD4673
S31520004D305DF8047B704780B483B000AF786039603B
S31520004D407B681B6918460C37BD465DF8047B7047A7
S31520004D5080B582B000AF78607B68604A934208D104
S31520004D6001210120FFF738FB00210120FFF734FB4A
S31520004D70AFE07B68B3F1804F08D101210120FFF716
S31520004D800BFB00210120FFF707FBA2E07B68544ABA
S31520004D90934208D101210220FFF7FEFA00210220CA
S31520004DA0FFF7FAFA95E07B684E4A934208D1012133
S31520004DB00420FFF7F1FA00210420FFF7EDFA88E03E
S31520004DC07B68494A934208D101210820FFF7E4FA7B
S31520004DD000210820FFF7E0FA7BE07B68434A9342F4
S31520004DE008D101211020FFF7D7FA00211020FFF764
S31520004DF0D3FA6EE07B683E4A934208D101212020F7
S31520004E00FFF7CAFA00212020FFF7C6FA61E07B6887
S31520004E10384A934208D101210220FFF7DDFA00210A
S31520004E200220FFF7D9FA54E07B68334A93420AD12D
S31520004E3001214FF48030FFF7CFFA00214FF4803064
S31520004E40FFF7CAFA45E07B682C4A93420AD1012132
S31520004E504FF40030FFF7C0FA00214FF40030FFF77F
S31520004E60BBFA36E07B68264A93420AD101214FF4E9
S31520004E708020FFF7B1FA00214FF48020FFF7ACFA2B
S31520004E8027E07B681F4A934208D101214020FFF783
S31520004E9083FA00214020FFF77FFA1AE07B681A4A3E
S31520004EA0934208D101218020FFF776FA0021802045
S31520004EB0FFF772FA0DE07B68144A934209D101216B
S31520004EC04FF48070FFF768FA00214FF48070FFF7E7
S31520004ED063FA00BF0837BD4680BD00BF0000014011
S31520004EE00004004000080040000C00400010004074
S31520004EF000140040000401400040014000440140ED
S31520004F000048014000180040001C004000200040DE
S31520004F1080B485B000AF786039600023FB817B6860
S31520004F201B88FB817B68294A934213D07B68284AD9
S31520004F3093420FD07B68B3F1804F0BD07B68254A14
S31520004F40934207D07B68244A934203D07B68234A46
S31520004F50934208D1FB8923F07003FB813B685A8872
S31520004F60FB891343FB817B681D4A93420CD07B68E7
S31520004F701C4A934208D0FB8923F44073FB813B688B
S31520004F801A89FB891343FB817B68FA891A803B685F
S31520004F905A687B68DA623B681A887B681A857B6860
S31520004FA00A4A934203D07B68094A934204D13B685C
S31520004FB09B7A9AB27B681A867B6801229A8200BF06
S31520004FC01437BD465DF8047B704700BF00000140E2
S31520004FD0000401400004004000080040000C00408E
S31520004FE0001000400014004080B483B000AF786009
S31520004FF07B684FF0FF325A607B6800221A807B68FC
S3152000500000221A817B6800225A807B6800229A72CD
S3152000501000BF0C37BD465DF8047B704780B483B073
S3152000502000AF78600B467B8013463B807B687A888E
S315200050301A857B683A889A8200BF0C37BD465DF890
S31520005040047B704780B485B000AF78600B467B80C8
S315200050500023FB817B681B88FB81FB8923F070037F
S31520005060FB81FA897B881343FB817B68FA891A8046
S3152000507000BF1437BD465DF8047B704780B483B00B
S3152000508000AF786039607B683A685A6200BF0C3797
S31520005090BD465DF8047B704780B483B000AF78606E
S315200050A039607B683A68DA6200BF0C37BD465DF826
S315200050B0047B704780B483B000AF78607B685B6AFE
S315200050C018460C37BD465DF8047B704780B483B024
S315200050D000AF78607B681B8D9BB218460C37BD46A7
S315200050E05DF8047B704780B483B000AF78600B46D0
S315200050F0FB70FB78002B08D07B681B889BB243F0A3
S3152000510002039AB27B681A8007E07B681B889BB2F1
S3152000511023F002039AB27B681A8000BF0C37BD4683
S315200051205DF8047B704780B483B000AF78600B468F
S315200051307B807B88002B08D07B681B889BB243F042
S3152000514004039AB27B681A8007E07B681B889BB2AF
S3152000515023F004039AB27B681A8000BF0C37BD4641
S315200051605DF8047B704780B483B000AF78600B464F
S31520005170FB70FB78002B08D07B681B889BB243F022
S3152000518080039AB27B681A8007E07B681B889BB2F3
S3152000519023F080039AB27B681A8000BF0C37BD4685
S315200051A05DF8047B704780B483B000AF78600B460F
S315200051B07B807B681B889BB223F008039AB27B68AE
S315200051C01A807B681B889AB27B8813439AB27B68C5
S315200051D01A8000BF0C37BD465DF8047B704780B44B
S315200051E083B000AF78600B467B807B681B889BB2C0
S315200051F023F440739AB27B681A807B681B889AB224
S315200052007B8813439AB27B681A8000BF0C37BD4651
S315200052105DF8047B704780B483B000AF78600B469E
S31520005220FB70FB78002B08D07B681B889BB243F071
S3152000523001039AB27B681A8007E07B681B889BB2C1
S3152000524023F001039AB27B681A8000BF0C37BD4653
S315200052505DF8047B704780B485B000AF7860396014
S3152000526000237B810023FB810023BB817B681B8C71
S315200052709BB223F001039AB27B681A847B681B8C4D
S31520005280FB817B689B88BB817B681B8B7B817B89B1
S3152000529023F070037B817B8923F003037B813B68AA
S315200052A01A887B8913437B81FB8923F00203FB81C8
S315200052B03B689A89FB891343FB813B685A88FB89A3
S315200052C01343FB817B681F4A934203D07B681E4AA7
S315200052D0934223D1FB8923F00803FB813B68DA89BB
S315200052E0FB891343FB81FB8923F00403FB813B6885
S315200052F09A88FB891343FB81BB8923F48073BB8186
S31520005300BB8923F40073BB813B681A8ABB8913438C
S31520005310BB813B685A8ABB891343BB817B68BA89A8
S315200053209A807B687A891A833B689A687B685A6375
S315200053307B68FA891A8400BF1437BD465DF8047B62
S31520005340704700BF000001400004014080B485B0D2
S3152000535000AF7860396000237B810023FB81002326
S31520005360BB817B681B8C9BB223F010039AB27B68AF
S315200053701A847B681B8CFB817B689B88BB817B683E
S315200053801B8B7B817B8923F4E0437B817B8923F400
S3152000539040737B813B681B881B029AB27B8913432F
S315200053A07B81FB8923F02003FB813B689B891B01C2
S315200053B09AB2FB891343FB813B685B881B019AB237
S315200053C0FB891343FB817B68224A934203D07B6887
S315200053D0214A93422BD1FB8923F08003FB813B6832
S315200053E0DB891B019AB2FB891343FB81FB8923F0DE
S315200053F04003FB813B689B881B019AB2FB891343C0
S31520005400FB81BB8923F48063BB81BB8923F40063C2
S31520005410BB813B681B8A9B009AB2BB891343BB8125
S315200054203B685B8A9B009AB2BB891343BB817B682E
S31520005430BA899A807B687A891A833B689A687B68DE
S315200054409A637B68FA891A8400BF1437BD465DF8D3
S31520005450047B7047000001400004014080B485B001
S3152000546000AF7860396000237B810023FB81002315
S31520005470BB817B681B8C9BB223F480739AB27B68BA
S315200054801A847B681B8CFB817B689B88BB817B682D
S315200054909B8B7B817B8923F070037B817B8923F027
S315200054A003037B813B681A887B8913437B81FB89B5
S315200054B023F40073FB813B689B891B029AB2FB890C
S315200054C01343FB813B685B881B029AB2FB8913431B
S315200054D0FB817B68224A934203D07B68214A934210
S315200054E02BD1FB8923F40063FB813B68DB891B02FC
S315200054F09AB2FB891343FB81FB8923F48063FB81EA
