S01600002E2F44656275672F5254532D4C61622E73313936
S3152000000000BFDFF814D002F0CEFF00F01BFE02F096
S31520000010DCBFFEE700BF000000C0012080B586B02F
S3152000002000AF7860396007F10C031A460A490B487D
S3152000003002F0B4FB0A4B1A460A490B4802F0AEFB03
S3152000004007F10C0303331A460649074802F0A6FBBC
S3152000005000BF1837BD4680BDA93200204897002032
S3152000006024880020FF1B00202893002080B5C2B0E2
S3152000007002AF786007F58073A3F580731960A94BEA
S315200000801A46A949A94802F089FB07F58073A3F50A
S3152000009080731A68A649A54802F080FBA54B1A462C
S315200000A0A149A24802F07AFB07F58073A3F5807375
S315200000B01B682D3B2D2B00F2C48401A252F823F09D
S315200000C079010020430A0020430A002079010020FC
S315200000D07901002079010020790100207901002092
S315200000E07901002079010020790100207901002082
S315200000F079010020430A0020430A0020430A0020F9
S31520000100430A0020430A0020430A0020430A002015
S31520000110430A0020430A0020430A002059090020F0
S31520000120B7070020430A0020650300207102002043
S31520000130430A0020430A00209B010020430A002096
S31520000140ED040020430A0020430A0020430A002031
S31520000150430A0020430A0020430A0020E506002027
S31520000160430A00201B040020690800202B050020DC
S31520000170430A0020DD0500207B689B68591C7A68AD
S31520000180916007F58072A2F580721268D1B27A6802
S3152000019013440A465A7300F055BC7B689B687A68FC
S315200001A0134400225A737B6800229A607B680D33C1
S315200001B0184607F071FD02467B681A647B681B6C43
S315200001C0002B1AD15C4B1A465749584802F0E6FADA
S315200001D000225A495A4802F0E1FA034607F10C0078
S315200001E0584AC82107F024FD07F10C031A464E4948
S315200001F04E4802F0D3FA00F025BC7B681B6C1A46E9
S3152000020051494F4802F0CAFA02467B681B6C9A4253
S3152000021014D1002249494A4802F0C0FA034607F1A0
S315200002200C004A4AC82107F003FD07F10C031A46C1
S315200002303D493E4802F0B2FA00F004BC444B1A464F
S3152000024039493A4802F0AAFA00223C493C4802F0D1
S31520000250A5FA034607F10C003E4AC82107F0E8FC40
S3152000026007F10C031A463049304802F097FAE9E3C1
S315200002707B689B687A68134400225A737B68002245
S315200002809A6000222D492E4802F088FA02467B68A1
S315200002901A647B681B6C0133C7F8F030D7F8F0304E
S315200002A0052B18DCD7F8F0202749254802F076FAE6
S315200002B002467B681A647B681B6C07F10C00234A94
S315200002C0C82107F0B5FC07F10C031A461649174852
S315200002D002F064FAB6E3204B1A461349134802F09B
S315200002E05DFA07F10C00052300936FF004031B4A07
S315200002F0C82107F09DFC07F10C031A460A490B4852
S3152000030002F04CFA7B681B6C07F10C00144AC821DA
S3152000031007F08EFC07F10C031A460349034802F046
S315200003203DFA8FE338880020FF1B00202893002009
S31520000330551C00204088002044880020850C002081
S31520000340EC920020588800209F0C00206C8800200A
S315200003507C88002098880020AC880020C88800204F
S31520000360F48800207B689B687A68134400225A73BD
S315200003707B6800229A600022B249B34802F00EFA46
S3152000038002467B681A647B681B6C013BC7F8EC301D
S31520000390D7F8EC3013F1050F18DBD7F8EC20AB4972
S315200003A0A94802F0FBF902467B681A647B681B6C3D
S315200003B007F10C00A64AC82107F03AFC07F10C0306
S315200003C01A46A449A44802F0E9F93BE3A34B1A468E
S315200003D0A049A14802F0E2F907F10C000523009399
S315200003E06FF004039E4AC82107F022FC07F10C0394
S315200003F01A469849984802F0D1F97B681B6C07F198
S315200004000C00984AC82107F013FC07F10C031A4682
S315200004109049914802F0C2F914E37B689B687A6898
S31520000420134400225A737B6800229A607B680D333E
S31520000430184607F031FC02467B689A647B689B6C01
S31520000440002B19D1884B1A468249834802F0A6F917
S31520000450002286497C4802F0A1F9034607F10C00E8
S31520000460834AC82107F0E4FB07F10C031A467949B1
S31520000470794802F093F9E5E27B689B6C1A467D4940
S31520000480714802F08BF902467B689B6C9A4213D125
S31520000490002276496C4802F081F9034607F10C00E8
S315200004A0754AC82107F0C4FB07F10C031A466949AF
S315200004B0694802F073F9C5E2704B1A4665496648E9
S315200004C002F06CF9002269495F4802F067F9034699
S315200004D007F10C006A4AC82107F0AAFB07F10C03B2
S315200004E01A465C495C4802F059F9ABE27B689B6886
S315200004F07A68134400225A737B6800229A6000228D
S315200005006049514802F04AF90346002B06D15E4B5A
S315200005101A465049504802F041F993E25B4B1A467D
S315200005204C494D4802F03AF98CE27B689B687A6820
S31520000530134400225A737B6800229A6000224B499A
S31520000540414802F02BF902467B689A647B689B6CD3
S315200005500133C7F8F830D7F8F830142B18DCD7F861
S31520000560F8204449384802F019F902467B689A6413
S315200005707B689B6C07F10C003F4AC82107F058FBAB
S3152000058007F10C031A463349334802F007F959E2BA
S315200005903F4B1A462F49304802F000F907F10C006C
S315200005A01423009301232E4AC82107F041FB07F1AB
S315200005B00C031A462749284802F0F0F87B689B6C02
S315200005C007F10C00334AC82107F032FB07F10C0370
S315200005D01A462049204802F0E1F833E27B689B68FE
S315200005E07A68134400225A737B6800229A6000229C
S315200005F01E49154802F0D2F802467B689A647B6849
S315200006009B6C013BC7F8FC30D7F8FC30002B43DD50
S31520000610D7F8FC2017490C4802F0C0F802467B6840
S315200006209A647B689B6C07F10C00134AC82107F07B
S31520000630FFFA07F10C031A460649074802F0AEF8FE
S3152000064000E200BF850C0020EC9200209F0C0020C9
S315200006506C880020FF1B002028930020AC880020F7
S31520000660C8880020F488002008890020153400203E
S315200006701C8900202F340020308900204489002046
S3152000068064890020693400207C8900208C89002020
S31520000690A0890020C0890020A04B1A46A049A14865
S315200006A002F07CF807F10C001423009301239E4AE4
S315200006B0C82107F0BDFA07F10C031A469849994854
S315200006C002F06CF87B689B6C07F10C00974AC821F6
S315200006D007F0AEFA07F10C031A469149914802F049
S315200006E05DF8AFE17B689B687A68134400225A73F1
S315200006F07B6800229A607B680D33184607F0CCFA97
S3152000070002467B685A647B685B6C002B19D1884B48
S315200007101A468349834802F041F8002285498648D3
S3152000072002F03CF8034607F10C00844AC82107F082
S315200007307FFA07F10C031A4679497A4802F02EF817
S3152000074080E17B685B6C1A467D497B4802F026F87F
S3152000075002467B685B6C9A4213D100227549764823
S3152000076002F01CF8034607F10C00764AC82107F070
S315200007705FFA07F10C031A4669496A4802F00EF837
S3152000078060E1714B1A466649664802F007F8002276
S315200007906849694802F002F8034607F10C006B4AE3
S315200007A0C82107F045FA07F10C031A465C495D4853
S315200007B001F0F4FF46E17B689B687A6813440022C7
S315200007C05A737B6800229A6000225A495A4801F0DF
S315200007D0E5FF02467B685A647B685B6C0A33C7F880
S315200007E0E830D7F8E830F02B18DCD7F8E820544961
S315200007F0514801F0D3FF02467B685A647B685B6CE4
S3152000080007F10C004F4AC82107F012FA07F10C0332
S315200008101A464349434801F0C1FF13E14C4B1A469F
S315200008203F49404801F0BAFF07F10C00F02300933E
S315200008303C233D4AC82107F0FBF907F10C031A4671
S315200008403749384801F0AAFF7B685B6C07F10C003A
S31520000850404AC82107F0ECF907F10C031A46304943
S31520000860304801F09BFFEDE07B689B687A68134473
S3152000087000225A737B6800229A6000222D492E4856
S3152000088001F08CFF02467B685A647B685B6C0A3BEE
S31520000890C7F8F430D7F8F4303B2B18DDD7F8F4201E
S315200008A02749254801F07AFF02467B685A647B680F
S315200008B05B6C07F10C00234AC82107F0B9F907F150
S315200008C00C031A461649174801F068FFBAE0204B78
S315200008D01A461349134801F061FF07F10C00F02373
S315200008E000933C23104AC82107F0A2F907F10C0314
S315200008F01A460B490B4801F051FF7B685B6C07F1E8
S315200009000C00144AC82107F093F907F10C031A4684
S315200009100349044801F042FF94E000BFA08900206B
S31520000920FF1B002028930020C8880020C0890020B3
S31520000930D8890020D70C0020EC920020EC890020DA
S31520000940F10C0020008A0020108A0020308A002026
S31520000950448A0020608A002000223D493D4801F05B
S315200009601DFFC7F8E40000223B493A4801F016FF74
S31520000970C7F8E00000223949364801F00FFFC7F8D2
S31520000980DC0000223549334801F008FFC7F8D800BB
S31520000990002233492F4801F001FFC7F8D400314B1C
S315200009A01A463149314801F0F9FE07F10C00D7F813
S315200009B0E4302F4AC82107F03BF907F10C031A4609
S315200009C029492A4801F0EAFE07F10C00D7F8E03061
S315200009D0284AC82107F02CF907F10C031A462249A8
S315200009E0224801F0DBFE07F10C00D7F8D830224A66
S315200009F0C82107F01DF907F10C031A461A491B48AE
S31520000A0001F0CCFE07F10C00D7F8DC301B4AC821D8
S31520000A1007F00EF907F10C031A461349134801F0A3
S31520000A20BDFE07F10C00D7F8D430154AC82107F0CF
S31520000A30FFF807F10C031A460B490C4801F0AEFEED
S31520000A4000E000BF00BF07F58077BD4680BD00BF30
S31520000A5041370020EC920020E9360020A9360020FC
S31520000A6005350020748A0020FF1B002028930020D3
S31520000A709C8A0020AC8A0020C88A0020E08A0020B8
S31520000A80F88A002080B588B002AF786039600123EB
S31520000A900093524B524A0021002001F0E1FD002232
S31520000AA05049514801F07AFE00225049504801F041
S31520000AB075FE504B1A4650494D4801F06FFE4F4B7C
S31520000AC01A464D494A4801F069FE4D4B1A464A4995
S31520000AD0474801F063FE4B4B1A464749444801F00C
S31520000AE05DFE494B1A464449414801F057FE474BA3
S31520000AF01A4641493E4801F051FE454B1A463E49A9
S31520000B003B4801F04BFE434B1A463B49384801F01F
S31520000B1045FE414B1A463849354801F03FFE3F4BCA
S31520000B201A463549324801F039FE3D4B1A463249BC
S31520000B302F4801F033FE3B4B1A462F492C4801F033
S31520000B402DFE394B1A462C49294801F027FE374BF2
S31520000B501A462949264801F021FE304B1A462649D5
S31520000B60234801F01BFE324B1A462349204801F048
S31520000B7015FE304B1A4620491D4801F00FFE2E4B1C
S31520000B801A461D491A4801F009FE2C4B1A461A49E5
S31520000B90174801F003FE214B1A461749144801F065
S31520000BA0FDFD01233B7301237B730623BB7348237F
S31520000BB0FB7365233B746C237B746C23BB746F239C
S31520000BC0FB7400233B7507F10C031A461C490648A3
S31520000BD001F0E4FD00BF1837BD4680BD4D3500202D
S31520000BE0EC9200206930002048970020591B0020F5
S31520000BF0289300200C8B0020FF1B0020208B002038
S31520000C00408B0020848B00209C8B0020DC8B0020D6
S31520000C10008C0020288C0020508C0020788C00200E
S31520000C20BC8C0020D08C0020148D0020388D002014
S31520000C305C8D0020748D0020BC8D0020E48D00206A
S31520000C407333002080B500AF00220849084801F020
S31520000C5099FF01220749084801F094FF002207491D
S31520000C60074801F0F5FF0023184680BD8B1C0020A5
S31520000C70289300202131002048970020850A002053
S31520000C808092002080B483B000AF786039607B68A2
S31520000C909B6918460C37BD465DF8047B704780B4C7
S31520000CA083B000AF786039603B6813F1050F07DB2E
S31520000CB03B68052B04DC7B683A689A613B6804E054
S31520000CC07B689A697B689A61062318460C37BD466D
S31520000CD05DF8047B704780B483B000AF78603960DC
S31520000CE07B681B7D18460C37BD465DF8047B704734
S31520000CF080B483B000AF786039603B683B2B08DD59
S31520000D003B68F02B05DC3B68DAB27B681A753B68DA
S31520000D1005E07B681A7D7B681A754FF0FF3318460D
S31520000D200C37BD465DF8047B7047000080B400AFE9
S31520000D30164B1B68154A43F001031360134B002220
S31520000D409A60124B1B68114A23F0A85323F41023F0
S31520000D5013600E4B0E4A5A600C4B0E4AC3F8842081
S31520000D600A4B0D4AC3F88820084B1B68074A23F410
S31520000D7080231360054B0022DA60044B0022C3F85F
S31520000D808C2000BFBD465DF8047B704700380240CA
S31520000D9010300024003000200030002480B483B0BE
S31520000DA000AF0346FB71064B00221A70044AFB79FA
S31520000DB0137000BF0C37BD465DF8047B704700BF3B
S31520000DC00238024080B582B000AF00233B6000238A
S31520000DD0FB710023BB71312000F08AFD0346BB71F5
S31520000DE03B6801333B603B68B3F5A04F02D0BB792B
S31520000DF0002BF0D0312000F07BFD0346002B02D0E3
S31520000E000123FB7101E00023FB71FB7918460837AB
S31520000E10BD4680BD80B485B000AF0346FB7100237C
S31520000E20FB600A4B1B68FB60FB6823F0F803FB6042
S31520000E30FB79DB00FA681343FB60044AFB68136006
S31520000E4000BF1437BD465DF8047B7047003802406A
S31520000E5080B483B000AF0346FB71044AFB7913606C
S31520000E6000BF0C37BD465DF8047B70470000474243
S31520000E7080B483B000AF0346FB710D4B00221A707D
S31520000E800B4B00221A70FB79012B02D0042B04D0C5
S31520000E9007E0074B01221A7003E0054B05221A7062
S31520000EA000BF00BF0C37BD465DF8047B704700BF0E
S31520000EB07038024080B483B000AF0346FB71044A09
S31520000EC0FB79136000BF0C37BD465DF8047B704785
S31520000ED0800E474280B485B000AFF860B9607A6072
S31520000EE03B607B689A01BB681A433B685B08013B01
S31520000EF01B041A43FB681A43BB691B0604491343A8
S31520000F004B6000BF1437BD465DF8047B704700BFB9
S31520000F100038024080B483B000AF0346FB71044A18
S31520000F20FB79136000BF0C37BD465DF8047B704724
S31520000F306000474280B483B000AF786039607B6838
S31520000F409A013B681B0705491343C1F8843000BF4B
S31520000F500C37BD465DF8047B704700BF0038024061
S31520000F6080B483B000AF0346FB71044AFB7913605B
S31520000F7000BF0C37BD465DF8047B704768004742CA
S31520000F8080B485B000AFF860B9607A60FB689A01DA
S31520000F90BB681B061A437B681B0705491343C1F828
S31520000FA0883000BF1437BD465DF8047B704700BF0C
S31520000FB00038024080B483B000AF0346FB71044A78
S31520000FC0FB79136000BF0C37BD465DF8047B704784
S31520000FD07000474280B483B000AF0346FB71044AD9
S31520000FE0FB79136000BF0C37BD465DF8047B704764
S31520000FF04C00474280B485B000AF7860396000234A
S31520001000FB600B4B9B68FB60FB6823F0EC63FB608B
S315200010107A683B681343FA681343FB60044AFB680B
S31520001020936000BF1437BD465DF8047B704700BF50
S315200010300038024080B485B000AF78603960002364
S31520001040FB600B4B9B68FB60FB6823F07843FB60DF
S315200010507A683B681343FA681343FB60044AFB68CB
S31520001060936000BF1437BD465DF8047B704700BF10
S315200010700038024080B485B000AF78600023FB6062
S31520001080094B9B68FB60FB6823F00303FB60FA684F
S315200010907B681343FB60044AFB68936000BF1437E8
S315200010A0BD465DF8047B70470038024080B400AF2F
S315200010B0054B9B68DBB203F00C03DBB21846BD463A
S315200010C05DF8047B704700BF0038024080B485B0CD
S315200010D000AF78600023FB60094B9B68FB60FB68D0
S315200010E023F0F003FB60FA687B681343FB60044A35
S315200010F0FB68936000BF1437BD465DF8047B7047DC
S315200011000038024080B485B000AF78600023FB60D1
S31520001110094B9B68FB60FB6823F4E053FB60FA688D
S315200011207B681343FB60044AFB68936000BF143757
S31520001130BD465DF8047B70470038024080B485B018
S3152000114000AF78600023FB600A4B9B68FB60FB685E
S3152000115023F46043FB607B68DB00FA681343FB6083
S31520001160044AFB68936000BF1437BD465DF8047BD4
S31520001170704700BF0038024080B489B000AF786065
S315200011800023BB6100237B610023FB6102233B61BB
S315200011900023FB600223BB604A4B9B6803F00C03D1
S315200011A0BB61BB69082B11D0BB69082B44D8BB692E
S315200011B0002B03D0BB69042B04D03DE07B68424A58
S315200011C01A603DE07B68414A1A6039E03D4B5B6816
S315200011D09B0D03F00103FB603A4B5B6803F03F0372
S315200011E0BB60FB68002B0CD0384ABB68B2FBF3F31C
S315200011F0344A52689209C2F3080202FB03F3FB61E8
S315200012000BE0314ABB68B2FBF3F32E4A52689209CF
S31520001210C2F3080202FB03F3FB612A4B5B681B0C3B
S3152000122003F0030301335B003B61FA693B69B2FBC0
S31520001230F3F27B681A6003E07B68234A1A6000BFDA
S31520001240204B9B6803F0F003BB61BB691B09BB61A4
S315200012501F4ABB6913441B78DBB27B617B681A6823
S315200012607B69DA407B685A60164B9B6803F4E0532F
S31520001270BB61BB699B0ABB61154ABB6913441B78DA
S31520001280DBB27B617B685A687B69DA407B689A604F
S315200012900C4B9B6803F46043BB61BB695B0BBB6172
S315200012A00B4ABB6913441B78DBB27B617B685A68A7
S315200012B07B69DA407B68DA6000BF2437BD465DF87B
S315200012C0047B7047003802400024F40000127A00A4
S315200012D00C8E002080B485B000AF78600023FB60C0
S315200012E07B6803F44073B3F5407F11D10F4B9B68A5
S315200012F0FB60FB6823F4F813FB607B6823F07043E4
S3152000130023F44073FA681343FB60084AFB68936032
S31520001310064B1A6F7B68C3F30B03044913430B6711
S3152000132000BF1437BD465DF8047B70470038024085
S3152000133080B483B000AF0346FB71044AFB79136087
S3152000134000BF0C37BD465DF8047B70473C0E474214
S3152000135080B483B000AF0346FB71044AFB79136067
S3152000136000BF0C37BD465DF8047B7047400E4742F0
S3152000137080B483B000AF7860044A7B68136000BFF6
S315200013800C37BD465DF8047B704700BF5C014742C1
S3152000139080B485B000AF78600023FB600B4BD3F898
S315200013A08C30FB60FB6823F01F03FB607B68013BEE
S315200013B0FA681343FB60054AFB68C2F88C3000BF0D
S315200013C01437BD465DF8047B704700BF00380240E5
S315200013D080B485B000AF78600023FB600B4BD3F858
S315200013E08C30FB60FB6823F4F853FB607B68013B81
S315200013F01B02FA681343FB60044AFB68C2F88C3070
S3152000140000BF1437BD465DF8047B704700380240A4
S3152000141080B485B000AF78600023FB600A4BD3F818
S315200014208C30FB60FB6823F44013FB60FA687B6812
S315200014301343FB60044AFB68C2F88C3000BF1437A4
S31520001440BD465DF8047B70470038024080B485B005
S3152000145000AF78600023FB600A4BD3F88C30FB602A
S31520001460FB6823F44003FB60FA687B681343FB6048
S31520001470044AFB68C2F88C3000BF1437BD465DF8BD
S31520001480047B70470038024080B485B000AF786096
S315200014900023FB600A4BD3F88C30FB60FB6823F4F7
S315200014A04033FB60FA687B681343FB60044AFB68A1
S315200014B0C2F88C3000BF1437BD465DF8047B7047F8
S315200014C00038024080B483B000AF7860044A7B685D
S315200014D0136000BF0C37BD465DF8047B704700BF24
S315200014E0E011474280B483B000AF78600B46FB70B2
S315200014F0FB78002B06D00A4B1A6B09497B681343ED
S315200015000B6306E0064B1A6B7B68DB4304491340EA
S315200015100B6300BF0C37BD465DF8047B704700BFE8
S315200015200038024080B483B000AF78600B46FB7071
S31520001530FB78002B06D00A4B5A6B09497B6813436C
S315200015404B6306E0064B5A6B7B68DB43044913402A
S315200015504B6300BF0C37BD465DF8047B704700BF68
S315200015600038024080B483B000AF78600B46FB7031
S31520001570FB78002B06D00A4B9A6B09497B681343EC
S315200015808B6306E0064B9A6B7B68DB43044913406A
S315200015908B6300BF0C37BD465DF8047B704700BFE8
S315200015A00038024080B483B000AF78600B46FB70F1
S315200015B0FB78002B06D00A4B1A6C09497B6813432B
S315200015C00B6406E0064B1A6C7B68DB430449134028
S315200015D00B6400BF0C37BD465DF8047B704700BF27
S315200015E00038024080B483B000AF78600B46FB70B1
S315200015F0FB78002B06D00A4B5A6C09497B681343AB
S315200016004B6406E0064B5A6C7B68DB430449134067
S315200016104B6400BF0C37BD465DF8047B704700BFA6
S315200016200038024080B483B000AF78600B46FB7070
S31520001630FB78002B06D00A4B1A6909497B681343AD
S315200016400B6106E0064B1A697B68DB4304491340AD
S315200016500B6100BF0C37BD465DF8047B704700BFA9
S315200016600038024080B483B000AF78600B46FB7030
S31520001670FB78002B06D00A4B5A6909497B6813432D
S315200016804B6106E0064B5A697B68DB4304491340ED
S315200016904B6100BF0C37BD465DF8047B704700BF29
S315200016A00038024080B483B000AF78600B46FB70F0
S315200016B0FB78002B06D00A4B9A6909497B681343AD
S315200016C08B6106E0064B9A697B68DB43044913402D
S315200016D08B6100BF0C37BD465DF8047B704700BFA9
S315200016E00038024080B483B000AF78600B46FB70B0
S315200016F0FB78002B06D00A4B1A6A09497B681343EC
S315200017000B6206E0064B1A6A7B68DB4304491340EA
S315200017100B6200BF0C37BD465DF8047B704700BFE7
S315200017200038024080B483B000AF78600B46FB706F
S31520001730FB78002B06D00A4B5A6A09497B6813436B
S315200017404B6206E0064B5A6A7B68DB43044913402A
S315200017504B6200BF0C37BD465DF8047B704700BF67
S315200017600038024080B483B000AF78600B46FB702F
S31520001770FB78002B06D00A4B1A6D09497B68134368
S315200017800B6506E0064B1A6D7B68DB430449134064
S315200017900B6500BF0C37BD465DF8047B704700BF64
S315200017A00038024080B483B000AF78600B46FB70EF
S315200017B0FB78002B06D00A4B5A6D09497B681343E8
S315200017C04B6506E0064B5A6D7B68DB4304491340A4
S315200017D04B6500BF0C37BD465DF8047B704700BFE4
S315200017E00038024080B483B000AF78600B46FB70AF
S315200017F0FB78002B06D00A4B9A6D09497B68134368
S315200018008B6506E0064B9A6D7B68DB4304491340E3
S315200018108B6500BF0C37BD465DF8047B704700BF63
S315200018200038024080B483B000AF78600B46FB706E
S31520001830FB78002B06D00A4B1A6E09497B681343A6
S315200018400B6606E0064B1A6E7B68DB4304491340A1
S315200018500B6600BF0C37BD465DF8047B704700BFA2
S315200018600038024080B483B000AF78600B46FB702E
S31520001870FB78002B06D00A4B5A6E09497B68134326
S315200018804B6606E0064B5A6E7B68DB4304491340E1
S315200018904B6600BF0C37BD465DF8047B704700BF22
S315200018A00038024080B483B000AF03460A46FB717D
S315200018B01346BB71BB79002B08D00C4B1B78DAB2D0
S315200018C00A49FB791343DBB20B7009E0074B1B78FF
S315200018D0DAB2FB79DB43DBB204491340DBB20B708F
S315200018E000BF0C37BD465DF8047B70470D380240BB
S315200018F080B487B000AF0346FB710023FB60002352
S315200019007B610023FB74FB795B09DBB2FB60FB6820
S31520001910012B03D1124B1B687B6109E0FB68022B6C
S3152000192003D10F4B1B6F7B6102E00D4B5B6F7B611D
S31520001930FB7903F01F03FB607A69FB6822FA03F345
S3152000194003F00103002B02D00123FB7401E00023E6
S31520001950FB74FB7C18461C37BD465DF8047B70473C
S315200019600038024080B400AF054B5B6F044A43F059
S315200019708073536700BFBD465DF8047B704700BF88
S315200019800038024080B485B000AF0346FB710023C7
S31520001990FB73094BDA68FB791340002B02D0012335
S315200019A0FB7301E00023FB73FB7B18461437BD460F
S315200019B05DF8047B704700BF0038024080B483B0D6
S315200019C000AF0346FB71044AFB79137000BF0C3746
S315200019D0BD465DF8047B70470E380240314900E071
S315200019E03149EFF3088020ED108A7246EFF3118318
S315200019F020E9FC0F2D4FD7F80080C8F800001EE024
S31520001A00084600F0F3F92A4800F0F0F9294800F0DA
S31520001A10EDF9D8F8040000F035FA274800F0E6F989
S31520001A20D8F8000000F0FFF9244800F0DFF9D8F8D4
S31520001A300000006800F0F7F91D4800F0D7F9DFF83C
S31520001A408080D8F80080C7F8008018E01D4800F094
S31520001A50CDF9D8F8040000F015FA1B4800F0C6F9B5
S31520001A60D8F8000000F0DFF9144800F0BFF9D8F8E4
S31520001A700000006800F0D7F90D4800F0B7F9134AC6
S31520001A80536843F00063536000BFD8F80000B0E805
S31520001A90FC0F83F311889646B0EC108A80F30888F1
S31520001AA070470000C0970020D1970020649800203E
S31520001AB041980020F29700200A98002012980020D2
S31520001AC00C1C01201B9800203098002000ED00E01F
S31520001AD080B483B000AF0346FB71FB7903F01F038C
S31520001AE0012202FA03F1064A97F907305B0942F808
S31520001AF0231000BF0C37BD465DF8047B704700BF3E
S31520001B0000E100E080B483B000AF03463960FB718A
S31520001B1097F90730002B0BDA3B68DAB20C49FB79D0
S31520001B2003F00F03043B1201D2B20B441A7609E0EC
S31520001B303B68DAB2074997F907301201D2B20B4453
S31520001B4083F8002300BF0C37BD465DF8047B704741
S31520001B5000ED00E000E100E080B582B000AF7860E3
S31520001B6039607B6800229A617B689A697B685A6132
S31520001B707B685A697B68DA61012240F225510A485E
S31520001B8005F032FD002240F22771074805F02CFDB2
S31520001B9002212520FFF7B6FF2520FFF799FF00BF7A
S31520001BA00837BD4680BD00BF0010014080B483B019
S31520001BB000AF78600B46FB707B68DB69B3F5806FFE
S31520001BC017DA7B685B697A681344FA7883F82020F1
S31520001BD07B685B6901335A42C3F30903C2F30902E6
S31520001BE058BF53427A6853617B68DB695A1C7B680D
S31520001BF0DA6100BF0C37BD465DF8047B704780B5BF
S31520001C0082B000AF786039607B68DB69002B18D121
S31520001C107B689B68012240F22771184605F0E4FC98
S31520001C200FE03B681B780A2B03D10D217868FFF75C
S31520001C30BDFF3B685A1C3A601B7819467868FFF747
S31520001C40B5FF3B681B78002BEBD100BF00BF0837E0
S31520001C50BD4680BD80B582B000AF786039607B68B4
S31520001C60DB69002B07D17B689B68012240F2277134
S31520001C70184605F0B9FC3B68DBB219467868FFF7D1
S31520001C8095FF00BF0837BD4680BD80B586B002AF40
S31520001C90786039607B689B682021184605F0ECFC4B
S31520001CA00346012B18D17B689B68184605F007FB75
S31520001CB00346FB607B68DB68002B0DD07B68DA6807
S31520001CC07B681969FB6800930B460021002000F011
S31520001CD0C7FC234B01221A607B689B68802118462B
S31520001CE005F0CAFC0346012B34D17B68DB69002B47
S31520001CF028DD7B6898687B689B697A68134493F82B
S31520001D002030194605F0C9FA7B689B6901335A428F
S31520001D10C3F30903C2F3090258BF53427A68936199
S31520001D207B68DB695A1E7B68DA617B68DB69002B7E
S31520001D3010D17B689B68002240F22771184605F077
S31520001D4053FC07E07B689B68002240F22771184607
S31520001D5005F04AFC002318461037BD4680BD00BF5B
S31520001D60001C012080B483B000AF0346FB71FB79D1
S31520001D7003F01F03012202FA03F1064A97F90730FE
S31520001D805B0942F8231000BF0C37BD465DF8047B83
S31520001D90704700BF00E100E080B483B000AF034687
S31520001DA03960FB7197F90730002B0BDA3B68DAB202
S31520001DB00C49FB7903F00F03043B1201D2B20B440A
S31520001DC01A7609E03B68DAB2074997F9073012011B
S31520001DD0D2B20B4483F8002300BF0C37BD465DF812
S31520001DE0047B704700ED00E000E100E080B582B0A2
S31520001DF000AF78600EE07B681B780D2B07D07B68E0
S31520001E005A1C7A601B78184600F05EF902E07B685F
S31520001E1001337B607B681B78002BECD100BF00BFB1
S31520001E200837BD4680BD80B586B000AF78600023F8
S31520001E307B617B6803F00F027B69591C796110492D
S31520001E408A5C18333B4403F80C2C7B681B097B60A7
S31520001E507B68002BEDD10AE07B69013B7B6107F1B2
S31520001E600C027B6913441B78184600F02DF97B6918
S31520001E70002BF1D100BF00BF1837BD4680BD00BF83
S31520001E804498002080B59EB000AF78607B68002B18
S31520001E9002DA4FF0FF3300E001233B677B683A6F9D
S31520001EA002FB03F37B6000237B6779681C4B83FB73
S31520001EB001239A10CB17D21A13469B0013445B00BA
S31520001EC0CA1A7B6F591C796716498A5C78333B445A
S31520001ED003F86C2C7B68124A82FB03129210DB17E4
S31520001EE0D31A7B607B68002BDFD13B6F002B0EDA89
S31520001EF02D2000F0E9F80AE07B6F013B7B6707F1B4
S31520001F000C027B6F13441B78184600F0DDF87B6FBC
S31520001F10002BF1D100BF00BF7837BD4680BD00BF82
S31520001F20676666664498002080B483B000AF1023AD
S31520001F307B607B6883F3118800BF00BF0C37BD46EA
S31520001F405DF8047B704780B483B000AF30237B609C
S31520001F507B6883F3118800BF00BF0C37BD465DF850
S31520001F60047B704780B584B000AF78600B48FFF7DC
S31520001F703DFF0B4B1B68002B02D1094B094A1A6007
S31520001F80074B1B68FB60064B1A687B681344044AA0
S31520001F901360FB6818461037BD4680BD1C8E002096
S31520001FA0B8980020401C012080B485B000AF78602E
S31520001FB039603B6803F5F95310337A6813607B6800
S31520001FC01B68BB600023FB6009E0FB689A00BB68C6
S31520001FD013441A4600231360FB680133FB60FB6839
S31520001FE0332BF2DDBB686FF016021A60BB68043330
S31520001FF01A4603231360BB6884331A464FF0807356
S31520002000136000BF1437BD465DF8047B704780B46B
S3152000201085B000AF786039607B681B688033FB60D1
S31520002020FB683A681A6000BF1437BD465DF8047B2A
S31520002030704780B584B000AF1C4803F0FDF83B1D07
S31520002040184603F045FA40F24733BB803B1D19463C
S31520002050164803F0D1F9164B164A1A6002216FF082
S315200020600100FFF799FE144B144A1A6000216FF005
S315200020700400FFF791FE124B124A1A600221322009
S31520002080FFF78AFE3220FFF76DFE0021074803F096
S3152000209069FA0121054803F032FB01220221034897
S315200020A004F001FB00BF1037BD4680BD000C004088
S315200020B038C00120E11900202CC00120DD190020A4
S315200020C008C101204F24002080B582B000AF03460E
S315200020D0FB71FB799BB21946074805F0DEF800BF75
S315200020E08021054805F0C8FA0346002BF8D000BF2A
S315200020F000BF0837BD4680BD0010014080B500AF47
S31520002100124803F04BFA03461A46114B1A60114B3C
S3152000211001221A60104B00221A60104B1B68002BFC
S3152000212006D00E4B1B680E4A1268002110469847AF
S31520002130084B00221A60084B1B68002B01D000F0C8
S315200021405DFA054B00221A6080BD00BF000C0040DE
S31520002150041C0120FC1B0120001C0120101C012056
S315200021601C1C012080B500AF124803F017FA034665
S315200021701A46114B1A60114B01221A60104B00228D
S315200021801A60104B5B68002B06D00E4B5B680E4A1C
S315200021905268012110469847084B00221A60084BC6
S315200021A01B68002B01D000F029FA054B00221A608B
S315200021B080BD00BF000C0040041C0120FC1B012038
S315200021C0001C0120101C01201C1C012080B500AF22
S315200021D0124803F0E3F903461A46114B1A60114BD5
S315200021E001221A60104B00221A60104B9B68002BAC
S315200021F006D00E4B9B680E4A9268022110469847DD
S31520002200084B00221A60084B1B68002B01D000F0F7
S31520002210F5F9054B00221A6080BD00BF000C004076
S31520002220041C0120FC1B0120001C0120101C012085
S315200022301C1C012080B485B000AF78603960002373
S31520002240FB603B681B68BB6004E0BB68FB60BB6847
S315200022501B68BB60BB68002B05D0BB689A687B688F
S315200022609B689A42F1DD7B68BA681A60FB68002B8E
S3152000227003D13B687A681A6002E0FB687A681A60C4
S3152000228000BF1437BD465DF8047B704780B485B027
S3152000229000AF786039600023FB603B681B68BB6039
S315200022A004E0BB68FB60BB681B68BB60BB68002B97
S315200022B005D0BB685A687B685B689A42F1DD7B680B
S315200022C0BA681A60FB68002B03D13B687A681A60EB
S315200022D002E0FB687A681A6000BF1437BD465DF8D5
S315200022E0047B704780B584B000AF78607B681B683C
S315200022F0FB60FB68002B04D0FB681A687B681A60B9
S315200023000CE00948FFF772FD00220221074802F07F
S31520002310E8FC0748FFF76AFD30BFFDE7FB68184673
S315200023201037BD4680BD00BF348E00200004024019
S31520002330408E002080B584B000AF78607B681B6833
S31520002340FB60FB68002B04D0FB681A687B681A6068
S315200023500CE00948FFF74AFD00220221074802F057
S31520002360C0FC0748FFF742FD30BFFDE7FB68184673
S315200023701037BD4680BD00BF348E002000040240C9
S315200023804C8E002080B483B000AF786039603B6803
S315200023901A687B681A603B687A681A6000BF0C3737
S315200023A0BD465DF8047B704780B483B000AF78608B
S315200023B039603B681A687B689A603B687A681A605D
S315200023C000BF0C37BD465DF8047B704780B485B0EE
S315200023D000AF78607B681B68FB60FB689A687B6847
S315200023E01A60FB6818461437BD465DF8047B7047B3
S315200023F080B485B000AF786039600023FB603B680D
S315200024001B68BB6004E0BB68FB60BB681B68BB60E5
S31520002410BB68002B03D0BA687B689A42F3D1BB68AD
S31520002420002B0DD0FB68002B04D0BB681A68FB6814
S315200024301A6003E0BB681A683B681A60012300E053
S31520002440002318461437BD465DF8047B704780B5D7
S3152000245082B000AF02211E4804F0AFF91C4803F0F9
S315200024609DF803467B6007E01A48FFF73BFF0346CB
S3152000247019491846FFF7DEFE164B1B68002B06D0BF
S31520002480144B1B685A687B68D31A002BECDD114B62
S315200024901B68002B16D00E4803F080F803463B60DD
S315200024A00C4B1B685B683A689A4204DD00220221C5
S315200024B00A4802F016FC074B1B685B68194604485D
S315200024C003F0ABFB00F09AF800BF0837BD4680BD8D
S315200024D0000C0040F81B0120F41B012000040240E0
S315200024E00346024A136010DFF74600BF0C1C01208A
S315200024F00346054A1360054B5B68044A43F0805344
S315200025005360F74600BF00BF0C1C012000ED00E021
S3152000251080B582B000AF7860094B5B68C3F30803CF
S31520002520002B03D17868FFF7DBFF02E07868FFF71E
S31520002530DFFFFFF708FD00BF0837BD4680BD00BF9F
S3152000254000ED00E090B585B000AF234B1C68234812
S31520002550FFF7C8FE0346E360E368BB60FFF7F3FCC2
S31520002560BB68D868BB681969BB685B691A4600F006
S3152000257015F9FFF7D9FC1A49B868FFF703FF194B7D
S315200025801B689B68DB687B60144B1B68002B0AD09A
S315200025907B68002BD9D0114B1B689A687B689B6897
S315200025A0D31A002BD1DD0F48FFF710FF03460E4943
S315200025B01846FFF7F9FE0B4B1B68FB6003E0FB6830
S315200025C01B691B68FB60FB681B69002BF7D1F86849
S315200025D0FFF79EFFB9E700BF64980020F41B012097
S315200025E058980020609800205C98002080B500AFA5
S315200025F000F004F8FFF7A7FC30BFFBE780B582B0F8
S3152000260000AF144B1B68DB687B60134B1B68002BE9
S315200026101BD0124B1B68002B17D07B68002B07D0D2
S315200026200D4B1B689A687B689B68D31A002B0CDAC3
S315200026300A48FFF7CBFE034606491846FFF7B4FEC5
S31520002640044B1B681846FFF763FF00BF0837BD46DB
S3152000265080BD00BF60980020F41B01205C980020FC
S3152000266080B588B000AFF860B9607A603B60EFF360
S3152000267012833B613B691B09012B14BF01230023F5
S31520002680DBB2FB77FFF750FC3A48FFF753FEB86101
S31520002690BB697A68DA60BB693A681A61BB69BA6A4B
S315200026A05A61354B1B68002B04D1344B1B68DB6801
S315200026B05B6801E0324B1B68FA681A44BB695A60B2
S315200026C0BB695A68BB68002B01DDBB6801E06FF06F
S315200026D000431A44BB699A602A4802F05FFF03460A
S315200026E07B61BB695A687B69D31A002B16DD2649A4
S315200026F0B869FFF7CBFD244B1B685B687A699A4261
S3152000270004DD00220221214802F0EBFA1E4B1B6851
S315200027105B6819461B4803F080FA21E01C49B8691A
S31520002720FFF788FDFB7F002B1AD01A4B1B68002B66
S3152000273016D0174B1B689A68174B1B68DB689B687B
S31520002740D31A002B0CDA1348FFF740FE0346124932
S315200027501846FFF729FE104B1B681846FFF7D8FED0
S31520002760FB7F002B01D0FFF7EEFBBB691846203715
S31520002770BD4680BD58980020FC1B0120649800208F
S31520002780041C0120000C0040F81B0120000402401C
S31520002790F41B01205C9800206098002080B588B04A
S315200027A000AFF860B9607A60EFF312833B613B6952
S315200027B01B09012B14BF01230023DBB2FB76FFF795
S315200027C0B3FBFB681B68FB61FB69002B37D003E07A
S315200027D0FB691B691B68FB61FB691B69002BF7D131
S315200027E0304B1B68FA699A4202D0FB7E002B07D138
S315200027F0FB7E002B01D0FFF7A6FB4FF0FF334DE009
S31520002800FB685B68002B03D0FB685B6800221A61BB
S31520002810244B1A68FB685A60224B1B68FA681A61B7
S31520002820F869FFF775FE1F4B1B68DB68002B06D186
S31520002830FB7E002B01D0FFF786FB00232EE0194BF1
S315200028401A68FB681A60FB7E002B05D0FB685B6864
S31520002850012B01D0FFF777FBBB687968F8689847AA
S315200028607861FFF761FBFB6800221A60FB685B68F2
S31520002870FB61FB69002B0BD0FB69012B08D0FB68A1
S3152000288000225A60FB6900221A61F869FFF740FEB0
S31520002890FB7E002B01D0FFF756FB7B6918462037BD
S315200028A0BD4680BD6498002080B586B000AF7860B4
S315200028B0EFF31283FB60FB681B09012B14BF012376
S315200028C00023DBB2FB74FFF72FFB1F497868FFF765
S315200028D08FFD0346002B06D11C497868FFF788FD3B
S315200028E00346002B04D01A497868FFF74BFD21E0F8
S315200028F0184B1B687B611AE0174B1B687A699A4252
S3152000290012D07B69DB687A689A420DD17B691A6995
S315200029107B68DB689A4207D17B690022DA600C4922
S315200029207868FFF72FFD05E07B699B687B617B69F3
S31520002930002BE1D1FB7C002B01D0FFF704FB00BF6D
S315200029401837BD4680BD00BFF81B0120F41B0120AF
S3152000295058980020609800206498002080B485B0A4
S3152000296000AF7860EFF31283FB60FB681B09012B35
S3152000297004D0074B1B68DB685B6801E0054B1B68CE
S315200029807A68136000BF1437BD465DF8047B704734
S3152000299064980020041C012080B485B000AF7860C4
S315200029A0EFF31283FB60FB681B09012B04D0084B55
S315200029B01B68DB685B6801E0064B1B687A68126857
S315200029C09B1A18461437BD465DF8047B704700BF36
S315200029D064980020041C012080B584B000AFEFF37A
S315200029E012837B607B681B09012B14BF0123002304
S315200029F0DBB2FB73FFF798FA0C4802F0CFFD0346D3
S31520002A00BB60FB7B002B01D0FFF79DFAFB7B002BE5
S31520002A1004D0074B1B68DB685B6801E0054B1B682D
S31520002A20BA68D31A18461037BD4680BD000C004040
S31520002A3064980020041C012080B582B000AF0023DA
S31520002A407B6012E07B685A1C13465B001344DB0054
S31520002A50444A991843487A6813465B001344DB00BE
S31520002A60034419607B6801337B607B681C2BE9DD9E
S31520002A703C4B0022C3F8B82200237B6013E07B681E
S31520002A805A1C13469B0013449B00374A9918364814
S31520002A907A6813469B0013449B000344083319604D
S31520002AA07B6801337B607B68022BE8DD2E4B00229E
S31520002AB05A6400237B6030E02B497A6813469B00DA
S31520002AC013449B000B4404337A681A607A681346D1
S31520002AD09B0013449B00244A1A447B685B032349CA
S31520002AE00B4419461046FFF75FFA7A6813469B0097
S31520002AF013449B001C4A13441D491846FFF787FAC6
S31520002B0019497A6813469B0013449B000B441033E3
S31520002B1000221A607B6801337B607B68032BCBDD48
S31520002B20144B4FF0FF325A60124B00229A60114B21
S31520002B3000221A610F4B0022DA600F48FFF756F980
S31520002B400E48FFF753F90E48FFF750F90A48FFF7EA
S31520002B504DF90948FFF74AF9FFF76BFA00BF083726
S31520002B60BD4680BDBC9800208C9B0020E09B0020A9
S31520002B7045250020E01B0120588E00205C8E002079
S31520002B80688E002080B586B000AFF860B960134625
S31520002B90FB71FB79022B41D8EFF312833B613B6932
S31520002BA01B09012B14BF01230023DBB2FB75FFF7A2
S31520002BB0BBF9FB79022B0ED0022B10DC002B02D0A6
S31520002BC0012B04D00BE0174B174A1A6014E0174B61
S31520002BD0174A1A6010E0174B174A1A600CE017487C
S31520002BE0FFF704F900220221154802F07AF8154869
S31520002BF0FFF7FCF830BFFDE7FB791349FA6841F887
S31520002C002320FB791149BA6841F82320FB68012269
S31520002C105A60FB7D002B01D0FFF795F900BF1837CE
S31520002C20BD4680BDD4C00120FD20002090C00120DB
S31520002C30652100209CC00120CD210020348E00205B
S31520002C4000040240808E00201C1C0120101C012044
S31520002C5080B586B002AFF860B9607A60FFF764F994
S31520002C60FFF7EAFEBB68002B16D00F4802F096FC51
S31520002C7003461A460D4B1A600D4B01221A607B68DB
S31520002C800093BB68FA6800210020FFF7E9FC084B97
S31520002C9000221A60FFF7B2FCFFF7A8FC00231846B3
S31520002CA01037BD4680BD00BF000C0040041C01202B
S31520002CB0FC1B012080B400AF00BFBD465DF8047B3D
S31520002CC0704780B586B000AF454801F021FE4548E3
S31520002CD000F044FD444800F041FD01214FF0007012
S31520002CE0FEF760FC01214FF08060FEF75BFC0121BE
S31520002CF00220FEF7F7FB09220921394802F02AF8BB
S31520002D0009220821364802F025F807F11003184653
S31520002D1001F03FFF4FF400733B6102233B75002314
S31520002D20BB750023FB7502237B7507F1100319463B
S31520002D302B4801F09FFE4FF480733B6102233B75C5
S31520002D400023BB750123FB7502237B7507F1100356
S31520002D501946234801F08EFE09220621204801F05B
S31520002D60F9FF092205211E4801F0F4FF40233B61AB
S31520002D7002233B750023BB750023FB7502237B755D
S31520002D8007F110031946164801F074FE20233B6113
S31520002D9002233B750023BB750123FB7502237B753C
S31520002DA007F1100319460E4801F064FE0023BB729A
S31520002DB00023FB7201233B7300233B8000237B808F
S31520002DC00023BB800023FB8000233B8101237B73F0
S31520002DD03B46184600F0B7FD00BF1837BD4680BDFC
S31520002DE000040240006400400068004080B586B0C0
S31520002DF000AF01214FF00050FEF7D4FB07F110037E
S31520002E00184601F0C6FE20233B6103233B750023B1
S31520002E10FB7507F1100319460F4801F02BFE01F050
S31520002E20E3FF3B46184602F021F800233B600023CF
S31520002E307B600023FB603B461946102001F0E2FF31
S31520002E400121102002F028F80021082002F0D2F8F3
S31520002E5000BF1837BD4680BD0000024080B584B053
S31520002E6000AF01214FF48040FEF7BCFB0721012073
S31520002E7004F0DEFD04F0A6FC3B46184604F02EFDC9
S31520002E8080233B6000233B710C237B710123BB71A4
S31520002E903B46184604F0B0FC07F10803184601F03B
S31520002EA078FE0223BB6001233B730123BB730023FF
S31520002EB0FB7301237B7307F108031946184801F0B9
S31520002EC0D9FD0123BB6001233B730123BB73002380
S31520002ED0FB7301237B7307F108031946104801F0A1
S31520002EE0C9FD012202210E4801F0FBFE012201212B
S31520002EF00B4801F0F6FE8023BB6000233B730023C2
S31520002F00BB730023FB7301237B7307F10803194668
S31520002F10034801F0AFFD00BF1037BD4680BD00BF9E
S31520002F200004024080B483B000AFEFF314833B600B
S31520002F303B6823F003037B607B6883F3148800BF20
S31520002F40094B4FF404725A61074B5B69064A43F0FA
S31520002F5008035361054B4FF000425A6000BF0C37FF
S31520002F60BD465DF8047B704700ED00E030EF00E0E1
S31520002F7080B500AF01210820FEF714FB01210820AF
S31520002F80FEF750FC00BF80BD80B400AF124A02E0BD
S31520002F90002342F8043B114B9A42F9D300BFBD46A9
S31520002FA05DF8047B704780B500AFFFF7EDFFFFF7B4
S31520002FB081FEFFF786FEFFF719FFFFF74FFFFFF7AA
S31520002FC0B1FFFFF7D5FF00BF80BD80B400AF00BFC3
S31520002FD0BD465DF8047B7047B8980020401C012050
S31520002FE080B483B000AF0346FB71FB7903F01F0367
S31520002FF0012202FA03F1064A97F907305B0942F8E3
S31520003000231000BF0C37BD465DF8047B704700BF18
S3152000301000E100E080B483B000AF03463960FB7165
S3152000302097F90730002B0BDA3B68DAB20C49FB79AB
S3152000303003F00F03043B1201D2B20B441A7609E0C7
S315200030403B68DAB2074997F907301201D2B20B442E
S3152000305083F8002300BF0C37BD465DF8047B70471C
S3152000306000ED00E000E100E080B586B000AF7860BA
S3152000307039607B6800229A617B689A697B685A610D
S315200030807B685A697B68DA6107F10C03184600F001
S315200030901DFD0023BB740023FB7400233B75002316
S315200030A07B750023BB750023FB750023BB730023B0
S315200030B0FB7302233B7403237B740723BB8107F135
S315200030C00C031946124800F06DFB0346002B02D173
S315200030D01048FEF78BFE07F10C0319460E4800F048
S315200030E061FB0346002B02D10C48FEF77FFE02212E
S315200030F01420FFF78FFF1420FFF772FF0122022111
S31520003100034801F021F900BF1837BD4680BD00BF36
S3152000311000640040A08E002000680040B88E002089
S31520003120B0B58AB002AF786039607B689B685A492F
S31520003130184601F027F90346012B02D05748FEF71F
S3152000314055FE7B68DB69072B00F39E807B689B68B6
S3152000315007F108020021184600F0FCFEBB681B0997
S31520003160DBB27A68526903F07F03D8B279681346D6
S315200031709B0013445B0013440B44203302461A7011
S31520003180BB68DBB27A68526903F00F03D8B279685C
S3152000319013469B0013445B0013440B442133024621
S315200031A01A70BB7C7A68526903F00F03D8B279682B
S315200031B013469B0013445B0013440B442233024600
S315200031C01A700023FB7715E0FB7F7A685269F97F36
S315200031D020333B4413F80D4C786813469B00134468
S315200031E05B00134403440B44233322461A70FB7FAF
S315200031F00133FB777B685A69796813469B00134431
S315200032005B0013440B4422331B78FA7F9A42DBD3AC
S315200032107B68DB68002B25D07B68DC687B681D69B2
S315200032207B685A69796813469B0013445B001344F4
S315200032300B4420331B7819017B685A69786813463A
S315200032409B0013445B001344034421331B780B4437
S3152000325000932B46224600210020FFF701FA104B4F
S3152000326001221A607B685B6901335A4203F0070327
S3152000327002F0070258BF53427A6853617B68DB69C4
S315200032805A1C7B68DA6102E00648FEF7AFFD00BFF4
S315200032902037BD46B0BD00BF03000012D08E0020EF
S315200032A0001C0120F88E002090B484B000AF786016
S315200032B039607B68DB69002B55DD7B689A69796804
S315200032C013469B0013445B0013440B4420331A78A7
S315200032D03B681A707B689A69796813469B00134489
S315200032E05B0013440B4421331A783B685A707B6881
S315200032F09A69796813469B0013445B0013440B4478
S3152000330022331A783B689A700023FB7313E07B689C
S315200033109A69F87BF97B7C6813469B0013445B0013
S3152000332013442344034423331A783B680B44DA704E
S31520003330FB7B0133FB733B689B78FA7B9A42E6D38F
S315200033407B689B6901335A4203F0070302F00702A8
S3152000335058BF53427A6893617B68DB695A1E7B6843
S31520003360DA61002300E0012318461037BD4690BCE1
S31520003370704780B58AB000AF786039607B689B68FB
S315200033803B620023FB773B681B781B013A68527827
S315200033901344BB6000237B7400233B743B689B78FB
S315200033A0082B02D93B6808229A703B689B78BB742D
S315200033B0002387F827300FE097F8272097F8273043
S315200033C039680A44D27828333B4403F8152C97F8F9
S315200033D02730013387F827303B689B7897F82720DA
S315200033E09A42E9D307F108031946386A00F032FCFD
S315200033F00346FB77FB7F042B04D10548FEF7F6FC3A
S31520003400012300E0002318462837BD4680BD00BFB3
S31520003410188F002080B483B000AF786039607B6855
S315200034201B7A18460C37BD465DF8047B704780B47E
S3152000343083B000AF786039603B68002B08DD3B68BD
S31520003440142B05DC3B68DAB27B681A723B6805E010
S315200034507B681A7A7B681A724FF0FF3318460C374E
S31520003460BD465DF8047B704780B483B000AF7860BA
S3152000347039607B681B7A002B04D17B685A7A7B687B
S315200034801A7206E07B681A7A7B685A727B68002279
S315200034901A727B681B7A18460C37BD465DF8047B8A
S315200034A0704780B582B000AF786039607B680C3396
S315200034B01846FFF771FA02467B68DA6100BF0837C3
S315200034C0BD4680BD80B485B000AF786039607B682A
S315200034D05B6B03F10A027B681B6B084951F82330AA
S315200034E01344FB60064AFB68DB0013445B681846FE
S315200034F01437BD465DF8047B704700BF2C8F002033
S315200035002C90002080B487B000AF786039607B684B
S315200035101B6B0D4A52F823307A68926B02FB03F339
S31520003520DA0F13445B107B614EF660227B6992FBB7
S31520003530F3F33B613B69323BFB60FB6818461C3763
S31520003540BD465DF8047B7047AC8F002080B584B003
S3152000355002AF786039607B681A6B3B1D3C49184680
S31520003560FFF71CF902467B68642101FB02F2DA624E
S315200035707B681A6B3B1D37491846FFF70FF9024641
S315200035807B68642101FB02F29A627B68002118465F
S31520003590FFF787FF3B68002B03D12F4B00221A60D1
S315200035A004E07B681B7A1A462B4B1A602A4B1A6852
S315200035B02A4BD2B21A707B68DA697B68DB6A9A4238
S315200035C014DA7B689B6A264A82FB03129210DB1769
S315200035D0D01A7A683B68002B0CBF01230023DBB28C
S315200035E00093204B0A21FFF73BF82DE07B68DB6A2E
S315200035F003F59C5307337A68D269934224DB7B68B0
S315200036001B6B1F2B05DC7B681A6B7B6801321A63E8
S3152000361002E07B6800221A637B689B6A104A82FB61
S3152000362003129210DB17D01A7A68002300930D4BF1
S3152000363041F28831FFF714F87B680C331846FFF700
S315200036408DF97B6800225A6200BF0837BD4680BDCF
S3152000365005350020C5340020281C01201C7400409C
S31520003660676666664D35002080B483B000AF78600B
S3152000367039607B685B690A4A82FB03125113DA17A9
S315200036808A1A084901FB02F29A1A13469B00134430
S315200036905B0018460C37BD465DF8047B704700BFBB
S315200036A089B5F814A086010080B483B000AF786095
S315200036B039607B68DB690A4A82FB03125113DA17E9
S315200036C08A1A084901FB02F29A1A13469B001344F0
S315200036D05B0018460C37BD465DF8047B704700BF7B
S315200036E089B5F814A086010080B483B000AF786055
S315200036F039607B685B6A18460C37BD465DF8047BEB
S31520003700704780B483B000AF786039607B68DB6A2D
S31520003710094A82FB03125113DA178A1A074901FB59
S3152000372002F29A1A13469B0013445B0018460C3784
S31520003730BD465DF8047B704789B5F814A086010064
S3152000374080B483B000AF786039607B681B6B184605
S315200037500C37BD465DF8047B704700BF80B582B04C
S3152000376000AF78607B680E4A93420AD101214FF060
S315200037700070FDF7B7FF00214FF00070FDF7B2FF94
S3152000378009E001214FF08060FDF7ACFF00214FF0EA
S315200037908060FDF7A7FF00BF0837BD4680BD00BF8C
S315200037A00064004080B485B000AF786039600023A3
S315200037B0FB730023BB607B681B6823F002027B68D7
S315200037C01A607B681B6843F001027B681A6002E07E
S315200037D0BB680133BB607B685B6803F00103012B88
S315200037E004D0BB684FF6FF729342F1D17B685B68C9
S315200037F003F00103012B02D00023FB739CE03B68FE
S315200038009B79012B06D17B681B6843F080027B687D
S315200038101A6005E07B681B6823F080027B681A60CB
S315200038203B68DB79012B06D17B681B6843F040029D
S315200038307B681A6005E07B681B6823F040027B6882
S315200038401A603B681B7A012B06D17B681B6843F004
S3152000385020027B681A6005E07B681B6823F0200243
S315200038607B681A603B685B7A012B06D17B681B68F4
S3152000387043F010027B681A6005E07B681B6823F022
S3152000388010027B681A603B689B7A012B06D17B6805
S315200038901B6843F008027B681A6005E07B681B689A
S315200038A023F008027B681A603B68DB7A012B06D17D
S315200038B07B681B6843F004027B681A6005E07B681E
S315200038C01B6823F004027B681A603B689B789A0782
S315200038D03B68DB781B061A433B681B791B041A439B
S315200038E03B685B791B051A433B681B88013B1A43DF
S315200038F07B68DA617B681B6823F001027B681A60AB
S315200039000023BB6002E0BB680133BB607B685B6859
S3152000391003F00103012B04D1BB684FF6FF729342DB
S31520003920F1D17B685B6803F00103012B02D10023F0
S31520003930FB7301E00123FB73FB7B18461437BD465E
S315200039405DF8047B704790B484B000AF78600023A4
S31520003950FB607B689B7A1A4601239340FB605A4B97
S31520003960D3F80032584A43F00103C2F80032564BCE
S31520003970D3F81C22FB68DB4353491340C1F81C32A1
S315200039807B681B7B002B29D14F4BD3F80C22FB687D
S31520003990DB434D491340C1F80C327B68DB881B049E
S315200039A07A685288144648497A68927A104643EAD9
S315200039B0040200F1480341F833207B689B881B04EE
S315200039C07A681288144640497A68927A104643EA01
S315200039D0040200F14803DB000B445A607B681B7B22
S315200039E0012B28D1384BD3F80C223749FB681343D7
S315200039F0C1F80C327B681B881B047A6852881446EF
S31520003A0031497A68927A104643EA040200F1480363
S31520003A1041F833207B689B881B047A68D288144639
S31520003A2029497A68927A104643EA040200F148034B
S31520003A30DB000B445A607B68DB7A002B09D1224BD2
S31520003A40D3F80422FB68DB431F491340C1F8043234
S31520003A5007E01D4BD3F804221B49FB681343C1F82A
S31520003A6004327B681B89002B08D1174BD3F814220C
S31520003A70FB68DB4314491340C1F814327B681B8969
S31520003A80012B07D1104BD3F814220F49FB6813439F
S31520003A90C1F814327B685B7B012B07D10A4BD3F824
S31520003AA01C220949FB681343C1F81C32064BD3F884
S31520003AB00032054A23F00103C2F8003200BF103756
S31520003AC0BD4690BC704700BF0064004080B483B000
S31520003AD000AF78607B6800229A717B680022DA71D9
S31520003AE07B6800221A727B6800225A727B68002249
S31520003AF09A727B680022DA727B6800229A707B6851
S31520003B000022DA707B6803221A717B6802225A71BE
S31520003B107B6801221A8000BF0C37BD465DF8047B06
S31520003B20704780B483B000AF0346FB71144BD3F8C3
S31520003B300032134A43F00103C2F80032104BD3F887
S31520003B4000320F4A23F47C5323F00E03C2F80032CE
S31520003B500B4BD3F80022FB791B0209491343C1F80A
S31520003B600032074BD3F80032054A23F00103C2F88E
S31520003B70003200BF0C37BD465DF8047B704700BF9E
S31520003B800064004080B483B000AF78600B46FB70C1
S31520003B90FB78002B06D07B681B6843F480327B6859
S31520003BA01A6005E07B681B6823F480327B681A6004
S31520003BB000BF0C37BD465DF8047B704780B483B0E8
S31520003BC000AF78600B46FB70FB78002B1ED07B681D
S31520003BD01B6843F080027B681A607B68D3F88431C7
S31520003BE043F480727B68C3F884217B68D3F89431D0
S31520003BF043F480727B68C3F894217B68D3F8A431A0
S31520003C0043F480727B68C3F8A4211DE07B681B689F
S31520003C1023F080027B681A607B68D3F8843123F412
S31520003C2080727B68C3F884217B68D3F8943123F4AF
S31520003C3080727B68C3F894217B68D3F8A43123F47F
S31520003C4080727B68C3F8A42100BF0C37BD465DF89F
S31520003C50047B704780B485B000AF7860396000235C
S31520003C60FB737B689B6803F08063B3F1806F02D19E
S31520003C700023FB7315E07B689B6803F00063B3F1B8
S31520003C80006F02D10123FB730BE07B689B6803F076
S31520003C908053B3F1805F02D10223FB7301E004233A
S31520003CA0FB73FB7B042B00F09F80FB7B7A68183329
S31520003CB01B0113441A68FB7B02F001027968183352
S31520003CC01B010B441A603B681B7A002B13D1FB7B2C
S31520003CD07A6818331B01134419683B681B685B0517
S31520003CE03A68527A1A43FB7B0A43796818331B01D8
S31520003CF00B441A6015E0FB7B7A6818331B011344CA
S31520003D0019683B685B68DB003A68127A13433A68A5
S31520003D10527A1A43FB7B0A43796818331B010B44FA
S31520003D201A603B689B7A03F00F03DAB23B689A72FB
S31520003D30FB7B7A6818331B01134404331A68FB7B18
S31520003D4022F00F02796818331B010B4404331A60E2
S31520003D50FB7B7A6818331B01134404331A683B68CB
S31520003D609B7A1946FB7B0A43796818331B010B445F
S31520003D7004331A603B689B7B1A063B685B7B1B04FB
S31520003D801A433B681B7B1B021A433B68DB7A1946A6
S31520003D90FB7B0A4379681B010B4403F5C4731A6045
S31520003DA03B689B7C1A063B685B7C1B041A433B687A
S31520003DB01B7C1B021A433B68DB7B1946FB7B0A43B1
S31520003DC079681B010B4403F5C6731A60FB7B7A687E
S31520003DD018331B0113441A68FB7B42F001027968F1
S31520003DE018331B010B441A60FB7B18461437BD465B
S31520003DF05DF8047B704780B485B000AF78600B46D1
S31520003E00FB700023FB60FB78022B12D0022B16DC02
S31520003E10002B02D0012B06D011E07B689A68314B2B
S31520003E201340FB600EE07B689A682F4B1340FB60C3
S31520003E3008E07B689A682D4B1340FB6002E0002364
S31520003E40FB6000BFFB68294A93423DD0FB68274AA6
S31520003E5093423CD8FB68264A93422CD0FB68244ADE
S31520003E60934234D8FB68204A93422AD0FB681E4AE4
S31520003E7093422CD8FB681F4A934219D0FB681D4AEF
S31520003E80934224D8FB68174A934217D0FB68154AF9
S31520003E9093421CD8FB68002B04D0FB68164A934239
S31520003EA003D014E00223FB6014E00023FB6011E042
S31520003EB00023FB600EE00023FB600BE00123FB6088
S31520003EC008E00123FB6005E00123FB6002E00023FC
S31520003ED0FB6000BFFB68DBB218461437BD465DF8B1
S31520003EE0047B704703000004000300080000031051
S31520003EF000000110000100080100000480B483B016
S31520003F0000AF78600B46FB70FB78022B14D0022B97
S31520003F1019DC002B02D0012B07D014E07B689B68AC
S31520003F2043F080027B689A600EE07B689B6843F4CE
S31520003F3000427B689A6007E07B689B6843F4000236
S31520003F407B689A6000E000BF00BF0C37BD465DF875
S31520003F50047B704780B485B000AFF8600B467A606A
S31520003F60FB72FB7AFA681B331B0113441B68DBB216
S31520003F7003F00403DAB27B681A727B681B7A002B83
S31520003F800BD1FB7AFA681B331B0113441B685B0DAC
S31520003F90C3F30A027B681A600AE0FB7AFA681B33CD
S31520003FA01B0113441B68DB0823F060427B685A60C0
S31520003FB0FB7AFA681B331B0113441B68DBB203F040
S31520003FC00203DAB27B685A72FB7AFA681B331B014A
S31520003FD0134404331B68DBB203F00F03DAB27B68A9
S31520003FE09A72FB7AFA681B331B01134404331B684D
S31520003FF01B0ADAB27B68DA74FB7AFA681B0113446F
S3152000400003F5DC731B68DAB27B68DA72FB7AFA682E
S315200040101B01134403F5DC731B681B0ADAB27B68A9
S315200040201A73FB7AFA681B01134403F5DC731B68C9
S315200040301B0CDAB27B685A73FB7AFA681B011344AD
S3152000404003F5DC731B681B0EDAB27B689A73FB7A66
S31520004050FA681B01134403F5DE731B68DAB27B682A
S31520004060DA73FB7AFA681B01134403F5DE731B68C7
S315200040701B0ADAB27B681A74FB7AFA681B011344AE
S3152000408003F5DE731B681B0CDAB27B685A74FB7A65
S31520004090FA681B01134403F5DE731B681B0EDAB2A4
S315200040A07B689A74FB7A002B06D1FB68DB6843F0A9
S315200040B02002FB68DA6005E0FB681B6943F02002FA
S315200040C0FB681A6100BF1437BD465DF8047B704754
S315200040D080B483B000AF78600B46FB70FB78002B72
S315200040E006D17B68DB6843F020027B68DA6005E056
S315200040F07B681B6943F020027B681A6100BF0C377E
S31520004100BD465DF8047B704780B485B000AF78600B
S315200041100B46FB700023FB73FB78002B06D17B68D4
S31520004120DB68DBB203F00303FB730BE0FB78012BA8
S3152000413006D17B681B69DBB203F00303FB7301E046
S315200041400023FB73FB7B18461437BD465DF8047BC2
S31520004150704780B485B000AF78600B46FB700023B3
S31520004160FB734FF6FF73BB60FB78002B20D17B6877
S315200041701B6823F0030343F001027B681A6002E008
S31520004180BB68013BBB607B685B6803F00303012BC4
S3152000419002D0BB68002BF3D17B685B6803F0030376
S315200041A0012B02D00023FB734AE00123FB7347E077
S315200041B0FB78012B1ED17B681B6823F003027B68EA
S315200041C01A6002E0BB68013BBB607B685B6803F05A
S315200041D00303002B02D0BB68002BF3D17B685B68FE
S315200041E003F00303002B02D00023FB7328E00123F6
S315200041F0FB7325E0FB78022B20D17B681B6823F01C
S31520004200030343F002027B681A6002E0BB68013BAD
S31520004210BB607B685B6803F00303022B02D0BB689C
S31520004220002BF3D17B685B6803F00303022B02D0DB
S315200042300023FB7304E00123FB7301E00023FB73DF
S31520004240FB7B18461437BD465DF8047B704780B467
S3152000425085B000AF78600023FB737B681B6823F072
S31520004260030343F002027B681A607B685B6803F0F5
S315200042700303022B01D10123FB73FB7B1846143762
S31520004280BD465DF8047B704780B485B000AF78608A
S315200042904FF6FF73FB600023FB727B681B6823F0DD
S315200042A002027B681A6002E0FB68013BFB607B68C8
S315200042B05B6803F00203022B02D1FB68002BF3D1CB
S315200042C07B685B6803F00203022B01D00123FB729B
S315200042D0FB7A18461437BD465DF8047B704780B4D8
S315200042E085B000AF78600023FB737B689B69DBB2E7
S315200042F003F07003FB73FB7B18461437BD465DF84D
S31520004300047B704780B485B000AF78600023FB73D0
S315200043107B689B691B0EFB73FB7B18461437BD46D7
S315200043205DF8047B704780B485B000AF78600023C9
S31520004330FB737B689B691B0CFB73FB7B184614374E
S31520004340BD465DF8047B704780B485B000AFF86049
S31520004350B9601346FB71FB79002B06D0FB685A69BE
S31520004360BB681A43FB685A6106E0FB685A69BB685A
S31520004370DB431A40FB685A6100BF1437BD465DF81F
S31520004380047B704780B485B000AF78603960002325
S31520004390FB733B6803F47003002B0DD07B689A698E
S315200043A03B681340C3F31303002B02D00123FB7396
S315200043B048E00023FB7345E03B6803F08073002B45
S315200043C00DD07B685A683B681340C3F31303002B58
S315200043D002D00123FB7335E00023FB7332E03B68F8
S315200043E003F00063002B0DD07B689A683B6813406E
S315200043F0C3F31303002B02D00123FB7322E0002317
S31520004400FB731FE03B6803F00073002B0DD07B6825
S31520004410DA683B681340C3F31303002B02D0012351
S31520004420FB730FE00023FB730CE07B681A693B6883
S315200044301340C3F31303002B02D00123FB7301E0C7
S315200044400023FB73FB7B18461437BD465DF8047BBF
S31520004450704780B485B000AF786039600023FB6078
S315200044603B68174A934203D17B6800229A6121E078
S315200044703B68C3F31303FB603B6803F00073002B18
S3152000448003D07B68FA68DA6014E03B6803F0806347
S31520004490002B03D07B68FA681A610BE03B6803F0B7
S315200044A00063002B03D07B68FA689A6002E07B6881
S315200044B0FA685A6000BF1437BD465DF8047B704722
S315200044C07000F03080B584B000AF7860396000238A
S315200044D0FB737B685A693B681340002B00F01B81F5
S315200044E03B68B3F5003F00F0DD803B68B3F5003F45
S315200044F000F20E813B68B3F5803F00F0CA803B682E
S31520004500B3F5803F00F204813B68B3F5004F00F01D
S31520004510F6803B68B3F5004F00F2FA803B68B3F5AE
S31520004520006F00F0E3803B68B3F5006F00F2F08087
S315200045303B68B3F5806F00F0D0803B68B3F5806FA1
S3152000454000F2E6803B68B3F5007F00F0BD803B6853
S31520004550B3F5007F00F2DC803B68B3F5807F00F086
S31520004560AA803B68B3F5807F00F2D2803B68202B7F
S315200045704CD83B68002B00F0CB803B68013B1F2BBF
S3152000458000F2C68001A252F823F000BF1546002093
S3152000459027460020114700203946002011470020D9
S315200045A011470020114700204B46002011470020CC
S315200045B011470020114700201147002011470020F5
S315200045C011470020114700205D460020114700209A
S315200045D011470020114700201147002011470020D5
S315200045E011470020114700201147002011470020C5
S315200045F011470020114700201147002011470020B5
S3152000460011470020114700206F4600203B68402BB1
S3152000461036D07DE07B689B684249184600F060F9F9
S315200046200346FB7379E07B68DB680321184600F0BC
S3152000463057F90346FB7370E07B68DB680821184650
S3152000464000F04EF90346FB7367E07B68DB681021B8
S31520004650184600F045F90346FB735EE07B681B694C
S315200046600321184600F03CF90346FB7355E07B68AE
S315200046701B690821184600F033F90346FB734CE00A
S315200046807B681B691021184600F02AF90346FB7344
S3152000469043E07B685B680821184600F021F9034651
S315200046A0FB733AE07B685B681021184600F018F926
S315200046B00346FB7331E07B689B690121184600F0B5
S315200046C00FF90346FB7328E07B689B690221184695
S315200046D000F006F90346FB731FE07B689B69042103
S315200046E0184600F0FDF80346FB7316E07B689B69CD
S315200046F07021184600F0F4F80346FB730DE07B6842
S315200047005B680421184600F0EBF80346FB7304E0CF
S315200047100023FB7301E00023FB73FB7B1846103755
S31520004720BD4680BD0101010080B483B000AF786032
S3152000473039603B68B3F5003F00F0AA803B68B3F5CB
S31520004740003F00F2C3803B68B3F5803F00F09C80B9
S315200047503B68B3F5803F00F2B9803B68B3F5004F64
S3152000476000F0AD803B68B3F5004F00F2AF803B68A8
S31520004770B3F5006F00F09C803B68B3F5006F00F244
S31520004780A5803B68B3F5806F00F08E803B68B3F55B
S31520004790806F00F29B803B68B3F5007F00F080803D
S315200047A03B68B3F5007F00F291803B68B3F5807FCC
S315200047B072D03B68B3F5807F00F288803B68202B5F
S315200047C04AD83B68002B00F081803B68013B1F2BB9
S315200047D07CD801A252F823F061480020CD48002061
S315200047E0CD48002069480020CD480020CD48002033
S315200047F0CD48002071480020CD480020CD4800201B
S31520004800CD480020CD480020CD480020CD480020AE
S31520004810CD480020CD480020CD480020CD4800209E
S31520004820CD480020CD480020CD480020CD4800208E
S31520004830CD480020CD480020CD480020CD4800207E
S31520004840CD480020CD480020CD480020CD4800206E
S31520004850CD480020794800203B68402B10D035E019
S315200048607B681E4A9A6032E07B680822DA602EE076
S315200048707B681022DA602AE07B6808221A6126E02B
S315200048807B6810221A6122E07B6808225A601EE0AB
S315200048907B6810225A601AE07B6804225A6016E070
S315200048A07B6804225A6012E07B6804225A600EE07C
S315200048B07B6800229A617B6804225A6007E07B6845
S315200048C000229A617B6804225A6000E000BF00BF84
S315200048D00C37BD465DF8047B704700BF010101001F
S315200048E080B485B000AF786039600023FB737A68A6
S315200048F03B681340002B02D00123FB7301E0002309
S31520004900FB73FB7B18461437BD465DF8047B704766
S3152000491080B582B000AF78607B684B4A934208D15D
S3152000492001210120FCF77EFE00210120FCF77AFE02
S3152000493086E07B68454A934208D101210220FCF794
S3152000494071FE00210220FCF76DFE79E07B68404A6B
S31520004950934208D101210420FCF764FE00210420A3
S31520004960FCF760FE6CE07B683A4A934208D101214D
S315200049700820FCF757FE00210820FCF753FE5FE0D5
S315200049807B68354A934208D101211020FCF74AFE64
S3152000499000211020FCF746FE52E07B682F4A934206
S315200049A008D101212020FCF73DFE00212020FCF724
S315200049B039FE45E07B682A4A934208D101214020EE
S315200049C0FCF730FE00214020FCF72CFE38E07B6807
S315200049D0244A934208D101218020FCF723FE00219E
S315200049E08020FCF71FFE2BE07B681F4A93420AD1EA
S315200049F001214FF48070FCF715FE00214FF48070E2
S31520004A00FCF710FE1CE07B68184A93420AD101216C
S31520004A104FF40070FCF706FE00214FF40070FCF7FF
S31520004A2001FE0DE07B68124A934209D101214FF421
S31520004A308060FCF7F7FD00214FF48060FCF7F2FD63
S31520004A4000BF0837BD4680BD00000240000402407A
S31520004A5000080240000C02400010024000140240F0
S31520004A6000180240001C02400020024000240240A0
S31520004A700028024080B487B000AF786039600023F8
S31520004A807B6100233B610023FB6000237B6176E092
S31520004A9001227B6902FA03F33B613B681B683A6992
S31520004AA01340FB60FA683B699A4265D17B681A68B5
S31520004AB07B695B00032101FA03F3DB431A407B6821
S31520004AC01A607B681A683B681B7919467B695B000C
S31520004AD001FA03F31A437B681A603B681B79012BA2
S31520004AE003D03B681B79022B2ED17B689A687B69A1
S31520004AF05B00032101FA03F3DB431A407B689A60CB
S31520004B007B689A683B685B7919467B695B0001FA8A
S31520004B1003F31A437B689A607B685A687B699BB269
S31520004B20194601238B40DB431A407B685A607B6819
S31520004B305B683A68927911467A6992B201FA02F272
S31520004B4092B21A437B685A607B68DA687B699BB2AB
S31520004B505B00032101FA03F3DB431A407B68DA602A
S31520004B607B68DA683B68DB7919467B695B0001FA6A
S31520004B7003F31A437B68DA607B6901337B617B69C7
S31520004B800F2B85D900BF00BF1C37BD465DF8047BBF
S31520004B90704780B483B000AF78607B684FF6FF72B1
S31520004BA01A607B6800221A717B6800225A717B6822
S31520004BB000229A717B680022DA7100BF0C37BD464D
S31520004BC05DF8047B704780B485B000AF78600B46F3
S31520004BD07B804FF48033FB607A88FB681343FB604D
S31520004BE0FA687B68DA617A887B68DA61FA687B68BA
S31520004BF0DA617B68DB69FB607B68DB69FB6000BF91
S31520004C001437BD465DF8047B704780B485B000AF8D
S31520004C1078600B467B800023FB737B681A697B8850
S31520004C201340002B02D00123FB7301E00023FB730A
S31520004C30FB7B18461437BD465DF8047B704780B46D
S31520004C4083B000AF78607B681B699BB218460C372F
S31520004C50BD465DF8047B704780B485B000AF7860B0
S31520004C600B467B800023FB737B685A697B88134045
S31520004C70002B02D00123FB7301E00023FB73FB7B97
S31520004C8018461437BD465DF8047B704780B483B060
S31520004C9000AF78607B685B699BB218460C37BD46CF
S31520004CA05DF8047B704780B483B000AF78600B4614
S31520004CB07B807B687A881A8300BF0C37BD465DF8F7
S31520004CC0047B704780B483B000AF78600B467B804E
S31520004CD07B687A885A8300BF0C37BD465DF8047B13
S31520004CE0704780B483B000AF78600B467B80134654
S31520004CF07B707B78002B03D07B687A881A8302E04E
S31520004D007B687A885A8300BF0C37BD465DF8047BE2
S31520004D10704780B483B000AF78600B467B807A887A
S31520004D207B685A6100BF0C37BD465DF8047B70472F
S31520004D3080B483B000AF78600B467B807B685A696D
S31520004D407B885A407B685A6100BF0C37BD465DF8A8
S31520004D50047B704780B485B000AF78600B467B80BB
S31520004D6013467B700023FB600023BB607A787B8828
S31520004D7003F007039B0002FA03F3FB607B88DB0842
S31520004D809BB21A467B68083253F822207B8803F0B0
S31520004D9007039B000F2101FA03F3DB437988C90837
S31520004DA089B2084602EA03017B6800F1080243F84B
S31520004DB022107B88DB089BB21A467B68083253F8A0
S31520004DC02230FA681343BB607B88DB089BB21A4605
S31520004DD07B680832B96843F8221000BF1437BD46F5
S31520004DE05DF8047B704700BF80B500AF01214FF00E
S31520004DF00050FCF777FC00214FF00050FCF772FCC6
S31520004E0000BF80BD80B485B000AF786039600023D4
S31520004E10FB600023BB60144B1B68FB6040F6FE72F0
S31520004E207B6802FA03F3DB43FA681340FB603B68B6
S31520004E301A683B685B681A433B689B681A433B6861
S31520004E40DB681343BB60BA687B6802FA03F3FA682F
S31520004E501343FB60044AFB68136000BF1437BD464A
S31520004E605DF8047B704700BF0074004080B483B0B7
S31520004E7000AF78607B6800221A607B6800225A6047
S31520004E807B6800229A607B680022DA6000BF0C37BC
S31520004E90BD465DF8047B704780B483B000AF786070
S31520004EA00B46FB70FB78002B09D00D4B1A680121AD
S31520004EB07B6801FA03F30A4913430B6009E0084BA8
S31520004EC01A6801217B6801FA03F3DB430449134086
S31520004ED00B6000BF0C37BD465DF8047B704700BFF2
S31520004EE00074004080B483B000AF78600B46FB703E
S31520004EF0FB78002B0AD00E4B5A687B681B090121D0
S31520004F0001FA03F30A4913434B600AE0084B5A6837
S31520004F107B681B09012101FA03F3DB430449134093
S31520004F204B6000BF0C37BD465DF8047B704700BF61
S31520004F300074004080B483B000AF0346FB71FB7958
S31520004F40002B06D0094B5B68084A43F003035360E5
S31520004F5005E0064B5B68054A23F00303536000BF58
S31520004F600C37BD465DF8047B704700BF00740040D7
S31520004F7080B485B000AFF860B9601346FB71FB7949
S31520004F80002B09D00C4B1A68B968FB6801FA03F3A9
S31520004F90094913430B6009E0074B1A68B968FB6897
S31520004FA001FA03F3DB43044913400B6000BF1437B7
S31520004FB0BD465DF8047B70470074004080B485B020
S31520004FC000AF78600B467B800023FB60084BFB60BC
S31520004FD0FA687B6813440833FB60FB681A467B88B3
S31520004FE0136000BF1437BD465DF8047B704700BFD1
S31520004FF00074004080B485B000AF78600B467B809B
S315200050000023FB60084BFB60FA687B68134414336B
S31520005010FB60FB681A467B88136000BF1437BD46C9
S315200050205DF8047B704700BF0074004080B485B0F3
S3152000503000AF78600B467B8013463B800023FB60E5
S315200050400023BB607B68082B05D17B881A023B882E
S315200050501343FB6004E07B881A043B881343FB6000
S31520005060074BBB607A68BB6813442033BB60BB68C0
S31520005070FA681A6000BF1437BD465DF8047B704796
S315200050800074004080B485B000AF78600023FB60D8
S31520005090084BFB607B689A08FB6813442C33FB6043
S315200050A0FB681B689BB218461437BD465DF8047B27
S315200050B0704700BF0074004080B483B000AF7860B2
S315200050C00B46FB70FB78002B0AD00E4B1A684FF468
S315200050D080517B6801FA03F30A4913430B600AE007
S315200050E0084B1A684FF480517B6801FA03F3DB43BF
S315200050F0044913400B6000BF0C37BD465DF8047BA6
S31520005100704700BF0074004080B485B000AFF860DF
S31520005110B9601346FB71FB79002B09D00C4B1A683A
S31520005120B968FB6801FA03F3094913430B6009E0E8
S31520005130074B1A68B968FB6801FA03F3DB43044995
S3152000514013400B6000BF1437BD465DF8047B7047E3
S315200051500074004080B485B000AF786039600023C9
S31520005160FB730A4B5A6B39687B6801FA03F31340C9
S31520005170002B02D00123FB7301E00023FB73FB7B92
S3152000518018461437BD465DF8047B7047007400400E
S3152000519080B483B000AF7860396006493A687B688E
S315200051A002FA03F34B6300BF0C37BD465DF8047B60
S315200051B0704700BF0074004080B485B000AF7860AF
S315200051C039600023FB730023BB60104B1A683968D3
S315200051D07B6801FA03F31340BB600C4B5A6B3968AA
S315200051E07B6801FA03F31340002B05D0BB68002B24
S315200051F002D00123FB7301E00023FB73FB7B1846DF
S315200052001437BD465DF8047B704700BF007400402C
S3152000521080B483B000AF7860396006493A687B680D
S3152000522002FA03F34B6300BF0C37BD465DF8047BDF
S31520005230704700BF0074004080B582B000AF786030
S315200052407B68604A934208D101210120FCF76AFA63
S3152000525000210120FCF766FAAFE07B68B3F1804FAE
S3152000526008D101210120FCF73DFA00210120FCF79D
S3152000527039FAA2E07B68544A934208D101210220E0
S31520005280FCF730FA00210220FCF72CFA95E07B6827
S315200052904E4A934208D101210420FCF723FA00212B
S315200052A00420FCF71FFA88E07B68494A934208D11C
S315200052B001210820FCF716FA00210820FCF712FA33
S315200052C07BE07B68434A934208D101211020FCF7FA
S315200052D009FA00211020FCF705FA6EE07B683E4AA9
S315200052E0934208D101212020FCF7FCF9002120203F
S315200052F0FCF7F8F961E07B68384A934208D101212E
S315200053000220FCF70FFA00210220FCF70BFA54E0EA
S315200053107B68334A93420AD101214FF48030FCF74F
S3152000532001FA00214FF48030FCF7FCF945E07B6858
S315200053302C4A93420AD101214FF40030FCF7F2F9AE
S3152000534000214FF40030FCF7EDF936E07B68264A61
S3152000535093420AD101214FF48020FCF7E3F9002182
S315200053604FF48020FCF7DEF927E07B681F4A934242
S3152000537008D101214020FCF7B5F900214020FCF797
S31520005380B1F91AE07B681A4A934208D1012180209C
S31520005390FCF7A8F900218020FCF7A4F90DE07B6832
S315200053A0144A934209D101214FF48070FCF79AF9EF
S315200053B000214FF48070FCF795F900BF0837BD46F1
S315200053C080BD00BF000001400004004000080040EE
S315200053D0000C004000100040001400400004014072
S315200053E000400140004401400048014000180040B0
S315200053F0001C00400020004080B485B000AF7860DB
S3152000540039600023FB817B681B88FB817B68294AE6
S31520005410934213D07B68284A93420FD07B68B3F11E
S31520005420804F0BD07B68254A934207D07B68244A5D
S31520005430934203D07B68234A934208D1FB8923F009
S315200054407003FB813B685A88FB891343FB817B6889
S315200054501D4A93420CD07B681C4A934208D0FB8994
S3152000546023F44073FB813B681A89FB891343FB8134
S315200054707B68FA891A803B685A687B68DA623B68DF
S315200054801A887B681A857B680A4A934203D07B6810
S31520005490094A934204D13B689B7A1A467B681A864E
S315200054A07B6801229A8200BF1437BD465DF8047BD3
S315200054B0704700BF00000140000401400004004086
S315200054C000080040000C004000100040001400407E
S315200054D080B483B000AF78607B684FF0FF325A60AB
S315200054E07B6800221A807B6800221A817B68002252
S315200054F05A807B6800229A7200BF0C37BD465DF841
