S01600002E2F44656275672F5254532D4C61622E73313936
S3152000000000BFDFF814D001F012FC02F049FA01F02B
S3152000001020BCFEE700BF000000C0012080B582B0F2
S3152000002000AF78607B684B4A934208D101210120BA
S3152000003005F086FA0021012005F082FA86E07B6829
S31520000040454A934208D10121022005F079FA002180
S31520000050022005F075FA79E07B68404A934208D180
S315200000600121042005F06CFA0021042005F068FA2D
S315200000706CE07B683A4A934208D10121082005F0BA
S315200000805FFA0021082005F05BFA5FE07B68354ABD
S31520000090934208D10121102005F052FA00211020A8
S315200000A005F04EFA52E07B682F4A934208D101218F
S315200000B0202005F045FA0021202005F041FA45E0F0
S315200000C07B682A4A934208D10121402005F038FA5C
S315200000D00021402005F034FA38E07B68244A934218
S315200000E008D10121802005F02BFA0021802005F07F
S315200000F027FA2BE07B681F4A93420AD101214FF44D
S31520000100807005F01DFA00214FF4807005F018FA72
S315200001101CE07B68184A93420AD101214FF40070F3
S3152000012005F00EFA00214FF4007005F009FA0DE0F3
S315200001307B68124A934209D101214FF4806005F071
S31520000140FFF900214FF4806005F0FAF900BF083767
S31520000150BD4680BD00000240000402400008024067
S31520000160000C024000100240001402400018024019
S31520000170001C0240002002400024024000280240C9
S3152000018080B487B000AF7860396000237B6100239C
S315200001903B610023FB6000237B6176E001227B69C3
S315200001A002FA03F33B613B681B683A691340FB6024
S315200001B0FA683B699A4265D17B681A687B695B005D
S315200001C0032101FA03F3DB431A407B681A607B683C
S315200001D01A683B681B7919467B695B0001FA03F3B1
S315200001E01A437B681A603B681B79012B03D03B6856
S315200001F01B79022B2ED17B689A687B695B000321D1
S3152000020001FA03F3DB431A407B689A607B689A689D
S315200002103B685B7919467B695B0001FA03F31A4355
S315200002207B689A607B685A687B699BB21946012372
S315200002308B40DB431A407B685A607B685B683A6870
S31520000240927911467A6992B201FA02F292B21A436F
S315200002507B685A607B68DA687B699BB25B00032106
S3152000026001FA03F3DB431A407B68DA607B68DA68BD
S315200002703B68DB7919467B695B0001FA03F31A4375
S315200002807B68DA607B6901337B617B690F2B85D9BB
S3152000029000BF00BF1C37BD465DF8047B704780B4A5
S315200002A083B000AF78607B684FF6FF721A607B6878
S315200002B000221A717B6800225A717B6800229A718B
S315200002C07B680022DA7100BF0C37BD465DF8047BDF
S315200002D0704780B485B000AF78600B467B804FF4C2
S315200002E08033FB607A88FB681343FB60FA687B687F
S315200002F0DA617A887B68DA61FA687B68DA617B681A
S31520000300DB69FB607B68DB69FB6000BF1437BD4699
S315200003105DF8047B704780B485B000AF78600B46EB
S315200003207B800023FB737B681A697B881340002B34
S3152000033002D00123FB7301E00023FB73FB7B1846ED
S315200003401437BD465DF8047B704780B483B000AF98
S3152000035078607B681B699BB218460C37BD465DF8F2
S31520000360047B704780B485B000AF78600B467B80F5
S315200003700023FB737B685A697B881340002B02D0CD
S315200003800123FB7301E00023FB73FB7B1846143724
S31520000390BD465DF8047B704780B483B000AF7860BB
S315200003A07B685B699BB218460C37BD465DF8047BBB
S315200003B0704780B483B000AF78600B467B807B6843
S315200003C07A881A8300BF0C37BD465DF8047B7047D8
S315200003D080B483B000AF78600B467B807B687A88D8
S315200003E05A8300BF0C37BD465DF8047B704780B446
S315200003F083B000AF78600B467B8013467B707B789A
S31520000400002B03D07B687A881A8302E07B687A887F
S315200004105A8300BF0C37BD465DF8047B704780B415
S3152000042083B000AF78600B467B807A887B685A6100
S3152000043000BF0C37BD465DF8047B704780B483B09F
S3152000044000AF78600B467B807B685A697B885A4070
S315200004507B685A6100BF0C37BD465DF8047B704748
S3152000046080B485B000AF78600B467B8013467B70E6
S315200004700023FB600023BB607A787B8803F00703A8
S315200004809B0002FA03F3FB607B88DB089BB21A46CB
S315200004907B68083253F822207B8803F007039B00F1
S315200004A00F2101FA03F3DB437988C90889B208468C
S315200004B002EA03017B6800F1080243F822107B88D8
S315200004C0DB089BB21A467B68083253F82230FA685A
S315200004D01343BB607B88DB089BB21A467B680832D5
S315200004E0B96843F8221000BF1437BD465DF8047B77
S315200004F0704700BF314900E03149EFF3088020ED15
S31520000500108A7246EFF3118320E9FC0F2D4FD7F89E
S315200005100080C8F800001EE0084600F0A9F82A4826
S3152000052000F0A6F8294800F0A3F8D8F8040000F057
S31520000530EBF8274800F09CF8D8F8000000F0B5F852
S31520000540244800F095F8D8F80000006800F0ADF8CF
S315200005501D4800F08DF8DFF88080D8F80080C7F8B5
S31520000560008018E01D4800F083F8D8F8040000F059
S31520000570CBF81B4800F07CF8D8F8000000F095F87E
S31520000580144800F075F8D8F80000006800F08DF8DF
S315200005900D4800F06DF8134A536843F0006353602A
S315200005A000BFD8F80000B0E8FC0F83F31188964608
S315200005B0B0EC108A80F3088870470000C4920020AF
S315200005C0D59200206893002045930020F6920020C3
S315200005D00E93002016930020549900201F9300208C
S315200005E03493002000ED00E080B483B000AF0346D2
S315200005F0FB71FB7903F01F03012202FA03F1064A7D
S3152000060097F907305B0942F8231000BF0C37BD4627
S315200006105DF8047B704700BF00E100E080B483B042
S3152000062000AF03463960FB7197F90730002B0BDAD0
S315200006303B68DAB20C49FB7903F00F03043B120145
S31520000640D2B20B441A7609E03B68DAB2074997F929
S3152000065007301201D2B20B4483F8002300BF0C37B7
S31520000660BD465DF8047B704700ED00E000E100E048
S3152000067080B582B000AF78600EE07B681B780D2BCA
S3152000068007D07B685A1C7A601B78184600F060F900
S3152000069002E07B6801337B607B681B78002BECD102
S315200006A000BF00BF0837BD4680BD80B586B000AF0D
S315200006B0786000237B617B6803F00F027B69591CFD
S315200006C0796110498A5C07F118010B4403F80C2C58
S315200006D07B681B097B607B68002BECD10AE07B6979
S315200006E0013B7B6107F10C027B6913441B7818469A
S315200006F000F02EF97B69002BF1D100BF00BF18371F
S31520000700BD4680BD4893002080B59EB000AF78607E
S315200007107B68002B02DA4FF0FF3300E001233B67B2
S315200007207B683A6F02FB03F37B6000237B67796863
S315200007301C4B83FB01239A10CB17D21A13469B001E
S3152000074013445B00CA1A7B6F591C796716498A5C69
S3152000075007F178010B4403F86C2C7B68114A82FB65
S3152000076003129210DB17D31A7B607B68002BDED135
S315200007703B6F002B0EDA2D2000F0EAF80AE07B6FA3
S31520000780013B7B6707F10C027B6F13441B781846ED
S3152000079000F0DEF87B6F002BF1D100BF00BF783769
S315200007A0BD4680BD676666664893002080B483B0E8
S315200007B000AF10237B607B6883F3118800BF00BFE6
S315200007C00C37BD465DF8047B704780B483B000AF1C
S315200007D030237B607B6883F3118800BF00BF0C3712
S315200007E0BD465DF8047B704780B584B000AF786065
S315200007F00B48FFF73DFF0B4B1B68002B02D1094B23
S31520000800094A1A60074B1B68FB60064B1A687B680F
S315200008101344044A1360FB6818461037BD4680BD52
S31520000820B0880020989C0020B01C012080B485B0A0
S3152000083000AF786039603B6803F5F95310337A6866
S3152000084013607B681B68BB600023FB600AE0FB68C3
S315200008509B001A46BB6813441A4600231360FB68A4
S315200008600133FB60FB68332BF1DDBB686FF01602AA
S315200008701A60BB6804331A4603231360BB688433AB
S315200008801A464FF08073136000BF1437BD465DF8DB
S31520000890047B704780B485B000AF786039607B6890
S315200008A01B688033FB60FB683A681A6000BF143708
S315200008B0BD465DF8047B704780B584B000AF1D4807
S315200008C001F00EFE3B1D184601F056FF40F247335D
S315200008D0BB803B1D1946174801F0E2FE164B174A0E
S315200008E01A6002216FF00100FFF798FE144B154A9B
S315200008F01A6000216FF00400FFF790FE124B134A96
S315200009001A6002213220FFF789FE3220FFF76CFEA3
S315200009100021084801F07AFF0121064802F043F839
S3152000092001220221034803F012F800BF1037BD460A
S3152000093080BD00BF000C004038C00120F904002013
S315200009402CC00120F504002008C10120D70C00206E
S3152000095080B582B000AF0346FB71FB799BB2194686
S31520000960074805F020FB00BF8021054805F00AFD59
S315200009700346002BF8D000BF00BF0837BD4680BD18
S315200009800010014080B500AF124801F05BFF03461E
S315200009901A46114B1A60114B01221A60104B002285
S315200009A01A60104B1B68002B06D00E4B1B680E4A94
S315200009B01268002110469847084B00221A60084BFF
S315200009C01B68002B01D000F05DFA054B00221A604F
S315200009D000BF80BD000C00403099002028990020DF
S315200009E02C990020A89900204899002080B500AFB6
S315200009F0124801F027FF03461A46114B1A60114B85
S31520000A0001221A60104B00221A60104B5B68002BE3
S31520000A1006D00E4B5B680E4A526801211046984755
S31520000A20084B00221A60084B1B68002B01D000F0EF
S31520000A3029FA054B00221A6000BF80BD000C004039
S31520000A4030990020289900202C990020A899002070
S31520000A504899002080B500AF124801F0F3FE034606
S31520000A601A46114B1A60114B01221A60104B0022B4
S31520000A701A60104B9B68002B06D00E4B9B680E4AC3
S31520000A809268022110469847084B00221A60084BAC
S31520000A901B68002B01D000F0F5F9054B00221A60E7
S31520000AA000BF80BD000C004030990020289900200E
S31520000AB02C990020A89900204899002080B485B060
S31520000AC000AF786039600023FB603B681B68BB6021
S31520000AD004E0BB68FB60BB681B68BB60BB68002B7F
S31520000AE005D0BB689A687B689B689A42F1DD7B6873
S31520000AF0BA681A60FB68002B03D13B687A681A60D3
S31520000B0002E0FB687A681A6000BF1437BD465DF8BC
S31520000B10047B704780B485B000AF786039600023CD
S31520000B20FB603B681B68BB6004E0BB68FB60BB687E
S31520000B301B68BB60BB68002B05D0BB685A687B6806
S31520000B405B689A42F1DD7B68BA681A60FB68002B05
S31520000B5003D13B687A681A6002E0FB687A681A60FB
S31520000B6000BF1437BD465DF8047B704780B584B05E
S31520000B7000AF78607B681B68FB60FB68002B04D0A5
S31520000B80FB681A687B681A600CE00948FFF770FD5D
S31520000B90002202210748FFF72AFC0748FFF768FDD5
S31520000BA030BFFDE7FB6818461037BD4680BD00BF45
S31520000BB0C888002000040240D488002080B584B074
S31520000BC000AF78607B681B68FB60FB68002B04D055
S31520000BD0FB681A687B681A600CE00948FFF748FD35
S31520000BE0002202210748FFF702FC0748FFF740FDD5
S31520000BF030BFFDE7FB6818461037BD4680BD00BFF5
S31520000C00C888002000040240E088002080B483B019
S31520000C1000AF786039603B681A687B681A603B6869
S31520000C207A681A6000BF0C37BD465DF8047B7047B2
S31520000C3080B483B000AF786039603B681A687B68FF
S31520000C409A603B687A681A6000BF0C37BD465DF82B
S31520000C50047B704780B485B000AF78607B681B68E2
S31520000C60FB60FB689A687B681A60FB681846143735
S31520000C70BD465DF8047B704780B485B000AF7860D0
S31520000C8039600023FB603B681B68BB6004E0BB68DF
S31520000C90FB60BB681B68BB60BB68002B03D0BA68CF
S31520000CA07B689A42F3D1BB68002B0DD0FB68002BE2
S31520000CB004D0BB681A68FB681A6003E0BB681A6830
S31520000CC03B681A60012300E0002318461437BD460E
S31520000CD05DF8047B704780B582B000AF02211E48C4
S31520000CE002F0BFFE1C4801F0ADFD03467B6007E025
S31520000CF01A48FFF73BFF034619491846FFF7DEFE61
S31520000D00164B1B68002B06D0144B1B685A687B6851
S31520000D10D31A002BECDD114B1B68002B16D00E4886
S31520000D2001F090FD03463B600C4B1B685B683A68FC
S31520000D309A4204DD002202210A48FFF758FB074B9E
S31520000D401B685B681946044802F0BBF800F09AF865
S31520000D5000BF0837BD4680BD000C00402499002006
S31520000D6020990020000402400346024A136010DF47
S31520000D70F74600BF549900200346054A1360054BE9
S31520000D805B68044A43F080535360F74600BF00BFB8
S31520000D905499002000ED00E080B582B000AF786065
S31520000DA0094B5B68C3F30803002B03D17868FFF770
S31520000DB0DBFF02E07868FFF7DFFFFFF706FD00BFE5
S31520000DC00837BD4680BD00BF00ED00E090B585B078
S31520000DD000AF234B1C682348FFF7C8FE0346E36099
S31520000DE0E368BB60FFF7F1FCBB68D868BB6819698C
S31520000DF0BB685B691A4600F015F9FFF7D7FC1A495C
S31520000E00B868FFF703FF194B1B689B68DB687B609C
S31520000E10144B1B68002B0AD07B68002BD9D0114BB2
S31520000E201B689A687B689B68D31A002BD1DD0F4814
S31520000E30FFF710FF03460E491846FFF7F9FE0B4B46
S31520000E401B68FB6003E0FB681B691B68FB60FB6893
S31520000E501B69002BF7D1F868FFF79EFFB9E700BFA3
S31520000E6068930020209900205C9300206493002042
S31520000E706093002080B500AF00F004F8FFF7A5FCD2
S31520000E8030BFFBE780B582B000AF144B1B68DB6830
S31520000E907B60134B1B68002B1BD0124B1B68002B4F
S31520000EA017D07B68002B07D00D4B1B689A687B6890
S31520000EB09B68D31A002B0CDA0A48FFF7CBFE0346B1
S31520000EC006491846FFF7B4FE044B1B681846FFF781
S31520000ED063FF00BF0837BD4680BD00BF6493002076
S31520000EE0209900206093002080B588B000AFF8607C
S31520000EF0B9607A603B60EFF312833B613B691B0963
S31520000F00012B14BF01230023DBB2FB77FFF74EFC36
S31520000F103A48FFF753FEB861BB697A68DA60BB6965
S31520000F203A681A61BB69BA6A5A61354B1B68002B4D
S31520000F3004D1344B1B68DB685B6801E0324B1B68CD
S31520000F40FA681A44BB695A60BB695A68BB68002BA9
S31520000F5001DDBB6801E06FF000431A44BB699A606B
S31520000F602A4801F06FFC03467B61BB695A687B699E
S31520000F70D31A002B16DD2649B869FFF7CBFD244B83
S31520000F801B685B687A699A4204DD002202212148A7
S31520000F90FFF72DFA1E4B1B685B6819461B4801F0AC
S31520000FA090FF21E01C49B869FFF788FDFB7F002BE5
S31520000FB01AD01A4B1B68002B16D0174B1B689A6841
S31520000FC0174B1B68DB689B68D31A002B0CDA134877
S31520000FD0FFF740FE034612491846FFF729FE104B3D
S31520000FE01B681846FFF7D8FEFB7F002B01D0FFF7C2
S31520000FF0ECFBBB6918462037BD4680BD5C930020BC
S31520001000289900206893002030990020000C004089
S31520001010249900200004024020990020609300209B
S315200010206493002080B588B000AFF860B9607A601C
S31520001030EFF312833B613B691B09012B14BF01238C
S315200010400023DBB2FB76FFF7B1FBFB681B68FB6175
S31520001050FB69002B37D003E0FB691B691B68FB612A
S31520001060FB691B69002BF7D1304B1B68FA699A4242
S3152000107002D0FB7E002B07D1FB7E002B01D0FFF791
S31520001080A4FB4FF0FF334DE0FB685B68002B03D0D9
S31520001090FB685B6800221A61244B1A68FB685A6059
S315200010A0224B1B68FA681A61F869FFF775FE1F4B19
S315200010B01B68DB68002B06D1FB7E002B01D0FFF7D7
S315200010C084FB00232EE0194B1A68FB681A60FB7E0E
S315200010D0002B05D0FB685B68012B01D0FFF775FB61
S315200010E0BB687968F86898477861FFF75FFBFB680B
S315200010F000221A60FB685B68FB61FB69002B0BD042
S31520001100FB69012B08D0FB6800225A60FB6900228C
S315200011101A61F869FFF740FEFB7E002B01D0FFF72E
S3152000112054FB7B6918462037BD4680BD6893002056
S3152000113080B586B000AF7860EFF31283FB60FB6862
S315200011401B09012B14BF01230023DBB2FB74FFF71D
S315200011502DFB1F497868FFF78FFD0346002B06D12C
S315200011601C497868FFF788FD0346002B04D01A49EE
S315200011707868FFF74BFD21E0184B1B687B611AE06E
S31520001180174B1B687A699A4212D07B69DB687A68AA
S315200011909A420DD17B691A697B68DB689A4207D12E
S315200011A07B690022DA600C497868FFF72FFD05E09D
S315200011B07B699B687B617B69002BE1D1FB7C002BE3
S315200011C001D0FFF702FB00BF1837BD4680BD00BF28
S315200011D024990020209900205C930020649300200D
S315200011E06893002080B485B000AF7860EFF3128357
S315200011F0FB60FB681B09012B04D0074B1B68DB68CF
S315200012005B6801E0054B1B687A68136000BF1437E2
S31520001210BD465DF8047B7047689300203099002016
S3152000122080B485B000AF7860EFF31283FB60FB6873
S315200012301B09012B04D0084B1B68DB685B6801E0A7
S31520001240064B1B687A6812689B1A18461437BD46E7
S315200012505DF8047B704700BF68930020309900201A
S3152000126080B584B000AFEFF312837B607B681B09E7
S31520001270012B14BF01230023DBB2FB73FFF796FA81
S315200012800C4801F0DFFA0346BB60FB7B002B01D044
S31520001290FFF79BFAFB7B002B04D0074B1B68DB6810
S315200012A05B6801E0054B1B68BA68D31A18461037ED
S315200012B0BD4680BD000C0040689300203099002078
S315200012C080B582B000AF00237B6012E07B685A1C99
S315200012D013465B001344DB00444A991843487A6856
S315200012E013465B001344DB00034419607B6801331B
S315200012F07B607B681C2BE9DD3C4B0022C3F8B822BF
S3152000130000237B6013E07B685A1C13469B00134422
S315200013109B00374A991836487A6813469B0013442F
S315200013209B000344083319607B6801337B607B682C
S31520001330022BE8DD2E4B00225A6400237B6030E02E
S315200013402B497A6813469B0013449B000B440433B5
S315200013507A681A607A6813469B0013449B00244AD5
S315200013601A447B685B0323490B4419461046FFF752
S315200013705DFA7A6813469B0013449B001C4A13446B
S315200013801D491846FFF786FA19497A6813469B00C5
S3152000139013449B000B44103300221A607B680133F0
S315200013A07B607B68032BCBDD144B4FF0FF325A60FA
S315200013B0124B00229A60114B00221A610F4B002219
S315200013C0DA600F48FFF754F90E48FFF751F90E4837
S315200013D0FFF74EF90A48FFF74BF90948FFF748F996
S315200013E0FFF76AFA00BF0837BD4680BDC8990020BE
S315200013F058990020A09C0020CD0D0020B4990020F3
S31520001400EC880020F0880020FC88002080B586B07B
S3152000141000AFF860B9601346FB71FB79022B41D807
S31520001420EFF312833B613B691B09012B14BF012398
S315200014300023DBB2FB75FFF7B9F9FB79022B0ED03F
S31520001440022B10DC002B02D0012B04D00BE0174B13
S31520001450174A1A6014E0174B174A1A6010E0174B08
S31520001460174A1A600CE01748FFF702F900220221FA
S315200014701548FEF7BCFF1548FFF7FAF830BFFDE721
S31520001480FB791349FA6841F82320FB791149BA6898
S3152000149041F82320FB6801225A60FB7D002B01D0F6
S315200014A0FFF793F900BF1837BD4680BDD4C0012091
S315200014B08509002090C00120ED0900209CC0012054
S315200014C0550A0020C8880020000402401489002004
S315200014D048990020A899002080B586B002AFF86010
S315200014E0B9607A60FFF762F9FFF7EAFEBB68002B66
S315200014F016D00F4801F0A6F903461A460D4B1A607E
S315200015000D4B01221A607B680093BB68FA680021A4
S315200015100020FFF7E9FC084B00221A60FFF7B2FC17
S31520001520FFF7A8FC002318461037BD4680BD00BF34
S31520001530000C0040309900202899002080B400AF8C
S3152000154000BFBD465DF8047B704780B586B000AF0E
S315200015504548FEF763FD454804F0BAFF444804F0C9
S31520001560B7FF01214FF0007003F0AAFF01214FF0D1
S31520001570806003F0A5FF0121022003F041FF09222C
S3152000158009213948FEF76CFF092208213648FEF763
S3152000159067FF07F110031846FEF781FE4FF400732C
S315200015A03B6102233B750023BB750023FB75022399
S315200015B07B7507F1100319462B48FEF7E1FD4FF422
S315200015C080733B6102233B750023BB750123FB75AA
S315200015D002237B7507F1100319462348FEF7D0FD39
S315200015E0092206212048FEF73BFF092205211E4835
S315200015F0FEF736FF40233B6102233B750023BB7574
S315200016000023FB7502237B7507F110031946164844
S31520001610FEF7B6FD20233B6102233B750023BB75F5
S315200016200123FB7502237B7507F1100319460E482B
S31520001630FEF7A6FD0023BB720023FB7201233B733A
S3152000164000233B8000237B800023BB800023FB807C
S3152000165000233B8101237B733B46184605F02DF87A
S3152000166000BF1837BD4680BD00040240006400401C
S315200016700068004080B586B000AF01214FF00050D1
S3152000168003F01EFF07F110031846FEF708FE20237D
S315200016903B6103233B750023FB7507F110031946B5
S315200016A00F48FEF76DFD02F073FE3B46184602F02A
S315200016B0B1FE00233B6000237B600023FB603B469A
S315200016C01946102002F072FE0121102002F0B8FE09
S315200016D00021082002F062FF00BF1837BD4680BDFA
S315200016E00000024080B584B000AF01214FF4804055
S315200016F003F006FF0721012005F0F2FF03F09CF915
S315200017003B46184603F024FA80233B6000233B71B6
S315200017100C237B710123BB713B46184603F0A6F9C7
S3152000172007F108031846FEF7BAFD0223BB60012322
S315200017303B730123BB730023FB7301237B7307F1E8
S31520001740080319461848FEF71BFD0123BB60012339
S315200017503B730123BB730023FB7301237B7307F1C8
S31520001760080319461048FEF70BFD012202210E48F8
S31520001770FEF73DFE012201210B48FEF738FE8023AD
S31520001780BB6000233B730023BB730023FB73012341
S315200017907B7307F1080319460348FEF7F1FC00BFE7
S315200017A01037BD4680BD00BF0004024080B483B020
S315200017B000AFEFF314833B603B6823F003037B60A9
S315200017C07B6883F3148800BF094B4FF404725A6177
S315200017D0074B5B69064A43F008035361054B4FF0FC
S315200017E000425A6000BF0C37BD465DF8047B704747
S315200017F000ED00E030EF00E080B500AF01210820C9
S3152000180003F05EFE0121082003F09AFF00BF80BD91
S3152000181080B400AF124A02E0002342F8043B114B89
S315200018209A42F9D300BFBD465DF8047B704780B568
S3152000183000AFFFF7EDFFFFF781FEFFF786FEFFF70C
S3152000184019FFFFF74FFFFFF7B1FFFFF7D5FF00BFE7
S3152000185080BD80B400AF00BFBD465DF8047B7047F5
S3152000186020990020B01C012080B586B000AF78609A
S31520001870396007F10C031A460A490B48FFF7D2FBD9
S315200018800A4B1A460A490B48FFF7CCFB07F10C0313
S3152000189003331A4606490748FFF7C4FB00BF18372B
S315200018A0BD4680BDA97A0020F89700203489002003
S315200018B02B420020D893002080B5C0B002AF7860BC
S315200018C03960BD4B1A46BD49BD48FFF7ABFB3A68A8
S315200018D0BC49BB48FFF7A6FBBB4B1A46B749B848DD
S315200018E0FFF7A0FB3B682D3B2D2B00F2CE8401A2F7
S315200018F052F823F0AD1900208B2200208B220020E5
S31520001900AD190020AD190020AD190020AD19002019
S31520001910AD190020AD190020AD190020AD19002009
S31520001920AD190020AD1900208B2200208B2200202B
S315200019308B2200208B2200208B2200208B2200204D
S315200019408B2200208B2200208B2200208B2200203D
S31520001950CD210020092000208B220020511B0020B1
S315200019609D1A00208B2200208B220020C7190020E0
S315200019708B220020191D00208B2200208B22002084
S315200019808B2200208B2200208B2200208B220020FD
S31520001990291F00208B220020471C0020C920002060
S315200019A0791D00208B2200202B1E00207B689B683F
S315200019B0591C7A6891603A68D1B27A6813440A460B
S315200019C05A7300F063BC7B689B687A6813440022D4
S315200019D05A737B6800229A607B680D33184606F09E
S315200019E06FF902467B681A647B681B6C002B1AD140
S315200019F0764B1A4671497248FFF714FB0022744948
S31520001A007448FFF70FFB034607F10800724AC82106
S31520001A1006F08EF907F108031A4668496848FFF769
S31520001A2001FB00F033BC7B681B6C1A466B49694886
S31520001A30FFF7F8FA02467B681B6C9A4214D1002203
S31520001A4063496448FFF7EEFA034607F10800644A43
S31520001A50C82106F06DF907F108031A465749584878
S31520001A60FFF7E0FA00F012BC5E4B1A465349544881
S31520001A70FFF7D8FA002256495648FFF7D3FA03460D
S31520001A8007F10800584AC82106F052F907F1080361
S31520001A901A464A494A48FFF7C5FAF7E37B689B6826
S31520001AA07A68134400225A737B6800229A600022C7
S31520001AB047494848FFF7B6FA02467B681A647B68AE
S31520001AC01B6C0133C7F8E830D7F8E830052B18DC53
S31520001AD0D7F8E82041493F48FFF7A4FA02467B6839
S31520001AE01A647B681B6C07F108003D4AC82106F082
S31520001AF01FF907F108031A4630493148FFF792FAD1
S31520001B00C4E33A4B1A462D492D48FFF78BFA07F1C5
S31520001B100800052300936FF00403354AC82106F018
S31520001B2007F907F108031A4624492548FFF77AFAE8
S31520001B307B681B6C07F108002E4AC82106F0F8F8CE
S31520001B4007F108031A461D491D48FFF76BFA9DE366
S31520001B507B689B687A68134400225A737B6800224C
S31520001B609A6000221A491B48FFF75CFA02467B68F6
S31520001B701A647B681B6C013BC7F8E430D7F8E43065
S31520001B8013F1050F38DBD7F8E42014491148FFF785
S31520001B9049FA02467B681A647B681B6C07F10800C9
S31520001BA00F4AC82106F0C4F807F108031A4603496C
S31520001BB00348FFF737FA69E3488900202B420020C3
S31520001BC0D89300208142002050890020548900208B
S31520001BD049480020BC9300206889002063480020E3
S31520001BE07C8900208C890020A8890020BC890020BF
S31520001BF0D8890020048A0020A54B1A46A549A64864
S31520001C00FFF710FA07F10800052300936FF004038D
S31520001C10A24AC82106F08CF807F108031A469D4906
S31520001C209D48FFF7FFF97B681B6C07F108009C4A6B
S31520001C30C82106F07DF807F108031A46954996480B
S31520001C40FFF7F0F922E37B689B687A681344002249
S31520001C505A737B6800229A607B680D33184606F01B
S31520001C602FF802467B685A647B685B6C002B19D17F
S31520001C708C4B1A4687498848FFF7D4F900228A49AF
S31520001C808A48FFF7CFF9034607F10800884AC8219A
S31520001C9006F04EF807F108031A467E497E48FFF7FC
S31520001CA0C1F9F3E27B685B6C1A4682497F48FFF7ED
S31520001CB0B9F902467B685B6C9A4213D100227A49B5
S31520001CC07A48FFF7AFF9034607F108007A4AC82198
S31520001CD006F02EF807F108031A466E496E48FFF7FC
S31520001CE0A1F9D3E2754B1A466A496B48FFF79AF970
S31520001CF000226D496D48FFF795F9034607F1080064
S31520001D006F4AC82106F014F807F108031A466149FC
S31520001D106148FFF787F9B9E27B689B687A681344C4
S31520001D2000225A737B6800229A607B68DB6C002B4A
S31520001D300CBF01230023DBB21A467B68DA647B687A
S31520001D40DB6C1A465F495948FFF76CF900225E4959
S31520001D505648FFF767F90346002B06D15B4B1A4618
S31520001D604C494D48FFF75EF990E2594B1A464949CE
S31520001D704948FFF757F989E27B689B687A681344DC
S31520001D8000225A737B6800229A60002246494748FF
S31520001D90FFF748F902467B685A647B685B6C01331F
S31520001DA0C7F8F030D7F8F030142B18DCD7F8F0202D
S31520001DB040493E48FFF736F902467B685A647B68FD
S31520001DC05B6C07F108003C4AC82105F0B1FF07F11A
S31520001DD008031A462F493048FFF724F956E23D4BAF
S31520001DE01A462C492C48FFF71DF907F10800142341
S31520001DF000930123294AC82105F09AFF07F1080319
S31520001E001A4624492448FFF70DF97B685B6C07F1D5
S31520001E100800314AC82105F08BFF07F108031A464E
S31520001E201C491D48FFF7FEF830E27B689B687A68FC
S31520001E30134400225A737B6800229A6000221A49B2
S31520001E401A48FFF7EFF802467B685A647B685B6C9A
S31520001E50013BC7F8F430D7F8F430002B3EDDD7F835
S31520001E60F42014491148FFF7DDF802467B685A64CE
S31520001E707B685B6C07F108000F4AC82105F058FF04
S31520001E8007F108031A4603490348FFF7CBF8FDE19B
S31520001E90BC8900202B420020D8930020D88900201E
S31520001EA0048A0020188A0020F958002080980020F3
S31520001EB02C8A002013590020408A0020548A0020B2
S31520001EC0748A00204D590020695900208C8A0020F0
S31520001ED09C8A0020B08A0020D08A0020AA4B1A466D
S31520001EE0AA49AB48FFF79EF807F108001423009390
S31520001EF00123A84AC82105F01BFF07F108031A464B
S31520001F00A249A348FFF78EF87B685B6C07F10800AF
S31520001F10A14AC82105F00CFF07F108031A469B4980
S31520001F209B48FFF77FF8B1E17B689B687A6813448A
S31520001F3000225A737B6800229A607B680D3318460C
S31520001F4005F0BEFE02467B689A647B689B6C002B7C
S31520001F5019D1924B1A468D498D48FFF763F8002216
S31520001F608F499048FFF75EF8034607F108008E4A2E
S31520001F70C82105F0DDFE07F108031A468349844887
S31520001F80FFF750F882E17B689B6C1A4687498548A3
S31520001F90FFF748F802467B689B6C9A421AD10022CA
S31520001FA07F498048FFF73EF8034607F10800804A3C
S31520001FB0C82105F0BDFE7B689B6C1A467D497E488C
S31520001FC0FFF730F807F108031A4670497048FFF703
S31520001FD029F85BE1794B1A466C496D48FFF722F8E0
S31520001FE000226F496F48FFF71DF8034607F10800E6
S31520001FF0734AC82105F09CFE07F108031A46634977
S315200020006348FFF70FF841E17B689B687A681344C1
S3152000201000225A737B6800229A6000226049614838
S31520002020FFF700F802467B689A647B689B6C0A334C
S31520002030C7F8E030D7F8E030F02B1FDCD7F8E020E7
S315200020405A495848FEF7EEFF02467B689A647B6839
S315200020509B6C1A4657495848FEF7E4FF7B689B6CF1
S3152000206007F10800524AC82105F062FE07F108036D
S315200020701A4646494648FEF7D5FF07E1514B1A4610
S3152000208042494348FEF7CEFF07F10800F0230093AC
S315200020903C23404AC82105F04BFE07F108031A46A7
S315200020A03A493B48FEF7BEFF7B689B6C07F1080068
S315200020B0454AC82105F03CFE07F108031A46334974
S315200020C03348FEF7AFFFE1E07B689B687A681344EC
S315200020D000225A737B6800229A60002230493148D8
S315200020E0FEF7A0FF02467B689A647B689B6C0A3BDE
S315200020F0C7F8EC30D7F8EC303B2B1FDDD7F8EC20B7
S315200021002A492848FEF78EFF02467B689A647B6838
S315200021109B6C1A4627492848FEF784FF7B689B6CF0
S3152000212007F10800224AC82105F002FE07F108033C
S315200021301A4616491648FEF775FFA7E0214B1A46A0
S3152000214012491348FEF76EFF07F10800F0230093AB
S315200021503C23104AC82105F0EBFD07F108031A4677
S315200021600A490B48FEF75EFF7B689B6C07F1080067
S31520002170154AC82105F0DCFD07F108031A46034974
S315200021800348FEF74FFF81E0B08A00202B42002053
S31520002190D8930020D8890020D08A0020E88A002001
S315200021A0E1470020BC930020FC8A0020FB4700204A
S315200021B0108B0020CF59002080980020208B0020F3
S315200021C0408B0020548B0020708B00200022314948
S315200021D03148FEF727FFC7F8DC0000222F49304898
S315200021E0FEF720FFC7F8D80000222E492C48FEF71C
S315200021F019FFC7F8D40000222B492748FEF712FF03
S31520002200C7F8D000294B1A4629492A48FEF70AFF63
S3152000221007F10800D7F8DC30274AC82105F088FDE9
S3152000222007F108031A4622492248FEF7FBFE07F16A
S315200022300800D7F8D830214AC82105F079FD07F1E2
S3152000224008031A461A491B48FEF7ECFE07F1080058
S31520002250D7F8D4301A4AC82105F06AFD07F10803D9
S315200022601A4613491348FEF7DDFE07F10800D7F892
S31520002270D030144AC82105F05BFD07F108031A4641
S315200022800B490C48FEF7CEFE00E000BF00BFF83732
S31520002290BD4680BD1D4A0020BC9300202B5B00203C
S315200022A080980020455B0020DD490020848B00209B
S315200022B02B420020D8930020AC8B0020BC8B002022
S315200022C0DC8B0020FC8B002080B588B002AF7860C4
S315200022D0396000230093564B564A00210020FEF712
S315200022E003FE00230093544B544A00210020FEF79E
S315200022F0FBFD002252495348FEF794FE0022524924
S315200023005248FEF78FFE524B1A4652494F48FEF767
S3152000231089FE514B1A464F494C48FEF783FE4F4BD8
S315200023201A464C494948FEF77DFE4D4B1A46494907
S315200023304648FEF777FE4B4B1A4646494348FEF77A
S3152000234071FE494B1A4643494048FEF76BFE474B00
S315200023501A4640493D48FEF765FE454B1A463D491B
S315200023603A48FEF75FFE434B1A463A493748FEF78E
S3152000237059FE414B1A4637493448FEF753FE3F4B28
S315200023801A4634493148FEF74DFE3D4B1A4631492F
S315200023902E48FEF747FE3B4B1A462E492B48FEF7A2
S315200023A041FE394B1A462B492848FEF73BFE324B55
S315200023B01A4628492548FEF735FE344B1A46254944
S315200023C02248FEF72FFE324B1A4622491F48FEF7B7
S315200023D029FE304B1A461F491C48FEF723FE2E4B7A
S315200023E01A461C491948FEF71DFE234B1A46194961
S315200023F01648FEF717FE01233B7301237B73062342
S31520002400BB734823FB7365233B746C237B746C235B
S31520002410BB746F23FB7400233B7507F10C031A462C
S315200024201E490848FEF7FEFD00BF1837BD4680BD91
S31520002430255A002080980020C3480020BC93002005
S3152000244061780020F897002085410020D89300204D
S31520002450108C00202B420020248C0020448C00204D
S31520002460888C0020A08C0020E08C0020048D002089
S315200024702C8D0020548D00207C8D0020C08D0020C6
S31520002480D48D0020188E00203C8E0020608E0020E7
S31520002490788E0020C08E0020E88E0020737B0020DE
S315200024A080B500AF002208490848FEF7AFFF012299
S315200024B007490848FEF7AAFF002207490748FFF701
S315200024C00BF80023184680BDB7420020D893002081
S315200024D021790020F8970020C92200206C93002043
S315200024E080B582B000AF78607B68604A934208D19D
S315200024F00121012003F0A4F80021012003F0A0F817
S31520002500AFE07B68B3F1804F08D10121012003F0B1
S3152000251077F80021012003F073F8A2E07B68544A83
S31520002520934208D10121022003F06AF800210220FB
S3152000253003F066F895E07B684E4A934208D1012164
S31520002540042003F05DF80021042003F059F888E008
S315200025507B68494A934208D10121082003F050F8AC
S315200025600021082003F04CF87BE07B68434A934225
S3152000257008D10121102003F043F80021102003F098
S315200025803FF86EE07B683E4A934208D10121202025
S3152000259003F036F80021202003F032F861E07B6852
S315200025A0384A934208D10121022003F049F800213C
S315200025B0022003F045F854E07B68334A93420AD15F
S315200025C001214FF4803003F03BF800214FF4803096
S315200025D003F036F845E07B682C4A93420AD1012164
S315200025E04FF4003003F02CF800214FF4003003F0B4
S315200025F027F836E07B68264A93420AD101214FF418
S31520002600802003F01DF800214FF4802003F018F8F5
S3152000261027E07B681F4A934208D10121402002F01F
S31520002620EFFF0021402002F0EBFF1AE07B681A4AF8
S31520002630934208D10121802002F0E2FF0021802070
S3152000264002F0DEFF0DE07B68144A934209D1012196
S315200026504FF4807002F0D4FF00214FF4807002F016
S31520002660CFFF00BF0837BD4680BD00BF0000014038
S315200026700004004000080040000C0040001000400C
S315200026800014004000040140004001400044014085
S315200026900048014000180040001C00400020004077
S315200026A080B485B000AF786039600023FB817B68F9
S315200026B01B88FB817B68294A934213D07B68284A72
S315200026C093420FD07B68B3F1804F0BD07B68254AAD
S315200026D0934207D07B68244A934203D07B68234ADF
S315200026E0934208D1FB8923F07003FB813B685A880B
S315200026F0FB891343FB817B681D4A93420CD07B6880
S315200027001C4A934208D0FB8923F44073FB813B6823
S315200027101A89FB891343FB817B68FA891A803B68F7
S315200027205A687B68DA623B681A887B681A857B68F8
S315200027300A4A934203D07B68094A934204D13B68F4
S315200027409B7A9AB27B681A867B6801229A8200BF9E
S315200027501437BD465DF8047B704700BF000001407A
S31520002760000401400004004000080040000C004026
S31520002770001000400014004080B483B000AF7860A1
S315200027807B684FF0FF325A607B6800221A807B6894
S3152000279000221A817B6800225A807B6800229A7266
S315200027A000BF0C37BD465DF8047B704780B483B00C
S315200027B000AF78600B467B8013463B807B687A8827
S315200027C01A857B683A889A8200BF0C37BD465DF829
S315200027D0047B704780B485B000AF78600B467B8061
S315200027E00023FB817B681B88FB81FB8923F0700318
S315200027F0FB81FA897B881343FB817B68FA891A80DF
S3152000280000BF1437BD465DF8047B704780B483B0A3
S3152000281000AF786039607B683A685A6200BF0C372F
S31520002820BD465DF8047B704780B483B000AF786006
S3152000283039607B683A68DA6200BF0C37BD465DF8BE
S31520002840047B704780B483B000AF78607B685B6A96
S3152000285018460C37BD465DF8047B704780B483B0BC
S3152000286000AF78607B681B8D9BB218460C37BD463F
S315200028705DF8047B704780B483B000AF78600B4668
S31520002880FB70FB78002B08D07B681B889BB243F03B
S3152000289002039AB27B681A8007E07B681B889BB28A
S315200028A023F002039AB27B681A8000BF0C37BD461C
S315200028B05DF8047B704780B483B000AF78600B4628
S315200028C07B807B88002B08D07B681B889BB243F0DB
S315200028D004039AB27B681A8007E07B681B889BB248
S315200028E023F004039AB27B681A8000BF0C37BD46DA
S315200028F05DF8047B704780B483B000AF78600B46E8
S31520002900FB70FB78002B08D07B681B889BB243F0BA
S3152000291080039AB27B681A8007E07B681B889BB28B
S3152000292023F080039AB27B681A8000BF0C37BD461D
S315200029305DF8047B704780B483B000AF78600B46A7
S315200029407B807B681B889BB223F008039AB27B6846
S315200029501A807B681B889AB27B8813439AB27B685D
S315200029601A8000BF0C37BD465DF8047B704780B4E3
S3152000297083B000AF78600B467B807B681B889BB258
S3152000298023F440739AB27B681A807B681B889AB2BC
S315200029907B8813439AB27B681A8000BF0C37BD46EA
S315200029A05DF8047B704780B483B000AF78600B4637
S315200029B0FB70FB78002B08D07B681B889BB243F00A
S315200029C001039AB27B681A8007E07B681B889BB25A
S315200029D023F001039AB27B681A8000BF0C37BD46EC
S315200029E05DF8047B704780B485B000AF78603960AD
S315200029F000237B810023FB810023BB817B681B8C0A
S31520002A009BB223F001039AB27B681A847B681B8CE5
S31520002A10FB817B689B88BB817B681B8B7B817B8949
S31520002A2023F070037B817B8923F003037B813B6842
S31520002A301A887B8913437B81FB8923F00203FB8160
S31520002A403B689A89FB891343FB813B685A88FB893B
S31520002A501343FB817B681F4A934203D07B681E4A3F
S31520002A60934223D1FB8923F00803FB813B68DA8953
S31520002A70FB891343FB81FB8923F00403FB813B681D
S31520002A809A88FB891343FB81BB8923F48073BB811E
S31520002A90BB8923F40073BB813B681A8ABB89134325
S31520002AA0BB813B685A8ABB891343BB817B68BA8941
S31520002AB09A807B687A891A833B689A687B685A630E
S31520002AC07B68FA891A8400BF1437BD465DF8047BFB
S31520002AD0704700BF000001400004014080B485B06B
S31520002AE000AF7860396000237B810023FB810023BF
S31520002AF0BB817B681B8C9BB223F010039AB27B6848
S31520002B001A847B681B8CFB817B689B88BB817B68D6
S31520002B101B8B7B817B8923F4E0437B817B8923F498
S31520002B2040737B813B681B881B029AB27B891343C7
S31520002B307B81FB8923F02003FB813B689B891B015A
S31520002B409AB2FB891343FB813B685B881B019AB2CF
S31520002B50FB891343FB817B68224A934203D07B681F
S31520002B60214A93422BD1FB8923F08003FB813B68CA
S31520002B70DB891B019AB2FB891343FB81FB8923F076
S31520002B804003FB813B689B881B019AB2FB89134358
S31520002B90FB81BB8923F48063BB81BB8923F400635B
S31520002BA0BB813B681B8A9B009AB2BB891343BB81BE
S31520002BB03B685B8A9B009AB2BB891343BB817B68C7
S31520002BC0BA899A807B687A891A833B689A687B6877
S31520002BD09A637B68FA891A8400BF1437BD465DF86C
S31520002BE0047B7047000001400004014080B485B09A
S31520002BF000AF7860396000237B810023FB810023AE
S31520002C00BB817B681B8C9BB223F480739AB27B6852
S31520002C101A847B681B8CFB817B689B88BB817B68C5
S31520002C209B8B7B817B8923F070037B817B8923F0BF
S31520002C3003037B813B681A887B8913437B81FB894D
S31520002C4023F40073FB813B689B891B029AB2FB89A4
S31520002C501343FB813B685B881B029AB2FB891343B3
S31520002C60FB817B68224A934203D07B68214A9342A8
S31520002C702BD1FB8923F40063FB813B68DB891B0294
S31520002C809AB2FB891343FB81FB8923F48063FB8182
S31520002C903B689B881B029AB2FB891343FB81BB8945
S31520002CA023F48053BB81BB8923F40053BB813B684B
S31520002CB01B8A1B019AB2BB891343BB813B685B8A83
S31520002CC01B019AB2BB891343BB817B68BA899A8060
S31520002CD07B687A899A833B689A687B68DA637B6823
S31520002CE0FA891A8400BF1437BD465DF8047B704705
S31520002CF0000001400004014080B485B000AF786038
S31520002D0039600023BB8100237B810023FB817B6804
S31520002D101B8C9BB223F480539AB27B681A847B68FF
S31520002D201B8C7B817B689B88FB817B689B8BBB8113
S31520002D30BB8923F4E043BB81BB8923F44073BB8169
S31520002D403B681B881B029AB2BB891343BB817B89D4
S31520002D5023F400537B813B689B891B039AB27B89B2
S31520002D6013437B813B685B881B039AB27B891343A1
S31520002D707B817B68124A934203D07B68114A934237
S31520002D800AD1FB8923F48043FB813B681B8A9B0184
S31520002D909AB2FB891343FB817B68FA899A807B6808
S31520002DA0BA899A833B689A687B681A647B687A89B1
S31520002DB01A8400BF1437BD465DF8047B704700BFF8
S31520002DC0000001400004014080B483B000AF786069
S31520002DD07B6800221A807B6800225A807B6800224A
S31520002DE09A807B6800229A607B6800229A817B68A1
S31520002DF00022DA817B6800221A827B6800225A82AE
S31520002E0000BF0C37BD465DF8047B704780B485B0A3
S31520002E1000AF78600B467B8013463B800023FB6027
S31520002E2000237B817B68FB60FB681833FB607B8813
S31520002E30012202FA03F37B817B681B8C9AB27B8981
S31520002E40DB439BB213409AB27B681A847B88002BA3
S31520002E5002D07B88082B14D17B885B089BB21A464C
S31520002E60FB681344FB60FB681968FA684FF68F739A
S31520002E700B401360FB6819683A88FB680A431A609E
S31520002E8019E07B88043B9BB25B089BB21A46FB6821
S31520002E901344FB60FB681968FA6848F6FF730B4019
S31520002EA01360FB681A683B881B029BB21946FB68B5
S31520002EB00A431A6000BF00BF1437BD465DF8047B85
S31520002EC0704780B483B000AF786039607B683A6819
S31520002ED05A6300BF0C37BD465DF8047B704780B44B
S31520002EE083B000AF786039607B683A689A6300BF28
S31520002EF00C37BD465DF8047B704780B483B000AFC5
S31520002F00786039607B683A68DA6300BF0C37BD4663
S31520002F105DF8047B704780B483B000AF7860396079
S31520002F207B683A681A6400BF0C37BD465DF8047B9F
S31520002F30704780B485B000AF78600B467B80002355
S31520002F40FB817B681B8BFB81FB8923F07003FB8154
S31520002F50FA897B881343FB817B68FA891A8300BF31
S31520002F601437BD465DF8047B704780B485B000AF4A
S31520002F7078600B467B800023FB817B681B8BFB8163
S31520002F80FB8923F4E043FB817B881B029AB2FB89F1
S31520002F901343FB817B68FA891A8300BF1437BD4629
S31520002FA05DF8047B704780B485B000AF78600B462F
S31520002FB07B800023FB817B689B8BFB81FB8923F035
S31520002FC07003FB81FA897B881343FB817B68FA892E
S31520002FD09A8300BF1437BD465DF8047B704780B4E2
S31520002FE085B000AF78600B467B800023FB817B6831
S31520002FF09B8BFB81FB8923F4E043FB817B881B02AF
S315200030009AB2FB891343FB817B68FA899A8300BFB6
S315200030101437BD465DF8047B704780B485B000AF99
S3152000302078600B467B800023FB817B681B8BFB81B2
S31520003030FB8923F00803FB81FA897B881343FB81F4
S315200030407B68FA891A8300BF1437BD465DF8047B76
S31520003050704780B485B000AF78600B467B80002334
S31520003060FB817B681B8BFB81FB8923F40063FB813F
S315200030707B881B029AB2FB891343FB817B68FA8902
S315200030801A8300BF1437BD465DF8047B704780B4B1
S3152000309085B000AF78600B467B800023FB817B6880
S315200030A09B8BFB81FB8923F00803FB81FA897B88B4
S315200030B01343FB817B68FA899A8300BF1437BD4688
S315200030C05DF8047B704780B485B000AF78600B460E
S315200030D07B800023FB817B689B8BFB81FB8923F410
S315200030E00063FB817B881B029AB2FB891343FB8119
S315200030F07B68FA899A8300BF1437BD465DF8047B46
S31520003100704780B485B000AF78600B467B80002383
S31520003110FB817B681B8BFB81FB8923F00403FB81EE
S31520003120FA897B881343FB817B68FA891A8300BF5F
S315200031301437BD465DF8047B704780B485B000AF78
S3152000314078600B467B800023FB817B681B8BFB8191
S31520003150FB8923F48063FB817B881B029AB2FB895F
S315200031601343FB817B68FA891A8300BF1437BD4657
S315200031705DF8047B704780B485B000AF78600B465D
S315200031807B800023FB817B689B8BFB81FB8923F063
S315200031900403FB81FA897B881343FB817B68FA89C8
S315200031A09A8300BF1437BD465DF8047B704780B410
S315200031B085B000AF78600B467B800023FB817B685F
S315200031C09B8BFB81FB8923F48063FB817B881B021D
S315200031D09AB2FB891343FB817B68FA899A8300BFE5
S315200031E01437BD465DF8047B704780B485B000AFC8
S315200031F078600B467B800023FB817B681B8BFB81E1
S31520003200FB8923F08003FB81FA897B881343FB81AA
S315200032107B68FA891A8300BF1437BD465DF8047BA4
S31520003220704780B485B000AF78600B467B80002362
S31520003230FB817B681B8BFB81FB89C3F30E03FB8120
S315200032407B881B029AB2FB891343FB817B68FA8930
S315200032501A8300BF1437BD465DF8047B704780B4DF
S3152000326085B000AF78600B467B800023FB817B68AE
S315200032709B8BFB81FB8923F08003FB81FA897B886A
S315200032801343FB817B68FA899A8300BF1437BD46B6
S315200032905DF8047B704780B485B000AF78600B463C
S315200032A07B800023FB817B689B8BFB81FB89C3F39F
S315200032B00E03FB817B881B029AB2FB891343FB8199
S315200032C07B68FA899A8300BF1437BD465DF8047B74
S315200032D0704780B485B000AF78600B467B800023B2
S315200032E0FB817B681B8CFB81FB8923F00203FB811E
S315200032F0FA897B881343FB817B68FA891A8400BF8D
S315200033001437BD465DF8047B704780B485B000AFA6
S3152000331078600B467B800023FB817B681B8CFB81BE
S31520003320FB8923F00803FB81FA897B881343FB8101
S315200033307B68FA891A8400BF1437BD465DF8047B82
S31520003340704780B485B000AF78600B467B80002341
S31520003350FB817B681B8CFB81FB8923F02003FB818F
S315200033607B881B019AB2FB891343FB817B68FA8910
S315200033701A8400BF1437BD465DF8047B704780B4BD
S3152000338085B000AF78600B467B800023FB817B688D
S315200033901B8CFB81FB8923F08003FB817B881B012F
S315200033A09AB2FB891343FB817B68FA891A8400BF92
S315200033B01437BD465DF8047B704780B485B000AFF6
S315200033C078600B467B800023FB817B681B8CFB810E
S315200033D0FB8923F40073FB817B881B029AB2FB894D
S315200033E01343FB817B68FA891A8400BF1437BD46D4
S315200033F05DF8047B704780B485B000AF78600B46DB
S315200034007B800023FB817B681B8CFB81FB8923F45B
S315200034100063FB817B881B029AB2FB891343FB81E5
S315200034207B68FA891A8400BF1437BD465DF8047B91
S31520003430704780B485B000AF78600B467B80002350
S31520003440FB817B681B8CFB81FB8923F40053FB816A
S315200034507B881B039AB2FB891343FB817B68FA891D
S315200034601A8400BF1437BD465DF8047B704780B4CC
S3152000347085B000AF78600B467B8013463B800023E7
S31520003480FB817B88012202FA03F3FB817B681B8C7C
S315200034909AB2FB89DB439BB213409AB27B681A84AB
S315200034A07B681B8C9AB239887B8801FA03F39BB21E
S315200034B013439AB27B681A8400BF1437BD465DF861
S315200034C0047B704780B485B000AF78600B467B8064
S315200034D013463B800023FB817B88042202FA03F3F8
S315200034E0FB817B681B8C9AB2FB89DB439BB2134022
S315200034F09AB27B681A847B681B8C9AB239887B883F
S3152000350001FA03F39BB213439AB27B681A8400BF75
S315200035101437BD465DF8047B704780B582B000AF96
S31520003520786039603B681B88002B0FD13B6859882F
S315200035303B689A883B681B89786800F0B7FC3B6833
S31520003540DB881946786800F0E1F836E03B681B888E
S31520003550042B0FD13B6859883B689A883B681B89A6
S31520003560786800F0E6FC3B68DB881946786800F04E
S31520003570E9F822E03B681B88082B0FD13B68598865
S315200035803B689A883B681B89786800F01FFD3B687A
S31520003590DB881946786800F0F3F80EE03B68598816
S315200035A03B689A883B681B89786800F057FD3B6822
S315200035B0DB881946786800F0FFF800BF0837BD465B
S315200035C080BD80B483B000AF78607B6800221A800B
S315200035D07B6800225A807B6801229A807B680022C1
S315200035E0DA807B6800221A8100BF0C37BD465DF861
S315200035F0047B704780B584B000AF786039600023C3
S31520003600FB810123BB813B685B88002B02D102230F
S31520003610FB8101E00023FB813B689B88012B02D1C3
S315200036200223BB8101E00123BB813B681B88002B61
S315200036301CD13B6859883B689A883B681B89786807
S3152000364000F034FC3B68DB881946786800F05EF8A9
S315200036503B681B89BA89F989786800F06AFC3B685F
S31520003660DB881946786800F06DF81BE03B685988BE
S315200036703B689A883B681B89786800F05AFC3B684F
S31520003680DB881946786800F05DF83B681B89BA89A3
S31520003690F989786800F00AFC3B68DB881946786867
S315200036A000F034F800BF1037BD4680BD80B483B02B
S315200036B000AF78607B685B6B18460C37BD465DF8BB
S315200036C0047B704780B483B000AF78607B689B6BC7
S315200036D018460C37BD465DF8047B704780B483B02E
S315200036E000AF78607B68DB6B18460C37BD465DF80B
S315200036F0047B704780B483B000AF78607B681B6C16
S3152000370018460C37BD465DF8047B704780B483B0FD
S3152000371000AF78600B467B807B681B8B9BB223F0C7
S315200037200C039AB27B681A837B681B8B9AB27B88C0
S3152000373013439AB27B681A8300BF0C37BD465DF8E7
S31520003740047B704780B483B000AF78600B467B80E3
S315200037507B681B8B9BB223F440639AB27B681A83E7
S315200037607B681B8B9AB27B881B029BB213439AB24F
S315200037707B681A8300BF0C37BD465DF8047B704713
S3152000378080B483B000AF78600B467B807B689B8BD0
S315200037909BB223F00C039AB27B689A837B689B8B3F
S315200037A09AB27B8813439AB27B689A8300BF0C3700
S315200037B0BD465DF8047B704780B483B000AF786067
S315200037C00B467B807B689B8B9BB223F440639AB22B
S315200037D07B689A837B689B8B9AB27B881B029BB201
S315200037E013439AB27B689A8300BF0C37BD465DF8B7
S315200037F0047B704780B483B000AF786039603B6843
S315200038001A883B685B8813439AB23B689B881343AC
S315200038109AB23B68DB8813439AB23B681B891343F1
S315200038209AB23B685B8913439AB23B689B891343E0
S315200038309AB27B68A3F8442000BF0C37BD465DF8DA
S31520003840047B704780B483B000AF78607B68002229
S315200038501A807B6800225A807B6800229A807B68C7
S315200038600022DA807B6800221A817B6800225A8136
S315200038707B6800229A8100BF0C37BD465DF8047B29
S31520003880704780B483B000AF78600B46FB70FB783E
S31520003890002B0CD07B68B3F844309BB26FEA4343CD
S315200038A06FEA53439AB27B68A3F8442009E07B6809
S315200038B0B3F844309BB2C3F30E039AB27B68A3F8E5
S315200038C0442000BF0C37BD465DF8047B704780B4AA
S315200038D083B000AF78600B46FB70FB78002B08D0D6
S315200038E07B689B889BB243F004039AB27B689A80DC
S315200038F007E07B689B889BB223F004039AB27B681F
S315200039009A8000BF0C37BD465DF8047B704780B4B3
S3152000391083B000AF78600B46FB70FB78002B08D095
S315200039207B689B889BB243F001039AB27B689A809E
S3152000393007E07B689B889BB223F001039AB27B68E1
S315200039409A8000BF0C37BD465DF8047B704780B473
S3152000395083B000AF78600B467B8013467B707B7804
S31520003960002B08D07B689B899AB27B8813439AB236
S315200039707B689A8109E07B689B899AB27B88DB43C6
S315200039809BB213409AB27B689A8100BF0C37BD4622
S315200039905DF8047B704780B483B000AF78600B4637
S315200039A07B807B687A889A8200BF0C37BD465DF89B
S315200039B0047B704780B485B000AF78600B467B806F
S315200039C00023FB737B681B8A9AB27B8813409BB2C9
S315200039D0002B02D00123FB7301E00023FB73FB7B4A
S315200039E018461437BD465DF8047B704780B483B013
S315200039F000AF78600B467B807B88DB439AB27B687E
S31520003A001A8200BF0C37BD465DF8047B704780B430
S31520003A1085B000AF78600B467B800023FB730023C4
S31520003A20BB8100237B817B681B8A9AB27B881340EB
S31520003A30BB817B689B899AB27B8813407B81BB893B
S31520003A40002B05D07B89002B02D00123FB7301E0DC
S31520003A500023FB73FB7B18461437BD465DF8047BB9
S31520003A60704780B483B000AF78600B467B807B883C
S31520003A70DB439AB27B681A8200BF0C37BD465DF8DD
S31520003A80047B704780B483B000AF78600B467B80A0
S31520003A9013463B807A883B8813439AB27B68A3F807
S31520003AA0482000BF0C37BD465DF8047B704780B4C4
S31520003AB083B000AF78600B467B8013467B707B78A3
S31520003AC0002B08D07B689B899AB27B8813439AB2D5
S31520003AD07B689A8109E07B689B899AB27B88DB4365
S31520003AE09BB213409AB27B689A8100BF0C37BD46C1
S31520003AF05DF8047B704780B483B000AF78600B46D6
S31520003B00FB70FB78002B08D07B689B889BB243F028
S31520003B1008039AB27B689A8007E07B689B889BB2F1
S31520003B2023F008039AB27B689A8000BF0C37BD4603
S31520003B305DF8047B704780B483B000AF78607B6803
S31520003B401B899BB223F007039AB27B681A8100BFB8
S31520003B500C37BD465DF8047B704780B582B000AF58
S31520003B6078600B467B807B881946786800F088F859
S31520003B707B681B899BB243F007039AB27B681A8144
S31520003B8000BF0837BD4680BD80B584B000AFF86061
S31520003B90084611461A4603467B810B463B8113464F
S31520003BA0FB807B89602B06D1FB8839890122F86846
S31520003BB000F0BFF905E0FB8839890122F86800F09A
S31520003BC075F97B891946F86800F05AF8FB681B8955
S31520003BD09BB243F007039AB2FB681A8100BF1037E5
S31520003BE0BD4680BD80B586B000AFF8600846114658
S31520003BF01A4603467B810B463B811346FB800023F6
S31520003C00FB82FB883A897989F86800F0A9F8FB6875
S31520003C101B89FB82FB8A23F00703FB82FB8A43F086
S31520003C200703FB82FB8A23F07003FB82FB8A43F0A7
S31520003C307003FB82FB68FA8A1A8100BF1837BD46DB
S31520003C4080BD80B584B000AFF860084611461A469C
S31520003C5003467B810B463B811346FB80FB883A89D2
S31520003C607989F86800F07CF8FB681B899BB243F4DD
S31520003C7080439AB2FB681A8100BF1037BD4680BDCB
S31520003C8080B485B000AF78600B467B800023FB8133
S31520003C907B681B89FB81FB8923F07003FB81FA89F2
S31520003CA07B881343FB817B68FA891A8100BF14370E
S31520003CB0BD465DF8047B704780B483B000AF786062
S31520003CC00B467B807B689B889BB223F070039AB25D
S31520003CD07B689A807B689B889AB27B8813439AB2CA
S31520003CE07B689A8000BF0C37BD465DF8047B704721
S31520003CF080B483B000AF78600B467B807B681B89DD
S31520003D009BB223F007039AB27B681A817B681B89D2
S31520003D109AB27B8813439AB27B681A8100BF0C370C
S31520003D20BD465DF8047B704780B483B000AF7860F1
S31520003D300B467B807B681B899BB223F080039AB25B
S31520003D407B681A817B681B899AB27B8813439AB257
S31520003D507B681A8100BF0C37BD465DF8047B70472F
S31520003D6080B487B000AFF860084611461A4603466D
S31520003D707B810B463B811346FB800023FB82FB683D
S31520003D801B89FB82FB8ADBB2FB82FB881B029AB271
S31520003D903B8913439AB27B8913439AB2FB8A134316
S31520003DA0FB82FB68FA8A1A8100BF1C37BD465DF884
S31520003DB0047B704780B487B000AFF8600846114690
S31520003DC01A4603467B810B463B811346FB80002324
S31520003DD0FB820023BB8200237B82FB681B89FB823C
S31520003DE0FB681B8BBB82FB681B8C7B82FB8A23F0C8
S31520003DF00703FB82FA8A7B891343FB82BB8A23F45F
S31520003E00407323F00303BB82BB8A43F4807343F0E1
S31520003E100103BB827B8A23F022037B82FB881B0162
S31520003E209AB23B8913439AB27B8A13437B82FB68FF
S31520003E30FA8A1A81FB68BA8A1A83FB687A8A1A84F4
S31520003E4000BF1C37BD465DF8047B704780B483B045
S31520003E5000AF78600B46FB70FB78002B08D07B68A0
S31520003E609B889BB243F080039AB27B689A8007E0D6
S31520003E707B689B889BB223F080039AB27B689A80EA
S31520003E8000BF0C37BD465DF8047B704780B483B015
S31520003E9000AF78600B467B807B687A88A3F8502039
S31520003EA000BF0C37BD465DF8047B704780B487B0F1
S31520003EB000AFF860084611461A4603467B810B463A
S31520003EC03B811346FB800023FB820023BB82FB68D9
S31520003ED01B8C9BB223F001039AB2FB681A84FB6801
S31520003EE01B8BFB82FB681B8CBB82FB8A23F0F303B4
S31520003EF0FB82FB881B019AB23B8913439AB2FB8A49
S31520003F001343FB82BB8A23F00A03BB827A89BB8ACE
S31520003F1013439BB243F00103BB82FB68FA8A1A83E0
S31520003F20FB68BA8A1A8400BF1C37BD465DF8047B3D
S31520003F30704780B487B000AFF860084611461A462D
S31520003F4003467B810B463B811346FB800023FB8285
S31520003F500023BB8200237B82FB681B8C9BB223F051
S31520003F6010039AB2FB681A84FB681B8BFB82FB68E2
S31520003F701B8CBB827B891B017B82FB8A23F44073CB
S31520003F801B051B0DFB82FB881B039AB2FB8A13437E
S31520003F90FB823B891B029AB2FB8A1343FB82BB8AB4
S31520003FA023F0A003BB827A8ABB8A13439BB243F0D9
S31520003FB01003BB82FB68FA8A1A83FB68BA8A1A84C2
S31520003FC000BF1C37BD465DF8047B704780B487B0C0
S31520003FD000AFF860084611461A4603467B810B4619
S31520003FE03B811346FB800023FB820023BB820023F8
S31520003FF07B82FB681B8C9BB223F480739AB2FB688E
S315200040001A84FB689B8BFB82FB681B8CBB827B899B
S315200040101B027B82FB8A23F0F303FB82FB881B01B6
S315200040209AB23B8913439AB2FB8A1343FB82BB8A1B
S3152000403023F42063BB827A8ABB8A13439BB243F460
S315200040408073BB82FB68FA8A9A83FB68BA8A1A84D1
S3152000405000BF1C37BD465DF8047B704780B487B02F
S3152000406000AFF860084611461A4603467B810B4688
S315200040703B811346FB800023FB820023BB82002367
S315200040807B82FB681B8C9BB223F480539AB2FB681D
S315200040901A84FB689B8BFB82FB681B8CBB827B890B
S315200040A01B037B82FB8A23F440731B051B0DFB82BB
S315200040B03B891B029AB2FB8A1343FB82FB881B03B4
S315200040C09AB2FB8A1343FB82BB8A23F400535B0418
S315200040D05B0CBB827A8ABB8A13439BB243F4805320
S315200040E0BB82FB68FA8A9A83FB68BA8A1A8400BF65
S315200040F01C37BD465DF8047B704700BF80B483B093
S3152000410000AF0346FB71FB7903F01F03012202FA7D
S3152000411003F1064A97F907305B0942F8231000BFDE
S315200041200C37BD465DF8047B704700BF00E100E018
S3152000413080B483B000AF03463960FB7197F907302E
S31520004140002B0BDA3B68DAB20C49FB7903F00F033C
S31520004150043B1201D2B20B441A7609E03B68DAB26C
S31520004160074997F907301201D2B20B4483F800238E
S3152000417000BF0C37BD465DF8047B704700ED00E0BC
S3152000418000E100E080B582B000AF786039607B68DE
S3152000419000229A617B689A697B685A617B685A69B2
S315200041A07B68DA61012240F225510A4802F0A2F822
S315200041B0002240F22771074802F09CF802212520B0
S315200041C0FFF7B6FF2520FFF799FF00BF0837BD464A
S315200041D080BD00BF0010014080B483B000AF78607E
S315200041E00B46FB707B68DB69B3F5806F17DA7B685B
S315200041F05B697A681344FA7883F820207B685B69C8
S3152000420001335A42C3F30903C2F3090258BF53428A
S315200042107A6853617B68DB695A1C7B68DA6100BF68
S315200042200C37BD465DF8047B704780B582B000AF81
S31520004230786039607B68DB69002B18D17B689B68C6
S31520004240012240F22771184602F054F80FE03B682D
S315200042501B780A2B03D10D217868FFF7BDFF3B6839
S315200042605A1C3A601B7819467868FFF7B5FF3B68F9
S315200042701B78002BEBD100BF00BF0837BD4680BDA1
S3152000428080B582B000AF786039607B68DB69002B2F
S3152000429007D17B689B68012240F22771184602F0FD
S315200042A029F83B68DBB219467868FFF795FF00BF0F
S315200042B00837BD4680BD80B586B002AF78603960CC
S315200042C07B689B682021184602F05CF80346012B88
S315200042D018D17B689B68184601F077FE0346FB6081
S315200042E07B68DB68002B0DD07B68DA687B681969F0
S315200042F0FB6800930B4600210020FCF7F5FD234BBD
S3152000430001221A607B689B688021184602F03AF8E1
S315200043100346012B35D17B68DB69002B29DD7B68C1
S3152000432098687B689B697A68134493F820309BB21F
S31520004330194601F038FE7B689B6901335A42C3F364
S315200043400903C2F3090258BF53427A6893617B6816
S31520004350DB695A1E7B68DA617B68DB69002B10D12A
S315200043607B689B68002240F22771184601F0C2FF45
S3152000437007E07B689B68002240F22771184601F00F
S31520004380B9FF002318461037BD4680BD2C99002062
S3152000439080B500AF01214FF0005001F031F9002126
S315200043A04FF0005001F02CF900BF80BD80B485B0DD
S315200043B000AF786039600023FB600023BB60144B9C
S315200043C01B68FB6040F6FE727B6802FA03F3DB4350
S315200043D0FA681340FB603B681A683B685B681A43BF
S315200043E03B689B681A433B68DB681343BB60BA682B
S315200043F07B6802FA03F3FA681343FB60044AFB68FE
S31520004400136000BF1437BD465DF8047B704700BFBC
S315200044100074004080B483B000AF78607B680022CF
S315200044201A607B6800225A607B6800229A607B684B
S315200044300022DA6000BF0C37BD465DF8047B70476A
S3152000444080B483B000AF78600B46FB70FB78002BFE
S3152000445009D00D4B1A6801217B6801FA03F30A493A
S3152000446013430B6009E0084B1A6801217B6801FAA7
S3152000447003F3DB43044913400B6000BF0C37BD46F2
S315200044805DF8047B704700BF0074004080B483B0A1
S3152000449000AF78600B46FB70FB78002B0AD00E4BE2
S315200044A05A687B681B09012101FA03F30A49134361
S315200044B04B600AE0084B5A687B681B09012101FA08
S315200044C003F3DB43044913404B6000BF0C37BD4662
S315200044D05DF8047B704700BF0074004080B483B051
S315200044E000AF0346FB71FB79002B06D0094B5B68B6
S315200044F0084A43F00303536005E0064B5B68054A10
S3152000450023F00303536000BF0C37BD465DF8047BE0
S31520004510704700BF0074004080B485B000AFF860DB
S31520004520B9601346FB71FB79002B09D00C4B1A6836
S31520004530B968FB6801FA03F3094913430B6009E0E4
S31520004540074B1A68B968FB6801FA03F3DB43044991
S3152000455013400B6000BF1437BD465DF8047B7047DF
S315200045600074004080B485B000AF78600B467B8035
S315200045700023FB60084BFB60FA687B681344083312
S31520004580FB60FB681A467B88136000BF1437BD4664
S315200045905DF8047B704700BF0074004080B485B08E
S315200045A000AF78600B467B800023FB60084BFB60E6
S315200045B0FA687B6813441433FB60FB681A467B88D1
S315200045C0136000BF1437BD465DF8047B704700BFFB
S315200045D00074004080B485B000AF78600B467B80C5
S315200045E013463B800023FB600023BB607B68082BBF
S315200045F005D17B881A023B881343FB6004E07B8845
S315200046001A043B881343FB60074BBB607A68BB6880
S3152000461013442033BB60BB68FA681A6000BF1437A6
S31520004620BD465DF8047B70470074004080B485B0B9
S3152000463000AF78600023FB60084BFB607B689A081C
S31520004640FB6813442C33FB60FB681B689BB218463F
S315200046501437BD465DF8047B704700BF00740040E8
S3152000466080B483B000AF78600B46FB70FB78002BDC
S315200046700AD00E4B1A684FF480517B6801FA03F377
S315200046800A4913430B600AE0084B1A684FF480511D
S315200046907B6801FA03F3DB43044913400B6000BF38
S315200046A00C37BD465DF8047B704700BF00740040A0
S315200046B080B485B000AFF860B9601346FB71FB7912
S315200046C0002B09D00C4B1A68B968FB6801FA03F372
S315200046D0094913430B6009E0074B1A68B968FB6860
S315200046E001FA03F3DB43044913400B6000BF143780
S315200046F0BD465DF8047B70470074004080B485B0E9
S3152000470000AF786039600023FB730A4B5A6B396817
S315200047107B6801FA03F31340002B02D00123FB73BD
S3152000472001E00023FB73FB7B18461437BD465DF87A
S31520004730047B70470074004080B483B000AF78607B
S31520004740396006493A687B6802FA03F34B6300BF77
S315200047500C37BD465DF8047B704700BF00740040EF
S3152000476080B485B000AF786039600023FB730023E6
S31520004770BB60104B1A6839687B6801FA03F3134053
S31520004780BB600C4B5A6B39687B6801FA03F3134004
S31520004790002B05D0BB68002B02D00123FB7301E060
S315200047A00023FB73FB7B18461437BD465DF8047B5C
S315200047B0704700BF0074004080B483B000AF7860BB
S315200047C0396006493A687B6802FA03F34B6300BFF7
S315200047D00C37BD465DF8047B704700BF007400406F
S315200047E080B483B000AF786039607B681B7A184646
S315200047F00C37BD465DF8047B704780B582B000AFAC
S31520004800786039603B683B2B0FDD3B68F02B0CDC76
S315200048103B68DAB27B681A727B681B7A1A460849AB
S315200048200848FCF7FFFB3B6805E07B681A7A7B6843
S315200048301A724FF0FF3318460837BD4680BD00BFB9
S31520004840CF5900208098002080B483B000AF7860D4
S3152000485039607B68DB6818460C37BD465DF8047BFB
S31520004860704780B582B000AF786039603B6813F13D
S31520004870050F0EDB3B68052B0BDC7B683A68DA609C
S315200048807B68DB681A4607490748FCF7CBFB3B6881
S3152000489004E07B68DA687B68DA6006231846083706
S315200048A0BD4680BDB35900208098002080B483B0D7
S315200048B000AF7860396000BF0C37BD465DF8047BD9
S315200048C0704780B588B002AF786039607B685B69D5
S315200048D01F2B05DC7B685B695A1C7B685A6102E0EA
S315200048E07B6800225A617B68DB6803F10A027B68D9
S315200048F05B69324951F8233013447B61304A7B6926
S31520004900DB0013445A687B689A617B685B692D4A91
S3152000491052F823307A68127A02FB03F3DA0F134433
S315200049205B103B614EF660223B6992FBF3F3FB6022
S31520004930FB68323BBB60BB68642202FB03F27B68E8
S315200049401A617B689B691A461F492048FCF76AFB57
S315200049507B681B691A461E491C48FCF763FB7B686B
S3152000496018697B681B6903F57A7100230093194B3C
S31520004970164AFCF7B9FA7B681B6903F5FA607B686F
S315200049801B6903F58C51143100230093124B7A686E
S31520004990FCF7AAFA7B681B6903F58C5014307B68F8
S315200049A01B6903F59C51083100230093094B074AE4
S315200049B0FCF79AFA00BF1837BD4680BD108F00203D
S315200049C010900020908F0020ED5900208098002024
S315200049D0095A002069590020C348002080B483B0BA
S315200049E000AF786039607B681B690A4A82FB031234
S315200049F05113DA178A1A084901FB02F29A1A13464A
S31520004A009B0013445B0018460C37BD465DF8047BBB
S31520004A10704700BF89B5F814A086010080B483B022
S31520004A2000AF786039607B685B6918460C37BD46F5
S31520004A305DF8047B704700BF80B400AF094B0022AD
S31520004A401A60084B00225A60064B00229A60054BDA
S31520004A500022DA60034B044A5A6100BFBD465DF866
S31520004A60047B7047003C0140FFFF7F0080B485B087
S31520004A7000AF78600023FB60344BFB607B689B793A
S31520004A80002B4FD0314B1A687B681B68DB432F49BC
S31520004A9013400B602D4B5A687B681B68DB432B4900
S31520004AA013404B607B681B791A46FB681344FB60F6
S31520004AB0FB6819687B681A68FB680A431A60234BEF
S31520004AC09A687B681B68DB43204913408B601F4B29
S31520004AD0DA687B681B68DB431C491340CB607B6824
S31520004AE05B79102B0ED1194B9A687B681B68174986
S31520004AF013438B60154BDA687B681B681349134395
S31520004B00CB601DE0114BFB607B685B791A46FB6826
S31520004B101344FB60FB6819687B681A68FB680A43C4
S31520004B201A600DE07B681B791A46FB681344FB600C
S31520004B30FB6819687B681B68DA43FB680A401A60C1
S31520004B4000BF1437BD465DF8047B7047003C01402A
S31520004B5080B483B000AF78607B6800221A607B68DF
S31520004B6000221A717B680C225A717B6800229A7186
S31520004B7000BF0C37BD465DF8047B704780B483B018
S31520004B8000AF7860054B1A6904497B6813430B61B3
S31520004B9000BF0C37BD465DF8047B7047003C0140E2
S31520004BA080B485B000AF78600023FB73084B5A6948
S31520004BB07B681340002B02D00123FB7301E0002306
S31520004BC0FB73FB7B18461437BD465DF8047B7047A4
S31520004BD0003C014080B483B000AF7860044A7B6813
S31520004BE0536100BF0C37BD465DF8047B704700BF9C
S31520004BF0003C014080B485B000AF78600023FB7391
S31520004C00084B5A697B681340002B02D00123FB73A3
S31520004C1001E00023FB73FB7B18461437BD465DF885
S31520004C20047B7047003C014080B483B000AF7860BD
S31520004C30044A7B68536100BF0C37BD465DF8047B90
S31520004C40704700BF003C014080B400AF164B1B6884
S31520004C50154A43F001031360134B00229A60124B4E
S31520004C601B68114A23F0A85323F4102313600E4B1C
S31520004C700E4A5A600C4B0E4AC3F884200A4B0D4A42
S31520004C80C3F88820084B1B68074A23F48023136047
S31520004C90054B0022DA60044B0022C3F88C2000BFAB
S31520004CA0BD465DF8047B7047003802401030002472
S31520004CB0003000200030002480B483B000AF0346CB
S31520004CC0FB71064B00221A70044AFB79137000BF51
S31520004CD00C37BD465DF8047B704700BF02380240A2
S31520004CE080B582B000AF00233B600023FB71002318
S31520004CF0BB71312000F08AFD0346BB713B6801334E
S31520004D003B603B68B3F5A04F02D0BB79002BF0D0B7
S31520004D10312000F07BFD0346002B02D00123FB71DE
S31520004D2001E00023FB71FB7918460837BD4680BD9C
S31520004D3080B485B000AF0346FB710023FB600A4BAD
S31520004D401B68FB60FB6823F0F803FB60FB79DB0044
S31520004D50FA681343FB60044AFB68136000BF1437EC
S31520004D60BD465DF8047B70470038024080B483B0AE
S31520004D7000AF0346FB71044AFB79136000BF0C3772
S31520004D80BD465DF8047B70470000474280B483B07F
S31520004D9000AF0346FB710D4B00221A700B4B00220D
S31520004DA01A70FB79012B02D0042B04D007E0074BA5
S31520004DB001221A7003E0054B05221A7000BF00BFBE
S31520004DC00C37BD465DF8047B704700BF7038024043
S31520004DD080B483B000AF0346FB71044AFB791360AD
S31520004DE000BF0C37BD465DF8047B7047800E4742F6
S31520004DF080B485B000AFF860B9607A603B607B68AC
S31520004E009A01BB681A433B685B08013B1B041A43A3
S31520004E10FB681A43BB691B06044913434B6000BF5A
S31520004E201437BD465DF8047B704700BF003802404A
S31520004E3080B483B000AF0346FB71044AFB7913604C
S31520004E4000BF0C37BD465DF8047B704760004742C3
S31520004E5080B483B000AF786039607B689A013B6884
S31520004E601B0705491343C1F8843000BF0C37BD46E4
S31520004E705DF8047B704700BF0038024080B483B0E1
S31520004E8000AF0346FB71044AFB79136000BF0C3761
S31520004E90BD465DF8047B70476800474280B485B004
S31520004EA000AFF860B9607A60FB689A01BB681B06A0
S31520004EB01A437B681B0705491343C1F8883000BF96
S31520004EC01437BD465DF8047B704700BF00380240AA
S31520004ED080B483B000AF0346FB71044AFB791360AC
S31520004EE000BF0C37BD465DF8047B70477000474213
S31520004EF080B483B000AF0346FB71044AFB7913608C
S31520004F0000BF0C37BD465DF8047B70474C00474216
S31520004F1080B485B000AF786039600023FB600B4B0E
S31520004F209B68FB60FB6823F0EC63FB607A683B6858
S31520004F301343FA681343FB60044AFB68936000BF7F
S31520004F401437BD465DF8047B704700BF0038024029
S31520004F5080B485B000AF786039600023FB600B4BCE
S31520004F609B68FB60FB6823F07843FB607A683B68AC
S31520004F701343FA681343FB60044AFB68936000BF3F
S31520004F801437BD465DF8047B704700BF00380240E9
S31520004F9080B485B000AF78600023FB60094B9B6826
S31520004FA0FB60FB6823F00303FB60FA687B6813430E
S31520004FB0FB60044AFB68936000BF1437BD465DF86A
S31520004FC0047B70470038024080B400AF054B9B68D5
S31520004FD0DBB203F00C03DBB21846BD465DF8047B5A
S31520004FE0704700BF0038024080B485B000AF7860BB
S31520004FF00023FB60094B9B68FB60FB6823F0F003F2
S31520005000FB60FA687B681343FB60044AFB68936085
S3152000501000BF1437BD465DF8047B70470038024058
S3152000502080B485B000AF78600023FB60094B9B6895
S31520005030FB60FB6823F4E053FB60FA687B6813434C
S31520005040FB60044AFB68936000BF1437BD465DF8D9
S31520005050047B70470038024080B485B000AF78608A
S315200050600023FB600A4B9B68FB60FB6823F46043CC
S31520005070FB607B68DB00FA681343FB60044AFB682D
S31520005080936000BF1437BD465DF8047B704700BFB0
S315200050900038024080B489B000AF78600023BB613D
S315200050A000237B610023FB6102233B610023FB601D
S315200050B00223BB604A4B9B6803F00C03BB61BB69B0
S315200050C0082B11D0BB69082B44D8BB69002B03D011
S315200050D0BB69042B04D03DE07B68424A1A603DE060
S315200050E07B68414A1A6039E03D4B5B689B0D03F0B3
S315200050F00103FB603A4B5B6803F03F03BB60FB6830
S31520005100002B0CD0384ABB68B2FBF3F3344A526802
S315200051109209C2F3080202FB03F3FB610BE0314A5A
S31520005120BB68B2FBF3F32E4A52689209C2F3080217
S3152000513002FB03F3FB612A4B5B681B0C03F00303A2
S3152000514001335B003B61FA693B69B2FBF3F27B6892
S315200051501A6003E07B68234A1A6000BF204B9B68D5
S3152000516003F0F003BB61BB691B09BB611F4ABB6926
S3152000517013441B78DBB27B617B681A687B69DA4053
S315200051807B685A60164B9B6803F4E053BB61BB698E
S315200051909B0ABB61154ABB6913441B78DBB27B6152
S315200051A07B685A687B69DA407B689A600C4B9B68FF
S315200051B003F46043BB61BB695B0BBB610B4ABB69F4
S315200051C013441B78DBB27B617B685A687B69DA40C3
S315200051D07B68DA6000BF2437BD465DF8047B7047E4
S315200051E0003802400024F40000127A007098002053
S315200051F080B485B000AF78600023FB607B6803F441
S315200052004073B3F5407F11D10F4B9B68FB60FB6861
S3152000521023F4F813FB607B6823F0704323F4407378
S31520005220FA681343FB60084AFB689360064B1A6FC3
S315200052307B68C3F30B03044913430B6700BF143782
S31520005240BD465DF8047B70470038024080B483B0C9
S3152000525000AF0346FB71044AFB79136000BF0C378D
S31520005260BD465DF8047B70473C0E474280B483B050
S3152000527000AF0346FB71044AFB79136000BF0C376D
S31520005280BD465DF8047B7047400E474280B483B02C
S3152000529000AF7860044A7B68136000BF0C37BD46B8
S315200052A05DF8047B704700BF5C01474280B485B03F
S315200052B000AF78600023FB600B4BD3F88C30FB608B
S315200052C0FB6823F01F03FB607B68013BFA681343EE
S315200052D0FB60054AFB68C2F88C3000BF1437BD4618
S315200052E05DF8047B704700BF0038024080B485B06B
S315200052F000AF78600023FB600B4BD3F88C30FB604B
S31520005300FB6823F4F853FB607B68013B1B02FA68B9
S315200053101343FB60044AFB68C2F88C3000BF143785
S31520005320BD465DF8047B70470038024080B485B0E6
S3152000533000AF78600023FB600A4BD3F88C30FB600B
S31520005340FB6823F44013FB60FA687B681343FB6019
S31520005350044AFB68C2F88C3000BF1437BD465DF89E
S31520005360047B70470038024080B485B000AF786077
S315200053700023FB600A4BD3F88C30FB60FB6823F4D8
S315200053804003FB60FA687B681343FB60044AFB68B2
S31520005390C2F88C3000BF1437BD465DF8047B7047D9
S315200053A00038024080B485B000AF78600023FB60EF
S315200053B00A4BD3F88C30FB60FB6823F44033FB6048
S315200053C0FA687B681343FB60044AFB68C2F88C309A
S315200053D000BF1437BD465DF8047B70470038024095
S315200053E080B483B000AF7860044A7B68136000BF46
S315200053F00C37BD465DF8047B704700BFE01147427D
S3152000540080B483B000AF78600B46FB70FB78002B2E
S3152000541006D00A4B1A6B09497B6813430B6306E0D7
S31520005420064B1A6B7B68DB43044913400B6300BFB2
S315200054300C37BD465DF8047B704700BF003802403C
S3152000544080B483B000AF78600B46FB70FB78002BEE
S3152000545006D00A4B5A6B09497B6813434B6306E017
S31520005460064B5A6B7B68DB43044913404B6300BFF2
S315200054700C37BD465DF8047B704700BF00380240FC
S3152000548080B483B000AF78600B46FB70FB78002BAE
S3152000549006D00A4B9A6B09497B6813438B6306E057
S315200054A0064B9A6B7B68DB43044913408B6300BF32
S315200054B00C37BD465DF8047B704700BF00380240BC
S315200054C080B483B000AF78600B46FB70FB78002B6E
S315200054D006D00A4B1A6C09497B6813430B6406E015
S315200054E0064B1A6C7B68DB43044913400B6400BFF0
S315200054F00C37BD465DF8047B704700BF003802407C
