S01600002E2F44656275672F5254532D4C61622E73313936
S3152000000000BFDFF814D003F06EF805F06DF903F0A9
S315200000107CB8FEE700BF000000C0012080B500AF1D
S3152000002001214FF4804004F04DF900214FF4804027
S3152000003004F048F900BF80BD80B483B000AF03460A
S31520000040FB71044AFB79136000BF0C37BD465DF88F
S31520000050047B70470038014080B483B000AF03466C
S31520000060FB71044AFB79136000BF0C37BD465DF86F
S31520000070047B70472000274280B485B000AF03463A
S315200000800A46FB711346BB710023FB60BB7903F064
S3152000009003039B000F2202FA03F3FB60164ABB7987
S315200000A09B08DBB2023352F82320FB68DB4312485D
S315200000B0B9798908C9B21A408B1C40F823200E4A08
S315200000C0BB799B08DBB2023352F82320F979BB793E
S315200000D003F003039B0001FA03F30748B979890863
S315200000E0C9B21A438B1C40F8232000BF1437BD46E3
S315200000F05DF8047B704700BF0038014080B483B0B0
S3152000010000AF7860044A7B68136000BF0C37BD4699
S315200001105DF8047B704700BFDC00274280B483B0C3
S3152000012000AF0346FB71044AFB79136000BF0C370E
S31520000130BD465DF8047B70470004274280B483B037
S3152000014000AF0023FB71094B1B6A03F48073002B5D
S3152000015002D00123FB7101E00023FB71FB791846D5
S315200001600C37BD465DF8047B704700BF0038014060
S3152000017080B400AF094B00221A60084B00225A6057
S31520000180064B00229A60054B0022DA60034B044A94
S315200001905A6100BFBD465DF8047B7047003C0140B4
S315200001A0FFFF7F0080B485B000AF78600023FB603E
S315200001B0344BFB607B689B79002B4FD0314B1A6800
S315200001C07B681B68DB432F4913400B602D4B5A6815
S315200001D07B681B68DB432B4913404B607B681B798C
S315200001E01A46FB681344FB60FB6819687B681A682B
S315200001F0FB680A431A60234B9A687B681B68DB43BB
S31520000200204913408B601F4BDA687B681B68DB43F1
S315200002101C491340CB607B685B79102B0ED1194BA0
S315200002209A687B681B68174913438B60154BDA68FD
S315200002307B681B6813491343CB601DE0114BFB60A1
S315200002407B685B791A46FB681344FB60FB68196878
S315200002507B681A68FB680A431A600DE07B681B7985
S315200002601A46FB681344FB60FB6819687B681B68A9
S31520000270DA43FB680A401A6000BF1437BD465DF8B2
S31520000280047B7047003C014080B483B000AF7860A7
S315200002907B6800221A607B6800221A717B680C2218
S315200002A05A717B6800229A7100BF0C37BD465DF8F3
S315200002B0047B704780B483B000AF7860054B1A6921
S315200002C004497B6813430B6100BF0C37BD465DF8BC
S315200002D0047B7047003C014080B485B000AF786055
S315200002E00023FB73084B5A697B681340002B02D00E
S315200002F00123FB7301E00023FB73FB7B18461437B5
S31520000300BD465DF8047B7047003C014080B483B055
S3152000031000AF7860044A7B68536100BF0C37BD4646
S315200003205DF8047B704700BF003C014080B485B077
S3152000033000AF78600023FB73084B5A697B68134033
S31520000340002B02D00123FB7301E00023FB73FB7B10
S3152000035018461437BD465DF8047B7047003C0140C3
S3152000036080B483B000AF7860044A7B68536100BFD5
S315200003700C37BD465DF8047B704700BF003C01404A
S3152000038080B582B000AF78607B680E4A93420AD16E
S3152000039001214FF0007003F075FF00214FF000702F
S315200003A003F070FF09E001214FF0806003F06AFF3F
S315200003B000214FF0806003F065FF00BF0837BD467F
S315200003C080BD00BF0064004080B485B000AF786077
S315200003D039600023FB730023BB607B681B6823F016
S315200003E002027B681A607B681B6843F001027B6807
S315200003F01A6002E0BB680133BB607B685B6803F070
S315200004000103012B04D0BB684FF6FF729342F1D152
S315200004107B685B6803F00103012B02D00023FB738A
S315200004209CE03B689B79012B06D17B681B6843F0D7
S3152000043080027B681A6005E07B681B6823F08002D7
S315200004407B681A603B68DB79012B06D17B681B68C9
S3152000045043F040027B681A6005E07B681B6823F046
S3152000046040027B681A603B681B7A012B06D17B68A9
S315200004701B6843F020027B681A6005E07B681B68D6
S3152000048023F020027B681A603B685B7A012B06D139
S315200004907B681B6843F010027B681A6005E07B6866
S315200004A01B6823F010027B681A603B689B7A012B3D
S315200004B006D17B681B6843F008027B681A6005E05A
S315200004C07B681B6823F008027B681A603B68DB7A2E
S315200004D0012B06D17B681B6843F004027B681A60F7
S315200004E005E07B681B6823F004027B681A603B6882
S315200004F09B789A073B68DB781B061A433B681B7977
S315200005001B041A433B685B791B051A433B681B880F
S31520000510013B1A437B68DA617B681B6823F0010282
S315200005207B681A600023BB6002E0BB680133BB60B6
S315200005307B685B6803F00103012B04D1BB684FF68F
S31520000540FF729342F1D17B685B6803F00103012BB4
S3152000055002D10023FB7301E00123FB73FB7B1846CA
S315200005601437BD465DF8047B704790B484B000AF65
S3152000057078600023FB607B689B7A1A4601239340B0
S31520000580FB605A4BD3F80032584A43F00103C2F8B5
S315200005900032564BD3F81C22FB68DB4353491340E9
S315200005A0C1F81C327B681B7B002B29D14F4BD3F81B
S315200005B00C22FB68DB434D491340C1F80C327B68A3
S315200005C0DB881B047A685288144648497A68927AEE
S315200005D0104643EA040200F1480341F833207B68C1
S315200005E09B881B047A681288144640497A68927A56
S315200005F0104643EA040200F14803DB000B445A602C
S315200006007B681B7B012B28D1384BD3F80C2237492A
S31520000610FB681343C1F80C327B681B881B047A687D
S315200006205288144631497A68927A104643EA04027F
S3152000063000F1480341F833207B689B881B047A68C5
S31520000640D288144629497A68927A104643EA0402E7
S3152000065000F14803DB000B445A607B68DB7A002BF1
S3152000066009D1224BD3F80422FB68DB431F491340F0
S31520000670C1F8043207E01D4BD3F804221B49FB685E
S315200006801343C1F804327B681B89002B08D1174B12
S31520000690D3F81422FB68DB4314491340C1F8143203
S315200006A07B681B89012B07D1104BD3F814220F49E5
S315200006B0FB681343C1F814327B685B7B012B07D19F
S315200006C00A4BD3F81C220949FB681343C1F81C3294
S315200006D0064BD3F80032054A23F00103C2F8003254
S315200006E000BF1037BD4690BC704700BF0064004075
S315200006F080B483B000AF78607B6800229A717B68F3
S315200007000022DA717B6800221A727B6800225A72F4
S315200007107B6800229A727B680022DA727B6800224C
S315200007209A707B680022DA707B6803221A717B68D4
S3152000073002225A717B6801221A8000BF0C37BD46FF
S315200007405DF8047B704780B483B000AF0346FB712D
S31520000750144BD3F80032134A43F00103C2F8003297
S31520000760104BD3F800320F4A23F47C5323F00E03A8
S31520000770C2F800320B4BD3F80022FB791B02094941
S315200007801343C1F80032074BD3F80032054A23F051
S315200007900103C2F8003200BF0C37BD465DF8047B6A
S315200007A0704700BF0064004080B483B000AF78601B
S315200007B00B46FB70FB78002B06D07B681B6843F446
S315200007C080327B681A6005E07B681B6823F48032E0
S315200007D07B681A6000BF0C37BD465DF8047B704706
S315200007E080B483B000AF78600B46FB70FB78002B9B
S315200007F01ED07B681B6843F080027B681A607B688A
S31520000800D3F8843143F480727B68C3F884217B68F3
S31520000810D3F8943143F480727B68C3F894217B68C3
S31520000820D3F8A43143F480727B68C3F8A4211DE079
S315200008307B681B6823F080027B681A607B68D3F88C
S31520000840843123F480727B68C3F884217B68D3F8D3
S31520000850943123F480727B68C3F894217B68D3F8A3
S31520000860A43123F480727B68C3F8A42100BF0C371F
S31520000870BD465DF8047B704780B485B000AF7860D4
S3152000088039600023FB737B689B6803F08063B3F1B8
S31520000890806F02D10023FB7315E07B689B6803F011
S315200008A00063B3F1006F02D10123FB730BE07B6879
S315200008B09B6803F08053B3F1805F02D10223FB7360
S315200008C001E00423FB73FB7B042B00F09F80FB7B62
S315200008D07A6818331B0113441A68FB7B02F0010265
S315200008E0796818331B010B441A603B681B7A002B6E
S315200008F013D1FB7B7A6818331B01134419683B68B4
S315200009001B685B053A68527A1A43FB7B0A4379686F
S3152000091018331B010B441A6015E0FB7B7A681833E9
S315200009201B01134419683B685B68DB003A68127A3E
S3152000093013433A68527A1A43FB7B0A437968183381
S315200009401B010B441A603B689B7A03F00F03DAB253
S315200009503B689A72FB7B7A6818331B011344043375
S315200009601A68FB7B22F00F02796818331B010B44AF
S3152000097004331A60FB7B7A6818331B011344043353
S315200009801A683B689B7A1946FB7B0A4379681833B9
S315200009901B010B4404331A603B689B7B1A063B6899
S315200009A05B7B1B041A433B681B7B1B021A433B6879
S315200009B0DB7A1946FB7B0A4379681B010B4403F556
S315200009C0C4731A603B689B7C1A063B685B7C1B04DD
S315200009D01A433B681B7C1B021A433B68DB7B194688
S315200009E0FB7B0A4379681B010B4403F5C6731A6027
S315200009F0FB7B7A6818331B0113441A68FB7B42F091
S31520000A000102796818331B010B441A60FB7B1846D8
S31520000A101437BD465DF8047B704780B485B000AFBF
S31520000A2078600B46FB700023FB60FB78022B12D00C
S31520000A30022B16DC002B02D0012B06D011E07B689E
S31520000A409A68314B1340FB600EE07B689A682F4B07
S31520000A501340FB6008E07B689A682D4B1340FB60CF
S31520000A6002E00023FB6000BFFB68294A93423DD089
S31520000A70FB68274A93423CD8FB68264A93422CD0EF
S31520000A80FB68244A934234D8FB68204A93422AD0F2
S31520000A90FB681E4A93422CD8FB681F4A934219D002
S31520000AA0FB681D4A934224D8FB68174A934217D005
S31520000AB0FB68154A93421CD8FB68002B04D0FB68C0
S31520000AC0164A934203D014E00223FB6014E000236D
S31520000AD0FB6011E00023FB600EE00023FB600BE0CF
S31520000AE00123FB6008E00123FB6005E00123FB6096
S31520000AF002E00023FB6000BFFB68DBB21846143718
S31520000B00BD465DF8047B704703000004000300081F
S31520000B10000003100000011000010008010000047D
S31520000B2080B483B000AF78600B46FB70FB78022B55
S31520000B3014D0022B19DC002B02D0012B07D014E095
S31520000B407B689B6843F080027B689A600EE07B6836
S31520000B509B6843F400427B689A6007E07B689B6849
S31520000B6043F400027B689A6000E000BF00BF0C37A8
S31520000B70BD465DF8047B704780B485B000AFF86051
S31520000B800B467A60FB72FB7AFA681B331B0113440F
S31520000B901B68DBB203F00403DAB27B681A727B6847
S31520000BA01B7A002B0BD1FB7AFA681B331B011344EB
S31520000BB01B685B0DC3F30A027B681A600AE0FB7AA6
S31520000BC0FA681B331B0113441B68DB0823F06042C1
S31520000BD07B685A60FB7AFA681B331B0113441B6837
S31520000BE0DBB203F00203DAB27B685A72FB7AFA6848
S31520000BF01B331B01134404331B68DBB203F00F03C2
S31520000C00DAB27B689A72FB7AFA681B331B011344AB
S31520000C1004331B681B0ADAB27B68DA74FB7AFA683B
S31520000C201B01134403F5DC731B68DAB27B68DA72A6
S31520000C30FB7AFA681B01134403F5DC731B681B0A55
S31520000C40DAB27B681A73FB7AFA681B01134403F540
S31520000C50DC731B681B0CDAB27B685A73FB7AFA6862
S31520000C601B01134403F5DC731B681B0EDAB27B6889
S31520000C709A73FB7AFA681B01134403F5DE731B682B
S31520000C80DAB27B68DA73FB7AFA681B01134403F540
S31520000C90DE731B681B0ADAB27B681A74FB7AFA6861
S31520000CA01B01134403F5DE731B681B0CDAB27B6849
S31520000CB05A74FB7AFA681B01134403F5DE731B682A
S31520000CC01B0EDAB27B689A74FB7A002B06D1FB687E
S31520000CD0DB6843F02002FB68DA6005E0FB681B69ED
S31520000CE043F02002FB681A6100BF1437BD465DF849
S31520000CF0047B704780B483B000AF78600B46FB70EE
S31520000D00FB78002B06D17B68DB6843F020027B68EA
S31520000D10DA6005E07B681B6943F020027B681A6174
S31520000D2000BF0C37BD465DF8047B704780B485B0A4
S31520000D3000AF78600B46FB700023FB73FB78002B1B
S31520000D4006D17B68DB68DBB203F00303FB730BE0A1
S31520000D50FB78012B06D17B681B69DBB203F003030A
S31520000D60FB7301E00023FB73FB7B18461437BD465B
S31520000D705DF8047B704780B485B000AF78600B4681
S31520000D80FB700023FB734FF6FF73BB60FB78002BD1
S31520000D9020D17B681B6823F0030343F001027B68A4
S31520000DA01A6002E0BB68013BBB607B685B6803F0AE
S31520000DB00303012B02D0BB68002BF3D17B685B6851
S31520000DC003F00303012B02D00023FB734AE0012327
S31520000DD0FB7347E0FB78012B1ED17B681B6823F051
S31520000DE003027B681A6002E0BB68013BBB607B683C
S31520000DF05B6803F00303002B02D0BB68002BF3D102
S31520000E007B685B6803F00303002B02D00023FB738F
S31520000E1028E00123FB7325E0FB78022B20D17B6899
S31520000E201B6823F0030343F002027B681A6002E08A
S31520000E30BB68013BBB607B685B6803F00303022B46
S31520000E4002D0BB68002BF3D17B685B6803F00303F9
S31520000E50022B02D00023FB7304E00123FB7301E085
S31520000E600023FB73FB7B18461437BD465DF8047BD5
S31520000E70704780B485B000AF78600023FB737B6831
S31520000E801B6823F0030343F002027B681A607B6829
S31520000E905B6803F00303022B01D10123FB73FB7B69
S31520000EA018461437BD465DF8047B704780B485B07C
S31520000EB000AF78604FF6FF73FB600023FB727B6800
S31520000EC01B6823F002027B681A6002E0FB68013B84
S31520000ED0FB607B685B6803F00203022B02D1FB6890
S31520000EE0002BF3D17B685B6803F00203022B01D051
S31520000EF00123FB72FB7A18461437BD465DF8047B46
S31520000F00704780B485B000AF78600023FB737B68A0
S31520000F109B69DBB203F07003FB73FB7B1846143727
S31520000F20BD465DF8047B704780B485B000AF78601D
S31520000F300023FB737B689B691B0EFB73FB7B1846A8
S31520000F401437BD465DF8047B704780B485B000AF8A
S31520000F5078600023FB737B689B691B0CFB73FB7B10
S31520000F6018461437BD465DF8047B704780B485B0BB
S31520000F7000AFF860B9601346FB71FB79002B06D0F1
S31520000F80FB685A69BB681A43FB685A6106E0FB682E
S31520000F905A69BB68DB431A40FB685A6100BF1437A5
S31520000FA0BD465DF8047B704780B485B000AF78609D
S31520000FB039600023FB733B6803F47003002B0DD0CC
S31520000FC07B689A693B681340C3F31303002B02D056
S31520000FD00123FB7348E00023FB7345E03B6803F0E5
S31520000FE08073002B0DD07B685A683B681340C3F38F
S31520000FF01303002B02D00123FB7335E00023FB7380
S3152000100032E03B6803F00063002B0DD07B689A68C2
S315200010103B681340C3F31303002B02D00123FB7359
S3152000102022E00023FB731FE03B6803F00073002BD4
S315200010300DD07B68DA683B681340C3F31303002B9B
S3152000104002D00123FB730FE00023FB730CE07B68C7
S315200010501A693B681340C3F31303002B02D0012304
S31520001060FB7301E00023FB73FB7B18461437BD4658
S315200010705DF8047B704780B485B000AF7860396036
S315200010800023FB603B68174A934203D17B6800220A
S315200010909A6121E03B68C3F31303FB603B6803F0CE
S315200010A00073002B03D07B68FA68DA6014E03B6893
S315200010B003F08063002B03D07B68FA681A610BE08B
S315200010C03B6803F00063002B03D07B68FA689A60C4
S315200010D002E07B68FA685A6000BF1437BD465DF8A7
S315200010E0047B70477000F03080B584B000AF786024
S315200010F039600023FB737B685A693B681340002BD9
S3152000110000F01B813B68B3F5003F00F0DD803B68B3
S31520001110B3F5003F00F20E813B68B3F5803F00F047
S31520001120CA803B68B3F5803F00F204813B68B3F583
S31520001130004F00F0F6803B68B3F5004F00F2FA80CE
S315200011403B68B3F5006F00F0E3803B68B3F5006FB2
S3152000115000F2F0803B68B3F5806F00F0D0803B68EA
S31520001160B3F5806F00F2E6803B68B3F5007F00F0B0
S31520001170BD803B68B3F5007F00F2DC803B68B3F5A9
S31520001180807F00F0AA803B68B3F5807F00F2D28092
S315200011903B68202B4CD83B68002B00F0CB803B686B
S315200011A0013B1F2B00F2C68001A252F823F000BF9C
S315200011B0391200204B120020351300205D1200202A
S315200011C03513002035130020351300206F12002020
S315200011D03513002035130020351300203513002049
S315200011E035130020351300203513002081120020EE
S315200011F03513002035130020351300203513002029
S315200012003513002035130020351300203513002018
S315200012103513002035130020351300203513002008
S31520001220351300203513002035130020931200209B
S315200012303B68402B36D07DE07B689B684249184648
S3152000124000F060F90346FB7379E07B68DB680321D5
S31520001250184600F057F90346FB7370E07B68DB689D
S315200012600821184600F04EF90346FB7367E07B68B9
S31520001270DB681021184600F045F90346FB735EE053
S315200012807B681B690321184600F03CF90346FB7373
S3152000129055E07B681B690821184600F033F90346A0
S315200012A0FB734CE07B681B691021184600F02AF975
S315200012B00346FB7343E07B685B680821184600F011
S315200012C021F90346FB733AE07B685B6810211846D8
S315200012D000F018F90346FB7331E07B689B69012116
S315200012E0184600F00FF90346FB7328E07B689B69DC
S315200012F00221184600F006F90346FB731FE07B68BF
S315200013009B690421184600F0FDF80346FB7316E09E
S315200013107B689B697021184600F0F4F80346FB733E
S315200013200DE07B685B680421184600F0EBF8034665
S31520001330FB7304E00023FB7301E00023FB73FB7BBC
S3152000134018461037BD4680BD0101010080B483B028
S3152000135000AF786039603B68B3F5003F00F0AA80A3
S315200013603B68B3F5003F00F2C3803B68B3F5803F8E
S3152000137000F09C803B68B3F5803F00F2B9803B6863
S31520001380B3F5004F00F0AD803B68B3F5004F00F297
S31520001390AF803B68B3F5006F00F09C803B68B3F5E7
S315200013A0006F00F2A5803B68B3F5806F00F08E8059
S315200013B03B68B3F5806F00F29B803B68B3F5007FF6
S315200013C000F080803B68B3F5007F00F291803B6897
S315200013D0B3F5807F72D03B68B3F5807F00F28880BA
S315200013E03B68202B4AD83B68002B00F081803B6865
S315200013F0013B1F2B7CD801A252F823F08514002034
S31520001400F1140020F11400208D140020F114002086
S31520001410F1140020F114002095140020F11400206E
S31520001420F1140020F1140020F1140020F114002002
S31520001430F1140020F1140020F1140020F1140020F2
S31520001440F1140020F1140020F1140020F1140020E2
S31520001450F1140020F1140020F1140020F1140020D2
S31520001460F1140020F1140020F1140020F1140020C2
S31520001470F1140020F11400209D1400203B68402B1D
S3152000148010D035E07B681E4A9A6032E07B680822DD
S31520001490DA602EE07B681022DA602AE07B68082278
S315200014A01A6126E07B6810221A6122E07B680822F6
S315200014B05A601EE07B6810225A601AE07B6804227C
S315200014C05A6016E07B6804225A6012E07B68042288
S315200014D05A600EE07B6800229A617B6804225A607B
S315200014E007E07B6800229A617B6804225A6000E04C
S315200014F000BF00BF0C37BD465DF8047B704700BFB8
S315200015000101010080B485B000AF78603960002306
S31520001510FB737A683B681340002B02D00123FB73D0
S3152000152001E00023FB73FB7B18461437BD465DF8AC
S31520001530047B704780B582B000AF78607B683B4AF9
S31520001540934208D10121102002F0BCFE0021102078
S3152000155002F0B8FE65E07B68354A93420AD1012144
S315200015604FF4003002F08EFE00214FF4003002F0DE
S3152000157089FE56E07B682F4A93420AD101214FF417
S31520001580802002F07FFE00214FF4802002F07AFEB8
S3152000159047E07B68284A93420AD101214FF4002074
S315200015A002F070FE00214FF4002002F06BFE38E0BE
S315200015B07B68224A93420AD101214FF4801002F01F
S315200015C061FE00214FF4801002F05CFE29E07B686A
S315200015D01B4A934208D10121202002F073FE0021EC
S315200015E0202002F06FFE1CE07B68164A93420AD147
S315200015F001214FF0804002F045FE00214FF080404F
S3152000160002F040FE0DE07B680F4A934209D101218A
S315200016104FF0004002F036FE00214FF0004002F06D
S3152000162031FE00BF0837BD4680BD00BF0010014017
S315200016300044004000480040004C0040005000405C
S315200016400014014000780040007C004080B58AB03C
S3152000165000AF7860396000237B6200233B62002361
S31520001660FB610023BB617B681B8A9BB27B627B6A22
S3152000167023F440537B623B68DB881A467B6A13431C
S315200016807B627B6A9AB27B681A827B689B899BB253
S315200016907B627B6A23F4B05323F00C037B623B68A6
S315200016A09A883B681B8913439AB23B685B8913432C
S315200016B09BB21A467B6A13437B627B6A9AB27B682B
S315200016C09A817B689B8A9BB27B627B6A23F44073F8
S315200016D07B623B689B891A467B6A13437B627B6AE3
S315200016E09AB27B689A8207F10803184602F014FB27
S315200016F07B68304A934203D07B682F4A934202D1BB
S315200017007B693B6201E03B693B627B689B899BB2BC
S315200017101BB2002B0CDA3A6A13469B0013449A003C
S315200017201A443B681B685B00B2FBF3F3FB610BE0DA
S315200017303A6A13469B0013449A001A443B681B6876
S315200017409B00B2FBF3F3FB61FB691C4AA2FB03235C
S315200017505B091B017B627B6A1B09642202FB03F384
S31520001760FA69D31ABB617B689B899BB21BB2002B9B
S315200017700CDABB69DB003233104AA2FB03235B0978
S3152000178003F007037A6A13437B620BE0BB691B01F4
S3152000179032330A4AA2FB03235B0903F00F037A6A5A
S315200017A013437B627B6A9AB27B681A8100BF283713
S315200017B0BD4680BD00100140001401401F85EB513D
S315200017C080B483B000AF78607B684FF416521A60FD
S315200017D07B6800229A807B680022DA807B68002260
S315200017E01A817B680C225A817B6800229A8100BF6D
S315200017F00C37BD465DF8047B704780B485B000AFDA
S31520001800786039600023FB607B681B8A9BB2FB6093
S31520001810FB6823F47063FB603B681A883B685B882F
S3152000182013439AB23B689B8813439AB23B68DB8882
S3152000183013439BB21A46FB681343FB60FB689AB2BC
S315200018407B681A8200BF1437BD465DF8047B70475B
S3152000185080B483B000AF78607B6800221A807B68F2
S3152000186000225A807B6800229A807B680022DA80D8
S3152000187000BF0C37BD465DF8047B704780B483B04B
S3152000188000AF78600B46FB70FB78002B08D07B6896
S315200018909B899BB243F400539AB27B689A8107E0F6
S315200018A07B689B899BB223F400539AB27B689A810A
S315200018B000BF0C37BD465DF8047B704780B483B00B
S315200018C000AF78600B46FB707B681B8B9BB223F0C6
S315200018D0FF039AB27B681A837B681B8B9AB2FB78CC
S315200018E09BB213439AB27B681A8300BF0C37BD465E
S315200018F05DF8047B704780B483B000AF78600B46F8
S31520001900FB70FB78002B0AD07B689B899BB26FEA21
S3152000191043436FEA53439AB27B689A8107E07B6818
S315200019209B899BB2C3F30E039AB27B689A8100BF50
S315200019300C37BD465DF8047B704780B483B000AF9A
S3152000194078600B46FB70FB78002B08D07B689B8A5F
S315200019509BB243F400639AB27B689A8207E07B6865
S315200019609B8A9BB223F400639AB27B689A8200BF5B
S315200019700C37BD465DF8047B704780B483B000AF5A
S3152000198078600B467B807B88C3F308039AB27B681A
S315200019909A8000BF0C37BD465DF8047B704780B443
S315200019A083B000AF78607B689B889BB2C3F3080343
S315200019B09BB218460C37BD465DF8047B704780B451
S315200019C083B000AF78600B46FB707B681B8A9BB2A6
S315200019D023F00F039AB27B681A827B681B8A9AB21D
S315200019E0FB789BB213439AB27B681A8200BF0C37EE
S315200019F0BD465DF8047B704780B483B000AF786045
S31520001A000B46FB70FB78002B08D07B689B899BB22A
S31520001A1043F002039AB27B689A8107E07B689B8930
S31520001A209BB223F002039AB27B689A8100BF0C37DF
S31520001A30BD465DF8047B704780B483B000AF786004
S31520001A400B467B807B689B899BB223F400639AB20A
S31520001A507B689A817B689B899AB27B8813439AB26A
S31520001A607B689A8100BF0C37BD465DF8047B7047C2
S31520001A7080B483B000AF78600B467B807B681B8A7E
S31520001A809BB223F020039AB27B681A827B681B8A5A
S31520001A909AB27B8813439AB27B681A8200BF0C37AE
S31520001AA0BD465DF8047B704780B483B000AF786094
S31520001AB00B46FB70FB78002B08D07B681B8A9BB2F9
S31520001AC043F480439AB27B681A8207E07B681B8ABC
S31520001AD09BB223F480439AB27B681A8200BF0C37EC
S31520001AE0BD465DF8047B704780B483B000AF786054
S31520001AF07B689B899BB243F001039AB27B689A81EB
S31520001B0000BF0C37BD465DF8047B704780B483B0B8
S31520001B1000AF78600B46FB70FB78002B08D07B6803
S31520001B209B8A9BB243F008039AB27B689A8207E0AD
S31520001B307B689B8A9BB223F008039AB27B689A82C1
S31520001B4000BF0C37BD465DF8047B704780B483B078
S31520001B5000AF78600B46FB707B681B8B9BB2DBB2B9
S31520001B609AB27B681A837B681B8B9AB2FB789BB2EE
S31520001B701B029BB213439AB27B681A8300BF0C37B1
S31520001B80BD465DF8047B704780B483B000AF7860B3
S31520001B900B46FB70FB78002B08D07B689B8A9BB298
S31520001BA043F020039AB27B689A8207E07B689B8A7F
S31520001BB09BB223F020039AB27B689A8200BF0C372F
S31520001BC0BD465DF8047B704780B483B000AF786073
S31520001BD00B46FB70FB78002B08D07B689B8A9BB258
S31520001BE043F010039AB27B689A8207E07B689B8A4F
S31520001BF09BB223F010039AB27B689A8200BF0C37FF
S31520001C00BD465DF8047B704780B483B000AF786032
S31520001C100B467B807B689B8A9BB223F004039AB297
S31520001C207B689A827B689B8A9AB27B8813439AB296
S31520001C307B689A8200BF0C37BD465DF8047B7047EF
S31520001C4080B483B000AF78600B46FB70FB78002B26
S31520001C5008D07B689B8A9BB243F002039AB27B68CA
S31520001C609A8207E07B689B8A9BB223F002039AB292
S31520001C707B689A8200BF0C37BD465DF8047B7047AF
S31520001C8080B483B000AF78600B467B8013467B70B0
S31520001C907B78002B08D07B689B8A9AB27B8813437B
S31520001CA09AB27B689A8209E07B689B8A9AB27B8883
S31520001CB0DB439BB213409AB27B689A8200BF0C37F3
S31520001CC0BD465DF8047B704780B487B000AF78606E
S31520001CD00B467B8013467B7000233B610023FB6011
S31520001CE00023BB6000237B617B687B617B88DBB242
S31520001CF05B09DBB23B617B8803F01F03FB6001229B
S31520001D00FB6802FA03F3BB603B69012B03D17B69B5
S31520001D100C337B6109E03B69022B03D17B691033CD
S31520001D207B6102E07B6914337B617B78002B06D0D4
S31520001D307B6919687B69BA680A431A6006E07B6981
S31520001D401968BB68DA437B690A401A6000BF1C37F2
S31520001D50BD465DF8047B704780B485B000AF7860DF
S31520001D600B467B800023FB737B681B889AB27B889B
S31520001D7013409BB2002B02D00123FB7301E000230A
S31520001D80FB73FB7B18461437BD465DF8047B704712
S31520001D9080B483B000AF78600B467B807B88DB43C2
S31520001DA09AB27B681A8000BF0C37BD465DF8047B6B
S31520001DB0704780B487B000AF78600B467B800023E5
S31520001DC0FB6000237B610023BB600023FB747B88C0
S31520001DD0DBB25B09DBB2BB607B8803F01F037B6150
S31520001DE001227B6902FA03F37B61BB68012B07D1D1
S31520001DF07B689B899BB21A467B6913407B6111E005
S31520001E00BB68022B07D17B681B8A9BB21A467B696B
S31520001E1013407B6106E07B689B8A9BB21A467B69EE
S31520001E2013407B617B881B0A9BB2FB600122FB6807
S31520001E3002FA03F3FB607B681B889BB21A46FB6899
S31520001E401340FB607B69002B05D0FB68002B02D07A
S31520001E500123FB7401E00023FB74FB7C18461C372E
S31520001E60BD465DF8047B704780B485B000AF7860CE
S31520001E700B467B800023FB810023BB817B881B0ACA
S31520001E80FB81FB89012202FA03F3BB81BB89DB4379
S31520001E909AB27B681A8000BF1437BD465DF8047B72
S31520001EA0704700BF80B483B000AF0346FB71FB7957
S31520001EB003F01F03012202FA03F1064A97F90730BD
S31520001EC05B0942F8231000BF0C37BD465DF8047B42
S31520001ED0704700BF00E100E080B483B000AF034646
S31520001EE03960FB7197F90730002B0BDA3B68DAB2C1
S31520001EF00C49FB7903F00F03043B1201D2B20B44C9
S31520001F001A7609E03B68DAB2074997F907301201D9
S31520001F10D2B20B4483F8002300BF0C37BD465DF8D0
S31520001F20047B704700ED00E000E100E080B582B060
S31520001F3000AF78600EE07B681B780D2B07D07B689E
S31520001F405A1C7A601B78184600F05EF902E07B681E
S31520001F5001337B607B681B78002BECD100BF00BF70
S31520001F600837BD4680BD80B586B000AF78600023B7
S31520001F707B617B6803F00F027B69591C79611049EC
S31520001F808A5C18333B4403F80C2C7B681B097B6066
S31520001F907B68002BEDD10AE07B69013B7B6107F171
S31520001FA00C027B6913441B78184600F02DF97B69D7
S31520001FB0002BF1D100BF00BF1837BD4680BD00BF42
S31520001FC02896002080B59EB000AF78607B68002BF5
S31520001FD002DA4FF0FF3300E001233B677B683A6F5C
S31520001FE002FB03F37B6000237B6779681C4B83FB32
S31520001FF001239A10CB17D21A13469B0013445B0079
S31520002000CA1A7B6F591C796716498A5C78333B4418
S3152000201003F86C2C7B68124A82FB03129210DB17A2
S31520002020D31A7B607B68002BDFD13B6F002B0EDA47
S315200020302D2000F0E9F80AE07B6F013B7B6707F172
S315200020400C027B6F13441B78184600F0DDF87B6F7B
S31520002050002BF1D100BF00BF7837BD4680BD00BF41
S31520002060676666662896002080B483B000AF10238A
S315200020707B607B6883F3118800BF00BF0C37BD46A9
S315200020805DF8047B704780B483B000AF30237B605B
S315200020907B6883F3118800BF00BF0C37BD465DF80F
S315200020A0047B704780B584B000AF78600B48FFF79B
S315200020B03DFF0B4B1B68002B02D1094B094A1A60C6
S315200020C0074B1B68FB60064B1A687B681344044A5F
S315200020D01360FB6818461037BD4680BDE48B002090
S315200020E0989C00202C20012080B485B000AF786019
S315200020F039603B6803F5F95310337A6813607B68BF
S315200021001B68BB600023FB6009E0FB689A00BB6884
S3152000211013441A4600231360FB680133FB60FB68F7
S31520002120332BF2DDBB686FF016021A60BB680433EE
S315200021301A4603231360BB6884331A464FF0807314
S31520002140136000BF1437BD465DF8047B704780B42A
S3152000215085B000AF786039607B681B688033FB6090
S31520002160FB683A681A6000BF1437BD465DF8047BE9
S31520002170704780B584B000AF1C4804F0ABF83B1D17
S31520002180184604F0F3F940F24733BB803B1D19464D
S31520002190164804F07FF9164B164A1A6002216FF092
S315200021A00100FFF799FE144B144A1A6000216FF0C4
S315200021B00400FFF791FE124B124A1A6002213220C8
S315200021C0FFF78AFE3220FFF76DFE0021074804F054
S315200021D017FA0121054804F0E0FA012202210348FA
S315200021E005F0AFFA00BF1037BD4680BD000C004099
S315200021F038C00120D53200202CC00120D132002049
S3152000220008C101208F25002080B582B000AF03468B
S31520002210FB71FB799BB219460748FFF7AEFB00BF5F
S3152000222080210548FFF798FD0346002BF8D000BF14
S3152000223000BF0837BD4680BD0010014080B500AF05
S31520002240124804F0F9F903461A46114B1A60114B4D
S3152000225001221A60104B00221A60104B1B68002BBB
S3152000226006D00E4B1B680E4A12680021104698476E
S31520002270084B00221A60084B1B68002B01D000F087
S315200022805DFA054B00221A6080BD00BF000C00409D
S31520002290E41F0120DC1F0120E01F0120F01F012088
S315200022A0FC1F012080B500AF124804F0C5F9034693
S315200022B01A46114B1A60114B01221A60104B00224C
S315200022C01A60104B5B68002B06D00E4B5B680E4ADB
S315200022D05268012110469847084B00221A60084B85
S315200022E01B68002B01D000F029FA054B00221A604A
S315200022F080BD00BF000C0040E41F0120DC1F012030
S31520002300E01F0120F01F0120FC1F012080B500AF37
S31520002310124804F091F903461A46114B1A60114BE4
S3152000232001221A60104B00221A60104B9B68002B6A
S3152000233006D00E4B9B680E4A92680221104698479B
S31520002340084B00221A60084B1B68002B01D000F0B6
S31520002350F5F9054B00221A6080BD00BF000C004035
S31520002360E41F0120DC1F0120E01F0120F01F0120B7
S31520002370FC1F012080B485B000AF7860396000234F
S31520002380FB603B681B68BB6004E0BB68FB60BB6806
S315200023901B68BB60BB68002B05D0BB689A687B684E
S315200023A09B689A42F1DD7B68BA681A60FB68002B4D
S315200023B003D13B687A681A6002E0FB687A681A6083
S315200023C000BF1437BD465DF8047B704780B485B0E6
S315200023D000AF786039600023FB603B681B68BB60F8
S315200023E004E0BB68FB60BB681B68BB60BB68002B56
S315200023F005D0BB685A687B685B689A42F1DD7B68CA
S31520002400BA681A60FB68002B03D13B687A681A60A9
S3152000241002E0FB687A681A6000BF1437BD465DF893
S31520002420047B704780B584B000AF78607B681B68FA
S31520002430FB60FB68002B04D0FB681A687B681A6077
S315200024400CE00948FFF772FD00220221074803F03D
S3152000245096FC0748FFF76AFD30BFFDE7FB68184684
S315200024601037BD4680BD00BFFC8B00200004024013
S31520002470088C002080B584B000AF78607B681B682C
S31520002480FB60FB68002B04D0FB681A687B681A6027
S315200024900CE00948FFF74AFD00220221074803F015
S315200024A06EFC0748FFF742FD30BFFDE7FB68184684
S315200024B01037BD4680BD00BFFC8B002000040240C3
S315200024C0148C002080B483B000AF786039603B68FC
S315200024D01A687B681A603B687A681A6000BF0C37F6
S315200024E0BD465DF8047B704780B483B000AF78604A
S315200024F039603B681A687B689A603B687A681A601C
S3152000250000BF0C37BD465DF8047B704780B485B0AC
S3152000251000AF78607B681B68FB60FB689A687B6805
S315200025201A60FB6818461437BD465DF8047B704771
S3152000253080B485B000AF786039600023FB603B68CB
S315200025401B68BB6004E0BB68FB60BB681B68BB60A4
S31520002550BB68002B03D0BA687B689A42F3D1BB686C
S31520002560002B0DD0FB68002B04D0BB681A68FB68D3
S315200025701A6003E0BB681A683B681A60012300E012
S31520002580002318461437BD465DF8047B704780B596
S3152000259082B000AF02211E4805F05DF91C4804F008
S315200025A04BF803467B6007E01A48FFF73BFF0346DC
S315200025B019491846FFF7DEFE164B1B68002B06D07E
S315200025C0144B1B685A687B68D31A002BECDD114B21
S315200025D01B68002B16D00E4804F02EF803463B60ED
S315200025E00C4B1B685B683A689A4204DD0022022184
S315200025F00A4803F0C4FB074B1B685B68194604486E
S3152000260004F059FB00F09AF800BF0837BD4680BD9C
S31520002610000C0040D81F0120D41F012000040240D6
S315200026200346024A136010DFF74600BFEC1F012065
S315200026300346054A1360054B5B68044A43F0805302
S315200026405360F74600BF00BFEC1F012000ED00E0FD
S3152000265080B582B000AF7860094B5B68C3F308038E
S31520002660002B03D17868FFF7DBFF02E07868FFF7DD
S31520002670DFFFFFF708FD00BF0837BD4680BD00BF5E
S3152000268000ED00E090B585B000AF234B1C682348D1
S31520002690FFF7C8FE0346E360E368BB60FFF7F3FC81
S315200026A0BB68D868BB681969BB685B691A4600F0C5
S315200026B015F9FFF7D9FC1A49B868FFF703FF194B3C
S315200026C01B689B68DB687B60144B1B68002B0AD059
S315200026D07B68002BD9D0114B1B689A687B689B6856
S315200026E0D31A002BD1DD0F48FFF710FF03460E4902
S315200026F01846FFF7F9FE0B4B1B68FB6003E0FB68EF
S315200027001B691B68FB60FB681B69002BF7D1F86807
S31520002710FFF79EFFB9E700BF48960020D41F01208F
S315200027203C960020449600204096002080B500AFBD
S3152000273000F004F8FFF7A7FC30BFFBE780B582B0B6
S3152000274000AF144B1B68DB687B60134B1B68002BA8
S315200027501BD0124B1B68002B17D07B68002B07D091
S315200027600D4B1B689A687B689B68D31A002B0CDA82
S315200027700A48FFF7CBFE034606491846FFF7B4FE84
S31520002780044B1B681846FFF763FF00BF0837BD469A
S3152000279080BD00BF44960020D41F01204096002013
S315200027A080B588B000AFF860B9607A603B60EFF31F
S315200027B012833B613B691B09012B14BF01230023B4
S315200027C0DBB2FB77FFF750FC3A48FFF753FEB861C0
S315200027D0BB697A68DA60BB693A681A61BB69BA6A0A
S315200027E05A61354B1B68002B04D1344B1B68DB68C0
S315200027F05B6801E0324B1B68FA681A44BB695A6071
S31520002800BB695A68BB68002B01DDBB6801E06FF02D
S3152000281000431A44BB699A602A4803F00DFF034619
S315200028207B61BB695A687B69D31A002B16DD264962
S31520002830B869FFF7CBFD244B1B685B687A699A421F
S3152000284004DD00220221214803F099FA1E4B1B6861
S315200028505B6819461B4804F02EFA21E01C49B8692A
S31520002860FFF788FDFB7F002B1AD01A4B1B68002B25
S3152000287016D0174B1B689A68174B1B68DB689B683A
S31520002880D31A002B0CDA1348FFF740FE03461249F1
S315200028901846FFF729FE104B1B681846FFF7D8FE8F
S315200028A0FB7F002B01D0FFF7EEFBBB6918462037D4
S315200028B0BD4680BD3C960020DC1F012048960020A6
S315200028C0E41F0120000C0040D81F01200004024014
S315200028D0D41F0120409600204496002080B588B061
S315200028E000AFF860B9607A60EFF312833B613B6911
S315200028F01B09012B14BF01230023DBB2FB76FFF754
S31520002900B3FBFB681B68FB61FB69002B37D003E038
S31520002910FB691B691B68FB61FB691B69002BF7D1EF
S31520002920304B1B68FA699A4202D0FB7E002B07D1F6
S31520002930FB7E002B01D0FFF7A6FB4FF0FF334DE0C7
S31520002940FB685B68002B03D0FB685B6800221A617A
S31520002950244B1A68FB685A60224B1B68FA681A6176
S31520002960F869FFF775FE1F4B1B68DB68002B06D145
S31520002970FB7E002B01D0FFF786FB00232EE0194BB0
S315200029801A68FB681A60FB7E002B05D0FB685B6823
S31520002990012B01D0FFF777FBBB687968F868984769
S315200029A07861FFF761FBFB6800221A60FB685B68B1
S315200029B0FB61FB69002B0BD0FB69012B08D0FB6860
S315200029C000225A60FB6900221A61F869FFF740FE6F
S315200029D0FB7E002B01D0FFF756FB7B69184620377C
S315200029E0BD4680BD4896002080B586B000AF786091
S315200029F0EFF31283FB60FB681B09012B14BF012335
S31520002A000023DBB2FB74FFF72FFB1F497868FFF723
S31520002A108FFD0346002B06D11C497868FFF788FDF9
S31520002A200346002B04D01A497868FFF74BFD21E0B6
S31520002A30184B1B687B611AE0174B1B687A699A4210
S31520002A4012D07B69DB687A689A420DD17B691A6954
S31520002A507B68DB689A4207D17B690022DA600C49E1
S31520002A607868FFF72FFD05E07B699B687B617B69B2
S31520002A70002BE1D1FB7C002B01D0FFF704FB00BF2C
S31520002A801837BD4680BD00BFD81F0120D41F0120A6
S31520002A903C960020449600204896002080B485B0BD
S31520002AA000AF7860EFF31283FB60FB681B09012BF4
S31520002AB004D0074B1B68DB685B6801E0054B1B688D
S31520002AC07A68136000BF1437BD465DF8047B7047F3
S31520002AD048960020E41F012080B485B000AF7860BE
S31520002AE0EFF31283FB60FB681B09012B04D0084B14
S31520002AF01B68DB685B6801E0064B1B687A68126816
S31520002B009B1A18461437BD465DF8047B704700BFF4
S31520002B1048960020E41F012080B584B000AFEFF373
S31520002B2012837B607B681B09012B14BF01230023C2
S31520002B30DBB2FB73FFF798FA0C4803F07DFD0346E2
S31520002B40BB60FB7B002B01D0FFF79DFAFB7B002BA4
S31520002B5004D0074B1B68DB685B6801E0054B1B68EC
S31520002B60BA68D31A18461037BD4680BD000C0040FF
S31520002B7048960020E41F012080B582B000AF0023D4
S31520002B807B6012E07B685A1C13465B001344DB0013
S31520002B90444A991843487A6813465B001344DB007D
S31520002BA0034419607B6801337B607B681C2BE9DD5D
S31520002BB03C4B0022C3F8B82200237B6013E07B68DD
S31520002BC05A1C13469B0013449B00374A99183648D3
S31520002BD07A6813469B0013449B000344083319600C
S31520002BE07B6801337B607B68022BE8DD2E4B00225D
S31520002BF05A6400237B6030E02B497A6813469B0099
S31520002C0013449B000B4404337A681A607A6813468F
S31520002C109B0013449B00244A1A447B685B03234988
S31520002C200B4419461046FFF75FFA7A6813469B0055
S31520002C3013449B001C4A13441D491846FFF787FA84
S31520002C4019497A6813469B0013449B000B441033A2
S31520002C5000221A607B6801337B607B68032BCBDD07
S31520002C60144B4FF0FF325A60124B00229A60114BE0
S31520002C7000221A610F4B0022DA600F48FFF756F93F
S31520002C800E48FFF753F90E48FFF750F90A48FFF7A9
S31520002C904DF90948FFF74AF9FFF76BFA00BF0837E5
S31520002CA0BD4680BD9C9C00206C9F0020C09F0020BC
S31520002CB085260020C01F0120208C0020248C002087
S31520002CC0308C002080B586B000AFF860B96013461E
S31520002CD0FB71FB79022B41D8EFF312833B613B69F1
S31520002CE01B09012B14BF01230023DBB2FB75FFF761
S31520002CF0BBF9FB79022B0ED0022B10DC002B02D065
S31520002D00012B04D00BE0174B174A1A6014E0174B1F
S31520002D10174A1A6010E0174B174A1A600CE017483A
S31520002D20FFF704F900220221154803F028F8154878
S31520002D30FFF7FCF830BFFDE7FB791349FA6841F845
S31520002D402320FB791149BA6841F82320FB68012228
S31520002D505A60FB7D002B01D0FFF795F900BF18378D
S31520002D60BD4680BDD4C001203D22002090C0012058
S31520002D70A52200209CC001200D230020FC8B0020D2
S31520002D8000040240488C0020FC1F0120F01F012077
S31520002D9080B586B002AFF860B9607A60FFF764F953
S31520002DA0FFF7EAFEBB68002B16D00F4803F044FC61
S31520002DB003461A460D4B1A600D4B01221A607B689A
S31520002DC00093BB68FA6800210020FFF7E9FC084B56
S31520002DD000221A60FFF7B2FCFFF7A8FC0023184672
S31520002DE01037BD4680BD00BF000C0040E41F012007
S31520002DF0DC1F012080B400AF00BFBD465DF8047B18
S31520002E00704780B586B000AF454802F0CFFD4548F3
S31520002E10FDF7B6FA4448FDF7B3FA01214FF00070EA
S31520002E2001F090F901214FF0806001F08BF901212A
S31520002E30022001F027F909220921394802F0D8FF9A
S31520002E4009220821364802F0D3FF07F1100318465D
S31520002E5002F0EDFE4FF400733B6102233B75002325
S31520002E60BB750023FB7502237B7507F110031946FA
S31520002E702B4802F04DFE4FF480733B6102233B75D5
S31520002E800023BB750123FB7502237B7507F1100315
S31520002E901946234802F03CFE09220621204802F06A
S31520002EA0A7FF092205211E4802F0A2FF40233B610D
S31520002EB002233B750023BB750023FB7502237B751C
S31520002EC007F110031946164802F022FE20233B6123
S31520002ED002233B750023BB750123FB7502237B75FB
S31520002EE007F1100319460E4802F012FE0023BB72AA
S31520002EF00023FB7201233B7300233B8000237B804E
S31520002F000023BB800023FB8000233B8101237B73AE
S31520002F103B461846FDF729FB00BF1837BD4680BD46
S31520002F2000040240006400400068004080B586B07E
S31520002F3000AF01214FF0005001F004F907F1100312
S31520002F40184602F074FE20233B6103233B750023C1
S31520002F50FB7507F1100319460F4802F0D9FD02F060
S31520002F6091FF3B46184602F0CFFF00233B6000232B
S31520002F707B600023FB603B461946102002F090FF41
S31520002F800121102002F0D6FF0021082003F080F84E
S31520002F9000BF1837BD4680BD0000024080B584B012
S31520002FA000AF01214FF4804001F0ECF80721012009
S31520002FB0FDF762F8FDF7DCF83B461846FDF764F9A5
S31520002FC080233B6000233B710C237B710123BB7163
S31520002FD03B461846FDF7E6F807F10803184602F0C7
S31520002FE026FE0223BB6001233B730123BB73002310
S31520002FF0FB7301237B7307F108031946184802F077
S3152000300087FD0123BB6001233B730123BB73002390
S31520003010FB7301237B7307F108031946104802F05E
S3152000302077FD012202210E4802F0A9FE012201218C
S315200030300B4802F0A4FE8023BB6000233B730023D1
S31520003040BB730023FB7301237B7307F10803194627
S31520003050034802F05DFD00BF1037BD4680BD00BFAE
S315200030600004024080B483B000AFEFF314833B60CA
S315200030703B6823F003037B607B6883F3148800BFDF
S31520003080094B4FF404725A61074B5B69064A43F0B9
S3152000309008035361054B4FF000425A6000BF0C37BE
S315200030A0BD465DF8047B704700ED00E030EF00E0A0
S315200030B080B500AF0121082001F044F80121082045
S315200030C001F080F900BF80BD80B400AF124A02E053
S315200030D0002342F8043B114B9A42F9D300BFBD4668
S315200030E05DF8047B704780B500AFFFF7EDFFFFF773
S315200030F081FEFFF786FEFFF719FFFFF74FFFFFF769
S31520003100B1FFFFF7D5FF00BF80BD80B400AF00BF81
S31520003110BD465DF8047B7047989C00202C2001203A
S3152000312080B483B000AF786039607B689B68002BE1
S315200031300CBF01230023DBB21A467B689A6000BFCE
S315200031400C37BD465DF8047B704780B483B000AF72
S31520003150786039607B689B6818460C37BD465DF8F9
S31520003160047B704780B584B000AFF860384680E8AD
S315200031700E003B78013B352B00F2958001A252F8D8
S3152000318023F000BFA5320020A53200205D320020AA
S315200031906D32002079320020A7320020993200209B
S315200031A0A7320020A7320020A7320020A732002015
S315200031B0A7320020A7320020A7320020A732002005
S315200031C0A7320020A7320020A7320020A7320020F5
S315200031D0A7320020A7320020A7320020A7320020E5
S315200031E0A7320020A7320020A7320020A7320020D5
S315200031F0A7320020A7320020A7320020A7320020C5
S31520003200A7320020A7320020A7320020A7320020B4
S31520003210A7320020A7320020A7320020A7320020A4
S31520003220A7320020A7320020A7320020A732002094
S31520003230A7320020A7320020A7320020A732002084
S31520003240A7320020A7320020A7320020A732002074
S31520003250A7320020A7320020893200203B460333C4
S315200032601A4613491348FFF739FB1CE0002212497E
S315200032701048FFF733FB16E03B4603331A460F4947
S315200032800F48FFF72BFB0EE03B4603331A460D494A
S315200032900B48FFF723FB06E000220B490B48FFF7FC
S315200032A01DFB00E000BF00BF1037BD4680BD00BF3C
S315200032B095570020309C0020E357002073360020CD
S315200032C0D0960020DB360020213100200820012066
S315200032D0314900E03149EFF3088020ED108A72462B
S315200032E0EFF3118320E9FC0F2D4FD7F80080C8F8A3
S315200032F000001EE00846FEF719FE2A48FEF716FED5
S315200033002948FEF713FED8F80400FEF75BFE27488F
S31520003310FEF70CFED8F80000FEF725FE2448FEF73F
S3152000332005FED8F800000068FEF71DFE1D48FEF7D2
S31520003330FDFDDFF88080D8F80080C7F8008018E00F
S315200033401D48FEF7F3FDD8F80400FEF73BFE1B48A8
S31520003350FEF7ECFDD8F80000FEF705FE1448FEF750
S31520003360E5FDD8F800000068FEF7FDFD0D48FEF7E4
S31520003370DDFD134A536843F00063536000BFD8F85D
S315200033800000B0E8FC0F83F311889646B0EC108A53
S3152000339080F30888704700004C9600205D96002038
S315200033A048960020CD9600207E96002096960020F6
S315200033B09E960020EC1F0120A7960020BC96002098
S315200033C000ED00E080B483B000AF0346FB71FB79CB
S315200033D003F01F03012202FA03F1064A97F9073088
S315200033E05B0942F8231000BF0C37BD465DF8047B0D
S315200033F0704700BF00E100E080B483B000AF034611
S315200034003960FB7197F90730002B0BDA3B68DAB28B
S315200034100C49FB7903F00F03043B1201D2B20B4493
S315200034201A7609E03B68DAB2074997F907301201A4
S31520003430D2B20B4483F8002300BF0C37BD465DF89B
S31520003440047B704700ED00E000E100E080B582B02B
S3152000345000AF786039607B6800229A617B689A6940
S315200034607B685A617B685A697B68DA61012240F27F
S3152000347025510A48FEF728FC002240F2277107480A
S31520003480FEF722FC02212520FFF7B6FF2520FFF7B5
S3152000349099FF00BF0837BD4680BD00BF0010014020
S315200034A080B483B000AF78600B46FB707B68DB6925
S315200034B0B3F5806F17DA7B685B697A681344FA780C
S315200034C083F820207B685B6901335A42C3F30903E2
S315200034D0C2F3090258BF53427A6853617B68DB699D
S315200034E05A1C7B68DA6100BF0C37BD465DF8047B49
S315200034F0704780B582B000AF786039607B68DB6941
S31520003500002B18D17B689B68012240F22771184650
S31520003510FEF7DAFB0FE03B681B780A2B03D10D215F
S315200035207868FFF7BDFF3B685A1C3A601B7819463E
S315200035307868FFF7B5FF3B681B78002BEBD100BFFF
S3152000354000BF0837BD4680BD80B582B000AF786029
S3152000355039607B68DB69002B07D17B689B68012279
S3152000356040F227711846FEF7AFFB3B68DBB21946DF
S315200035707868FFF795FF00BF0837BD4680BD80B548
S3152000358086B002AF786039607B689B682021184638
S31520003590FEF7E2FB0346012B18D17B689B68184691
S315200035A0FEF7FDF90346FB607B68DB68002B0DD038
S315200035B07B68DA687B681969FB6800930B460021F3
S315200035C00020FFF7EDF8234B01221A607B689B68E9
S315200035D080211846FEF7C0FB0346012B34D17B68B9
S315200035E0DB69002B28DD7B6898687B689B697A6895
S315200035F0134493F820301946FEF7BFF97B689B6980
S3152000360001335A42C3F30903C2F3090258BF534296
S315200036107A6893617B68DB695A1E7B68DA617B680E
S31520003620DB69002B10D17B689B68002240F2277152
S315200036301846FEF749FB07E07B689B68002240F2AC
S3152000364027711846FEF740FB002318461037BD4663
S3152000365080BD00BFE01F012080B483B000AF78603A
S3152000366039607B681B7A18460C37BD465DF8047BAB
S31520003670704780B582B000AF786039603B683B2BDD
S315200036800FDD3B68F02B0CDC3B68DAB27B681A72E4
S315200036907B681B7A1A4608490848FFF71FF93B68DA
S315200036A005E07B681A7A7B681A724FF0FF3318465A
S315200036B00837BD4680BD00BF9D580020309C0020A5
S315200036C080B483B000AF786039607B68DB681846C9
S315200036D00C37BD465DF8047B704780B582B000AFDD
S315200036E0786039603B6813F1050F0EDB3B68052BCC
S315200036F00BDC7B683A68DA607B68DB681A46074928
S315200037000748FFF7EBF83B6804E07B68DA687B68DC
S31520003710DA60062318460837BD4680BD815800204A
S31520003720309C002080B483B000AF7860396000BF41
S315200037300C37BD465DF8047B704780B58AB002AF72
S31520003740786039607B685B691F2B05DC7B685B6969
S315200037505A1C7B685A6102E07B6800225A617B68AA
S31520003760DB6803F10A027B685B692E4951F8233036
S315200037701344FB612C4AFB69DB0013445A687B68BF
S315200037809A617B685B69294A52F823307A68127AF3
S3152000379002FB03F3DA0F13445B10BB614EF6602283
S315200037A0BB6992FBF3F37B617B69323B3B613B69EF
S315200037B0642203FB02F27B681A6100221C491D4821
S315200037C0FFF78CF8F8607B689B6900931A4B194ABF
S315200037D00A210020FEF7E4FFFB68002B14D17B684A
S315200037E0186900230093154B124A0521FEF7D8FFCE
S315200037F07B681B6903F59C50083000230093104B0F
S315200038000C4A0521FEF7CCFF7B681869002300933C
S315200038100C4B7A680A21FEF7C3FF00BF2037BD464E
S3152000382080BD00BF688C0020688D0020E88C0020B9
S31520003830FF570020309C0020BB580020195800203C
S31520003840575800204938002080B584B002AF7860F0
S31520003850396000230093054B7A68002141F28830B5
S31520003860FEF79EFF00BF0837BD4680BD3B370020D0
S3152000387080B483B000AF786039607B681B690A4AE0
S3152000388082FB03125113DA178A1A084901FB02F246
S315200038909A1A13469B0013445B0018460C37BD4604
S315200038A05DF8047B704700BF89B5F814A086010037
S315200038B080B483B000AF786039607B685B69184656
S315200038C00C37BD465DF8047B704700BF80B400AF5F
S315200038D0164B1B68154A43F001031360134B002255
S315200038E09A60124B1B68114A23F0A85323F4102325
S315200038F013600E4B0E4A5A600C4B0E4AC3F88420B6
S315200039000A4B0D4AC3F88820084B1B68074A23F444
S3152000391080231360054B0022DA60044B0022C3F893
S315200039208C2000BFBD465DF8047B704700380240FE
S3152000393010300024003000200030002480B483B0F2
S3152000394000AF0346FB71064B00221A70044AFB792E
S31520003950137000BF0C37BD465DF8047B704700BF6F
S315200039600238024080B582B000AF00233B600023BE
S31520003970FB710023BB71312000F08AFD0346BB7129
S315200039803B6801333B603B68B3F5A04F02D0BB795F
S31520003990002BF0D0312000F07BFD0346002B02D017
S315200039A00123FB7101E00023FB71FB7918460837E0
S315200039B0BD4680BD80B485B000AF0346FB710023B1
S315200039C0FB600A4B1B68FB60FB6823F0F803FB6077
S315200039D0FB79DB00FA681343FB60044AFB6813603B
S315200039E000BF1437BD465DF8047B7047003802409F
S315200039F080B483B000AF0346FB71044AFB791360A1
S31520003A0000BF0C37BD465DF8047B70470000474277
S31520003A1080B483B000AF0346FB710D4B00221A70B1
S31520003A200B4B00221A70FB79012B02D0042B04D0F9
S31520003A3007E0074B01221A7003E0054B05221A7096
S31520003A4000BF00BF0C37BD465DF8047B704700BF42
S31520003A507038024080B483B000AF0346FB71044A3D
S31520003A60FB79136000BF0C37BD465DF8047B7047B9
S31520003A70800E474280B485B000AFF860B9607A60A6
S31520003A803B607B689A01BB681A433B685B08013B35
S31520003A901B041A43FB681A43BB691B0604491343DC
S31520003AA04B6000BF1437BD465DF8047B704700BFEE
S31520003AB00038024080B483B000AF0346FB71044A4D
S31520003AC0FB79136000BF0C37BD465DF8047B704759
S31520003AD06000474280B483B000AF786039607B686D
S31520003AE09A013B681B0705491343C1F8843000BF80
S31520003AF00C37BD465DF8047B704700BF0038024096
S31520003B0080B483B000AF0346FB71044AFB7913608F
S31520003B1000BF0C37BD465DF8047B704768004742FE
S31520003B2080B485B000AFF860B9607A60FB689A010E
S31520003B30BB681B061A437B681B0705491343C1F85C
S31520003B40883000BF1437BD465DF8047B704700BF40
S31520003B500038024080B483B000AF0346FB71044AAC
S31520003B60FB79136000BF0C37BD465DF8047B7047B8
S31520003B707000474280B483B000AF0346FB71044A0D
S31520003B80FB79136000BF0C37BD465DF8047B704798
S31520003B904C00474280B485B000AF7860396000237E
S31520003BA0FB600B4B9B68FB60FB6823F0EC63FB60C0
S31520003BB07A683B681343FA681343FB60044AFB6840
S31520003BC0936000BF1437BD465DF8047B704700BF85
S31520003BD00038024080B485B000AF78603960002399
S31520003BE0FB600B4B9B68FB60FB6823F07843FB6014
S31520003BF07A683B681343FA681343FB60044AFB6800
S31520003C00936000BF1437BD465DF8047B704700BF44
S31520003C100038024080B485B000AF78600023FB6096
S31520003C20094B9B68FB60FB6823F00303FB60FA6883
S31520003C307B681343FB60044AFB68936000BF14371C
S31520003C40BD465DF8047B70470038024080B400AF63
S31520003C50054B9B68DBB203F00C03DBB21846BD466E
S31520003C605DF8047B704700BF0038024080B485B001
S31520003C7000AF78600023FB60094B9B68FB60FB6804
S31520003C8023F0F003FB60FA687B681343FB60044A69
S31520003C90FB68936000BF1437BD465DF8047B704710
S31520003CA00038024080B485B000AF78600023FB6006
S31520003CB0094B9B68FB60FB6823F4E053FB60FA68C2
S31520003CC07B681343FB60044AFB68936000BF14378C
S31520003CD0BD465DF8047B70470038024080B485B04D
S31520003CE000AF78600023FB600A4B9B68FB60FB6893
S31520003CF023F46043FB607B68DB00FA681343FB60B8
S31520003D00044AFB68936000BF1437BD465DF8047B08
S31520003D10704700BF0038024080B489B000AF786099
S31520003D200023BB6100237B610023FB6102233B61EF
S31520003D300023FB600223BB604A4B9B6803F00C0305
S31520003D40BB61BB69082B11D0BB69082B44D8BB6962
S31520003D50002B03D0BB69042B04D03DE07B68424A8C
S31520003D601A603DE07B68414A1A6039E03D4B5B684A
S31520003D709B0D03F00103FB603A4B5B6803F03F03A6
S31520003D80BB60FB68002B0CD0384ABB68B2FBF3F350
S31520003D90344A52689209C2F3080202FB03F3FB611C
S31520003DA00BE0314ABB68B2FBF3F32E4A5268920904
S31520003DB0C2F3080202FB03F3FB612A4B5B681B0C70
S31520003DC003F0030301335B003B61FA693B69B2FBF5
S31520003DD0F3F27B681A6003E07B68234A1A6000BF0F
S31520003DE0204B9B6803F0F003BB61BB691B09BB61D9
S31520003DF01F4ABB6913441B78DBB27B617B681A6858
S31520003E007B69DA407B685A60164B9B6803F4E05363
S31520003E10BB61BB699B0ABB61154ABB6913441B780E
S31520003E20DBB27B617B685A687B69DA407B689A6083
S31520003E300C4B9B6803F46043BB61BB695B0BBB61A6
S31520003E400B4ABB6913441B78DBB27B617B685A68DB
S31520003E507B69DA407B68DA6000BF2437BD465DF8AF
S31520003E60047B7047003802400024F40000127A00D8
S31520003E70308E002080B485B000AF78600023FB60D0
S31520003E807B6803F44073B3F5407F11D10F4B9B68D9
S31520003E90FB60FB6823F4F813FB607B6823F0704318
S31520003EA023F44073FA681343FB60084AFB68936067
S31520003EB0064B1A6F7B68C3F30B03044913430B6746
S31520003EC000BF1437BD465DF8047B704700380240BA
S31520003ED080B483B000AF0346FB71044AFB791360BC
S31520003EE000BF0C37BD465DF8047B70473C0E474249
S31520003EF080B483B000AF0346FB71044AFB7913609C
S31520003F0000BF0C37BD465DF8047B7047400E474224
S31520003F1080B483B000AF7860044A7B68136000BF2A
S31520003F200C37BD465DF8047B704700BF5C014742F5
S31520003F3080B485B000AF78600023FB600B4BD3F8CC
S31520003F408C30FB60FB6823F01F03FB607B68013B22
S31520003F50FA681343FB60054AFB68C2F88C3000BF41
S31520003F601437BD465DF8047B704700BF0038024019
S31520003F7080B485B000AF78600023FB600B4BD3F88C
S31520003F808C30FB60FB6823F4F853FB607B68013BB5
S31520003F901B02FA681343FB60044AFB68C2F88C30A4
S31520003FA000BF1437BD465DF8047B704700380240D9
S31520003FB080B485B000AF78600023FB600A4BD3F84D
S31520003FC08C30FB60FB6823F44013FB60FA687B6847
S31520003FD01343FB60044AFB68C2F88C3000BF1437D9
S31520003FE0BD465DF8047B70470038024080B485B03A
S31520003FF000AF78600023FB600A4BD3F88C30FB605F
S31520004000FB6823F44003FB60FA687B681343FB607C
S31520004010044AFB68C2F88C3000BF1437BD465DF8F1
S31520004020047B70470038024080B485B000AF7860CA
S315200040300023FB600A4BD3F88C30FB60FB6823F42B
S315200040404033FB60FA687B681343FB60044AFB68D5
S31520004050C2F88C3000BF1437BD465DF8047B70472C
S315200040600038024080B483B000AF7860044A7B6891
S31520004070136000BF0C37BD465DF8047B704700BF58
S31520004080E011474280B483B000AF78600B46FB70E6
S31520004090FB78002B06D00A4B1A6B09497B68134321
S315200040A00B6306E0064B1A6B7B68DB43044913401F
S315200040B00B6300BF0C37BD465DF8047B704700BF1D
S315200040C00038024080B483B000AF78600B46FB70A6
S315200040D0FB78002B06D00A4B5A6B09497B681343A1
S315200040E04B6306E0064B5A6B7B68DB43044913405F
S315200040F04B6300BF0C37BD465DF8047B704700BF9D
S315200041000038024080B483B000AF78600B46FB7065
S31520004110FB78002B06D00A4B9A6B09497B68134320
S315200041208B6306E0064B9A6B7B68DB43044913409E
S315200041308B6300BF0C37BD465DF8047B704700BF1C
S315200041400038024080B483B000AF78600B46FB7025
S31520004150FB78002B06D00A4B1A6C09497B6813435F
S315200041600B6406E0064B1A6C7B68DB43044913405C
S315200041700B6400BF0C37BD465DF8047B704700BF5B
S315200041800038024080B483B000AF78600B46FB70E5
S31520004190FB78002B06D00A4B5A6C09497B681343DF
S315200041A04B6406E0064B5A6C7B68DB43044913409C
S315200041B04B6400BF0C37BD465DF8047B704700BFDB
S315200041C00038024080B483B000AF78600B46FB70A5
S315200041D0FB78002B06D00A4B1A6909497B681343E2
S315200041E00B6106E0064B1A697B68DB4304491340E2
S315200041F00B6100BF0C37BD465DF8047B704700BFDE
S315200042000038024080B483B000AF78600B46FB7064
S31520004210FB78002B06D00A4B5A6909497B68134361
S315200042204B6106E0064B5A697B68DB430449134021
S315200042304B6100BF0C37BD465DF8047B704700BF5D
S315200042400038024080B483B000AF78600B46FB7024
S31520004250FB78002B06D00A4B9A6909497B681343E1
S315200042608B6106E0064B9A697B68DB430449134061
S315200042708B6100BF0C37BD465DF8047B704700BFDD
S315200042800038024080B483B000AF78600B46FB70E4
S31520004290FB78002B06D00A4B1A6A09497B68134320
S315200042A00B6206E0064B1A6A7B68DB43044913401F
S315200042B00B6200BF0C37BD465DF8047B704700BF1C
S315200042C00038024080B483B000AF78600B46FB70A4
S315200042D0FB78002B06D00A4B5A6A09497B681343A0
S315200042E04B6206E0064B5A6A7B68DB43044913405F
S315200042F04B6200BF0C37BD465DF8047B704700BF9C
S315200043000038024080B483B000AF78600B46FB7063
S31520004310FB78002B06D00A4B1A6D09497B6813439C
S315200043200B6506E0064B1A6D7B68DB430449134098
S315200043300B6500BF0C37BD465DF8047B704700BF98
S315200043400038024080B483B000AF78600B46FB7023
S31520004350FB78002B06D00A4B5A6D09497B6813431C
S315200043604B6506E0064B5A6D7B68DB4304491340D8
S315200043704B6500BF0C37BD465DF8047B704700BF18
S315200043800038024080B483B000AF78600B46FB70E3
S31520004390FB78002B06D00A4B9A6D09497B6813439C
S315200043A08B6506E0064B9A6D7B68DB430449134018
S315200043B08B6500BF0C37BD465DF8047B704700BF98
S315200043C00038024080B483B000AF78600B46FB70A3
S315200043D0FB78002B06D00A4B1A6E09497B681343DB
S315200043E00B6606E0064B1A6E7B68DB4304491340D6
S315200043F00B6600BF0C37BD465DF8047B704700BFD7
S315200044000038024080B483B000AF78600B46FB7062
S31520004410FB78002B06D00A4B5A6E09497B6813435A
S315200044204B6606E0064B5A6E7B68DB430449134015
S315200044304B6600BF0C37BD465DF8047B704700BF56
S315200044400038024080B483B000AF03460A46FB71B1
S315200044501346BB71BB79002B08D00C4B1B78DAB204
S315200044600A49FB791343DBB20B7009E0074B1B7833
S31520004470DAB2FB79DB43DBB204491340DBB20B70C3
S3152000448000BF0C37BD465DF8047B70470D380240EF
S3152000449080B487B000AF0346FB710023FB60002386
S315200044A07B610023FB74FB795B09DBB2FB60FB6855
S315200044B0012B03D1124B1B687B6109E0FB68022BA1
S315200044C003D10F4B1B6F7B6102E00D4B5B6F7B6152
S315200044D0FB7903F01F03FB607A69FB6822FA03F37A
S315200044E003F00103002B02D00123FB7401E000231B
S315200044F0FB74FB7C18461C37BD465DF8047B704771
S315200045000038024080B400AF054B5B6F044A43F08D
S315200045108073536700BFBD465DF8047B704700BFBC
S315200045200038024080B485B000AF0346FB710023FB
S31520004530FB73094BDA68FB791340002B02D0012369
S31520004540FB7301E00023FB73FB7B18461437BD4643
S315200045505DF8047B704700BF0038024080B483B00A
S3152000456000AF0346FB71044AFB79137000BF0C377A
S31520004570BD465DF8047B70470E38024080B586B094
S3152000458000AF7860396007F108031A4616491748C4
S31520004590FEF7A4F9164B1A4616491748FEF79EF958
S315200045A007F1080303331A4612491348FEF796F912
S315200045B03B7A7B61114B1A460E490F48FEF78EF95E
S315200045C07A690C490C48FEF789F97B681B6D012B2B
S315200045D006D107F108031A4609490A48FEF77EF96B
S315200045E000BF1837BD4680BDF9550020B89B002076
S315200045F0408E0020F334002098970020548E00200F
S31520004600653100200820012080B5C2B002AF786055
S3152000461007F58073A3F580731960B74B1A46B7491F
S31520004620B748FEF75BF907F58073A3F580731A6820
S31520004630B449B348FEF752F9B34B1A46AF49B048CE
S31520004640FEF74CF907F58073A3F580731B682D3BA5
S315200046502D2B00F22C8501A252F823F015470020BD
S31520004660AF500020AF5000201547002015470020EE
S315200046701547002015470020154700201547002024
S315200046801547002015470020154700201547002014
S31520004690AF500020AF500020AF500020AF50002078
S315200046A0AF500020AF500020AF500020AF50002068
S315200046B0AF500020AF500020F14F00201F4E0020A9
S315200046C0AF5000203549002043480020AF5000203D
S315200046D0AF50002051470020AF500020D54A00207F
S315200046E0AF500020AF500020AF500020AF50002028
S315200046F0AF500020AF5000201F4D0020AF500020AB
S31520004700EB490020314F00205B4B0020AF500020AA
S315200047106D4C00207B689B6807F58072A2F580723D
S315200047201268D1B27A6813440A4683F857207B6808
S315200047309B68591C7A68916007F58072A2F5807291
S315200047401268D1B27A6813440A465A7300F0B2BC92
S315200047507B689B687A68134400225A737B689B683F
S315200047607A681344002283F857207B689B68DAB264
S315200047707B6883F856207B68362283F854207B6832
S3152000478000229A607B680D33184603F065FC0246CA
S315200047907B681A647B681B6D002B49D17B681B6C78
S315200047A01A465A495A48FEF799F802467B681B6C06
S315200047B09A4213D1002257495548FEF78FF80346EF
S315200047C007F10C00544AC82103F012FC07F10C0330
S315200047D01A464A494A48FEF781F829E04F4B1A46BD
S315200047E046494748FEF77AF807F10C00052300935F
S315200047F06FF004034A4AC82103F0FAFB07F10C03C1
S315200048001A463E493E48FEF769F80022414940488B
S31520004810FEF764F8034607F10C00424AC82103F06C
S31520004820E7FB07F10C031A4634493548FEF756F8DC
S315200048307B6854331A463C493C48FEF74FF800F053
S3152000484039BC7B689B687A68134400225A737B685C
S3152000485000229A6000222F492D48FEF73FF8024693
S315200048607B681A647B681B6C0133C7F8EC30D7F879
S31520004870EC30052B19DCD7F8EC2024492448FEF728
S315200048802DF802467B681A647B681B6C07F10C00C6
S31520004890214AC82103F0ACFB07F10C031A4617493D
S315200048A01748FEF71BF800F005BC1C4B1A461349A7
S315200048B01348FEF713F807F10C00052300936FF059
S315200048C00403174AC82103F093FB07F10C031A4689
S315200048D00A490B48FEF702F87B681B6C07F10C00AF
S315200048E0134AC82103F084FB07F10C031A46034937
S315200048F00348FDF7F3FFDDE3648E0020F334002048
S3152000490098970020493500206C8E0020DB36002049
S31520004910D0960020C1360020708E0020808E002088
S315200049209C8E0020C88E0020C3560020B89B0020F5
S31520004930DC8E00207B689B687A68134400225A73B9
S315200049407B6800229A600022B049B148FDF7C6FF75
S3152000495002467B681A647B681B6C013BC7F8E8300B
S31520004960D7F8E83013F1050F18DBD7F8E820A94966
S31520004970A748FDF7B3FF02467B681A647B681B6C69
S3152000498007F10C00A44AC82103F032FB07F10C03FF
S315200049901A46A249A248FDF7A1FF8BE3A14B1A466E
S315200049A09E499F48FDF79AFF07F10C0005230093C7
S315200049B06FF004039C4AC82103F01AFB07F10C038D
S315200049C01A4696499648FDF789FF7B681B6C07F1C6
S315200049D00C00964AC82103F00BFB07F10C031A467C
S315200049E08E498F48FDF77AFF64E37B689B687A6877
S315200049F0134400225A737B6800229A607B680D3329
S31520004A00184603F029FBC7F8F000D7F8F030002B42
S31520004A1019D1874B1A4681498148FDF75FFF00224D
S31520004A2084498548FDF75AFF034607F10C00834A5F
S31520004A30C82103F0DDFA07F10C031A4677497848B6
S31520004A40FDF74CFF36E3D7F8F030052B18DCD7F806
S31520004A50F030002B14DDD7F8F02079497648FDF7A1
S31520004A603DFF034607F10C00764AC82103F0C0FA41
S31520004A7007F10C031A4669496948FDF72FFF19E328
S31520004A80714B1A4665496648FDF728FF07F10C0069
S31520004A90052300930123644AC82103F0A9FA07F1EC
S31520004AA00C031A465D495E48FDF718FF002261494E
S31520004AB06148FDF713FF034607F10C00634AC8213E
S31520004AC003F096FA07F10C031A4654495448FDF7A9
S31520004AD005FFEFE27B689B687A68134400225A73CD
S31520004AE07B6800229A607B68DB6C002B0CBF01235D
S31520004AF00023DBB21A467B68DA647B68DB6C1A46D5
S31520004B0053494D48FDF7EAFE7B68DB6C012B0FD13C
S31520004B10012250494848FDF7E1FE0346002B40F0AC
S31520004B20C8824D4B1A463D493D48FDF7D7FEC0E2A7
S31520004B307B68DB6C002B40F0BC82002247493E4854
S31520004B40FDF7CCFE0346002B40F3B382444B1A46B6
S31520004B5032493348FDF7C2FEABE27B689B687A6830
S31520004B60134400225A737B6800229A60002231493E
S31520004B703148FDF7B3FE02467B685A647B685B6C5E
S31520004B800133C7F8F830D7F8F830052B18DCD7F8FA
S31520004B90F8202B492848FDF7A1FE02467B685A6477
S31520004BA07B685B6C07F10C00264AC82103F020FACB
S31520004BB007F10C031A4619491948FDF78FFE79E2C9
S31520004BC0284B1A4615491648FDF788FE07F10C00B2
S31520004BD0052300930123144AC82103F009FA07F19B
S31520004BE00C031A460D490E48FDF778FE7B685B6C70
S31520004BF007F10C001C4AC82103F0FAF907F10C034F
S31520004C001A4606490648FDF769FE53E2C1360020DA
S31520004C10D0960020DB360020708E0020F334002052
S31520004C2098970020808E00209C8E0020DC8E00200D
S31520004C30F08E00206D570020309C0020048F00202D
S31520004C4095570020188F00202C8F00204C8F002095
S31520004C50E357002019580020648F00205758002061
S31520004C60748F0020888F0020A88F00207B689B6887
S31520004C707A68134400225A737B6800229A600022C5
S31520004C8097499848FDF72AFE02467B685A647B6856
S31520004C905B6C013BC7F8FC30D7F8FC30002B18DDE5
S31520004CA0D7F8FC2090498F48FDF718FE02467B680E
S31520004CB05A647B685B6C07F10C008C4AC82103F0B0
S31520004CC097F907F10C031A4689498A48FDF706FE2B
S31520004CD0F0E1894B1A4686498648FDF7FFFD07F124
S31520004CE00C00052300930123844AC82103F080F990
S31520004CF007F10C031A467E497E48FDF7EFFD7B68D7
S31520004D005B6C07F10C007E4AC82103F071F907F1AC
S31520004D100C031A4676497748FDF7E0FDCAE17B6821
S31520004D209B687A68134400225A737B6800229A6033
S31520004D307B680D33184603F08FF902467B689A6428
S31520004D407B689B6C002B19D16E4B1A4668496948C3
S31520004D50FDF7C4FD00226C496C48FDF7BFFD0346F4
S31520004D6007F10C006A4AC82103F042F907F10C0347
S31520004D701A465F495F48FDF7B1FD9BE17B689B6C56
S31520004D801A4664496148FDF7A9FD02467B689B6C7B
S31520004D909A421AD100225C495C48FDF79FFD0346E2
S31520004DA007F10C005C4AC82103F022F97B689B6C52
S31520004DB01A465A494B48FDF791FD07F10C031A464E
S31520004DC04B494C48FDF78AFD74E1554B1A46484934
S31520004DD04848FDF783FD07F10C00F02300933C23A0
S31520004DE0464AC82103F004F907F10C031A46404944
S31520004DF04048FDF773FD002243494448FDF76EFD08
S31520004E00034607F10C00474AC82103F0F1F807F1E1
S31520004E100C031A4636493748FDF760FD4AE17B68A0
S31520004E209B687A68134400225A737B6800229A6032
S31520004E30002235493548FDF751FD02467B689A64C4
S31520004E407B689B6C0A33C7F8E430D7F8E430F02B44
S31520004E501FDCD7F8E4202F492C48FDF73FFD0246FA
S31520004E607B689A647B689B6C1A462C491D48FDF723
S31520004E7035FD7B689B6C07F10C00274AC82103F09F
S31520004E80B7F807F10C031A4619491A48FDF726FD0B
S31520004E9010E1254B1A4616491648FDF71FFD07F166
S31520004EA00C00F02300933C23144AC82103F0A0F8F9
S31520004EB007F10C031A460E490E48FDF70FFD7B68D5
S31520004EC09B6C07F10C00194AC82103F091F807F1F1
S31520004ED00C031A4606490748FDF700FDEAE000BF25
S31520004EE06D570020309C002095570020188F0020F9
S31520004EF0F3340020989700202C8F00209C8E0020D1
S31520004F00A88F0020C08F002059360020D096002080
S31520004F10D48F002073360020E88F00209D58002073
S31520004F20F88F0020189000202C9000204890002018
S31520004F307B689B687A68134400225A737B68002238
S31520004F409A6000225E495F48FDF7C8FC02467B68EE
S31520004F509A647B689B6C0A3BC7F8F430D7F8F43028
S31520004F603B2B1FDDD7F8F42057495648FDF7B6FCF2
S31520004F7002467B689A647B689B6C1A465349544860
S31520004F80FDF7ACFC7B689B6C07F10C00514AC821ED
S31520004F9003F02EF807F10C031A464F494F48FDF748
S31520004FA09DFC87E04E4B1A464B494C48FDF796FC34
S31520004FB007F10C00F02300933C234A4AC82103F052
S31520004FC017F807F10C031A4643494448FDF786FCB7
S31520004FD07B689B6C07F10C00434AC82103F008F854
S31520004FE007F10C031A463C493C48FDF777FC61E083
S31520004FF000223E493348FDF771FCC7F8E000002245
S315200050003B493348FDF76AFCC7F8DC0000223949E2
S315200050102F48FDF763FCC7F8D800002236492948F7
S31520005020FDF75CFCC7F8D400344B1A462A492B48B6
S31520005030FDF754FC07F10C00D7F8E030304AC821C0
S3152000504002F0D6FF07F10C031A4623492348FDF741
S3152000505045FC07F10C00D7F8DC302A4AC82102F0BB
S31520005060C7FF07F10C031A461B491C48FDF736FCFF
S3152000507007F10C00D7F8D830234AC82102F0B8FF30
S3152000508007F10C031A4614491448FDF727FC07F1CB
S315200050900C00D7F8D4301D4AC82102F0A9FF07F129
S315200050A00C031A460C490D48FDF718FC02E000BF18
S315200050B000E000BF00BF07F58077BD4680BD00BF7A
S315200050C059360020D0960020733600209D580020A7
S315200050D0309C0020E88F0020F33400209897002091
S315200050E02C9000209C8E002048900020B138002073
S315200050F0455900205F590020713800205C9000201F
S315200051008490002094900020B4900020D490002019
S3152000511080B588B002AF7860396000230093564B83
S31520005120564A00210020FDF73BFB00230093544BF9
S31520005130544A00210020FDF733FB002252495348F0
S31520005140FDF7CCFB002252495248FDF7C7FB524BD4
S315200051501A4652494F48FDF7C1FB514B1A464F4953
S315200051604C48FDF7BBFB4F4B1A464C494948FDF7C7
S31520005170B5FB4D4B1A4649494648FDF7AFFB4B4B0D
S315200051801A4646494348FDF7A9FB494B1A46434967
S315200051904048FDF7A3FB474B1A4640493D48FDF7DB
S315200051A09DFB454B1A463D493A48FDF797FB434B35
S315200051B01A463A493748FDF791FB414B1A4637497B
S315200051C03448FDF78BFB3F4B1A4634493148FDF7EF
S315200051D085FB3D4B1A4631492E48FDF77FFB3B4B5D
S315200051E01A462E492B48FDF779FB394B1A462B498F
S315200051F02848FDF773FB324B1A4628492548FDF708
S315200052006DFB344B1A4625492248FDF767FB324B86
S315200052101A4622491F48FDF761FB304B1A461F49A3
S315200052201C48FDF75BFB2E4B1A461C491948FDF717
S3152000523055FB234B1A4619491648FDF74FFB2823E1
S315200052403B7301237B730623BB734823FB736523C0
S315200052503B746C237B746C23BB746F23FB74002319
S315200052603B7507F10C031A461E490848FDF736FB25
S3152000527000BF1837BD4680BDD7580020309C00207F
S315200052803B370020D0960020B1530020B89B002049
S315200052904D34002098970020E8900020F334002019
S315200052A0FC9000201C910020609100207891002025
S315200052B0B8910020DC910020049200202C9200203E
S315200052C05492002098920020AC920020F092002068
S315200052D014930020389300205093002098930020A8
S315200052E0C0930020C356002080B500AF0022084995
S315200052F00848FDF7E7FC012207490848FDF7E2FCCC
S31520005300002207490748FDF743FD0023184680BDC4
S315200053107F3500209897002071540020B89B0020EC
S3152000532011510020EC96002080B483B000AF0346D4
S31520005330FB71FB7903F01F03012202FA03F1064AEF
S3152000534097F907305B0942F8231000BF0C37BD469A
S315200053505DF8047B704700BF00E100E080B483B0B5
S3152000536000AF03463960FB7197F90730002B0BDA43
S315200053703B68DAB20C49FB7903F00F03043B1201B8
S31520005380D2B20B441A7609E03B68DAB2074997F99C
S3152000539007301201D2B20B4483F8002300BF0C372A
S315200053A0BD465DF8047B704700ED00E000E100E0BB
S315200053B080B586B000AF786039607B6800229A613C
S315200053C07B689A697B685A617B685A697B68DA616F
S315200053D02248FCF7ABFD07F10C031846FBF788F9CA
S315200053E00023BB740023FB7400233B7500237B75CD
S315200053F00023BB750023FB750023BB730023FB73BF
S3152000540002233B7403237B740723BB8107F10C0320
S3152000541019461348FAF7D8FF0346002B02D1114844
S31520005420FCF784FD07F10C0319460F48FAF7CCFF69
S315200054300346002B02D10D48FCF778FD02211420EB
S31520005440FFF78CFF1420FFF76FFF0122022104488B
S31520005450FBF78CFD00BF1837BD4680BDE8930020C2
S31520005460006400401094002000680040289400202A
S31520005470B0B58AB002AF786039607B689B685A49BC
S315200054801846FBF791FD0346012B02D05748FCF73F
S315200054904DFD7B68DB69072B00F39E807B689B684C
S315200054A007F1080200211846FBF766FBBB681B09BB
S315200054B0DBB27A68526903F07F03D8B27968134663
S315200054C09B0013445B0013440B44203302461A709E
S315200054D0BB68DBB27A68526903F00F03D8B27968E9
S315200054E013469B0013445B0013440B4421330246AE
S315200054F01A70BB7C7A68526903F00F03D8B27968B8
