S01600002E2F44656275672F5254532D4C61622E73313936
S3152000000000BFDFF814D000F0CAFC04F011FB00F0AA
S31520000010D8BCFEE700BF000000C0012080B483B03A
S3152000002000AF786039607B681B7A18460C37BD466E
S315200000305DF8047B704780B483B000AF7860396088
S315200000403B683B2B08DD3B68F02B05DC3B68DAB2CE
S315200000507B681A723B6805E07B681A7A7B681A729D
S315200000604FF0FF3318460C37BD465DF8047B7047CA
S3152000007080B483B000AF786039607B68DB6818464F
S315200000800C37BD465DF8047B704780B483B000AF63
S31520000090786039603B6813F1050F07DB3B68052B59
S315200000A004DC7B683A68DA603B6804E07B68DA68DF
S315200000B07B68DA60062318460C37BD465DF8047B5C
S315200000C07047000080B483B000AF0346FB71FB7914
S315200000D003F01F03012202FA03F1064A97F90730BB
S315200000E05B0942F8231000BF0C37BD465DF8047B40
S315200000F0704700BF00E100E080B483B000AF034644
S315200001003960FB7197F90730002B0BDA3B68DAB2BE
S315200001100C49FB7903F00F03043B1201D2B20B44C6
S315200001201A7609E03B68DAB2074997F907301201D7
S31520000130D2B20B4483F8002300BF0C37BD465DF8CE
S31520000140047B704700ED00E000E100E080B582B05E
S3152000015000AF786039607B6800229A617B689A6973
S315200001607B685A617B685A697B68DA61012240F2B2
S3152000017025510A4806F09EF9002240F227710748C9
S3152000018006F098F902212520FFF7B6FF2520FFF774
S3152000019099FF00BF0837BD4680BD00BF0010014053
S315200001A080B483B000AF78600B46FB707B68DB6958
S315200001B0B3F5806F17DA7B685B697A681344FA783F
S315200001C083F820207B685B6901335A42C3F3090315
S315200001D0C2F3090258BF53427A6853617B68DB69D0
S315200001E05A1C7B68DA6100BF0C37BD465DF8047B7C
S315200001F0704780B582B000AF786039607B68DB6974
S31520000200002B18D17B689B68012240F22771184683
S3152000021006F050F90FE03B681B780A2B03D10D211D
S315200002207868FFF7BDFF3B685A1C3A601B78194671
S315200002307868FFF7B5FF3B681B78002BEBD100BF32
S3152000024000BF0837BD4680BD80B582B000AF78605C
S3152000025039607B68DB69002B07D17B689B680122AC
S3152000026040F22771184606F025F93B68DBB219469D
S315200002707868FFF795FF00BF0837BD4680BD80B57B
S3152000028086B002AF786039607B689B68202118466B
S3152000029006F058F90346012B18D17B689B6818464F
S315200002A005F073FF0346FB607B68DB68002B0DD0EF
S315200002B07B68DA687B681969FB6800930B46002126
S315200002C0002001F031FA234B01221A607B689B68DB
S315200002D08021184606F036F90346012B35D17B6876
S315200002E0DB69002B29DD7B6898687B689B697A68C7
S315200002F0134493F820309BB2194605F034FF7B68EF
S315200003009B6901335A42C3F30903C2F3090258BF5A
S3152000031053427A6893617B68DB695A1E7B68DA618F
S315200003207B68DB69002B10D17B689B68002240F23A
S315200003302771184606F0BEF807E07B689B68002206
S3152000034040F22771184606F0B5F8002318461037F4
S31520000350BD4680BD9098002080B483B000AF786001
S3152000036039607B681B7A18460C37BD465DF8047BDE
S31520000370704780B483B000AF786039603B68002B4B
S3152000038008DD3B68142B05DC3B68DAB27B681A7201
S315200003903B6805E07B681A7A7B681A724FF0FF3358
S315200003A018460C37BD465DF8047B704780B483B091
S315200003B000AF786039607B681B7A002B04D17B689C
S315200003C05A7A7B681A7206E07B681A7A7B685A72B8
S315200003D07B6800221A727B681B7A18460C37BD464A
S315200003E05DF8047B704780B483B000AF78603960D5
S315200003F07B683A68DA6000BF0C37BD465DF8047B3F
S31520000400704780B483B000AF786039603B68DAB259
S315200004107B689A7200BF0C37BD465DF8047B704737
S3152000042080B487B000AF786039607B68DB6803F101
S315200004300A027B689B69174951F8233013447B6174
S31520000440154A7B69DB0013445A687B681A617B680E
S315200004509B69124A52F823307A68927A02FB03F398
S31520000460DA0F13445B103B614EF660223B6992FB28
S31520000470F3F3FB60FB68323BBB60BB68642202FB84
S3152000048003F27B685A6100BF1C37BD465DF8047BCA
S31520000490704700BF4088002040890020C088002087
S315200004A080B582B000AF786039607B681C3318460F
S315200004B001F0D6FA02467B68DA6200BF0837BD46ED
S315200004C080BD80B584B002AF78603960002178683D
S315200004D0FFF7E6FF3B68002B03D1324B00221A6060
S315200004E004E07B681B7A1A462E4B1A602D4B1A683D
S315200004F02D4BD2B21A707B68DA6A7B685B699A42A6
S3152000050014DA7B681B69294A82FB03129210DB17D7
S31520000510D01A3B68002B0CBF01230023DBB20093CB
S31520000520234B7A680A2101F0FFF836E07B685B6985
S3152000053003F59C5307337A68D26A93422DDB7B6896
S315200005409B691F2B05DC7B689B695A1C7B689A611B
S3152000055002E07B6800229A6100230093154B7A689B
S3152000056040F6C411002001F0DFF87B681B690F4AB2
S3152000057082FB03129210DB17D01A002300930C4B38
S315200005807A6841F2883101F0CFF87B681C3318462F
S3152000059001F048FA7B6800225A6300BF0837BD463F
S315200005A080BD00BF809800201C7400406766666688
S315200005B0C30400202104002080B483B000AF7860FB
S315200005C039607B685B6A0A4A82FB03125113DA1789
S315200005D08A1A084901FB02F29A1A13469B00134411
S315200005E05B0018460C37BD465DF8047B704700BF9C
S315200005F089B5F814A086010080B483B000AF786076
S3152000060039607B68DB6A0A4A82FB03125113DA17C8
S315200006108A1A084901FB02F29A1A13469B001344D0
S315200006205B0018460C37BD465DF8047B704700BF5B
S3152000063089B5F814A086010080B483B000AF786035
S3152000064039607B685B6B18460C37BD465DF8047BCA
S31520000650704780B483B000AF786039607B685B698F
S31520000660094A82FB03125113DA178A1A074901FB3A
S3152000067002F29A1A13469B0013445B0018460C3765
S31520000680BD465DF8047B704789B5F814A086010045
S3152000069080B483B000AF786039607B689B69184668
S315200006A00C37BD465DF8047B704700BF80B400AFB1
S315200006B000BFBD465DF8047B704780B586B000AFAD
S315200006C0454804F069FA454805F0E2FF444805F03C
S315200006D0DFFF01214FF0007005F006F901214FF0F0
S315200006E0806005F001F90121022005F09DF809221C
S315200006F00921394804F072FC09220821364804F001
S315200007006DFC07F11003184604F087FB4FF40073C5
S315200007103B6102233B750023BB750023FB75022337
S315200007207B7507F1100319462B4804F0E7FA4FF4BE
S3152000073080733B6102233B750023BB750123FB7548
S3152000074002237B7507F110031946234804F0D6FAD5
S3152000075009220621204804F041FC092205211E48D1
S3152000076004F03CFC40233B6102233B750023BB7510
S315200007700023FB7502237B7507F1100319461648E3
S3152000078004F0BCFA20233B6102233B750023BB7592
S315200007900123FB7502237B7507F1100319460E48CA
S315200007A004F0ACFA0023BB720023FB7201233B73D7
S315200007B000233B8000237B800023BB800023FB801B
S315200007C000233B8101237B733B46184606F055F8F0
S315200007D000BF1837BD4680BD0004024000640040BB
S315200007E00068004080B586B000AF01214FF0005070
S315200007F005F07AF807F11003184604F00EFB2023C3
S315200008003B6103233B750023FB7507F11003194653
S315200008100F4804F073FA00F0DFF83B46184600F064
S315200008201DF900233B6000237B600023FB603B46D1
S315200008301946102000F0DEF80121102000F024F9DE
S315200008400021082000F0CEF900BF1837BD4680BD34
S315200008500000024080B584B000AF01214FF48040F3
S3152000086005F062F80721012007F022F906F0EAFFD9
S315200008703B46184607F072F880233B6000233B7105
S315200008800C237B710123BB713B46184606F0F4FF0F
S3152000089007F10803184604F0C0FA0223BB600123BF
S315200008A03B730123BB730023FB7301237B7307F187
S315200008B008031946184804F021FA0123BB600123D6
S315200008C03B730123BB730023FB7301237B7307F167
S315200008D008031946104804F011FA012202210E4895
S315200008E004F043FB012201210B4804F03EFB802348
S315200008F0BB6000233B730023BB730023FB730123E0
S315200009007B7307F108031946034804F0F7F900BF83
S315200009101037BD4680BD00BF0004024080B483B0BE
S3152000092000AFEFF314833B603B6823F003037B6047
S315200009307B6883F3148800BF094B4FF404725A6115
S31520000940074B5B69064A43F008035361054B4FF09A
S3152000095000425A6000BF0C37BD465DF8047B7047E5
S3152000096000ED00E030EF00E080B500AF0121082067
S3152000097004F0BAFF0121082005F0F6F800BF80BD7B
S3152000098080B400AF124A02E0002342F8043B114B28
S315200009909A42F9D300BFBD465DF8047B704780B507
S315200009A000AFFFF7EDFFFFF781FEFFF786FEFFF7AB
S315200009B019FFFFF74FFFFFF7B1FFFFF7D5FF00BF86
S315200009C080BD80B400AF00BFBD465DF8047B704794
S315200009D080980020101C012080B500AF01214FF027
S315200009E0005005F021F800214FF0005005F01CF8CA
S315200009F000BF80BD80B485B000AF78603960002329
S31520000A00FB600023BB60144B1B68FB6040F6FE7244
S31520000A107B6802FA03F3DB43FA681340FB603B680A
S31520000A201A683B685B681A433B689B681A433B68B5
S31520000A30DB681343BB60BA687B6802FA03F3FA6883
S31520000A401343FB60044AFB68136000BF1437BD469E
S31520000A505DF8047B704700BF0074004080B483B00B
S31520000A6000AF78607B6800221A607B6800225A609B
S31520000A707B6800229A607B680022DA6000BF0C3710
S31520000A80BD465DF8047B704780B483B000AF7860C4
S31520000A900B46FB70FB78002B09D00D4B1A68012101
S31520000AA07B6801FA03F30A4913430B6009E0084BFC
S31520000AB01A6801217B6801FA03F3DB4304491340DA
S31520000AC00B6000BF0C37BD465DF8047B704700BF46
S31520000AD00074004080B483B000AF78600B46FB7092
S31520000AE0FB78002B0AD00E4B5A687B681B09012124
S31520000AF001FA03F30A4913434B600AE0084B5A688C
S31520000B007B681B09012101FA03F3DB4304491340E7
S31520000B104B6000BF0C37BD465DF8047B704700BFB5
S31520000B200074004080B483B000AF0346FB71FB79AC
S31520000B30002B06D0094B5B68084A43F00303536039
S31520000B4005E0064B5B68054A23F00303536000BFAC
S31520000B500C37BD465DF8047B704700BF007400402B
S31520000B6080B485B000AFF860B9601346FB71FB799D
S31520000B70002B09D00C4B1A68B968FB6801FA03F3FD
S31520000B80094913430B6009E0074B1A68B968FB68EB
S31520000B9001FA03F3DB43044913400B6000BF14370B
S31520000BA0BD465DF8047B70470074004080B485B074
S31520000BB000AF78600B467B800023FB60084BFB6010
S31520000BC0FA687B6813440833FB60FB681A467B8807
S31520000BD0136000BF1437BD465DF8047B704700BF25
S31520000BE00074004080B485B000AF78600B467B80EF
S31520000BF00023FB60084BFB60FA687B6813441433C0
S31520000C00FB60FB681A467B88136000BF1437BD461D
S31520000C105DF8047B704700BF0074004080B485B047
S31520000C2000AF78600B467B8013463B800023FB6039
S31520000C300023BB607B68082B05D17B881A023B8882
S31520000C401343FB6004E07B881A043B881343FB6054
S31520000C50074BBB607A68BB6813442033BB60BB6814
S31520000C60FA681A6000BF1437BD465DF8047B7047EA
S31520000C700074004080B485B000AF78600023FB602C
S31520000C80084BFB607B689A08FB6813442C33FB6097
S31520000C90FB681B689BB218461437BD465DF8047B7B
S31520000CA0704700BF0074004080B483B000AF786006
S31520000CB00B46FB70FB78002B0AD00E4B1A684FF4BC
S31520000CC080517B6801FA03F30A4913430B600AE05B
S31520000CD0084B1A684FF480517B6801FA03F3DB4313
S31520000CE0044913400B6000BF0C37BD465DF8047BFA
S31520000CF0704700BF0074004080B485B000AFF86034
S31520000D00B9601346FB71FB79002B09D00C4B1A688E
S31520000D10B968FB6801FA03F3094913430B6009E03C
S31520000D20074B1A68B968FB6801FA03F3DB430449E9
S31520000D3013400B6000BF1437BD465DF8047B704737
S31520000D400074004080B485B000AF7860396000231D
S31520000D50FB730A4B5A6B39687B6801FA03F313401D
S31520000D60002B02D00123FB7301E00023FB73FB7BE6
S31520000D7018461437BD465DF8047B70470074004062
S31520000D8080B483B000AF7860396006493A687B68E2
S31520000D9002FA03F34B6300BF0C37BD465DF8047BB4
S31520000DA0704700BF0074004080B485B000AF786003
S31520000DB039600023FB730023BB60104B1A68396827
S31520000DC07B6801FA03F31340BB600C4B5A6B3968FE
S31520000DD07B6801FA03F31340002B05D0BB68002B78
S31520000DE002D00123FB7301E00023FB73FB7B184633
S31520000DF01437BD465DF8047B704700BF0074004081
S31520000E0080B483B000AF7860396006493A687B6861
S31520000E1002FA03F34B6300BF0C37BD465DF8047B33
S31520000E20704700BF0074004080B483B000AF034613
S31520000E30FB71FB7903F01F03012202FA03F1064A34
S31520000E4097F907305B0942F8231000BF0C37BD46DF
S31520000E505DF8047B704700BF00E100E080B483B0FA
S31520000E6000AF03463960FB7197F90730002B0BDA88
S31520000E703B68DAB20C49FB7903F00F03043B1201FD
S31520000E80D2B20B441A7609E03B68DAB2074997F9E1
S31520000E9007301201D2B20B4483F8002300BF0C376F
S31520000EA0BD465DF8047B704700ED00E000E100E000
S31520000EB080B582B000AF78600EE07B681B780D2B82
S31520000EC007D07B685A1C7A601B78184600F060F9B8
S31520000ED002E07B6801337B607B681B78002BECD1BA
S31520000EE000BF00BF0837BD4680BD80B586B000AFC5
S31520000EF0786000237B617B6803F00F027B69591CB5
S31520000F00796110498A5C07F118010B4403F80C2C0F
S31520000F107B681B097B607B68002BECD10AE07B6930
S31520000F20013B7B6107F10C027B6913441B78184651
S31520000F3000F02EF97B69002BF1D100BF00BF1837D6
S31520000F40BD4680BD3892002080B59EB000AF786047
S31520000F507B68002B02DA4FF0FF3300E001233B676A
S31520000F607B683A6F02FB03F37B6000237B6779681B
S31520000F701C4B83FB01239A10CB17D21A13469B00D6
S31520000F8013445B00CA1A7B6F591C796716498A5C21
S31520000F9007F178010B4403F86C2C7B68114A82FB1D
S31520000FA003129210DB17D31A7B607B68002BDED1ED
S31520000FB03B6F002B0EDA2D2000F0EAF80AE07B6F5B
S31520000FC0013B7B6707F10C027B6F13441B781846A5
S31520000FD000F0DEF87B6F002BF1D100BF00BF783721
S31520000FE0BD4680BD676666663892002080B483B0B1
S31520000FF000AF10237B607B6883F3118800BF00BF9E
S315200010000C37BD465DF8047B704780B483B000AFD3
S3152000101030237B607B6883F3118800BF00BF0C37C9
S31520001020BD465DF8047B704780B584B000AF78601C
S315200010300B48FFF73DFF0B4B1B68002B02D1094BDA
S31520001040094A1A60074B1B68FB60064B1A687B68C7
S315200010501344044A1360FB6818461037BD4680BD0A
S31520001060088A0020F89B0020101C012080B485B03F
S3152000107000AF786039603B6803F5F95310337A681E
S3152000108013607B681B68BB600023FB600AE0FB687B
S315200010909B001A46BB6813441A4600231360FB685C
S315200010A00133FB60FB68332BF1DDBB686FF0160262
S315200010B01A60BB6804331A4603231360BB68843363
S315200010C01A464FF08073136000BF1437BD465DF893
S315200010D0047B704780B485B000AF786039607B6848
S315200010E01B688033FB60FB683A681A6000BF1437C0
S315200010F0BD465DF8047B704780B584B000AF1D48BF
S3152000110000F03CFE3B1D184600F084FF40F24733BA
S31520001110BB803B1D1946174800F010FF164B174A97
S315200011201A6002216FF00100FFF798FE144B154A52
S315200011301A6000216FF00400FFF790FE124B134A4D
S315200011401A6002213220FFF789FE3220FFF76CFE5B
S315200011500021084800F0A8FF0121064801F071F897
S3152000116001220221034802F040F800BF1037BD4695
S3152000117080BD00BF000C004038C00120A94A0020D5
S315200011802CC00120A54A002008C1012017150020E7
S3152000119080B582B000AF0346FB71FB799BB219463E
S315200011A0074804F0E0FF00BF8021054805F0CAF992
S315200011B00346002BF8D000BF00BF0837BD4680BDD0
S315200011C00010014080B500AF124800F089FF0346A9
S315200011D01A46114B1A60114B01221A60104B00223D
S315200011E01A60104B1B68002B06D00E4B1B680E4A4C
S315200011F01268002110469847084B00221A60084BB7
S315200012001B68002B01D000F05DFA054B00221A6006
S3152000121000BF80BD000C0040949800208C980020D0
S315200012209098002008990020A898002080B500AF4B
S31520001230124800F055FF03461A46114B1A60114B0F
S3152000124001221A60104B00221A60104B5B68002B9B
S3152000125006D00E4B5B680E4A52680121104698470D
S31520001260084B00221A60084B1B68002B01D000F0A7
S3152000127029FA054B00221A6000BF80BD000C0040F1
S31520001280949800208C98002090980020089900209F
S31520001290A898002080B500AF124800F021FF034631
S315200012A01A46114B1A60114B01221A60104B00226C
S315200012B01A60104B9B68002B06D00E4B9B680E4A7B
S315200012C09268022110469847084B00221A60084B64
S315200012D01B68002B01D000F0F5F9054B00221A609F
S315200012E000BF80BD000C0040949800208C98002000
S315200012F09098002008990020A898002080B485B0F6
S3152000130000AF786039600023FB603B681B68BB60D8
S3152000131004E0BB68FB60BB681B68BB60BB68002B36
S3152000132005D0BB689A687B689B689A42F1DD7B682A
S31520001330BA681A60FB68002B03D13B687A681A608A
S3152000134002E0FB687A681A6000BF1437BD465DF874
S31520001350047B704780B485B000AF78603960002385
S31520001360FB603B681B68BB6004E0BB68FB60BB6836
S315200013701B68BB60BB68002B05D0BB685A687B68BE
S315200013805B689A42F1DD7B68BA681A60FB68002BBD
S3152000139003D13B687A681A6002E0FB687A681A60B3
S315200013A000BF1437BD465DF8047B704780B584B016
S315200013B000AF78607B681B68FB60FB68002B04D05D
S315200013C0FB681A687B681A600CE00948FFF770FD15
S315200013D000220221074803F0C8FD0748FFF768FDF1
S315200013E030BFFDE7FB6818461037BD4680BD00BFFD
S315200013F0208A0020000402402C8A002080B584B078
S3152000140000AF78607B681B68FB60FB68002B04D00C
S31520001410FB681A687B681A600CE00948FFF748FDEC
S3152000142000220221074803F0A0FD0748FFF740FDF0
S3152000143030BFFDE7FB6818461037BD4680BD00BFAC
S31520001440208A002000040240388A002080B483B01D
S3152000145000AF786039603B681A687B681A603B6821
S315200014607A681A6000BF0C37BD465DF8047B70476A
S3152000147080B483B000AF786039603B681A687B68B7
S315200014809A603B687A681A6000BF0C37BD465DF8E3
S31520001490047B704780B485B000AF78607B681B689A
S315200014A0FB60FB689A687B681A60FB6818461437ED
S315200014B0BD465DF8047B704780B485B000AF786088
S315200014C039600023FB603B681B68BB6004E0BB6897
S315200014D0FB60BB681B68BB60BB68002B03D0BA6887
S315200014E07B689A42F3D1BB68002B0DD0FB68002B9A
S315200014F004D0BB681A68FB681A6003E0BB681A68E8
S315200015003B681A60012300E0002318461437BD46C5
S315200015105DF8047B704780B582B000AF02211E487B
S3152000152001F0EDFE1C4800F0DBFD03467B6007E082
S315200015301A48FFF73BFF034619491846FFF7DEFE18
S31520001540164B1B68002B06D0144B1B685A687B6809
S31520001550D31A002BECDD114B1B68002B16D00E483E
S3152000156000F0BEFD03463B600C4B1B685B683A6887
S315200015709A4204DD002202210A4803F0F6FC074BBA
S315200015801B685B681946044801F0E9F800F09AF8F0
S3152000159000BF0837BD4680BD000C0040889800205B
S315200015A084980020000402400346024A136010DF9C
S315200015B0F74600BFB49800200346054A1360054B42
S315200015C05B68044A43F080535360F74600BF00BF70
S315200015D0B498002000ED00E080B582B000AF7860BE
S315200015E0094B5B68C3F30803002B03D17868FFF728
S315200015F0DBFF02E07868FFF7DFFFFFF706FD00BF9D
S315200016000837BD4680BD00BF00ED00E090B585B02F
S3152000161000AF234B1C682348FFF7C8FE0346E36050
S31520001620E368BB60FFF7F1FCBB68D868BB68196943
S31520001630BB685B691A4600F015F9FFF7D7FC1A4913
S31520001640B868FFF703FF194B1B689B68DB687B6054
S31520001650144B1B68002B0AD07B68002BD9D0114B6A
S315200016601B689A687B689B68D31A002BD1DD0F48CC
S31520001670FFF710FF03460E491846FFF7F9FE0B4BFE
S315200016801B68FB6003E0FB681B691B68FB60FB684B
S315200016901B69002BF7D1F868FFF79EFFB9E700BF5B
S315200016A058920020849800204C92002054920020CA
S315200016B05092002080B500AF00F004F8FFF7A5FC9B
S315200016C030BFFBE780B582B000AF144B1B68DB68E8
S315200016D07B60134B1B68002B1BD0124B1B68002B07
S315200016E017D07B68002B07D00D4B1B689A687B6848
S315200016F09B68D31A002B0CDA0A48FFF7CBFE034669
S3152000170006491846FFF7B4FE044B1B681846FFF738
S3152000171063FF00BF0837BD4680BD00BF549200203E
S31520001720849800205092002080B588B000AFF860E1
S31520001730B9607A603B60EFF312833B613B691B091A
S31520001740012B14BF01230023DBB2FB77FFF74EFCEE
S315200017503A48FFF753FEB861BB697A68DA60BB691D
S315200017603A681A61BB69BA6A5A61354B1B68002B05
S3152000177004D1344B1B68DB685B6801E0324B1B6885
S31520001780FA681A44BB695A60BB695A68BB68002B61
S3152000179001DDBB6801E06FF000431A44BB699A6023
S315200017A02A4800F09DFC03467B61BB695A687B6929
S315200017B0D31A002B16DD2649B869FFF7CBFD244B3B
S315200017C01B685B687A699A4204DD0022022121485F
S315200017D003F0CBFB1E4B1B685B6819461B4800F0C9
S315200017E0BEFF21E01C49B869FFF788FDFB7F002B6F
S315200017F01AD01A4B1B68002B16D0174B1B689A68F9
S31520001800174B1B68DB689B68D31A002B0CDA13482E
S31520001810FFF740FE034612491846FFF729FE104BF4
S315200018201B681846FFF7D8FEFB7F002B01D0FFF779
S31520001830ECFBBB6918462037BD4680BD4C92002084
S315200018408C9800205892002094980020000C00408C
S31520001850889800200004024084980020509200209E
S315200018605492002080B588B000AFF860B9607A60E5
S31520001870EFF312833B613B691B09012B14BF012344
S315200018800023DBB2FB76FFF7B1FBFB681B68FB612D
S31520001890FB69002B37D003E0FB691B691B68FB61E2
S315200018A0FB691B69002BF7D1304B1B68FA699A42FA
S315200018B002D0FB7E002B07D1FB7E002B01D0FFF749
S315200018C0A4FB4FF0FF334DE0FB685B68002B03D091
S315200018D0FB685B6800221A61244B1A68FB685A6011
S315200018E0224B1B68FA681A61F869FFF775FE1F4BD1
S315200018F01B68DB68002B06D1FB7E002B01D0FFF78F
S3152000190084FB00232EE0194B1A68FB681A60FB7EC5
S31520001910002B05D0FB685B68012B01D0FFF775FB18
S31520001920BB687968F86898477861FFF75FFBFB68C2
S3152000193000221A60FB685B68FB61FB69002B0BD0F9
S31520001940FB69012B08D0FB6800225A60FB69002244
S315200019501A61F869FFF740FEFB7E002B01D0FFF7E6
S3152000196054FB7B6918462037BD4680BD589200201F
S3152000197080B586B000AF7860EFF31283FB60FB681A
S315200019801B09012B14BF01230023DBB2FB74FFF7D5
S315200019902DFB1F497868FFF78FFD0346002B06D1E4
S315200019A01C497868FFF788FD0346002B04D01A49A6
S315200019B07868FFF74BFD21E0184B1B687B611AE026
S315200019C0174B1B687A699A4212D07B69DB687A6862
S315200019D09A420DD17B691A697B68DB689A4207D1E6
S315200019E07B690022DA600C497868FFF72FFD05E055
S315200019F07B699B687B617B69002BE1D1FB7C002B9B
S31520001A0001D0FFF702FB00BF1837BD4680BD00BFDF
S31520001A1088980020849800204C9200205492002020
S31520001A205892002080B485B000AF7860EFF312831F
S31520001A30FB60FB681B09012B04D0074B1B68DB6886
S31520001A405B6801E0054B1B687A68136000BF14379A
S31520001A50BD465DF8047B704758920020949800207C
S31520001A6080B485B000AF7860EFF31283FB60FB682B
S31520001A701B09012B04D0084B1B68DB685B6801E05F
S31520001A80064B1B687A6812689B1A18461437BD469F
S31520001A905DF8047B704700BF589200209498002080
S31520001AA080B584B000AFEFF312837B607B681B099F
S31520001AB0012B14BF01230023DBB2FB73FFF796FA39
S31520001AC00C4800F00DFB0346BB60FB7B002B01D0CE
S31520001AD0FFF79BFAFB7B002B04D0074B1B68DB68C8
S31520001AE05B6801E0054B1B68BA68D31A18461037A5
S31520001AF0BD4680BD000C00405892002094980020DE
S31520001B0080B582B000AF00237B6012E07B685A1C50
S31520001B1013465B001344DB00444A991843487A680D
S31520001B2013465B001344DB00034419607B680133D2
S31520001B307B607B681C2BE9DD3C4B0022C3F8B82276
S31520001B4000237B6013E07B685A1C13469B001344DA
S31520001B509B00374A991836487A6813469B001344E7
S31520001B609B000344083319607B6801337B607B68E4
S31520001B70022BE8DD2E4B00225A6400237B6030E0E6
S31520001B802B497A6813469B0013449B000B4404336D
S31520001B907A681A607A6813469B0013449B00244A8D
S31520001BA01A447B685B0323490B4419461046FFF70A
S31520001BB05DFA7A6813469B0013449B001C4A134423
S31520001BC01D491846FFF786FA19497A6813469B007D
S31520001BD013449B000B44103300221A607B680133A8
S31520001BE07B607B68032BCBDD144B4FF0FF325A60B2
S31520001BF0124B00229A60114B00221A610F4B0022D1
S31520001C00DA600F48FFF754F90E48FFF751F90E48EE
S31520001C10FFF74EF90A48FFF74BF90948FFF748F94D
S31520001C20FFF76AFA00BF0837BD4680BD2899002015
S31520001C30B8980020009C00200D1600201499002042
S31520001C40448A0020488A0020548A002080B586B025
S31520001C5000AFF860B9601346FB71FB79022B41D8BF
S31520001C60EFF312833B613B691B09012B14BF012350
S31520001C700023DBB2FB75FFF7B9F9FB79022B0ED0F7
S31520001C80022B10DC002B02D0012B04D00BE0174BCB
S31520001C90174A1A6014E0174B174A1A6010E0174BC0
S31520001CA0174A1A600CE01748FFF702F900220221B2
S31520001CB0154803F05AF91548FFF7FAF830BFFDE743
S31520001CC0FB791349FA6841F82320FB791149BA6850
S31520001CD041F82320FB6801225A60FB7D002B01D0AE
S31520001CE0FFF793F900BF1837BD4680BDD4C0012049
S31520001CF0C511002090C001202D1200209CC001207B
S31520001D0095120020208A0020000402406C8A0020C0
S31520001D10A89800200899002080B586B002AFF86008
S31520001D20B9607A60FFF762F9FFF7EAFEBB68002B1D
S31520001D3016D00F4800F0D4F903461A460D4B1A6008
S31520001D400D4B01221A607B680093BB68FA6800215C
S31520001D500020FFF7E9FC084B00221A60FFF7B2FCCF
S31520001D60FFF7A8FC002318461037BD4680BD00BFEC
S31520001D70000C0040949800208C98002080B582B0FA
S31520001D8000AF78607B68604A934208D10121012028
S31520001D9003F06AFE0021012003F066FEAFE07B68B7
S31520001DA0B3F1804F08D10121012003F03DFE00212F
S31520001DB0012003F039FEA2E07B68544A934208D101
S31520001DC00121022003F030FE0021022003F02CFE28
S31520001DD095E07B684E4A934208D10121042003F006
S31520001DE023FE0021042003F01FFE88E07B68494A79
S31520001DF0934208D10121082003F016FE0021082075
S31520001E0003F012FE7BE07B68434A934208D101210E
S31520001E10102003F009FE0021102003F005FE6EE0DD
S31520001E207B683E4A934208D10121202003F0FCFD25
S31520001E300021202003F0F8FD61E07B68384A9342B8
S31520001E4008D10121022003F00FFE0021022003F019
S31520001E500BFE54E07B68334A93420AD101214FF4AA
S31520001E60803003F001FE00214FF4803003F0FCFDAA
S31520001E7045E07B682C4A93420AD101214FF4003079
S31520001E8003F0F2FD00214FF4003003F0EDFD36E0C3
S31520001E907B68264A93420AD101214FF4802003F021
S31520001EA0E3FD00214FF4802003F0DEFD27E07B6870
S31520001EB01F4A934208D10121402003F0B5FD00219D
S31520001EC0402003F0B1FD1AE07B681A4A934208D1FC
S31520001ED00121802003F0A8FD0021802003F0A4FD2D
S31520001EE00DE07B68144A934209D101214FF480709A
S31520001EF003F09AFD00214FF4807003F095FD00BF9A
S31520001F000837BD4680BD00BF0000014000040040E8
S31520001F1000080040000C0040001000400014004063
S31520001F2000040140004001400044014000480140B7
S31520001F3000180040001C00400020004080B485B0FE
S31520001F4000AF786039600023FB817B681B88FB81AA
S31520001F507B68294A934213D07B68284A93420FD044
S31520001F607B68B3F1804F0BD07B68254A934207D01C
S31520001F707B68244A934203D07B68234A934208D144
S31520001F80FB8923F07003FB813B685A88FB89134346
S31520001F90FB817B681D4A93420CD07B681C4A934286
S31520001FA008D0FB8923F44073FB813B681A89FB899F
S31520001FB01343FB817B68FA891A803B685A687B68E1
S31520001FC0DA623B681A887B681A857B680A4A9342DC
S31520001FD003D07B68094A934204D13B689B7A9AB224
S31520001FE07B681A867B6801229A8200BF1437BD4619
S31520001FF05DF8047B704700BF0000014000040140EB
S315200020000004004000080040000C00400010004082
S315200020100014004080B483B000AF78607B684FF036
S31520002020FF325A607B6800221A807B6800221A8160
S315200020307B6800225A807B6800229A7200BF0C3788
S31520002040BD465DF8047B704780B483B000AF7860EE
S315200020500B467B8013463B807B687A881A857B6893
S315200020603A889A8200BF0C37BD465DF8047B7047DC
S3152000207080B485B000AF78600B467B800023FB815F
S315200020807B681B88FB81FB8923F07003FB81FA891F
S315200020907B881343FB817B68FA891A8000BF14373B
S315200020A0BD465DF8047B704780B483B000AF78608E
S315200020B039607B683A685A6200BF0C37BD465DF8C6
S315200020C0047B704780B483B000AF786039607B684A
S315200020D03A68DA6200BF0C37BD465DF8047B70476C
S315200020E080B483B000AF78607B685B6A18460C3793
S315200020F0BD465DF8047B704780B483B000AF78603E
S315200021007B681B8D9BB218460C37BD465DF8047B59
S31520002110704780B483B000AF78600B46FB70FB78C5
S31520002120002B08D07B681B889BB243F002039AB22F
S315200021307B681A8007E07B681B889BB223F002032A
S315200021409AB27B681A8000BF0C37BD465DF8047BC7
S31520002150704780B483B000AF78600B467B807B8865
S31520002160002B08D07B681B889BB243F004039AB2ED
S315200021707B681A8007E07B681B889BB223F00403E8
S315200021809AB27B681A8000BF0C37BD465DF8047B87
S31520002190704780B483B000AF78600B46FB70FB7845
S315200021A0002B08D07B681B889BB243F080039AB231
S315200021B07B681A8007E07B681B889BB223F080032C
S315200021C09AB27B681A8000BF0C37BD465DF8047B47
S315200021D0704780B483B000AF78600B467B807B6805
S315200021E01B889BB223F008039AB27B681A807B680F
S315200021F01B889AB27B8813439AB27B681A8000BFE9
S315200022000C37BD465DF8047B704780B483B000AFC1
S3152000221078600B467B807B681B889BB223F44073D7
S315200022209AB27B681A807B681B889AB27B88134394
S315200022309AB27B681A8000BF0C37BD465DF8047BD6
S31520002240704780B483B000AF78600B46FB70FB7894
S31520002250002B08D07B681B889BB243F001039AB2FF
S315200022607B681A8007E07B681B889BB223F00103FA
S315200022709AB27B681A8000BF0C37BD465DF8047B96
S31520002280704780B485B000AF7860396000237B81C9
S315200022900023FB810023BB817B681B8C9BB223F030
S315200022A001039AB27B681A847B681B8CFB817B684E
S315200022B09B88BB817B681B8B7B817B8923F070038A
S315200022C07B817B8923F003037B813B681A887B898A
S315200022D013437B81FB8923F00203FB813B689A89A8
S315200022E0FB891343FB813B685A88FB891343FB8197
S315200022F07B681F4A934203D07B681E4A934223D1B0
S31520002300FB8923F00803FB813B68DA89FB891343A9
S31520002310FB81FB8923F00403FB813B689A88FB89B8
S315200023201343FB81BB8923F48073BB81BB8923F4D0
S315200023300073BB813B681A8ABB891343BB813B6808
S315200023405A8ABB891343BB817B68BA899A807B688A
S315200023507A891A833B689A687B685A637B68FA890C
S315200023601A8400BF1437BD465DF8047B704700BF52
S31520002370000001400004014080B485B000AF7860C1
S31520002380396000237B810023FB810023BB817B688E
S315200023901B8C9BB223F010039AB27B681A847B684D
S315200023A01B8CFB817B689B88BB817B681B8B7B811D
S315200023B07B8923F4E0437B817B8923F440737B81F3
S315200023C03B681B881B029AB27B8913437B81FB895E
S315200023D023F02003FB813B689B891B019AB2FB8972
S315200023E01343FB813B685B881B019AB2FB8913432D
S315200023F0FB817B68224A934203D07B68214A934221
S315200024002BD1FB8923F08003FB813B68DB891B01F1
S315200024109AB2FB891343FB81FB8923F04003FB819E
S315200024203B689B881B019AB2FB891343FB81BB89BE
S3152000243023F48063BB81BB8923F40063BB813B68A3
S315200024401B8A9B009AB2BB891343BB813B685B8A7C
S315200024509B009AB2BB891343BB817B68BA899A8059
S315200024607B687A891A833B689A687B689A637B685B
S31520002470FA891A8400BF1437BD465DF8047B70477D
S31520002480000001400004014080B485B000AF7860B0
S31520002490396000237B810023FB810023BB817B687D
S315200024A01B8C9BB223F480739AB27B681A847B6858
S315200024B01B8CFB817B689B88BB817B689B8B7B818C
S315200024C07B8923F070037B817B8923F003037B8147
S315200024D03B681A887B8913437B81FB8923F400732D
S315200024E0FB813B689B891B029AB2FB891343FB81C4
S315200024F03B685B881B029AB2FB891343FB817B688E
S31520002500224A934203D07B68214A93422BD1FB89EE
S3152000251023F40063FB813B68DB891B029AB2FB89AB
S315200025201343FB81FB8923F48063FB813B689B88F3
S315200025301B029AB2FB891343FB81BB8923F4805388
S31520002540BB81BB8923F40053BB813B681B8A1B01DB
S315200025509AB2BB891343BB813B685B8A1B019AB243
S31520002560BB891343BB817B68BA899A807B687A8949
S315200025709A833B689A687B68DA637B68FA891A844F
S3152000258000BF1437BD465DF8047B7047000001404C
S315200025900004014080B485B000AF78603960002324
S315200025A0BB8100237B810023FB817B681B8C9BB234
S315200025B023F480539AB27B681A847B681B8C7B81B8
S315200025C07B689B88FB817B689B8BBB81BB8923F4C3
S315200025D0E043BB81BB8923F44073BB813B681B88E6
S315200025E01B029AB2BB891343BB817B8923F4005318
S315200025F07B813B689B891B039AB27B8913437B8132
S315200026003B685B881B039AB27B8913437B817B687B
S31520002610124A934203D07B68114A93420AD1FB891E
S3152000262023F48043FB813B681B8A9B019AB2FB897A
S315200026301343FB817B68FA899A807B68BA899A83DF
S315200026403B689A687B681A647B687A891A8400BF1B
S315200026501437BD465DF8047B704700BF000001407B
S315200026600004014080B483B000AF78607B6800220C
S315200026701A807B6800225A807B6800229A807B68B9
S3152000268000229A607B6800229A817B680022DA8188
S315200026907B6800221A827B6800225A8200BF0C3790
S315200026A0BD465DF8047B704780B485B000AF786086
S315200026B00B467B8013463B800023FB6000237B81F7
S315200026C07B68FB60FB681833FB607B88012202FA7B
S315200026D003F37B817B681B8C9AB27B89DB439BB29D
S315200026E013409AB27B681A847B88002B02D07B88A1
S315200026F0082B14D17B885B089BB21A46FB681344CF
S31520002700FB60FB681968FA684FF68F730B401360FD
S31520002710FB6819683A88FB680A431A6019E07B88C7
S31520002720043B9BB25B089BB21A46FB681344FB60D2
S31520002730FB681968FA6848F6FF730B401360FB685C
S315200027401A683B881B029BB21946FB680A431A602B
S3152000275000BF00BF1437BD465DF8047B704780B4C8
S3152000276083B000AF786039607B683A685A6300BFEF
S315200027700C37BD465DF8047B704780B483B000AF4C
S31520002780786039607B683A689A6300BF0C37BD462B
S315200027905DF8047B704780B483B000AF7860396001
S315200027A07B683A68DA6300BF0C37BD465DF8047B68
S315200027B0704780B483B000AF786039607B683A6830
S315200027C01A6400BF0C37BD465DF8047B704780B4A1
S315200027D085B000AF78600B467B800023FB817B6849
S315200027E01B8BFB81FB8923F07003FB81FA897B8895
S315200027F01343FB817B68FA891A8300BF1437BD46D1
S315200028005DF8047B704780B485B000AF78600B46D6
S315200028107B800023FB817B681B8BFB81FB8923F458
S31520002820E043FB817B881B029AB2FB891343FB8121
S315200028307B68FA891A8300BF1437BD465DF8047B8E
S31520002840704780B485B000AF78600B467B8000234C
S31520002850FB817B689B8BFB81FB8923F07003FB81CB
S31520002860FA897B881343FB817B68FA899A8300BFA8
S315200028701437BD465DF8047B704780B485B000AF41
S3152000288078600B467B800023FB817B689B8BFB81DA
S31520002890FB8923F4E043FB817B881B029AB2FB89E8
S315200028A01343FB817B68FA899A8300BF1437BD46A0
S315200028B05DF8047B704780B485B000AF78600B4626
S315200028C07B800023FB817B681B8BFB81FB8923F0AC
S315200028D00803FB81FA897B881343FB817B68FA898D
S315200028E01A8300BF1437BD465DF8047B704780B459
S315200028F085B000AF78600B467B800023FB817B6828
S315200029001B8BFB81FB8923F40063FB817B881B02E5
S315200029109AB2FB891343FB817B68FA891A8300BF2D
S315200029201437BD465DF8047B704780B485B000AF90
S3152000293078600B467B800023FB817B689B8BFB8129
S31520002940FB8923F00803FB81FA897B881343FB81EB
S315200029507B68FA899A8300BF1437BD465DF8047BED
S31520002960704780B485B000AF78600B467B8000232B
S31520002970FB817B689B8BFB81FB8923F40063FB81B6
S315200029807B881B029AB2FB891343FB817B68FA89F9
S315200029909A8300BF1437BD465DF8047B704780B428
S315200029A085B000AF78600B467B800023FB817B6877
S315200029B01B8BFB81FB8923F00403FB81FA897B882F
S315200029C01343FB817B68FA891A8300BF1437BD46FF
S315200029D05DF8047B704780B485B000AF78600B4605
S315200029E07B800023FB817B681B8BFB81FB8923F487
S315200029F08063FB817B881B029AB2FB891343FB8190
S31520002A007B68FA891A8300BF1437BD465DF8047BBC
S31520002A10704780B485B000AF78600B467B8000237A
S31520002A20FB817B689B8BFB81FB8923F00403FB8165
S31520002A30FA897B881343FB817B68FA899A8300BFD6
S31520002A401437BD465DF8047B704780B485B000AF6F
S31520002A5078600B467B800023FB817B689B8BFB8108
S31520002A60FB8923F48063FB817B881B029AB2FB8956
S31520002A701343FB817B68FA899A8300BF1437BD46CE
S31520002A805DF8047B704780B485B000AF78600B4654
S31520002A907B800023FB817B681B8BFB81FB8923F0DA
S31520002AA08003FB81FA897B881343FB817B68FA8943
S31520002AB01A8300BF1437BD465DF8047B704780B487
S31520002AC085B000AF78600B467B800023FB817B6856
S31520002AD01B8BFB81FB89C3F30E03FB817B881B02C7
S31520002AE09AB2FB891343FB817B68FA891A8300BF5C
S31520002AF01437BD465DF8047B704780B485B000AFBF
S31520002B0078600B467B800023FB817B689B8BFB8157
S31520002B10FB8923F08003FB81FA897B881343FB81A1
S31520002B207B68FA899A8300BF1437BD465DF8047B1B
S31520002B30704780B485B000AF78600B467B80002359
S31520002B40FB817B689B8BFB81FB89C3F30E03FB8197
S31520002B507B881B029AB2FB891343FB817B68FA8927
S31520002B609A8300BF1437BD465DF8047B704780B456
S31520002B7085B000AF78600B467B800023FB817B68A5
S31520002B801B8CFB81FB8923F00203FB81FA897B885E
S31520002B901343FB817B68FA891A8400BF1437BD462C
S31520002BA05DF8047B704780B485B000AF78600B4633
S31520002BB07B800023FB817B681B8CFB81FB8923F0B8
S31520002BC00803FB81FA897B881343FB817B68FA899A
S31520002BD01A8400BF1437BD465DF8047B704780B465
S31520002BE085B000AF78600B467B800023FB817B6835
S31520002BF01B8CFB81FB8923F02003FB817B881B0137
S31520002C009AB2FB891343FB817B68FA891A8400BF39
S31520002C101437BD465DF8047B704780B485B000AF9D
S31520002C2078600B467B800023FB817B681B8CFB81B5
S31520002C30FB8923F08003FB817B881B019AB2FB89E9
S31520002C401343FB817B68FA891A8400BF1437BD467B
S31520002C505DF8047B704780B485B000AF78600B4682
S31520002C607B800023FB817B681B8CFB81FB8923F403
S31520002C700073FB817B881B029AB2FB891343FB817D
S31520002C807B68FA891A8400BF1437BD465DF8047B39
S31520002C90704780B485B000AF78600B467B800023F8
S31520002CA0FB817B681B8CFB81FB8923F40063FB8102
S31520002CB07B881B029AB2FB891343FB817B68FA89C6
S31520002CC01A8400BF1437BD465DF8047B704780B474
S31520002CD085B000AF78600B467B800023FB817B6844
S31520002CE01B8CFB81FB8923F40053FB817B881B0310
S31520002CF09AB2FB891343FB817B68FA891A8400BF49
S31520002D001437BD465DF8047B704780B485B000AFAC
S31520002D1078600B467B8013463B800023FB817B88B3
S31520002D20012202FA03F3FB817B681B8C9AB2FB8992
S31520002D30DB439BB213409AB27B681A847B681B8C58
S31520002D409AB239887B8801FA03F39BB213439AB26D
S31520002D507B681A8400BF1437BD465DF8047B704734
S31520002D6080B485B000AF78600B467B8013463B80ED
S31520002D700023FB817B88042202FA03F3FB817B6814
S31520002D801B8C9AB2FB89DB439BB213409AB27B68B9
S31520002D901A847B681B8C9AB239887B8801FA03F3E4
S31520002DA09BB213439AB27B681A8400BF1437BD4680
S31520002DB05DF8047B704780B582B000AF78603960DB
S31520002DC03B681B88002B0FD13B6859883B689A8843
S31520002DD03B681B89786800F0B7FC3B68DB8819469E
S31520002DE0786800F0E1F836E03B681B88042B0FD1A9
S31520002DF03B6859883B689A883B681B89786800F04D
S31520002E00E6FC3B68DB881946786800F0E9F822E0A2
S31520002E103B681B88082B0FD13B6859883B689A88EA
S31520002E203B681B89786800F01FFD3B68DB881946E4
S31520002E30786800F0F3F80EE03B6859883B689A887A
S31520002E403B681B89786800F057FD3B68DB8819468C
S31520002E50786800F0FFF800BF0837BD4680BD80B413
S31520002E6083B000AF78607B6800221A807B680022DE
S31520002E705A807B6801229A807B680022DA807B68F0
S31520002E8000221A8100BF0C37BD465DF8047B7047CF
S31520002E9080B584B000AF786039600023FB810123C0
S31520002EA0BB813B685B88002B02D10223FB8101E0BA
S31520002EB00023FB813B689B88012B02D10223BB8127
S31520002EC001E00123BB813B681B88002B1CD13B689A
S31520002ED059883B689A883B681B89786800F034FCDF
S31520002EE03B68DB881946786800F05EF83B681B89EA
S31520002EF0BA89F989786800F06AFC3B68DB8819464C
S31520002F00786800F06DF81BE03B6859883B689A8822
S31520002F103B681B89786800F05AFC3B68DB881946B9
S31520002F20786800F05DF83B681B89BA89F98978686A
S31520002F3000F00AFC3B68DB881946786800F034F814
S31520002F4000BF1037BD4680BD80B483B000AF786027
S31520002F507B685B6B18460C37BD465DF8047B704773
S31520002F6080B483B000AF78607B689B6B18460C37C3
S31520002F70BD465DF8047B704780B483B000AF7860AF
S31520002F807B68DB6B18460C37BD465DF8047B7047C3
S31520002F9080B483B000AF78607B681B6C18460C3712
S31520002FA0BD465DF8047B704780B483B000AF78607F
S31520002FB00B467B807B681B8B9BB223F00C039AB25B
S31520002FC07B681A837B681B8B9AB27B8813439AB2E1
S31520002FD07B681A8300BF0C37BD465DF8047B7047BB
S31520002FE080B483B000AF78600B467B807B681B8BF8
S31520002FF09BB223F440639AB27B681A837B681B8B4F
S315200030009AB27B881B029BB213439AB27B681A83BF
S3152000301000BF0C37BD465DF8047B704780B483B093
S3152000302000AF78600B467B807B689B8B9BB223F03E
S315200030300C039AB27B689A837B689B8B9AB27B88B7
S3152000304013439AB27B689A8300BF0C37BD465DF85E
S31520003050047B704780B483B000AF78600B467B80DA
S315200030607B689B8B9BB223F440639AB27B689A83DE
S315200030707B689B8B9AB27B881B029BB213439AB2C6
S315200030807B689A8300BF0C37BD465DF8047B70478A
S3152000309080B483B000AF786039603B681A883B689B
S315200030A05B8813439AB23B689B8813439AB23B686A
S315200030B0DB8813439AB23B681B8913439AB23B6859
S315200030C05B8913439AB23B689B8913439AB27B6808
S315200030D0A3F8442000BF0C37BD465DF8047B70473B
S315200030E080B483B000AF78607B6800221A807B684A
S315200030F000225A807B6800229A807B680022DA8030
S315200031007B6800221A817B6800225A817B68002214
S315200031109A8100BF0C37BD465DF8047B704780B4AA
S3152000312083B000AF78600B46FB70FB78002B0CD089
S315200031307B68B3F844309BB26FEA43436FEA53434C
S315200031409AB27B68A3F8442009E07B68B3F8443040
S315200031509BB2C3F30E039AB27B68A3F8442000BF48
S315200031600C37BD465DF8047B704780B483B000AF52
S3152000317078600B46FB70FB78002B08D07B689B8819
S315200031809BB243F004039AB27B689A8007E07B687F
S315200031909B889BB223F004039AB27B689A8000BF77
S315200031A00C37BD465DF8047B704780B483B000AF12
S315200031B078600B46FB70FB78002B08D07B689B88D9
S315200031C09BB243F001039AB27B689A8007E07B6842
S315200031D09B889BB223F001039AB27B689A8000BF3A
S315200031E00C37BD465DF8047B704780B483B000AFD2
S315200031F078600B467B8013467B707B78002B08D04B
S315200032007B689B899AB27B8813439AB27B689A81A2
S3152000321009E07B689B899AB27B88DB439BB213408B
S315200032209AB27B689A8100BF0C37BD465DF8047B55
S31520003230704780B483B000AF78600B467B807B6894
S315200032407A889A8200BF0C37BD465DF8047B7047AA
S3152000325080B485B000AF78600B467B800023FB737B
S315200032607B681B8A9AB27B8813409BB2002B02D0C4
S315200032700123FB7301E00023FB73FB7B1846143705
S31520003280BD465DF8047B704780B483B000AF78609C
S315200032900B467B807B88DB439AB27B681A8200BF11
S315200032A00C37BD465DF8047B704780B485B000AF0F
S315200032B078600B467B800023FB730023BB810023B1
S315200032C07B817B681B8A9AB27B881340BB817B6893
S315200032D09B899AB27B8813407B81BB89002B05D0C2
S315200032E07B89002B02D00123FB7301E00023FB73B3
S315200032F0FB7B18461437BD465DF8047B704780B4C7
S3152000330083B000AF78600B467B807B88DB439AB224
S315200033107B681A8200BF0C37BD465DF8047B704778
S3152000332080B483B000AF78600B467B8013463B8029
S315200033307A883B8813439AB27B68A3F8482000BF5B
S315200033400C37BD465DF8047B704780B483B000AF70
S3152000335078600B467B8013467B707B78002B08D0E9
S315200033607B689B899AB27B8813439AB27B689A8141
S3152000337009E07B689B899AB27B88DB439BB213402A
S315200033809AB27B689A8100BF0C37BD465DF8047BF4
S31520003390704780B483B000AF78600B46FB70FB7833
S315200033A0002B08D07B689B889BB243F008039AB217
S315200033B07B689A8007E07B689B889BB223F0080392
S315200033C09AB27B689A8000BF0C37BD465DF8047BB5
S315200033D0704780B483B000AF78607B681B899BB24E
S315200033E023F007039AB27B681A8100BF0C37BD46CB
S315200033F05DF8047B704780B582B000AF78600B46DD
S315200034007B807B881946786800F088F87B681B8962
S315200034109BB243F007039AB27B681A8100BF083734
S31520003420BD4680BD80B584B000AFF8600846114621
S315200034301A4603467B810B463B811346FB807B89DC
S31520003440602B06D1FB8839890122F86800F0BFF984
S3152000345005E0FB8839890122F86800F075F97B8937
S315200034601946F86800F05AF8FB681B899BB243F0AE
S3152000347007039AB2FB681A8100BF1037BD4680BD8C
S3152000348080B586B000AFF860084611461A46034656
S315200034907B810B463B811346FB800023FB82FB8806
S315200034A03A897989F86800F0A9F8FB681B89FB82BC
S315200034B0FB8A23F00703FB82FB8A43F00703FB8288
S315200034C0FB8A23F07003FB82FB8A43F07003FB82A6
S315200034D0FB68FA8A1A8100BF1837BD4680BD80B5C1
S315200034E084B000AFF860084611461A4603467B8131
S315200034F00B463B811346FB80FB883A897989F8681D
S3152000350000F07CF8FB681B899BB243F480439AB297
S31520003510FB681A8100BF1037BD4680BD80B485B0D8
S3152000352000AF78600B467B800023FB817B681B897C
S31520003530FB81FB8923F07003FB81FA897B88134387
S31520003540FB817B68FA891A8100BF1437BD465DF876
S31520003550047B704780B483B000AF78600B467B80D5
S315200035607B689B889BB223F070039AB27B689A8013
S315200035707B689B889AB27B8813439AB27B689A8031
S3152000358000BF0C37BD465DF8047B704780B483B01E
S3152000359000AF78600B467B807B681B899BB223F04B
S315200035A007039AB27B681A817B681B899AB27B884B
S315200035B013439AB27B681A8100BF0C37BD465DF86B
S315200035C0047B704780B483B000AF78600B467B8065
S315200035D07B681B899BB223F080039AB27B681A8191
S315200035E07B681B899AB27B8813439AB27B681A81BF
S315200035F000BF0C37BD465DF8047B704780B487B0AA
S3152000360000AFF860084611461A4603467B810B46F2
S315200036103B811346FB800023FB82FB681B89FB82D0
S31520003620FB8ADBB2FB82FB881B029AB23B891343DF
S315200036309AB27B8913439AB2FB8A1343FB82FB68B7
S31520003640FA8A1A8100BF1C37BD465DF8047B704795
S3152000365080B487B000AFF860084611461A46034684
S315200036607B810B463B811346FB800023FB82002394
S31520003670BB8200237B82FB681B89FB82FB681B8B3A
S31520003680BB82FB681B8C7B82FB8A23F00703FB82B1
S31520003690FA8A7B891343FB82BB8A23F4407323F087
S315200036A00303BB82BB8A43F4807343F00103BB82CE
S315200036B07B8A23F022037B82FB881B019AB23B89FB
S315200036C013439AB27B8A13437B82FB68FA8A1A8158
S315200036D0FB68BA8A1A83FB687A8A1A8400BF1C3769
S315200036E0BD465DF8047B704780B483B000AF786038
S315200036F00B46FB70FB78002B08D07B689B889BB21F
S3152000370043F080039AB27B689A8007E07B689B88A7
S315200037109BB223F080039AB27B689A8000BF0C3755
S31520003720BD465DF8047B704780B483B000AF7860F7
S315200037300B467B807B687A88A3F8502000BF0C3725
S31520003740BD465DF8047B704780B487B000AFF86053
S31520003750084611461A4603467B810B463B81134693
S31520003760FB800023FB820023BB82FB681B8C9BB261
S3152000377023F001039AB2FB681A84FB681B8BFB8239
S31520003780FB681B8CBB82FB8A23F0F303FB82FB883E
S315200037901B019AB23B8913439AB2FB8A1343FB82DD
S315200037A0BB8A23F00A03BB827A89BB8A13439BB266
S315200037B043F00103BB82FB68FA8A1A83FB68BA8A44
S315200037C01A8400BF1C37BD465DF8047B704780B461
S315200037D087B000AFF860084611461A4603467B813B
S315200037E00B463B811346FB800023FB820023BB82D2
S315200037F000237B82FB681B8C9BB223F010039AB2BA
S31520003800FB681A84FB681B8BFB82FB681B8CBB82C4
S315200038107B891B017B82FB8A23F440731B051B0DCE
S31520003820FB82FB881B039AB2FB8A1343FB823B89EC
S315200038301B029AB2FB8A1343FB82BB8A23F0A003A6
S31520003840BB827A8ABB8A13439BB243F01003BB82A6
S31520003850FB68FA8A1A83FB68BA8A1A8400BF1C3767
S31520003860BD465DF8047B704780B487B000AFF86032
S31520003870084611461A4603467B810B463B81134672
S31520003880FB800023FB820023BB8200237B82FB6814
S315200038901B8C9BB223F480739AB2FB681A84FB6854
S315200038A09B8BFB82FB681B8CBB827B891B027B82EA
S315200038B0FB8A23F0F303FB82FB881B019AB23B8928
S315200038C013439AB2FB8A1343FB82BB8A23F42063F9
S315200038D0BB827A8ABB8A13439BB243F48073BB8232
S315200038E0FB68FA8A9A83FB68BA8A1A8400BF1C3757
S315200038F0BD465DF8047B704780B487B000AFF860A2
S31520003900084611461A4603467B810B463B811346E1
S31520003910FB800023FB820023BB8200237B82FB6883
S315200039201B8C9BB223F480539AB2FB681A84FB68E3
S315200039309B8BFB82FB681B8CBB827B891B037B8258
S31520003940FB8A23F440731B051B0DFB823B891B025C
S315200039509AB2FB8A1343FB82FB881B039AB2FB8A2B
S315200039601343FB82BB8A23F400535B045B0CBB82AC
S315200039707A8ABB8A13439BB243F48053BB82FB688B
S31520003980FA8A9A83FB68BA8A1A8400BF1C37BD4616
S315200039905DF8047B704700BF80B586B000AF7860C5
S315200039A0396007F10C031A460A490B48FDF75AFFFE
S315200039B00A4B1A460A490B48FDF754FF07F10C0338
S315200039C003331A4606490748FDF74CFF00BF183750
S315200039D0BD4680BD39490020109700208C8A0020E2
S315200039E0F3010020F092002080B5C2B002AF7860CB
S315200039F03B461960AC4B1A46AC49AD48FDF732FF41
S31520003A003B461A68AB49AA48FDF72CFFAA4B1A4633
S31520003A10A649A748FDF726FF3B461B682D3B2D2BC5
S31520003A2000F2FF8401A252F823F000BFE53A0020FD
S31520003A302344002023440020E53A0020E53A0020D4
S31520003A40E53A0020E53A0020E53A0020E53A002054
S31520003A50E53A0020E53A0020E53A0020E53A002044
S31520003A602344002023440020234400202344002014
S31520003A702344002023440020234400202344002004
S31520003A80234400202344002039430020674100209E
S31520003A9023440020F13C0020E73B00202344002063
S31520003AA023440020013B002023440020873E0020A1
S31520003AB023440020234400202344002023440020C4
S31520003AC02344002023440020874000202344002054
S31520003AD0B53D002027420020C53E0020234400207B
S31520003AE0D53F00207B689B68591C7A6891603A46CE
S31520003AF01268D1B27A6813440A465A7300F092BC0F
S31520003B007B689B687A68134400225A737B6800227C
S31520003B109A607B680D33184604F09AF802467B6853
S31520003B201A647B681B6C002B1AD1644B1A465F49BA
S31520003B305F48FDF797FE002261496248FDF792FE35
S31520003B40034607F10C00604AC82104F0B9F807F1D2
S31520003B500C031A4655495648FDF784FE00F062BC10
S31520003B607B681B6C1A4659495648FDF77BFE024670
S31520003B707B681B6C9A421BD17B681B6C1A46544986
S31520003B805448FDF76FFE00224D494E48FDF76AFE68
S31520003B90034607F10C00504AC82104F091F807F1BA
S31520003BA00C031A4641494248FDF75CFE00F03ABC38
S31520003BB04A4B1A463D493E48FDF754FE00224049ED
S31520003BC04048FDF74FFE034607F10C00444AC82142
S31520003BD004F076F807F10C031A4634493448FDF709
S31520003BE041FE00F01FBC7B689B687A681344002264
S31520003BF05A737B6800229A60002231493148FDF7CA
S31520003C0031FE02467B681A647B681B6C0133C7F859
S31520003C10F030D7F8F030052B1FDCD7F8F0202B49F1
S31520003C202848FDF71FFE02467B681A647B681B6CDA
S31520003C301A4627492748FDF715FE7B681B6C07F1B6
S31520003C400C00254AC82104F03BF807F10C031A465C
S31520003C5016491748FDF706FEE4E3224B1A46134998
S31520003C601348FDF7FFFD07F10C00052300936FF0C5
S31520003C7004031D4AC82104F023F807F10C031A4651
S31520003C800A490B48FDF7EEFD7B681B6C07F10C001B
S31520003C90164AC82104F014F807F10C031A46034902
S31520003CA00348FDF7DFFDBDE3A08A0020F3010020D5
S31520003CB0F092002049020020A88A0020AC8A002029
S31520003CC071000020E0920020C08A00208B00002096
S31520003CD0E7030020A8920020D48A0020E48A00204E
S31520003CE0008B0020148B0020308B00205C8B002062
S31520003CF07B689B687A68134400225A737B6800228B
S31520003D009A6000229C499D48FDF7ACFD02467B68DF
S31520003D101A647B681B6C013BC7F8EC30D7F8EC3093
S31520003D2013F1050F1FDBD7F8EC2095499348FDF7D3
S31520003D3099FD02467B681A647B681B6C1A4691497A
S31520003D409148FDF78FFD7B681B6C07F10C008F4AAD
S31520003D50C82103F0B5FF07F10C031A468C498D489C
S31520003D60FDF780FD5EE38C4B1A4689498948FDF7AD
S31520003D7079FD07F10C00052300936FF00403874AB1
S31520003D80C82103F09DFF07F10C031A46804981489C
S31520003D90FDF768FD7B681B6C07F10C00804AC82183
S31520003DA003F08EFF07F10C031A4679497948FDF78F
S31520003DB059FD37E37B689B687A68134400225A735F
S31520003DC07B6800229A607B680D33184603F040FF1B
S31520003DD002467B685A647B685B6C002B19D1714B59
S31520003DE01A466B496B48FDF73DFD00226E49664831
S31520003DF0FDF738FD034607F10C006C4AC82103F095
S31520003E005FFF07F10C031A4661496248FDF72AFD58
S31520003E1008E37B685B6C1A4665495B48FDF722FD23
S31520003E2002467B685B6C9A4213D100225E49564853
S31520003E30FDF718FD034607F10C005E4AC82103F082
S31520003E403FFF07F10C031A4651495248FDF70AFD78
S31520003E50E8E2594B1A464E494E48FDF703FD00222B
S31520003E6051494948FDF7FEFC034607F10C00534A29
S31520003E70C82103F025FF07F10C031A46444945489B
S31520003E80FDF7F0FCCEE27B689B687A68134400223B
S31520003E905A737B6800229A60002249493A48FDF706
S31520003EA0E1FC0346002B06D1464B1A4638493948D1
S31520003EB0FDF7D8FCB6E2444B1A4635493548FDF79E
S31520003EC0D1FCAFE27B689B687A68134400225A7360
S31520003ED07B6800229A60002233492B48FDF7C2FCFA
S31520003EE002467B685A647B685B6C0133C7F8F830FE
S31520003EF0D7F8F830142B18DCD7F8F8202C492248AC
S31520003F00FDF7B0FC02467B685A647B685B6C07F160
S31520003F100C00284AC82103F0D3FE07F10C031A46E9
S31520003F201B491C48FDF79EFC7CE2284B1A46184983
S31520003F301848FDF797FC07F10C0014230093012382
S31520003F40164AC82103F0BCFE07F10C031A46104995
S31520003F501048FDF787FC7B685B6C07F10C001C4A58
S31520003F60C82103F0ADFE07F10C031A46084909489B
S31520003F70FDF778FC56E200BF71000020E092002099
S31520003F808B000020E7030020A8920020D48A00207E
S31520003F90F3010020F0920020148B0020308B0020AB
S31520003FA05C8B0020708B002059030020848B00201E
S31520003FB073030020988B0020AC8B0020CC8B002034
S31520003FC0AD030020E48B0020F48B0020088C002019
S31520003FD0288C00207B689B687A68134400225A73D9
S31520003FE07B6800229A600022AC49AD48FDF73AFC76
S31520003FF002467B685A647B685B6C013BC7F8FC30E1
S31520004000D7F8FC30002B18DDD7F8FC20A549A448AA
S31520004010FDF728FC02467B685A647B685B6C07F1D7
S315200040200C00A14AC82103F04BFE07F10C031A46E7
S315200040309E499F48FDF716FCF4E19E4B1A469B4984
S315200040409B48FDF70FFC07F10C0014230093012376
S31520004050994AC82103F034FE07F10C031A46934906
S315200040609348FDF7FFFB7B685B6C07F10C00934AD6
S31520004070C82103F025FE07F10C031A468B498C480C
S31520004080FDF7F0FBCEE17B689B687A68134400223B
S315200040905A737B6800229A607B680D33184603F0BA
S315200040A0D7FD02467B689A647B689B6C002B19D1EE
S315200040B0834B1A467D497E48FDF7D4FB0022814971
S315200040C08148FDF7CFFB034607F10C007F4AC82144
S315200040D003F0F6FD07F10C031A4674497448FDF700
S315200040E0C1FB9FE17B689B6C1A4679497648FDF7B0
S315200040F0B9FB02467B689B6C9A421AD10022714911
S315200041007148FDF7AFFB034607F10C00714AC82141
S3152000411003F0D6FD7B689B6C1A466F496048FDF715
S31520004120A1FB07F10C031A4660496148FDF79AFB8B
S3152000413078E16A4B1A465D495D48FDF793FB0022FC
S3152000414060496148FDF78EFB034607F10C00644A7F
S31520004150C82103F0B5FD07F10C031A46534954480C
S31520004160FDF780FB5EE17B689B687A68134400223A
S315200041705A737B6800229A60002252495248FDF702
S3152000418071FB02467B689A647B689B6C0A33C7F88E
S31520004190E830D7F8E830F02B1FDCD7F8E8204C4978
S315200041A04948FDF75FFB02467B689A647B689B6CF7
S315200041B01A4649493A48FDF755FB7B689B6C07F13F
S315200041C00C00444AC82103F07BFD07F10C031A4674
S315200041D036493748FDF746FB24E1424B1A46334918
S315200041E03348FDF73FFB07F10C00F02300933C23F7
S315200041F0314AC82103F064FD07F10C031A462B4906
S315200042002B48FDF72FFB7B689B6C07F10C00364A89
S31520004210C82103F055FD07F10C031A46234924480B
S31520004220FDF720FBFEE07B689B687A68134400223A
S315200042305A737B6800229A60002222492248FDF7A1
S3152000424011FB02467B689A647B689B6C0A3BC7F825
S31520004250F430D7F8F4303B2B48DDD7F8F4201C494E
S315200042601948FDF7FFFA02467B689A647B689B6CC7
S315200042701A4619490A48FDF7F5FA7B689B6C07F13F
S315200042800C00144AC82103F01BFD07F10C031A4643
S3152000429006490748FDF7E6FAC4E000BF59030020A7
S315200042A0A892002073030020988B0020F3010020A1
S315200042B0F0920020088C0020308B0020288C0020D3
S315200042C0408C00201D000020E0920020548C00200D
S315200042D037000020688C002003040020788C002002
S315200042E0988C0020AC8C0020C88C0020504B1A469D
S315200042F050495148FDF7B6FA07F10C00F023009318
S315200043003C234E4AC82103F0DBFC07F10C031A4676
S3152000431048494948FDF7A6FA7B689B6C07F10C00D3
S31520004320474AC82103F0CCFC07F10C031A46414941
S315200043304148FDF797FA75E0002242494248FDF7C9
S3152000434091FAC7F8E400002240493F48FDF78AFA6F
S31520004350C7F8E00000223E493B48FDF783FAC7F83C
S31520004360DC0000223A493848FDF77CFAC7F8D80025
S31520004370002238493448FDF775FAC7F8D400364B81
S315200043801A462C492C48FDF76DFA07F10C00D7F890
S31520004390E430324AC82103F093FC07F10C031A4695
S315200043A024492548FDF75EFA07F10C00D7F8E030DE
S315200043B02B4AC82103F084FC07F10C031A461D4939
S315200043C01D48FDF74FFA07F10C00D7F8D830254ADB
S315200043D0C82103F075FC07F10C031A461549164847
S315200043E0FDF740FA07F10C00D7F8DC301E4AC82149
S315200043F003F066FC07F10C031A460E490E48FDF73A
S3152000440031FA07F10C00D7F8D430184AC82103F046
S3152000441057FC07F10C031A4606490748FDF722FA0E
S3152000442000E000BF00BF07F58077BD4680BD00BF16
S31520004430AC8C0020F3010020F0920020308B00206D
S31520004440C88C002091060020A89200203906002062
S31520004450F905002053060020DC8C0020048D002066
S31520004460148D0020308D0020488D0020608D002086
S3152000447080B588B002AF7860396001230093524B33
S31520004480524A00210020FDF74FF900225049514899
S31520004490FDF7E8F9002250495048FDF7E3F9504B63
S315200044A01A4650494D48FDF7DDF94F4B1A464D49FE
S315200044B04A48FDF7D7F94D4B1A464A494748FDF772
S315200044C0D1F94B4B1A4647494448FDF7CBF9494B9E
S315200044D01A4644494148FDF7C5F9474B1A46414912
S315200044E03E48FDF7BFF9454B1A463E493B48FDF786
S315200044F0B9F9434B1A463B493848FDF7B3F9414BC6
S315200045001A4638493548FDF7ADF93F4B1A46354925
S315200045103248FDF7A7F93D4B1A4632492F48FDF799
S31520004520A1F93B4B1A462F492C48FDF79BF9394BED
S315200045301A462C492948FDF795F9374B1A46294939
S315200045402648FDF78FF9304B1A4626492348FDF7B2
S3152000455089F9324B1A4623492048FDF783F9304B17
S315200045601A4620491D48FDF77DF92E4B1A461D494E
S315200045701A48FDF777F92C4B1A461A491748FDF7C2
S3152000458071F9214B1A4617491448FDF76BF9012397
S315200045903B7301237B730623BB734823FB7365237D
S315200045A03B746C237B746C23BB746F23FB740023D6
S315200045B03B7507F10C031A461C490648FDF752F9CC
S315200045C000BF1837BD4680BDC3040020A892002036
S315200045D0F9460020109700204D010020F09200207F
S315200045E0748D0020F3010020888D0020A88D0020E6
S315200045F0EC8D0020048E0020448E0020688E002042
S31520004600908E0020B88E0020E08E0020248F00207F
S31520004610388F00207C8F0020A08F0020C48F0020A0
S31520004620DC8F0020249000204C900020034A00209C
S3152000463080B500AF002208490848FDF707FB012294
S3152000464007490848FDF702FB002207490748FDF7FE
S3152000465063FB0023184680BD7F020020F0920020D5
S31520004660B147002010970020714400205C92002062
S3152000467080B483B000AF0346FB71FB7903F01F03C0
S31520004680012202FA03F1064A97F907305B0942F83C
S31520004690231000BF0C37BD465DF8047B704700BF72
S315200046A000E100E080B483B000AF03463960FB71BF
S315200046B097F90730002B0BDA3B68DAB20C49FB7905
S315200046C003F00F03043B1201D2B20B441A7609E021
S315200046D03B68DAB2074997F907301201D2B20B4488
S315200046E083F8002300BF0C37BD465DF8047B704776
S315200046F000ED00E000E100E080B586B000AF786014
S3152000470039607B6800229A617B689A697B685A6166
S315200047107B685A697B68DA6107F10C03184602F058
S315200047206FF90023BB740023FB7400233B75002321
S315200047307B750023BB750023FB750023BB73002309
S31520004740FB7302233B7403237B740723BB8107F18E
S315200047500C031946124801F0BFFF0346002B02D175
S315200047601048FCF7A5FB07F10C0319460E4801F08B
S31520004770B3FF0346002B02D10C48FCF799FB02211C
S315200047801420FFF78FFF1420FFF772FF012202216A
S31520004790034802F073FD00BF1837BD4680BD00BF39
S315200047A00064004074900020006800408C90002037
S315200047B0B0B58AB002AF786039607B689B685A4989
S315200047C0184602F079FD0346012B02D05748FCF724
S315200047D06FFB7B68DB69072B00F39F807B689B68F8
S315200047E007F108020021184602F04EFBBB681B09A0
S315200047F0DBB27A68526903F07F03D8B27968134630
S315200048009B0013445B0013440B44203302461A706A
S31520004810BB68DBB27A68526903F00F03D8B27968B5
S3152000482013469B0013445B0013440B44213302467A
S315200048301A70BB7C7A68526903F00F03D8B2796884
S3152000484013469B0013445B0013440B442233024659
S315200048501A700023FB7716E0FB7F7A685269F97F8E
S3152000486007F12000034413F80D4C786813469B008B
S3152000487013445B00134403440B44233322461A702B
S31520004880FB7F0133FB777B685A69796813469B0067
S3152000489013445B0013440B4422331B78FA7F9A425D
S315200048A0DAD37B68DB68002B25D07B68DC687B68E5
S315200048B01D697B685A69796813469B0013445B001F
S315200048C013440B4420331B7819017B685A69786896
S315200048D013469B0013445B001344034421331B7887
S315200048E00B4400932B46224600210020FCF71CFF98
S315200048F00F4B01221A607B685B6901335A4203F031
S31520004900070302F0070258BF53427A6853617B6857
S31520004910DB695A1C7B68DA6102E00648FCF7C8FAB4
S3152000492000BF2037BD46B0BD03000012A490002072
S3152000493090980020CC90002090B484B000AF78608E
S3152000494039607B68DB69002B55DD7B689A6979685D
S3152000495013469B0013445B0013440B4420331A7800
S315200049603B681A707B689A69796813469B001344E2
S315200049705B0013440B4421331A783B685A707B68DA
S315200049809A69796813469B0013445B0013440B44D1
S3152000499022331A783B689A700023FB7313E07B68F6
S315200049A09A69F87BF97B7C6813469B0013445B006D
S315200049B013442344034423331A783B680B44DA70A8
S315200049C0FB7B0133FB733B689B78FA7B9A42E6D3E9
S315200049D07B689B6901335A4203F0070302F0070202
S315200049E058BF53427A6893617B68DB695A1E7B689D
S315200049F0DA61002300E0012318461037BD4690BC3B
S31520004A00704780B58AB000AF786039607B689B6854
S31520004A103B620023FB773B681B781B013A68527880
S31520004A201344BB6000237B7400233B743B689B7854
S31520004A30082B02D93B6808229A703B689B78BB7486
S31520004A40002387F8273010E097F8272097F827309B
S31520004A5039680A44D27807F128010B4403F8152C4B
S31520004A6097F82730013387F827303B689B7897F8EB
S31520004A7027209A42E8D307F108031946386A02F03C
S31520004A8083F80346FB77FB7F042B04D10448FCF70D
S31520004A900FFA012300E0002318462837BD4680BDC3
S31520004AA0EC900020314900E03149EFF3088020EDF9
S31520004AB0108A7246EFF3118320E9FC0F2D4FD7F8A9
S31520004AC00080C8F800001EE00846FCF7F1F92A48E5
S31520004AD0FCF7EEF92948FCF7EBF9D8F80400FCF7C7
S31520004AE033FA2748FCF7E4F9D8F80000FCF7FDF97B
S31520004AF02448FCF7DDF9D8F800000068FCF7F5F942
S31520004B001D48FCF7D5F9DFF88080D8F80080C7F873
S31520004B10008018E01D48FCF7CBF9D8F80400FCF714
S31520004B2013FA1B48FCF7C4F9D8F80000FCF7DDF9A6
S31520004B301448FCF7BDF9D8F800000068FCF7D5F951
S31520004B400D48FCF7B5F9134A536843F000635360E8
S31520004B5000BFD8F80000B0E8FC0F83F31188964612
S31520004B60B0EC108A80F308887047000088970020F0
S31520004B70999700205892002009980020BA97002083
S31520004B80D2970020DA970020B4980020E3970020DF
S31520004B90F897002000ED00E080B582B000AF786085
S31520004BA07B684B4A934208D10121012000F0DCFEAC
S31520004BB00021012000F0D8FE86E07B68454A93421A
S31520004BC008D10121022000F0CFFE0021022000F0B2
S31520004BD0CBFE79E07B68404A934208D1012104202C
S31520004BE000F0C2FE0021042000F0BEFE6CE07B68CF
S31520004BF03A4A934208D10121082000F0B5FE00214F
S31520004C00082000F0B1FE5FE07B68354A934208D168
S31520004C100121102000F0A8FE0021102000F0A4FEA3
S31520004C2052E07B682F4A934208D10121202000F0D0
S31520004C309BFE0021202000F097FE45E07B682A4A53
S31520004C40934208D10121402000F08EFE0021402011
S31520004C5000F08AFE38E07B68244A934208D101217D
S31520004C60802000F081FE0021802000F07DFE2BE0D8
S31520004C707B681F4A93420AD101214FF4807000F0CD
S31520004C8073FE00214FF4807000F06EFE1CE07B68FE
S31520004C90184A93420AD101214FF4007000F064FEB5
S31520004CA000214FF4007000F05FFE0DE07B68124A91
S31520004CB0934209D101214FF4806000F055FE002176
S31520004CC04FF4806000F050FE00BF0837BD4680BD1F
S31520004CD0000002400004024000080240000C02408E
S31520004CE0001002400014024000180240001C02403E
S31520004CF000200240002402400028024080B487B0F1
S31520004D0000AF7860396000237B6100233B6100237C
S31520004D10FB6000237B6176E001227B6902FA03F3C4
S31520004D203B613B681B683A691340FB60FA683B6944
S31520004D309A4265D17B681A687B695B00032101FA78
S31520004D4003F3DB431A407B681A607B681A683B686A
S31520004D501B7919467B695B0001FA03F31A437B68CA
S31520004D601A603B681B79012B03D03B681B79022B09
S31520004D702ED17B689A687B695B00032101FA03F3D5
S31520004D80DB431A407B689A607B689A683B685B794C
S31520004D9019467B695B0001FA03F31A437B689A6024
S31520004DA07B685A687B699BB2194601238B40DB439B
S31520004DB01A407B685A607B685B683A68927911462C
S31520004DC07A6992B201FA02F292B21A437B685A6069
S31520004DD07B68DA687B699BB25B00032101FA03F3E7
S31520004DE0DB431A407B68DA607B68DA683B68DB79EC
S31520004DF019467B695B0001FA03F31A437B68DA6084
S31520004E007B6901337B617B690F2B85D900BF00BF8E
S31520004E101C37BD465DF8047B704780B483B000AF75
S31520004E2078607B684FF6FF721A607B6800221A71E1
S31520004E307B6800225A717B6800229A717B68002267
S31520004E40DA7100BF0C37BD465DF8047B704780B42D
S31520004E5085B000AF78600B467B804FF48033FB60D3
S31520004E607A88FB681343FB60FA687B68DA617A8884
S31520004E707B68DA61FA687B68DA617B68DB69FB60EC
S31520004E807B68DB69FB6000BF1437BD465DF8047B99
S31520004E90704780B485B000AF78600B467B800023D6
S31520004EA0FB737B681A697B881340002B02D0012391
S31520004EB0FB7301E00023FB73FB7B18461437BD46CA
S31520004EC05DF8047B704780B483B000AF78607B6860
S31520004ED01B699BB218460C37BD465DF8047B7047AC
S31520004EE080B485B000AF78600B467B800023FB73CF
S31520004EF07B685A697B881340002B02D00123FB7301
S31520004F0001E00023FB73FB7B18461437BD465DF892
S31520004F10047B704780B483B000AF78607B685B69A0
S31520004F209BB218460C37BD465DF8047B704780B4AB
S31520004F3083B000AF78600B467B807B687A881A83C3
S31520004F4000BF0C37BD465DF8047B704780B483B044
S31520004F5000AF78600B467B807B687A885A8300BFD7
S31520004F600C37BD465DF8047B704780B483B000AF34
S31520004F7078600B467B8013467B707B78002B03D0B2
S31520004F807B687A881A8302E07B687A885A8300BF16
S31520004F900C37BD465DF8047B704780B483B000AF04
S31520004FA078600B467B807A887B685A6100BF0C3715
S31520004FB0BD465DF8047B704780B483B000AF78604F
S31520004FC00B467B807B685A697B885A407B685A618E
S31520004FD000BF0C37BD465DF8047B704780B485B0B2
S31520004FE000AF78600B467B8013467B700023FB6006
S31520004FF00023BB607A787B8803F007039B0002FAC4
S3152000500003F3FB607B88DB089BB21A467B68083279
S3152000501053F822207B8803F007039B000F2101FA17
S3152000502003F3DB437988C90889B2084602EA0301FB
S315200050307B6800F1080243F822107B88DB089BB2CC
S315200050401A467B68083253F82230FA681343BB604D
S315200050507B88DB089BB21A467B680832B96843F81E
S31520005060221000BF1437BD465DF8047B704700BF91
S3152000507080B400AF164B1B68154A43F0010313603A
S31520005080134B00229A60124B1B68114A23F0A85337
S3152000509023F4102313600E4B0E4A5A600C4B0E4A13
S315200050A0C3F884200A4B0D4AC3F88820084B1B6896
S315200050B0074A23F480231360054B0022DA60044B51
S315200050C00022C3F88C2000BFBD465DF8047B7047E4
S315200050D00038024010300024003000200030002428
S315200050E080B483B000AF0346FB71064B00221A70D2
S315200050F0044AFB79137000BF0C37BD465DF8047B6C
S31520005100704700BF0238024080B582B000AF00234E
S315200051103B600023FB710023BB71312000F08AFD28
S315200051200346BB713B6801333B603B68B3F5A04F38
S3152000513002D0BB79002BF0D0312000F07BFD034656
S31520005140002B02D00123FB7101E00023FB71FB79C8
S3152000515018460837BD4680BD80B485B000AF0346EB
S31520005160FB710023FB600A4B1B68FB60FB6823F086
S31520005170F803FB60FB79DB00FA681343FB60044A03
S31520005180FB68136000BF1437BD465DF8047B70478B
S315200051900038024080B483B000AF0346FB71044A56
S315200051A0FB79136000BF0C37BD465DF8047B704762
S315200051B00000474280B483B000AF0346FB710D4B1D
S315200051C000221A700B4B00221A70FB79012B02D099
S315200051D0042B04D007E0074B01221A7003E0054B8D
S315200051E005221A7000BF00BF0C37BD465DF8047B50
S315200051F0704700BF7038024080B483B000AF0346CA
S31520005200FB71044AFB79136000BF0C37BD465DF87D
S31520005210047B7047800E474280B485B000AFF860AB
S31520005220B9607A603B607B689A01BB681A433B6829
S315200052305B08013B1B041A43FB681A43BB691B0628
S31520005240044913434B6000BF1437BD465DF8047B09
S31520005250704700BF0038024080B483B000AF0346D9
S31520005260FB71044AFB79136000BF0C37BD465DF81D
S31520005270047B70476000474280B483B000AF7860FB
S3152000528039607B689A013B681B0705491343C1F8BF
S31520005290843000BF0C37BD465DF8047B704700BFE5
S315200052A00038024080B483B000AF0346FB71044A45
S315200052B0FB79136000BF0C37BD465DF8047B704751
S315200052C06800474280B485B000AFF860B9607A6064
S315200052D0FB689A01BB681B061A437B681B070549B6
S315200052E01343C1F8883000BF1437BD465DF8047BF0
S315200052F0704700BF0038024080B483B000AF034639
S31520005300FB71044AFB79136000BF0C37BD465DF87C
S31520005310047B70477000474280B483B000AF0346D9
S31520005320FB71044AFB79136000BF0C37BD465DF85C
S31520005330047B70474C00474280B485B000AF78604C
S3152000534039600023FB600B4B9B68FB60FB6823F0F6
S31520005350EC63FB607A683B681343FA681343FB608F
S31520005360044AFB68936000BF1437BD465DF8047B92
S31520005370704700BF0038024080B485B000AF786027
S3152000538039600023FB600B4B9B68FB60FB6823F0B6
S315200053907843FB607A683B681343FA681343FB60E3
S315200053A0044AFB68936000BF1437BD465DF8047B52
S315200053B0704700BF0038024080B485B000AF7860E7
S315200053C00023FB60094B9B68FB60FB6823F003030B
S315200053D0FB60FA687B681343FB60044AFB689360B2
S315200053E000BF1437BD465DF8047B70470038024085
S315200053F080B400AF054B9B68DBB203F00C03DBB235
S315200054001846BD465DF8047B704700BF0038024051
S3152000541080B485B000AF78600023FB60094B9B68A1
S31520005420FB60FB6823F0F003FB60FA687B6813439C
S31520005430FB60044AFB68936000BF1437BD465DF8E5
S31520005440047B70470038024080B485B000AF786096
S315200054500023FB60094B9B68FB60FB6823F4E05349
S31520005460FB60FA687B681343FB60044AFB68936021
S3152000547000BF1437BD465DF8047B704700380240F4
S3152000548080B485B000AF78600023FB600A4B9B6830
S31520005490FB60FB6823F46043FB607B68DB00FA68F3
S315200054A01343FB60044AFB68936000BF1437BD4674
S315200054B05DF8047B704700BF0038024080B489B095
S315200054C000AF78600023BB6100237B610023FB6172
S315200054D002233B610023FB600223BB604A4B9B688F
S315200054E003F00C03BB61BB69082B11D0BB69082BE9
S315200054F044D8BB69002B03D0BB69042B04D03DE004
