S01600002E2F44656275672F5254532D4C61622E73313936
S3152000000000BFDFF814D000F0AEFB03F043FE00F093
S31520000010BCBBFEE700BF000000C0012080B400AFDB
S31520000020094B00221A60084B00225A60064B002218
S315200000309A60054B0022DA60034B044A5A6100BFDE
S31520000040BD465DF8047B7047003C0140FFFF7F0002
S3152000005080B485B000AF78600023FB60344BFB6032
S315200000607B689B79002B4FD0314B1A687B681B68C5
S31520000070DB432F4913400B602D4B5A687B681B6866
S31520000080DB432B4913404B607B681B791A46FB6880
S315200000901344FB60FB6819687B681A68FB680A438F
S315200000A01A60234B9A687B681B68DB432049134000
S315200000B08B601F4BDA687B681B68DB431C49134047
S315200000C0CB607B685B79102B0ED1194B9A687B68C5
S315200000D01B68174913438B60154BDA687B681B68CE
S315200000E013491343CB601DE0114BFB607B685B79A2
S315200000F01A46FB681344FB60FB6819687B681A681C
S31520000100FB680A431A600DE07B681B791A46FB6878
S315200001101344FB60FB6819687B681B68DA43FB683D
S315200001200A401A6000BF1437BD465DF8047B70474D
S31520000130003C014080B483B000AF78607B68002229
S315200001401A607B6800221A717B680C225A717B68C0
S3152000015000229A7100BF0C37BD465DF8047B7047BC
S3152000016080B483B000AF7860054B1A6904497B6878
S3152000017013430B6100BF0C37BD465DF8047B704707
S31520000180003C014080B485B000AF78600023FB734B
S31520000190084B5A697B681340002B02D00123FB735E
S315200001A001E00023FB73FB7B18461437BD465DF840
S315200001B0047B7047003C014080B483B000AF786078
S315200001C0044A7B68536100BF0C37BD465DF8047B4B
S315200001D0704700BF003C014080B485B000AF786016
S315200001E00023FB73084B5A697B681340002B02D00F
S315200001F00123FB7301E00023FB73FB7B18461437B6
S31520000200BD465DF8047B7047003C014080B483B056
S3152000021000AF7860044A7B68536100BF0C37BD4647
S315200002205DF8047B704700BF003C0140314900E087
S315200002303149EFF3088020ED108A7246EFF31183DF
S3152000024020E9FC0F2D4FD7F80080C8F800001EE0EB
S31520000250084600F0E9FA2A4800F0E6FA294800F0B4
S31520000260E3FAD8F8040000F02BFB274800F0DCFA6C
S31520000270D8F8000000F0F5FA244800F0D5FAD8F8AE
S315200002800000006800F0EDFA1D4800F0CDFADFF816
S315200002908080D8F80080C7F8008018E01D4800F05C
S315200002A0C3FAD8F8040000F00BFB1B4800F0BCFA98
S315200002B0D8F8000000F0D5FA144800F0B5FAD8F8BE
S315200002C00000006800F0CDFA0D4800F0ADFA134AA0
S315200002D0536843F00063536000BFD8F80000B0E8CD
S315200002E0FC0F83F311889646B0EC108A80F30888B9
S315200002F0704700009C950020AD9500204096002078
S315200003001D960020CE950020E6950020EE95002033
S31520000310241F0120F79500200C96002000ED00E018
S3152000032080B500AF01214FF4804002F025FD002169
S315200003304FF4804002F020FD00BF80BD80B483B022
S3152000034000AF0346FB71044AFB79136000BF0C37EC
S31520000350BD465DF8047B70470038014080B483B009
S3152000036000AF0346FB71044AFB79136000BF0C37CC
S31520000370BD465DF8047B70472000274280B485B0D7
S3152000038000AF03460A46FB711346BB710023FB6090
S31520000390BB7903F003039B000F2202FA03F3FB60F1
S315200003A0164ABB799B08DBB2023352F82320FB683E
S315200003B0DB431248B9798908C9B21A408B1C40F828
S315200003C023200E4ABB799B08DBB2023352F8232046
S315200003D0F979BB7903F003039B0001FA03F307487D
S315200003E0B9798908C9B21A438B1C40F8232000BF6B
S315200003F01437BD465DF8047B704700BF00380140C6
S3152000040080B483B000AF7860044A7B68136000BF75
S315200004100C37BD465DF8047B704700BFDC002742E1
S3152000042080B483B000AF0346FB71044AFB791360A6
S3152000043000BF0C37BD465DF8047B70470004274299
S3152000044080B483B000AF0023FB71094B1B6A03F411
S315200004508073002B02D00123FB7101E00023FB7186
S31520000460FB7918460C37BD465DF8047B704700BF04
S315200004700038014080B400AF00BFBD465DF8047B64
S31520000480704780B586B000AF454805F0FFFE454869
S3152000049006F068F9444806F065F901214FF000702E
S315200004A002F0AAFB01214FF0806002F0A5FB01219A
S315200004B0022002F041FB09220921394806F008F9F9
S315200004C009220821364806F003F907F110031846D9
S315200004D006F01DF84FF400733B6102233B750023A1
S315200004E0BB750023FB7502237B7507F110031946A4
S315200004F02B4805F07DFF4FF480733B6102233B754B
S315200005000023BB750123FB7502237B7507F11003BE
S315200005101946234805F06CFF09220621204806F0DB
S31520000520D7F8092205211E4806F0D2F840233B6160
S3152000053002233B750023BB750023FB7502237B75C5
S3152000054007F110031946164805F052FF20233B6198
S3152000055002233B750023BB750123FB7502237B75A4
S3152000056007F1100319460E4805F042FF0023BB721F
S315200005700023FB7201233B7300233B8000237B80F7
S315200005800023BB800023FB8000233B8101237B7358
S315200005903B46184606F0DBF900BF1837BD4680BD3E
S315200005A000040240006400400068004080B586B028
S315200005B000AF01214FF0005002F01EFB07F110039F
S315200005C0184605F0A4FF20233B6103233B75002337
S315200005D0FB7507F1100319460F4805F009FF03F0D4
S315200005E093FD3B46184603F0D1FD00233B600023D4
S315200005F07B600023FB603B461946102003F092FDEA
S315200006000121102003F0D8FD0021082003F082FEEE
S3152000061000BF1837BD4680BD0000024080B584B0BB
S3152000062000AF01214FF4804002F006FB0721012094
S31520000630FFF7A4FEFFF7F2FC3B461846FFF77AFDCC
S3152000064080233B6000233B710C237B710123BB710C
S315200006503B461846FFF7FCFC07F10803184605F051
S3152000066056FF0223BB6001233B730123BB73002388
S31520000670FB7301237B7307F108031946184805F01D
S31520000680B7FE0123BB6001233B730123BB73002309
S31520000690FB7301237B7307F108031946104805F005
S315200006A0A7FE012202210E4805F0D9FF01220121D1
S315200006B00B4805F0D4FF8023BB6000233B73002347
S315200006C0BB730023FB7301237B7307F108031946D1
S315200006D0034805F08DFE00BF1037BD4680BD00BF24
S315200006E00004024080B483B000AFEFF314833B6074
S315200006F03B6823F003037B607B6883F3148800BF89
S31520000700094B4FF404725A61074B5B69064A43F062
S3152000071008035361054B4FF000425A6000BF0C3767
S31520000720BD465DF8047B704700ED00E030EF00E049
S3152000073080B500AF0121082002F05EFA01210820D1
S3152000074002F09AFB00BF80BD80B400AF124A02E0DF
S31520000750002342F8043B114B9A42F9D300BFBD4611
S315200007605DF8047B704780B500AFFFF7EDFFFFF71C
S3152000077081FEFFF786FEFFF719FFFFF74FFFFFF712
S31520000780B1FFFFF7D5FF00BF80BD80B400AF00BF2B
S31520000790BD465DF8047B7047D09B0020601F01207A
S315200007A080B483B000AF0346FB71FB7903F01F03CF
S315200007B0012202FA03F1064A97F907305B0942F84B
S315200007C0231000BF0C37BD465DF8047B704700BF81
S315200007D000E100E080B483B000AF03463960FB71CE
S315200007E097F90730002B0BDA3B68DAB20C49FB7914
S315200007F003F00F03043B1201D2B20B441A7609E030
S315200008003B68DAB2074997F907301201D2B20B4496
S3152000081083F8002300BF0C37BD465DF8047B704784
S3152000082000ED00E000E100E080B582B000AF786026
S315200008300EE07B681B780D2B07D07B685A1C7A60EC
S315200008401B78184600F05EF902E07B6801337B6076
S315200008507B681B78002BECD100BF00BF0837BD4654
S3152000086080BD80B586B000AF786000237B617B6851
S3152000087003F00F027B69591C796110498A5C183391
S315200008803B4403F80C2C7B681B097B607B68002BA0
S31520000890EDD10AE07B69013B7B6107F10C027B69A4
S315200008A013441B78184600F02DF97B69002BF1D1F3
S315200008B000BF00BF1837BD4680BD00BF2096002070
S315200008C080B59EB000AF78607B68002B02DA4FF0CF
S315200008D0FF3300E001233B677B683A6F02FB03F39B
S315200008E07B6000237B6779681C4B83FB01239A106E
S315200008F0CB17D21A13469B0013445B00CA1A7B6F90
S31520000900591C796716498A5C78333B4403F86C2C6A
S315200009107B68124A82FB03129210DB17D31A7B6084
S315200009207B68002BDFD13B6F002B0EDA2D2000F0E9
S31520000930E9F80AE07B6F013B7B6707F10C027B6FCE
S3152000094013441B78184600F0DDF87B6F002BF1D19D
S3152000095000BF00BF7837BD4680BD00BF67666666AC
S315200009602096002080B483B000AF10237B607B6884
S3152000097083F3118800BF00BF0C37BD465DF8047BAA
S31520000980704780B483B000AF30237B607B6883F3ED
S31520000990118800BF00BF0C37BD465DF8047B704749
S315200009A080B584B000AF78600B48FFF73DFF0B4B56
S315200009B01B68002B02D1094B094A1A60074B1B689A
S315200009C0FB60064B1A687B681344044A1360FB6875
S315200009D018461037BD4680BD348C0020D09B0020A1
S315200009E0601F012080B485B000AF786039603B6815
S315200009F003F5F95310337A6813607B681B68BB6074
S31520000A000023FB6009E0FB689A00BB6813441A4682
S31520000A1000231360FB680133FB60FB68332BF2DD98
S31520000A20BB686FF016021A60BB6804331A460323AC
S31520000A301360BB6884331A464FF08073136000BF7F
S31520000A401437BD465DF8047B704780B485B000AF8F
S31520000A50786039607B681B688033FB60FB683A6886
S31520000A601A6000BF1437BD465DF8047B704780B519
S31520000A7084B000AF1C4803F06FFD3B1D184603F001
S31520000A80B7FE40F24733BB803B1D1946164803F09C
S31520000A9043FE164B164A1A6002216FF00100FFF73B
S31520000AA099FE144B144A1A6000216FF00400FFF7D8
S31520000AB091FE124B124A1A6002213220FFF78AFE5B
S31520000AC03220FFF76DFE0021074803F0DBFE0121EF
S31520000AD0054803F0A4FF01220221034804F073FF16
S31520000AE000BF1037BD4680BD000C004038C0012035
S31520000AF0310200202CC001202D02002008C1012037
S31520000B008B0E002080B582B000AF0346FB71FB79C7
S31520000B109BB21946074801F09EF900BF802105487F
S31520000B2001F088FB0346002BF8D000BF00BF083732
S31520000B30BD4680BD0010014080B500AF124803F0CD
S31520000B40BDFE03461A46114B1A60114B01221A604C
S31520000B50104B00221A60104B1B68002B06D00E4B40
S31520000B601B680E4A1268002110469847084B00223F
S31520000B701A60084B1B68002B01D000F05DFA054B6C
S31520000B8000221A6080BD00BF000C00401C1F0120FF
S31520000B90141F0120181F0120281F0120341F0120A7
S31520000BA080B500AF124803F089FE03461A46114B62
S31520000BB01A60114B01221A60104B00221A60104B4A
S31520000BC05B68002B06D00E4B5B680E4A52680121EB
S31520000BD010469847084B00221A60084B1B68002BCA
S31520000BE001D000F029FA054B00221A6080BD00BF13
S31520000BF0000C00401C1F0120141F0120181F01207B
S31520000C00281F0120341F012080B500AF124803F0B1
S31520000C1055FE03461A46114B1A60114B01221A60E3
S31520000C20104B00221A60104B9B68002B06D00E4BEF
S31520000C309B680E4A9268022110469847084B00226C
S31520000C401A60084B1B68002B01D000F0F5F9054B04
S31520000C5000221A6080BD00BF000C00401C1F01202E
S31520000C60141F0120181F0120281F0120341F0120D6
S31520000C7080B485B000AF786039600023FB603B68A4
S31520000C801B68BB6004E0BB68FB60BB681B68BB607D
S31520000C90BB68002B05D0BB689A687B689B689A4224
S31520000CA0F1DD7B68BA681A60FB68002B03D13B68CC
S31520000CB07A681A6002E0FB687A681A6000BF143707
S31520000CC0BD465DF8047B704780B485B000AF786080
S31520000CD039600023FB603B681B68BB6004E0BB688F
S31520000CE0FB60BB681B68BB60BB68002B05D0BB687C
S31520000CF05A687B685B689A42F1DD7B68BA681A603D
S31520000D00FB68002B03D13B687A681A6002E0FB6817
S31520000D107A681A6000BF1437BD465DF8047B7047B9
S31520000D2080B584B000AF78607B681B68FB60FB6889
S31520000D30002B04D0FB681A687B681A600CE009480F
S31520000D40FFF772FD00220221074805F088FC0748BC
S31520000D50FFF76AFD30BFFDE7FB6818461037BD4632
S31520000D6080BD00BF4C8C002000040240588C00201F
S31520000D7080B584B000AF78607B681B68FB60FB6839
S31520000D80002B04D0FB681A687B681A600CE00948BF
S31520000D90FFF74AFD00220221074805F060FC0748BC
S31520000DA0FFF742FD30BFFDE7FB6818461037BD460A
S31520000DB080BD00BF4C8C002000040240648C0020C3
S31520000DC080B483B000AF786039603B681A687B686E
S31520000DD01A603B687A681A6000BF0C37BD465DF81A
S31520000DE0047B704780B483B000AF786039603B687D
S31520000DF01A687B689A603B687A681A6000BF0C376D
S31520000E00BD465DF8047B704780B485B000AF78603E
S31520000E107B681B68FB60FB689A687B681A60FB68C6
S31520000E2018461437BD465DF8047B704780B485B0FC
S31520000E3000AF786039600023FB603B681B68BB60AD
S31520000E4004E0BB68FB60BB681B68BB60BB68002B0B
S31520000E5003D0BA687B689A42F3D1BB68002B0DD0C9
S31520000E60FB68002B04D0BB681A68FB681A6003E095
S31520000E70BB681A683B681A60012300E00023184605
S31520000E801437BD465DF8047B704780B582B000AF4D
S31520000E9002211E4804F021FE1C4803F00FFD0346E4
S31520000EA07B6007E01A48FFF73BFF034619491846BF
S31520000EB0FFF7DEFE164B1B68002B06D0144B1B6873
S31520000EC05A687B68D31A002BECDD114B1B68002B6C
S31520000ED016D00E4803F0F2FC03463B600C4B1B6811
S31520000EE05B683A689A4204DD002202210A4805F02E
S31520000EF0B6FB074B1B685B681946044804F01DF8CF
S31520000F0000F09AF800BF0837BD4680BD000C0040AF
S31520000F10101F01200C1F0120000402400346024A34
S31520000F20136010DFF74600BF241F01200346054A41
S31520000F301360054B5B68044A43F080535360F746C1
S31520000F4000BF00BF241F012000ED00E080B582B065
S31520000F5000AF7860094B5B68C3F30803002B03D10D
S31520000F607868FFF7DBFF02E07868FFF7DFFFFFF71F
S31520000F7008FD00BF0837BD4680BD00BF00ED00E07C
S31520000F8090B585B000AF234B1C682348FFF7C8FEF9
S31520000F900346E360E368BB60FFF7F3FCBB68D868F1
S31520000FA0BB681969BB685B691A4600F015F9FFF73B
S31520000FB0D9FC1A49B868FFF703FF194B1B689B68D1
S31520000FC0DB687B60144B1B68002B0AD07B68002BE8
S31520000FD0D9D0114B1B689A687B689B68D31A002B63
S31520000FE0D1DD0F48FFF710FF03460E491846FFF7DD
S31520000FF0F9FE0B4B1B68FB6003E0FB681B691B6853
S31520001000FB60FB681B69002BF7D1F868FFF79EFF92
S31520001010B9E700BF409600200C1F0120349600201F
S315200010203C9600203896002080B500AF00F004F8EA
S31520001030FFF7A7FC30BFFBE780B582B000AF144BAB
S315200010401B68DB687B60134B1B68002B1BD0124B85
S315200010501B68002B17D07B68002B07D00D4B1B6815
S315200010609A687B689B68D31A002B0CDA0A48FFF72C
S31520001070CBFE034606491846FFF7B4FE044B1B6811
S315200010801846FFF763FF00BF0837BD4680BD00BF87
S315200010903C9600200C1F01203896002080B588B091
S315200010A000AFF860B9607A603B60EFF312833B6172
S315200010B03B691B09012B14BF01230023DBB2FB77FD
S315200010C0FFF750FC3A48FFF753FEB861BB697A68D0
S315200010D0DA60BB693A681A61BB69BA6A5A61354BEC
S315200010E01B68002B04D1344B1B68DB685B6801E06E
S315200010F0324B1B68FA681A44BB695A60BB695A6846
S31520001100BB68002B01DDBB6801E06FF000431A4489
S31520001110BB699A602A4803F0D1FB03467B61BB6911
S315200011205A687B69D31A002B16DD2649B869FFF762
S31520001130CBFD244B1B685B687A699A4204DD00224A
S315200011400221214805F08BFA1E4B1B685B68194665
S315200011501B4803F0F2FE21E01C49B869FFF788FD21
S31520001160FB7F002B1AD01A4B1B68002B16D0174B6F
S315200011701B689A68174B1B68DB689B68D31A002B81
S315200011800CDA1348FFF740FE034612491846FFF7CC
S3152000119029FE104B1B681846FFF7D8FEFB7F002B55
S315200011A001D0FFF7EEFBBB6918462037BD4680BD50
S315200011B034960020141F0120409600201C1F012079
S315200011C0000C0040101F0120000402400C1F0120CB
S315200011D0389600203C96002080B588B000AFF86095
S315200011E0B9607A60EFF312833B613B691B09012BDF
S315200011F014BF01230023DBB2FB76FFF7B3FBFB68AA
S315200012001B68FB61FB69002B37D003E0FB691B6978
S315200012101B68FB61FB691B69002BF7D1304B1B68F0
S31520001220FA699A4202D0FB7E002B07D1FB7E002B67
S3152000123001D0FFF7A6FB4FF0FF334DE0FB685B685C
S31520001240002B03D0FB685B6800221A61244B1A68C6
S31520001250FB685A60224B1B68FA681A61F869FFF727
S3152000126075FE1F4B1B68DB68002B06D1FB7E002B0F
S3152000127001D0FFF786FB00232EE0194B1A68FB6886
S315200012801A60FB7E002B05D0FB685B68012B01D022
S31520001290FFF777FBBB687968F86898477861FFF7AE
S315200012A061FBFB6800221A60FB685B68FB61FB69D7
S315200012B0002B0BD0FB69012B08D0FB6800225A605B
S315200012C0FB6900221A61F869FFF740FEFB7E002BBE
S315200012D001D0FFF756FB7B6918462037BD4680BDF7
S315200012E04096002080B586B000AF7860EFF3128379
S315200012F0FB60FB681B09012B14BF01230023DBB213
S31520001300FB74FFF72FFB1F497868FFF78FFD034615
S31520001310002B06D11C497868FFF788FD0346002B71
S3152000132004D01A497868FFF74BFD21E0184B1B685B
S315200013307B611AE0174B1B687A699A4212D07B6947
S31520001340DB687A689A420DD17B691A697B68DB680B
S315200013509A4207D17B690022DA600C497868FFF748
S315200013602FFD05E07B699B687B617B69002BE1D1C2
S31520001370FB7C002B01D0FFF704FB00BF1837BD46CE
S3152000138080BD00BF101F01200C1F012034960020B5
S315200013903C9600204096002080B485B000AF78604F
S315200013A0EFF31283FB60FB681B09012B04D0074B6C
S315200013B01B68DB685B6801E0054B1B687A68136075
S315200013C000BF1437BD465DF8047B70474096002069
S315200013D01C1F012080B485B000AF7860EFF3128324
S315200013E0FB60FB681B09012B04D0084B1B68DB68DC
S315200013F05B6801E0064B1B687A6812689B1A1846E0
S315200014001437BD465DF8047B704700BF4096002028
S315200014101C1F012080B584B000AFEFF312837B60E0
S315200014207B681B09012B14BF01230023DBB2FB734E
S31520001430FFF798FA0C4803F041FA0346BB60FB7BA2
S31520001440002B01D0FFF79DFAFB7B002B04D0074B26
S315200014501B68DB685B6801E0054B1B68BA68D31A1A
S3152000146018461037BD4680BD000C0040409600202F
S315200014701C1F012080B582B000AF00237B6012E0E4
S315200014807B685A1C13465B001344DB00444A9918B8
S3152000149043487A6813465B001344DB000344196013
S315200014A07B6801337B607B681C2BE9DD3C4B00228B
S315200014B0C3F8B82200237B6013E07B685A1C1346CE
S315200014C09B0013449B00374A991836487A6813467E
S315200014D09B0013449B000344083319607B68013347
S315200014E07B607B68022BE8DD2E4B00225A640023AA
S315200014F07B6030E02B497A6813469B0013449B009F
S315200015000B4404337A681A607A6813469B001344A6
S315200015109B00244A1A447B685B0323490B441946E3
S315200015201046FFF75FFA7A6813469B0013449B0028
S315200015301C4A13441D491846FFF787FA19497A6849
S3152000154013469B0013449B000B44103300221A6061
S315200015507B6801337B607B68032BCBDD144B4FF01C
S31520001560FF325A60124B00229A60114B00221A61F8
S315200015700F4B0022DA600F48FFF756F90E48FFF7A7
S3152000158053F90E48FFF750F90A48FFF74DF9094875
S31520001590FFF74AF9FFF76BFA00BF0837BD4680BD53
S315200015A0D49B0020A49E0020F89E0020810F0020BE
S315200015B0F81E0120708C0020748C0020808C002066
S315200015C080B586B000AFF860B9601346FB71FB7931
S315200015D0022B41D8EFF312833B613B691B09012B98
S315200015E014BF01230023DBB2FB75FFF7BBF9FB79A0
S315200015F0022B0ED0022B10DC002B02D0012B04D0A4
S315200016000BE0174B174A1A6014E0174B174A1A605B
S3152000161010E0174B174A1A600CE01748FFF704F939
S3152000162000220221154805F01AF81548FFF7FCF8A4
S3152000163030BFFDE7FB791349FA6841F82320FB798F
S315200016401149BA6841F82320FB6801225A60FB7DC4
S31520001650002B01D0FFF795F900BF1837BD4680BD96
S31520001660D4C00120390B002090C00120A10B0020FE
S315200016709CC00120090C00204C8C00200004024054
S31520001680988C0020341F0120281F012080B586B0A9
S3152000169002AFF860B9607A60FFF764F9FFF7EAFEF7
S315200016A0BB68002B16D00F4803F008F903461A46EC
S315200016B00D4B1A600D4B01221A607B680093BB68A4
S315200016C0FA6800210020FFF7E9FC084B00221A6087
S315200016D0FFF7B2FCFFF7A8FC002318461037BD46DB
S315200016E080BD00BF000C00401C1F0120141F0120DC
S315200016F080B586B002AF786039600023FB6002E0D7
S31520001700FB680133FB607B689B68FA689A42F7DBCB
S3152000171082203B680093044B7A680021FFF7BEFCC9
S3152000172000BF1037BD4680BDF116002080B483B0BF
S3152000173000AF786039607B689B6818460C37BD46D9
S315200017405DF8047B704780B483B000AF7860396061
S315200017503B68B3F57A7F08DB3B68B3F5FA5F04DCB8
S315200017607B683A689A60002301E04FF0FF33184601
S315200017700C37BD465DF8047B704700BF80B483B04C
S3152000178000AF0346FB71FB7903F01F03012202FA27
S3152000179003F1064A97F907305B0942F8231000BF88
S315200017A00C37BD465DF8047B704700BF00E100E0C2
S315200017B080B483B000AF03463960FB7197F90730D8
S315200017C0002B0BDA3B68DAB20C49FB7903F00F03E6
S315200017D0043B1201D2B20B441A7609E03B68DAB216
S315200017E0074997F907301201D2B20B4483F8002338
S315200017F000BF0C37BD465DF8047B704700ED00E066
S3152000180000E100E080B582B000AF786039607B6887
S3152000181000229A617B689A697B685A617B685A695B
S315200018207B68DA61012240F225510A4800F0BAFCB1
S31520001830002240F22771074800F0B4FC022125203F
S31520001840FFF7B6FF2520FFF799FF00BF0837BD46F3
S3152000185080BD00BF0010014080B483B000AF786027
S315200018600B46FB707B68DB69B3F5806F17DA7B6804
S315200018705B697A681344FA7883F820207B685B6971
S3152000188001335A42C3F30903C2F3090258BF534234
S315200018907A6853617B68DB695A1C7B68DA6100BF12
S315200018A00C37BD465DF8047B704780B582B000AF2B
S315200018B0786039607B68DB69002B18D17B689B6870
S315200018C0012240F22771184600F06CFC0FE03B68BD
S315200018D01B780A2B03D10D217868FFF7BDFF3B68E3
S315200018E05A1C3A601B7819467868FFF7B5FF3B68A3
S315200018F01B78002BEBD100BF00BF0837BD4680BD4B
S3152000190080B582B000AF786039607B68DB69002BD8
S3152000191007D17B689B68012240F22771184600F0A8
S3152000192041FC3B68DBB219467868FFF795FF00BF9C
S315200019300837BD4680BD80B586B002AF7860396075
S315200019407B689B682021184600F074FC0346012B17
S3152000195018D17B689B68184600F08FFA0346FB6017
S315200019607B68DB68002B0DD07B68DA687B68196999
S31520001970FB6800930B4600210020FFF78FFB234BCB
S3152000198001221A607B689B688021184600F052FC71
S315200019900346012B34D17B68DB69002B28DD7B686D
S315200019A098687B689B697A68134493F820301946B7
S315200019B000F051FA7B689B6901335A42C3F309034D
S315200019C0C2F3090258BF53427A6893617B68DB6988
S315200019D05A1E7B68DA617B68DB69002B10D17B6835
S315200019E09B68002240F22771184600F0DBFB07E0D7
S315200019F07B689B68002240F22771184600F0D2FBD4
S31520001A00002318461037BD4680BD00BF181F012091
S31520001A1080B582B000AF78607B683B4A934208D19C
S31520001A200121102001F0A8F90021102001F0A4F9CD
S31520001A3065E07B68354A93420AD101214FF4003094
S31520001A4001F07AF900214FF4003001F075F956E0E3
S31520001A507B682F4A93420AD101214FF4802001F05E
S31520001A606BF900214FF4802001F066F947E07B688E
S31520001A70284A93420AD101214FF4002001F05CF953
S31520001A8000214FF4002001F057F938E07B68224A04
S31520001A9093420AD101214FF4801001F04DF9002123
S31520001AA04FF4801001F048F929E07B681B4A9342E5
S31520001AB008D10121202001F05FF90021202001F02A
S31520001AC05BF91CE07B68164A93420AD101214FF04C
S31520001AD0804001F031F900214FF0804001F02CF9CF
S31520001AE00DE07B680F4A934209D101214FF0004057
S31520001AF001F022F900214FF0004001F01DF900BF4E
S31520001B000837BD4680BD00BF00100140004400409C
S31520001B1000480040004C00400050004000140140A6
S31520001B2000780040007C004080B58AB000AF786025
S31520001B30396000237B6200233B620023FB61002384
S31520001B40BB617B681B8A9BB27B627B6A23F4405312
S31520001B507B623B68DB881A467B6A13437B627B6A1F
S31520001B609AB27B681A827B689B899BB27B627B6A6E
S31520001B7023F4B05323F00C037B623B689A883B68BE
S31520001B801B8913439AB23B685B8913439BB21A465F
S31520001B907B6A13437B627B6A9AB27B689A817B68F5
S31520001BA09B8A9BB27B627B6A23F440737B623B6891
S31520001BB09B891A467B6A13437B627B6A9AB27B684F
S31520001BC09A8207F10803184600F000FE7B68304A27
S31520001BD0934203D07B682F4A934202D17B693B62B2
S31520001BE001E03B693B627B689B899BB21BB2002B61
S31520001BF00CDA3A6A13469B0013449A001A443B684F
S31520001C001B685B00B2FBF3F3FB610BE03A6A1346F9
S31520001C109B0013449A001A443B681B689B00B2FB46
S31520001C20F3F3FB61FB691C4AA2FB03235B091B013F
S31520001C307B627B6A1B09642202FB03F3FA69D31ACF
S31520001C40BB617B689B899BB21BB2002B0CDABB69FC
S31520001C50DB003233104AA2FB03235B0903F00703A0
S31520001C607A6A13437B620BE0BB691B0132330A4A53
S31520001C70A2FB03235B0903F00F037A6A13437B62FB
S31520001C807B6A9AB27B681A8100BF2837BD4680BD21
S31520001C9000100140001401401F85EB5180B483B031
S31520001CA000AF78607B684FF416521A607B6800227A
S31520001CB09A807B680022DA807B6800221A817B6802
S31520001CC00C225A817B6800229A8100BF0C37BD46C0
S31520001CD05DF8047B704780B485B000AF78603960CA
S31520001CE00023FB607B681B8A9BB2FB60FB6823F4A6
S31520001CF07063FB603B681A883B685B8813439AB223
S31520001D003B689B8813439AB23B68DB8813439BB29C
S31520001D101A46FB681343FB60FB689AB27B681A82FB
S31520001D2000BF1437BD465DF8047B704780B483B08E
S31520001D3000AF78607B6800221A807B6800225A8078
S31520001D407B6800229A807B680022DA8000BF0C37ED
S31520001D50BD465DF8047B704780B483B000AF7860E1
S31520001D600B46FB70FB78002B08D07B689B899BB2C7
S31520001D7043F400539AB27B689A8107E07B689B897B
S31520001D809BB223F400539AB27B689A8100BF0C372A
S31520001D90BD465DF8047B704780B483B000AF7860A1
S31520001DA00B46FB707B681B8B9BB223F0FF039AB21A
S31520001DB07B681A837B681B8B9AB2FB789BB2134392
S31520001DC09AB27B681A8300BF0C37BD465DF8047B48
S31520001DD0704780B483B000AF78600B46FB70FB7809
S31520001DE0002B0AD07B689B899BB26FEA43436FEA3C
S31520001DF053439AB27B689A8107E07B689B899BB2A2
S31520001E00C3F30E039AB27B689A8100BF0C37BD4696
S31520001E105DF8047B704780B483B000AF78600B46D2
S31520001E20FB70FB78002B08D07B689B8A9BB243F41F
S31520001E3000639AB27B689A8207E07B689B8A9BB292
S31520001E4023F400639AB27B689A8200BF0C37BD46A2
S31520001E505DF8047B704780B483B000AF78600B4692
S31520001E607B807B88C3F308039AB27B689A8000BF85
S31520001E700C37BD465DF8047B704780B483B000AF55
S31520001E8078607B689B889BB2C3F308039BB2184695
S31520001E900C37BD465DF8047B704780B483B000AF35
S31520001EA078600B46FB707B681B8A9BB223F00F037E
S31520001EB09AB27B681A827B681B8A9AB2FB789BB29D
S31520001EC013439AB27B681A8200BF0C37BD465DF871
S31520001ED0047B704780B483B000AF78600B46FB70FC
S31520001EE0FB78002B08D07B689B899BB243F00203CA
S31520001EF09AB27B689A8107E07B689B899BB223F024
S31520001F0002039AB27B689A8100BF0C37BD465DF802
S31520001F10047B704780B483B000AF78600B467B802B
S31520001F207B689B899BB223F400639AB27B689A8173
S31520001F307B689B899AB27B8813439AB27B689A8185
S31520001F4000BF0C37BD465DF8047B704780B483B074
S31520001F5000AF78600B467B807B681B8A9BB223F0A0
S31520001F6020039AB27B681A827B681B8A9AB27B8886
S31520001F7013439AB27B681A8200BF0C37BD465DF8C0
S31520001F80047B704780B483B000AF78600B46FB704B
S31520001F90FB78002B08D07B681B8A9BB243F48043D6
S31520001FA09AB27B681A8207E07B681B8A9BB223F46D
S31520001FB080439AB27B681A8200BF0C37BD465DF813
S31520001FC0047B704780B483B000AF78607B689B89C0
S31520001FD09BB243F001039AB27B689A8100BF0C370B
S31520001FE0BD465DF8047B704780B483B000AF78604F
S31520001FF00B46FB70FB78002B08D07B689B8A9BB234
S3152000200043F008039AB27B689A8207E07B689B8A32
S315200020109BB223F008039AB27B689A8200BF0C37E2
S31520002020BD465DF8047B704780B483B000AF78600E
S315200020300B46FB707B681B8B9BB2DBB29AB27B682C
S315200020401A837B681B8B9AB2FB789BB21B029BB2CE
S3152000205013439AB27B681A8300BF0C37BD465DF8DE
S31520002060047B704780B483B000AF78600B46FB706A
S31520002070FB78002B08D07B689B8A9BB243F0200319
S315200020809AB27B689A8207E07B689B8A9BB223F090
S3152000209020039AB27B689A8200BF0C37BD465DF852
S315200020A0047B704780B483B000AF78600B46FB702A
S315200020B0FB78002B08D07B689B8A9BB243F01003E9
S315200020C09AB27B689A8207E07B689B8A9BB223F050
S315200020D010039AB27B689A8200BF0C37BD465DF822
S315200020E0047B704780B483B000AF78600B467B805A
S315200020F07B689B8A9BB223F004039AB27B689A8200
S315200021007B689B8A9AB27B8813439AB27B689A82B1
S3152000211000BF0C37BD465DF8047B704780B483B0A2
S3152000212000AF78600B46FB70FB78002B08D07B68ED
S315200021309B8A9BB243F002039AB27B689A8207E09D
S315200021407B689B8A9BB223F002039AB27B689A82B1
S3152000215000BF0C37BD465DF8047B704780B483B062
S3152000216000AF78600B467B8013467B707B78002B14
S3152000217008D07B689B8A9AB27B8813439AB27B6885
S315200021809A8209E07B689B8A9AB27B88DB439BB262
S3152000219013409AB27B689A8200BF0C37BD465DF821
S315200021A0047B704780B487B000AF78600B467B8095
S315200021B013467B7000233B610023FB600023BB603A
S315200021C000237B617B687B617B88DBB25B09DBB2AA
S315200021D03B617B8803F01F03FB600122FB6802FA48
S315200021E003F3BB603B69012B03D17B690C337B6115
S315200021F009E03B69022B03D17B6910337B6102E046
S315200022007B6914337B617B78002B06D07B69196848
S315200022107B69BA680A431A6006E07B691968BB685D
S31520002220DA437B690A401A6000BF1C37BD465DF859
S31520002230047B704780B485B000AF78600B467B8006
S315200022400023FB737B681B889AB27B8813409BB262
S31520002250002B02D00123FB7301E00023FB73FB7BE1
S3152000226018461437BD465DF8047B704780B483B0AA
S3152000227000AF78600B467B807B88DB439AB27B6815
S315200022801A8000BF0C37BD465DF8047B704780B4CA
S3152000229087B000AF78600B467B800023FB6000236D
S315200022A07B610023BB600023FB747B88DBB25B0968
S315200022B0DBB2BB607B8803F01F037B6101227B6955
S315200022C002FA03F37B61BB68012B07D17B689B89EC
S315200022D09BB21A467B6913407B6111E0BB68022BD7
S315200022E007D17B681B8A9BB21A467B6913407B61A8
S315200022F006E07B689B8A9BB21A467B6913407B610A
S315200023007B881B0A9BB2FB600122FB6802FA03F35F
S31520002310FB607B681B889BB21A46FB681340FB60F8
S315200023207B69002B05D0FB68002B02D00123FB74B0
S3152000233001E00023FB74FB7C18461C37BD465DF884
S31520002340047B704780B485B000AF78600B467B80F5
S315200023500023FB810023BB817B881B0AFB81FB8931
S31520002360012202FA03F3BB81BB89DB439AB27B6865
S315200023701A8000BF1437BD465DF8047B704700BF46
S3152000238080B400AF164B1B68154A43F00103136057
S31520002390134B00229A60124B1B68114A23F0A85354
S315200023A023F4102313600E4B0E4A5A600C4B0E4A30
S315200023B0C3F884200A4B0D4AC3F88820084B1B68B3
S315200023C0074A23F480231360054B0022DA60044B6E
S315200023D00022C3F88C2000BFBD465DF8047B704701
S315200023E00038024010300024003000200030002445
S315200023F080B483B000AF0346FB71064B00221A70EF
S31520002400044AFB79137000BF0C37BD465DF8047B88
S31520002410704700BF0238024080B582B000AF00236B
S315200024203B600023FB710023BB71312000F08AFD45
S315200024300346BB713B6801333B603B68B3F5A04F55
S3152000244002D0BB79002BF0D0312000F07BFD034673
S31520002450002B02D00123FB7101E00023FB71FB79E5
S3152000246018460837BD4680BD80B485B000AF034608
S31520002470FB710023FB600A4B1B68FB60FB6823F0A3
S31520002480F803FB60FB79DB00FA681343FB60044A20
S31520002490FB68136000BF1437BD465DF8047B7047A8
S315200024A00038024080B483B000AF0346FB71044A73
S315200024B0FB79136000BF0C37BD465DF8047B70477F
S315200024C00000474280B483B000AF0346FB710D4B3A
S315200024D000221A700B4B00221A70FB79012B02D0B6
S315200024E0042B04D007E0074B01221A7003E0054BAA
S315200024F005221A7000BF00BF0C37BD465DF8047B6D
S31520002500704700BF7038024080B483B000AF0346E6
S31520002510FB71044AFB79136000BF0C37BD465DF89A
S31520002520047B7047800E474280B485B000AFF860C8
S31520002530B9607A603B607B689A01BB681A433B6846
S315200025405B08013B1B041A43FB681A43BB691B0645
S31520002550044913434B6000BF1437BD465DF8047B26
S31520002560704700BF0038024080B483B000AF0346F6
S31520002570FB71044AFB79136000BF0C37BD465DF83A
S31520002580047B70476000474280B483B000AF786018
S3152000259039607B689A013B681B0705491343C1F8DC
S315200025A0843000BF0C37BD465DF8047B704700BF02
S315200025B00038024080B483B000AF0346FB71044A62
S315200025C0FB79136000BF0C37BD465DF8047B70476E
S315200025D06800474280B485B000AFF860B9607A6081
S315200025E0FB689A01BB681B061A437B681B070549D3
S315200025F01343C1F8883000BF1437BD465DF8047B0D
S31520002600704700BF0038024080B483B000AF034655
S31520002610FB71044AFB79136000BF0C37BD465DF899
S31520002620047B70477000474280B483B000AF0346F6
S31520002630FB71044AFB79136000BF0C37BD465DF879
S31520002640047B70474C00474280B485B000AF786069
S3152000265039600023FB600B4B9B68FB60FB6823F013
S31520002660EC63FB607A683B681343FA681343FB60AC
S31520002670044AFB68936000BF1437BD465DF8047BAF
S31520002680704700BF0038024080B485B000AF786044
S3152000269039600023FB600B4B9B68FB60FB6823F0D3
S315200026A07843FB607A683B681343FA681343FB6000
S315200026B0044AFB68936000BF1437BD465DF8047B6F
S315200026C0704700BF0038024080B485B000AF786004
S315200026D00023FB60094B9B68FB60FB6823F0030328
S315200026E0FB60FA687B681343FB60044AFB689360CF
S315200026F000BF1437BD465DF8047B704700380240A2
S3152000270080B400AF054B9B68DBB203F00C03DBB251
S315200027101846BD465DF8047B704700BF003802406E
S3152000272080B485B000AF78600023FB60094B9B68BE
S31520002730FB60FB6823F0F003FB60FA687B681343B9
S31520002740FB60044AFB68936000BF1437BD465DF802
S31520002750047B70470038024080B485B000AF7860B3
S315200027600023FB60094B9B68FB60FB6823F4E05366
S31520002770FB60FA687B681343FB60044AFB6893603E
S3152000278000BF1437BD465DF8047B70470038024011
S3152000279080B485B000AF78600023FB600A4B9B684D
S315200027A0FB60FB6823F46043FB607B68DB00FA6810
S315200027B01343FB60044AFB68936000BF1437BD4691
S315200027C05DF8047B704700BF0038024080B489B0B2
S315200027D000AF78600023BB6100237B610023FB618F
S315200027E002233B610023FB600223BB604A4B9B68AC
S315200027F003F00C03BB61BB69082B11D0BB69082B06
S3152000280044D8BB69002B03D0BB69042B04D03DE020
S315200028107B68424A1A603DE07B68414A1A6039E08B
S315200028203D4B5B689B0D03F00103FB603A4B5B68F5
S3152000283003F03F03BB60FB68002B0CD0384ABB6813
S31520002840B2FBF3F3344A52689209C2F3080202FB40
S3152000285003F3FB610BE0314ABB68B2FBF3F32E4A6C
S3152000286052689209C2F3080202FB03F3FB612A4B6A
S315200028705B681B0C03F0030301335B003B61FA69C1
S315200028803B69B2FBF3F27B681A6003E07B68234A5C
S315200028901A6000BF204B9B6803F0F003BB61BB6945
S315200028A01B09BB611F4ABB6913441B78DBB27B61E2
S315200028B07B681A687B69DA407B685A60164B9B688E
S315200028C003F4E053BB61BB699B0ABB61154ABB6934
S315200028D013441B78DBB27B617B685A687B69DA40DC
S315200028E07B689A600C4B9B6803F46043BB61BB69B1
S315200028F05B0BBB610B4ABB6913441B78DBB27B6164
S315200029007B685A687B69DA407B68DA6000BF2437C7
S31520002910BD465DF8047B7047003802400024F40071
S3152000292000127A00BC8C002080B485B000AF78609D
S315200029300023FB607B6803F44073B3F5407F11D11D
S315200029400F4B9B68FB60FB6823F4F813FB607B68E6
S3152000295023F0704323F44073FA681343FB60084A5C
S31520002960FB689360064B1A6F7B68C3F30B0304491D
S3152000297013430B6700BF1437BD465DF8047B7047D1
S315200029800038024080B483B000AF0346FB71044A8E
S31520002990FB79136000BF0C37BD465DF8047B70479A
S315200029A03C0E474280B483B000AF0346FB71044A15
S315200029B0FB79136000BF0C37BD465DF8047B70477A
S315200029C0400E474280B483B000AF7860044A7B68EB
S315200029D0136000BF0C37BD465DF8047B704700BF0F
S315200029E05C01474280B485B000AF78600023FB606D
S315200029F00B4BD3F88C30FB60FB6823F01F03FB6086
S31520002A007B68013BFA681343FB60054AFB68C2F802
S31520002A108C3000BF1437BD465DF8047B704700BF7D
S31520002A200038024080B485B000AF78600023FB6098
S31520002A300B4BD3F88C30FB60FB6823F4F853FB6018
S31520002A407B68013B1B02FA681343FB60044AFB6860
S31520002A50C2F88C3000BF1437BD465DF8047B704742
S31520002A600038024080B485B000AF78600023FB6058
S31520002A700A4BD3F88C30FB60FB6823F44013FB60D1
S31520002A80FA687B681343FB60044AFB68C2F88C3003
S31520002A9000BF1437BD465DF8047B704700380240FE
S31520002AA080B485B000AF78600023FB600A4BD3F872
S31520002AB08C30FB60FB6823F44003FB60FA687B687C
S31520002AC01343FB60044AFB68C2F88C3000BF1437FE
S31520002AD0BD465DF8047B70470038024080B485B05F
S31520002AE000AF78600023FB600A4BD3F88C30FB6084
S31520002AF0FB6823F44033FB60FA687B681343FB6072
S31520002B00044AFB68C2F88C3000BF1437BD465DF816
S31520002B10047B70470038024080B483B000AF7860F1
S31520002B20044A7B68136000BF0C37BD465DF8047B02
S31520002B30704700BFE011474280B483B000AF786091
S31520002B400B46FB70FB78002B06D00A4B1A6B094903
S31520002B507B6813430B6306E0064B1A6B7B68DB43EB
S31520002B60044913400B6300BF0C37BD465DF8047B58
S31520002B70704700BF0038024080B483B000AF786051
S31520002B800B46FB70FB78002B06D00A4B5A6B094983
S31520002B907B6813434B6306E0064B5A6B7B68DB432B
S31520002BA0044913404B6300BF0C37BD465DF8047BD8
S31520002BB0704700BF0038024080B483B000AF786011
S31520002BC00B46FB70FB78002B06D00A4B9A6B094903
S31520002BD07B6813438B6306E0064B9A6B7B68DB436B
S31520002BE0044913408B6300BF0C37BD465DF8047B58
S31520002BF0704700BF0038024080B483B000AF7860D1
S31520002C000B46FB70FB78002B06D00A4B1A6C094941
S31520002C107B6813430B6406E0064B1A6C7B68DB4328
S31520002C20044913400B6400BF0C37BD465DF8047B96
S31520002C30704700BF0038024080B483B000AF786090
S31520002C400B46FB70FB78002B06D00A4B5A6C0949C1
S31520002C507B6813434B6406E0064B5A6C7B68DB4368
S31520002C60044913404B6400BF0C37BD465DF8047B16
S31520002C70704700BF0038024080B483B000AF786050
S31520002C800B46FB70FB78002B06D00A4B1A690949C4
S31520002C907B6813430B6106E0064B1A697B68DB43AE
S31520002CA0044913400B6100BF0C37BD465DF8047B19
S31520002CB0704700BF0038024080B483B000AF786010
S31520002CC00B46FB70FB78002B06D00A4B5A69094944
S31520002CD07B6813434B6106E0064B5A697B68DB43EE
S31520002CE0044913404B6100BF0C37BD465DF8047B99
S31520002CF0704700BF0038024080B483B000AF7860D0
S31520002D000B46FB70FB78002B06D00A4B9A690949C3
S31520002D107B6813438B6106E0064B9A697B68DB432D
S31520002D20044913408B6100BF0C37BD465DF8047B18
S31520002D30704700BF0038024080B483B000AF78608F
S31520002D400B46FB70FB78002B06D00A4B1A6A094902
S31520002D507B6813430B6206E0064B1A6A7B68DB43EB
S31520002D60044913400B6200BF0C37BD465DF8047B57
S31520002D70704700BF0038024080B483B000AF78604F
S31520002D800B46FB70FB78002B06D00A4B5A6A094982
S31520002D907B6813434B6206E0064B5A6A7B68DB432B
S31520002DA0044913404B6200BF0C37BD465DF8047BD7
S31520002DB0704700BF0038024080B483B000AF78600F
S31520002DC00B46FB70FB78002B06D00A4B1A6D09497F
S31520002DD07B6813430B6506E0064B1A6D7B68DB4365
S31520002DE0044913400B6500BF0C37BD465DF8047BD4
S31520002DF0704700BF0038024080B483B000AF7860CF
S31520002E000B46FB70FB78002B06D00A4B5A6D0949FE
S31520002E107B6813434B6506E0064B5A6D7B68DB43A4
S31520002E20044913404B6500BF0C37BD465DF8047B53
S31520002E30704700BF0038024080B483B000AF78608E
S31520002E400B46FB70FB78002B06D00A4B9A6D09497E
S31520002E507B6813438B6506E0064B9A6D7B68DB43E4
S31520002E60044913408B6500BF0C37BD465DF8047BD3
S31520002E70704700BF0038024080B483B000AF78604E
S31520002E800B46FB70FB78002B06D00A4B1A6E0949BD
S31520002E907B6813430B6606E0064B1A6E7B68DB43A2
S31520002EA0044913400B6600BF0C37BD465DF8047B12
S31520002EB0704700BF0038024080B483B000AF78600E
S31520002EC00B46FB70FB78002B06D00A4B5A6E09493D
S31520002ED07B6813434B6606E0064B5A6E7B68DB43E2
S31520002EE0044913404B6600BF0C37BD465DF8047B92
S31520002EF0704700BF0038024080B483B000AF03465D
S31520002F000A46FB711346BB71BB79002B08D00C4BCC
S31520002F101B78DAB20A49FB791343DBB20B7009E05E
S31520002F20074B1B78DAB2FB79DB43DBB2044913404B
S31520002F30DBB20B7000BF0C37BD465DF8047B7047D3
S31520002F400D38024080B487B000AF0346FB710023E2
S31520002F50FB6000237B610023FB74FB795B09DBB2FA
S31520002F60FB60FB68012B03D1124B1B687B6109E0D8
S31520002F70FB68022B03D10F4B1B6F7B6102E00D4BCD
S31520002F805B6F7B61FB7903F01F03FB607A69FB684B
S31520002F9022FA03F303F00103002B02D00123FB7472
S31520002FA001E00023FB74FB7C18461C37BD465DF808
S31520002FB0047B70470038024080B400AF054B5B6F3E
S31520002FC0044A43F08073536700BFBD465DF8047B17
S31520002FD0704700BF0038024080B485B000AF03467A
S31520002FE0FB710023FB73094BDA68FB791340002B36
S31520002FF002D00123FB7301E00023FB73FB7B184601
S315200030001437BD465DF8047B704700BF0038024088
S3152000301080B483B000AF0346FB71044AFB7913707A
S3152000302000BF0C37BD465DF8047B70470E38024062
S3152000303080B586B000AF7860396007F10C031A4678
S315200030400A490B48FEF7C8F80A4B1A460A490B48A4
S31520003050FEF7C2F807F10C0303331A460649074860
S31520003060FEF7BAF800BF1837BD4680BD9D3F002049
S31520003070089B00201C8E0020AB180020E89600201C
S3152000308080B5BEB002AF78603960B14B1A46B149FF
S31520003090B148FEF7A1F83A68B049AF48FEF79CF868
S315200030A0AF4B1A46AB49AC48FEF796F83B682D3B2A
S315200030B0382B00F24A8401A252F823F0A1310020D5
S315200030C04B3900204B390020A1310020A1310020AE
S315200030D0A1310020A1310020A1310020A131002002
S315200030E0A1310020A1310020A1310020A1310020F2
S315200030F04B3900204B3900204B3900204B3900201A
S315200031004B3900204B3900204B3900204B39002009
S315200031104B3900204B3900204B3900204B390020F9
S31520003120553200204B3900204B390020D73700205C
S315200031304B3900207B320020E5360020BF340020AA
S315200031404B3900204B390020C53600204B39002052
S315200031504B3900204B3900204B3900209138002074
S31520003160E13300204B390020E93400204B39002080
S315200031709B3500204B3900204B3900204B3900204D
S315200031804B3900204B3900204B3900204B39002089
S315200031904B3900204B3900204B390020B931002013
S315200031A07B689B68591C7A6891603A68D1B27A68C4
S315200031B013440A465A73C9E37B689B687A681344AA
S315200031C000225A737B6800229A607B685A6C7B685F
S315200031D09A647B681A6C7B685A647B680D33184640
S315200031E004F062FF02467B681A640323C7F8E830BE
S315200031F07B68DB6CD7F8E8209A4204DD7B68DB6CC1
S315200032005A1C7B68DA647B681A6C7B685B6C1A4490
S315200032107B689B6C1344C7F8E4300021786800F083
S31520003220BDFBC7F8E0007B681A6C07F10800D7F8E9
S31520003230E0300193D7F8E43000931346494AC82179
S3152000324004F0FEFE07F108031A4642494248FDF7FC
S31520003250C3FF7BE37B6800221A647B6800225A64E2
S315200032607B6800229A647B680022DA643E4B1A4609
S3152000327038493948FDF7B0FF68E307F108033B4AB0
S31520003280C821184604F0DCFE07F108031A46314926
S315200032903148FDF7A1FF7B689B687A6813440022BA
S315200032A05A737B6800229A607B680D33184604F0B7
S315200032B0FBFE02467B681A657B681B6D13F1040FC3
S315200032C0C0F287807B681B6D042B00F38280284B1D
S315200032D01A4620492048FDF77FFF7B681B6D07F1C2
S315200032E00800244A202104F0ABFE07F108031A4601
S315200032F018491948FDF770FF1F4B1A4615491648FD
S31520003300FDF76AFF1D4B1A4612491348FDF764FF65
S315200033100023C7F8EC3051E0194AD7F8EC3052F8C0
S315200033202330C7F8D4307B681B6D1946D7F8D400F4
S3152000333000F0BAFBC7F8D000D7F8D030002B23D145
S31520003340104B1A4603490448FDF746FF3AE000BFF2
S31520003350308E0020AB180020E896002001190020AE
S31520003360388E00203C8E00206C8E00208C8E002013
S31520003370A08E0020A88E0020AC8E0020B08E0020CB
S31520003380D08C0020C08E002007F10800D7F8D0305E
S31520003390A34AC82104F054FE07F108031A46A1499E
S315200033A0A148FDF719FFA14B1A469E499E48FDF7F5
S315200033B013FFD7F8EC300133C7F8EC30D7F8EC30F0
S315200033C01F2BA9DD9A4B1A4696499748FDF704FF0D
S315200033D0BCE2984B1A4693499348FDF7FDFEB5E2A9
S315200033E07B689B687A68134400225A737B680022A4
S315200033F09A607B680D33184604F056FE03468E4AC3
S3152000340013608D4B1B68002B19D18C4B1A468549AE
S315200034108548FDF7E1FE002289498A48FDF7DCFE52
S31520003420034607F10800884AC82104F009FE07F17F
S3152000343008031A467B497C48FDF7CEFE86E27E4B82
S315200034401B681A4681497F48FDF7C6FE02467A4B1D
S315200034501B689A4213D1002279497A48FDF7BCFEAF
S31520003460034607F108007A4AC82104F0E9FD07F16E
S3152000347008031A466B496C48FDF7AEFE66E2754BAB
S315200034801A4668496848FDF7A7FE00226C496D4830
S31520003490FDF7A2FE034607F10800614AC82104F0A1
S315200034A0CFFD07F108031A465E495F48FDF794FEF3
S315200034B0694B1A465B495C48FDF78EFE46E27B68FF
S315200034C09B687A68134400225A737B6800229A60AC
S315200034D0002262495B48FDF77FFE614B1A4651493F
S315200034E05148FDF779FE31E27B689B687A68134480
S315200034F000225A737B6800229A6000225049514864
S31520003500FDF76AFE03464C4A13604B4B1B6801339A
S31520003510C7F8D830D7F8D830052B18DCD7F8D820FC
S315200035204A494848FDF758FE0346434A1360424B32
S315200035301B6807F108004B4AC82104F081FD07F1FA
S3152000354008031A4637493848FDF746FEFEE1464B42
S315200035501A4634493448FDF73FFE07F10800052393
S3152000356000930123414AC82104F06AFD07F10803AC
S315200035701A462C492C48FDF72FFE2F4B1B6807F1C6
S3152000358008003B4AC82104F05BFD07F108031A46F0
S3152000359024492548FDF720FED8E17B689B687A6898
S315200035A0134400225A737B6800229A600022244921
S315200035B02448FDF711FE03461F4A13601E4B1B6865
S315200035C007F108002B4AC82104F03AFD07F1080349
S315200035D01A4614491448FDF7FFFD174B1B68013B9B
S315200035E0C7F8DC30D7F8DC30002B45DDD7F8DC20F7
S315200035F016491448FDF7F0FD03460F4A13600E4B9B
S315200036001B6807F10800174AC82104F019FD07F1C5
S3152000361008031A4603490448FDF7DEFD96E100BF7C
S31520003620A88E0020AB180020E8960020AC8E002043
S31520003630E48E0020FC8E0020441F0120108F0020E5
S315200036407561002098960020248F00208F6100202D
S31520003650388F0020488F0020688F0020E7610020E7
S315200036607C8F0020848F0020988F0020B88F002028
S31520003670E48F0020FC8F0020B64B1A46B649B74887
S31520003680FDF7AAFD07F10800052300930123B44A9C
S31520003690C82104F0D5FC07F108031A46AE49AF4805
S315200036A0FDF79AFDAF4B1B6807F10800AE4AC8210B
S315200036B004F0C6FC07F108031A46A749A748FDF7F8
S315200036C08BFD43E1A94B1A46A949AA48FDF784FD7B
S315200036D07B689B687A68134400225A737B680022B1
S315200036E09A6033E17B689B687A68134400225A7398
S315200036F07B6800229A607B680D33184604F0D4FC60
S3152000370003469D4A13609C4B1B68002B19D19B4B8B
S315200037101A4691499148FDF75FFD0022984999483C
S31520003720FDF75AFD034607F10800974AC82104F021
S3152000373087FC07F108031A4687498848FDF74CFDA0
S3152000374004E18D4B1B681A4690498E48FDF744FDCF
S315200037500346002B13D1002289498A48FDF73CFDF8
S31520003760034607F108008A4AC82104F069FC07F1DC
S3152000377008031A4678497948FDF72EFDE6E0854B81
S315200037801A4675497548FDF727FD07F108004FF4DD
S31520003790FA5300934FF47A73714AC82104F050FC0F
S315200037A007F108031A466C496C48FDF715FD0022FF
S315200037B073497448FDF710FD034607F10800724A65
S315200037C0C82104F03DFC07F108031A466249634804
S315200037D0FDF702FDBAE07B689B687A6813440022F5
S315200037E05A737B6800229A60002265496548FDF776
S315200037F0F3FC0346604A13605F4B1B6803F5FA73BC
S315200038001A4662495F48FDF7E7FC0346002B13D1B1
S3152000381000225B495B48FDF7DFFC034607F1080001
S315200038205B4AC82104F00CFC07F108031A464A49F2
S315200038304A48FDF7D1FC89E0564B1A464649474887
S31520003840FDF7CAFC07F108004FF4FA5300934FF432
S315200038507A73434AC82104F0F3FB07F108031A469A
S315200038603D493E48FDF7B8FC002245494548FDF74D
S31520003870B3FC034607F10800474AC82104F0E0FBE1
S3152000388007F108031A4634493448FDF7A5FC5DE0E4
S315200038907B689B687A68134400225A737B680022EF
S315200038A09A60002236493748FDF796FC0346324A8D
S315200038B01360314B1B68A3F5FA731A463349314816
S315200038C0FDF78AFC0346002B13D100222C492D48F4
S315200038D0FDF782FC034607F108002D4AC82104F0B3
S315200038E0AFFB07F108031A461B491C48FDF774FC79
S315200038F02CE0284B1A4618491848FDF76DFC07F1AD
S3152000390008004FF4FA5300934FF47A73144AC821EF
S3152000391004F096FB07F108031A460F490F48FDF7F6
S315200039205BFC002216491748FDF756FC034607F1B3
S315200039300800194AC82104F083FB07F108031A4638
S3152000394005490648FDF748FC00E000BF00BFF037F8
S31520003950BD4680BD988F0020AB180020E896002039
S31520003960B88F0020441F0120E48F0020A93A0020B0
S31520003970C961002098960020401F01201090002049
S315200039802D170020DC9600203090002047170020BD
S31520003990509000206C9000208890002080B58AB03E
S315200039A000AF786039607B68DB6C012B04D17B68C3
S315200039B01B6CFB61FB6971E07B68DB6C022B16D10B
S315200039C07B681A6C7B685B6C1344184604F020FAFB
S315200039D04FF00002334B03F09FFF02460B46104682
S315200039E0194604F07FFA0346FB61FB6956E07B68C3
S315200039F0DB6C032B51D17B681B6CFB607B685B6C9B
S31520003A003B617B689B6C7B6100237B623CE00023EF
S31520003A103B622FE03B6A9B0028333B4453F81C2C27
S31520003A203B6A01339B0028333B4453F81C3C9A42A3
S31520003A301CDC3B6A9B0028333B4453F81C3CBB618F
S31520003A403B6A01339B0028333B4453F81C2C3B6ACA
S31520003A509B0028333B4443F81C2C3B6A01339B00D4
S31520003A6028333B44BA6943F81C2C00E000BF3B6A6C
S31520003A7001333B627B68DA6C7B6AD31A3A6A9A42D4
S31520003A80C8DD7B6A01337B627B68DB6C7A6A9A428B
S31520003A90BDDB3B69FB61FB6900E000231846283744
S31520003AA0BD4680BD0000E03F80B485B000AF7860A1
S31520003AB039607A683B6813440A221344FB60FB682A
S31520003AC0002B02DBFB68192B01DD002304E0054AED
S31520003AD0FB68DB0013445B6818461437BD465DF867
S31520003AE0047B7047508D002080B483B000AF78608F
S31520003AF0396000BF0C37BD465DF8047B704780B542
S31520003B0088B002AF7860396000230093494B4A4A57
S31520003B1000210020FDF7C2FA002248494848FDF757
S31520003B205BFB002247494848FDF756FB474B1A46A0
S31520003B3047494548FDF750FB464B1A4644494248FB
S31520003B40FDF74AFB444B1A4641493F48FDF744FBE3
S31520003B50424B1A463E493C48FDF73EFB404B1A462F
S31520003B603B493948FDF738FB3E4B1A46384936481B
S31520003B70FDF732FB3C4B1A4635493348FDF72CFB03
S31520003B803A4B1A4632493048FDF726FB384B1A463F
S31520003B902F492D48FDF720FB364B1A462C492A483B
S31520003BA0FDF71AFB344B1A4629492748FDF714FB23
S31520003BB0324B1A4626492448FDF70EFB304B1A464F
S31520003BC023492148FDF708FB2E4B1A4620491E485B
S31520003BD0FDF702FB2C4B1A461D491B48FDF7FCFA44
S31520003BE02A4B1A461A491848FDF7F6FA234B1A4665
S31520003BF017491548FDF7F0FA01233B7301237B7320
S31520003C000623BB734823FB7365233B746C237B74A9
S31520003C106C23BB746F23FB7400233B7507F10C03E5
S31520003C201A461B490648FDF7D7FA00BF1837BD4686
S31520003C3080BD00BF21620020989600205D3D0020B7
S31520003C40089B002005180020E89600209C90002064
S31520003C50AB180020B0900020D090002014910020B6
S31520003C602C91002070910020A8910020E89100203E
S31520003C700C920020349200205C9200208492002036
S31520003C80C8920020E49200202C9300205893002014
S31520003C906740002080B500AF002208490848FDF79C
S31520003CA08FFC012207490848FDF78AFC00220749B4
S31520003CB00748FDF7EBFC0023184680BD3719002086
S31520003CC0E8960020153E0020089B0020FF3A0020A1
S31520003CD04496002080B483B000AF0346FB71FB7985
S31520003CE003F01F03012202FA03F1064A97F907306F
S31520003CF05B0942F8231000BF0C37BD465DF8047BF4
S31520003D00704700BF00E100E080B483B000AF0346F7
S31520003D103960FB7197F90730002B0BDA3B68DAB272
S31520003D200C49FB7903F00F03043B1201D2B20B447A
S31520003D301A7609E03B68DAB2074997F9073012018B
S31520003D40D2B20B4483F8002300BF0C37BD465DF882
S31520003D50047B704700ED00E000E100E080B586B00E
S31520003D6000AF786039607B6800229A617B689A6927
S31520003D707B685A617B685A697B68DA6107F10C03B4
S31520003D80184602F0A7FE0023BB740023FB74002311
S31520003D903B7500237B750023BB750023FB75002331
S31520003DA0BB730023FB7302233B7403237B7407231B
S31520003DB0BB8107F10C031946124802F0F7FC0346B3
S31520003DC0002B02D11048FCF72FFD07F10C031946F2
S31520003DD00E4802F0EBFC0346002B02D10C48FCF700
S31520003DE023FD02211420FFF78FFF1420FFF772FF17
S31520003DF001220221034803F0ABFA00BF1837BD4663
S31520003E0080BD00BF0064004084930020006800400D
S31520003E109C930020B0B58AB002AF786039607B6889
S31520003E209B685A49184603F0B1FA0346012B02D083
S31520003E305748FCF7F9FC7B68DB69072B00F39E806B
S31520003E407B689B6807F108020021184603F086F874
S31520003E50BB681B09DBB27A68526903F07F03D8B2CC
S31520003E60796813469B0013445B0013440B442033AC
S31520003E7002461A70BB68DBB27A68526903F00F03F8
S31520003E80D8B2796813469B0013445B0013440B4455
S31520003E90213302461A70BB7C7A68526903F00F03FD
S31520003EA0D8B2796813469B0013445B0013440B4435
S31520003EB0223302461A700023FB7715E0FB7F7A68CF
S31520003EC05269F97F20333B4413F80D4C786813462A
S31520003ED09B0013445B00134403440B4423332246C4
S31520003EE01A70FB7F0133FB777B685A697968134622
S31520003EF09B0013445B0013440B4422331B78FA7F48
S31520003F009A42DBD37B68DB68002B25D07B68DC6894
S31520003F107B681D697B685A69796813469B00134440
S31520003F205B0013440B4420331B7819017B685A69C4
S31520003F30786813469B0013445B00134403442133E3
S31520003F401B780B4400932B46224600210020FDF7C8
S31520003F50A5F8104B01221A607B685B6901335A422F
S31520003F6003F0070302F0070258BF53427A685361F1
S31520003F707B68DB695A1C7B68DA6102E00648FCF73D
S31520003F8053FC00BF2037BD46B0BD00BF0300001262
S31520003F90B4930020181F0120DC93002090B484B035
S31520003FA000AF786039607B68DB69002B55DD7B6864
S31520003FB09A69796813469B0013445B0013440B44AB
S31520003FC020331A783B681A707B689A697968134699
S31520003FD09B0013445B0013440B4421331A783B683F
S31520003FE05A707B689A69796813469B0013445B0074
S31520003FF013440B4422331A783B689A700023FB73D0
S3152000400013E07B689A69F87BF97B7C6813469B00F2
S3152000401013445B0013442344034423331A783B6838
S315200040200B44DA70FB7B0133FB733B689B78FA7B8E
S315200040309A42E6D37B689B6901335A4203F0070311
S3152000404002F0070258BF53427A6893617B68DB69A6
S315200040505A1E7B68DA61002300E0012318461037D8
S31520004060BD4690BC704780B58AB000AF7860396095
S315200040707B689B683B620023FB773B681B781B01B0
S315200040803A6852781344BB6000237B7400233B7448
S315200040903B689B78082B02D93B6808229A703B68BC
S315200040A09B78BB74002387F827300FE097F82720EA
S315200040B097F8273039680A44D27828333B4403F8E6
S315200040C0152C97F82730013387F827303B689B78E3
S315200040D097F827209A42E9D307F108031946386A48
S315200040E002F0BCFD0346FB77FB7F042B04D1054879
S315200040F0FCF79AFB012300E0002318462837BD462B
S3152000410080BD00BFFC93002080B500AF01214FF099
S315200041100050FEF711FE00214FF00050FEF70CFE76
S3152000412000BF80BD80B485B000AF786039600023C1
S31520004130FB600023BB60144B1B68FB6040F6FE72DD
S315200041407B6802FA03F3DB43FA681340FB603B68A3
S315200041501A683B685B681A433B689B681A433B684E
S31520004160DB681343BB60BA687B6802FA03F3FA681C
S315200041701343FB60044AFB68136000BF1437BD4637
S315200041805DF8047B704700BF0074004080B483B0A4
S3152000419000AF78607B6800221A607B6800225A6034
S315200041A07B6800229A607B680022DA6000BF0C37A9
S315200041B0BD465DF8047B704780B483B000AF78605D
S315200041C00B46FB70FB78002B09D00D4B1A6801219A
S315200041D07B6801FA03F30A4913430B6009E0084B95
S315200041E01A6801217B6801FA03F3DB430449134073
S315200041F00B6000BF0C37BD465DF8047B704700BFDF
S315200042000074004080B483B000AF78600B46FB702A
S31520004210FB78002B0AD00E4B5A687B681B090121BC
S3152000422001FA03F30A4913434B600AE0084B5A6824
S315200042307B681B09012101FA03F3DB430449134080
S315200042404B6000BF0C37BD465DF8047B704700BF4E
S315200042500074004080B483B000AF0346FB71FB7945
S31520004260002B06D0094B5B68084A43F003035360D2
S3152000427005E0064B5B68054A23F00303536000BF45
S315200042800C37BD465DF8047B704700BF00740040C4
S3152000429080B485B000AFF860B9601346FB71FB7936
S315200042A0002B09D00C4B1A68B968FB6801FA03F396
S315200042B0094913430B6009E0074B1A68B968FB6884
S315200042C001FA03F3DB43044913400B6000BF1437A4
S315200042D0BD465DF8047B70470074004080B485B00D
S315200042E000AF78600B467B800023FB60084BFB60A9
S315200042F0FA687B6813440833FB60FB681A467B88A0
S31520004300136000BF1437BD465DF8047B704700BFBD
S315200043100074004080B485B000AF78600B467B8087
S315200043200023FB60084BFB60FA687B681344143358
S31520004330FB60FB681A467B88136000BF1437BD46B6
S315200043405DF8047B704700BF0074004080B485B0E0
S3152000435000AF78600B467B8013463B800023FB60D2
S315200043600023BB607B68082B05D17B881A023B881B
S315200043701343FB6004E07B881A043B881343FB60ED
S31520004380074BBB607A68BB6813442033BB60BB68AD
S31520004390FA681A6000BF1437BD465DF8047B704783
S315200043A00074004080B485B000AF78600023FB60C5
S315200043B0084BFB607B689A08FB6813442C33FB6030
S315200043C0FB681B689BB218461437BD465DF8047B14
S315200043D0704700BF0074004080B483B000AF78609F
S315200043E00B46FB70FB78002B0AD00E4B1A684FF455
S315200043F080517B6801FA03F30A4913430B600AE0F4
S31520004400084B1A684FF480517B6801FA03F3DB43AB
S31520004410044913400B6000BF0C37BD465DF8047B92
S31520004420704700BF0074004080B485B000AFF860CC
S31520004430B9601346FB71FB79002B09D00C4B1A6827
S31520004440B968FB6801FA03F3094913430B6009E0D5
S31520004450074B1A68B968FB6801FA03F3DB43044982
S3152000446013400B6000BF1437BD465DF8047B7047D0
S315200044700074004080B485B000AF786039600023B6
S31520004480FB730A4B5A6B39687B6801FA03F31340B6
S31520004490002B02D00123FB7301E00023FB73FB7B7F
S315200044A018461437BD465DF8047B704700740040FB
S315200044B080B483B000AF7860396006493A687B687B
S315200044C002FA03F34B6300BF0C37BD465DF8047B4D
S315200044D0704700BF0074004080B485B000AF78609C
S315200044E039600023FB730023BB60104B1A683968C0
S315200044F07B6801FA03F31340BB600C4B5A6B396897
S315200045007B6801FA03F31340002B05D0BB68002B10
S3152000451002D00123FB7301E00023FB73FB7B1846CB
S315200045201437BD465DF8047B704700BF0074004019
S3152000453080B483B000AF7860396006493A687B68FA
S3152000454002FA03F34B6300BF0C37BD465DF8047BCC
S31520004550704700BF0074004080B582B000AF78601D
S315200045607B68604A934208D101210120FEF704FCB2
S3152000457000210120FEF700FCAFE07B68B3F1804FFD
S3152000458008D101210120FEF7D7FB00210120FEF7EB
S31520004590D3FBA2E07B68544A934208D10121022032
S315200045A0FEF7CAFB00210220FEF7C6FB95E07B68DA
S315200045B04E4A934208D101210420FEF7BDFB00217B
S315200045C00420FEF7B9FB88E07B68494A934208D16C
S315200045D001210820FEF7B0FB00210820FEF7ACFBE6
S315200045E07BE07B68434A934208D101211020FEF7E5
S315200045F0A3FB00211020FEF79FFB6EE07B683E4A5E
S31520004600934208D101212020FEF796FB002120208D
S31520004610FEF792FB61E07B68384A934208D101217C
S315200046200220FEF7A9FB00210220FEF7A5FB54E09D
S315200046307B68334A93420AD101214FF48030FEF73A
S315200046409BFB00214FF48030FEF796FB45E07B680C
S315200046502C4A93420AD101214FF40030FEF78CFBFD
S3152000466000214FF40030FEF787FB36E07B68264AB0
S3152000467093420AD101214FF48020FEF77DFB0021D1
S315200046804FF48020FEF778FB27E07B681F4A934291
S3152000469008D101214020FEF74FFB00214020FEF7E4
S315200046A04BFB1AE07B681A4A934208D101218020ED
S315200046B0FEF742FB00218020FEF73EFB0DE07B68E3
S315200046C0144A934209D101214FF48070FEF734FB3E
S315200046D000214FF48070FEF72FFB00BF0837BD4640
S315200046E080BD00BF000001400004004000080040DB
S315200046F0000C00400010004000140040000401405F
S31520004700004001400044014000480140001800409C
S31520004710001C00400020004080B485B000AF7860C7
S3152000472039600023FB817B681B88FB817B68294AD3
S31520004730934213D07B68284A93420FD07B68B3F10B
S31520004740804F0BD07B68254A934207D07B68244A4A
S31520004750934203D07B68234A934208D1FB8923F0F6
S315200047607003FB813B685A88FB891343FB817B6876
S315200047701D4A93420CD07B681C4A934208D0FB8981
S3152000478023F44073FB813B681A89FB891343FB8121
S315200047907B68FA891A803B685A687B68DA623B68CC
S315200047A01A887B681A857B680A4A934203D07B68FD
S315200047B0094A934204D13B689B7A1A467B681A863B
S315200047C07B6801229A8200BF1437BD465DF8047BC0
S315200047D0704700BF00000140000401400004004073
S315200047E000080040000C004000100040001400406B
S315200047F080B483B000AF78607B684FF0FF325A6098
S315200048007B6800221A807B6800221A817B6800223E
S315200048105A807B6800229A7200BF0C37BD465DF82D
S31520004820047B704780B483B000AF78600B467B80F2
S3152000483013463B807B687A881A857B683A889A82F9
S3152000484000BF0C37BD465DF8047B704780B485B049
S3152000485000AF78600B467B800023FB817B681B883A
S31520004860FB81FB8923F07003FB81FA897B88134344
S31520004870FB817B68FA891A8000BF1437BD465DF834
S31520004880047B704780B483B000AF786039607B6862
S315200048903A685A6200BF0C37BD465DF8047B704704
S315200048A080B483B000AF786039607B683A68DA629A
S315200048B000BF0C37BD465DF8047B704780B483B0DB
S315200048C000AF78607B685B6A18460C37BD465DF89A
S315200048D0047B704780B483B000AF78607B681B8D03
S315200048E09BB218460C37BD465DF8047B704780B4F2
S315200048F083B000AF78600B46FB70FB78002B08D0A6
S315200049007B681B889BB243F002039AB27B681A80AD
S3152000491007E07B681B889BB223F002039AB27B6870
S315200049201A8000BF0C37BD465DF8047B704780B403
S3152000493083B000AF78600B467B807B88002B08D045
S315200049407B681B889BB243F004039AB27B681A806B
S3152000495007E07B681B889BB223F004039AB27B682E
S315200049601A8000BF0C37BD465DF8047B704780B4C3
S3152000497083B000AF78600B46FB70FB78002B08D025
S315200049807B681B889BB243F080039AB27B681A80AF
S3152000499007E07B681B889BB223F080039AB27B6872
S315200049A01A8000BF0C37BD465DF8047B704780B483
S315200049B083B000AF78600B467B807B681B889BB2F8
S315200049C023F008039AB27B681A807B681B889AB208
S315200049D07B8813439AB27B681A8000BF0C37BD468A
S315200049E05DF8047B704780B483B000AF78600B46D7
S315200049F07B807B681B889BB223F440739AB27B68CA
S31520004A001A807B681B889AB27B8813439AB27B688C
S31520004A101A8000BF0C37BD465DF8047B704780B412
S31520004A2083B000AF78600B46FB70FB78002B08D074
S31520004A307B681B889BB243F001039AB27B681A807D
S31520004A4007E07B681B889BB223F001039AB27B6840
S31520004A501A8000BF0C37BD465DF8047B704780B4D2
S31520004A6085B000AF7860396000237B810023FB810D
S31520004A700023BB817B681B8C9BB223F001039AB277
S31520004A807B681A847B681B8CFB817B689B88BB8137
S31520004A907B681B8B7B817B8923F070037B817B89E1
S31520004AA023F003037B813B681A887B8913437B8130
S31520004AB0FB8923F00203FB813B689A89FB89134318
S31520004AC0FB813B685A88FB891343FB817B681F4A1D
S31520004AD0934203D07B681E4A934223D1FB8923F05D
S31520004AE00803FB813B68DA89FB891343FB81FB8939
S31520004AF023F00403FB813B689A88FB891343FB81DF
S31520004B00BB8923F48073BB81BB8923F40073BB81EB
S31520004B103B681A8ABB891343BB813B685A8ABB8987
S31520004B201343BB817B68BA899A807B687A891A830A
S31520004B303B689A687B685A637B68FA891A8400BF47
S31520004B401437BD465DF8047B704700BF0000014066
S31520004B500004014080B485B000AF7860396000233E
S31520004B607B810023FB810023BB817B681B8C9BB24E
S31520004B7023F010039AB27B681A847B681B8CFB8116
S31520004B807B689B88BB817B681B8B7B817B8923F41D
S31520004B90E0437B817B8923F440737B813B681B88C0
S31520004BA01B029AB27B8913437B81FB8923F0200366
S31520004BB0FB813B689B891B019AB2FB891343FB81CE
S31520004BC03B685B881B019AB2FB891343FB817B6898
S31520004BD0224A934203D07B68214A93422BD1FB89F8
S31520004BE023F08003FB813B68DB891B019AB2FB899A
S31520004BF01343FB81FB8923F04003FB813B689B88A1
S31520004C001B019AB2FB891343FB81BB8923F4806382
S31520004C10BB81BB8923F40063BB813B681B8A9B0055
S31520004C209AB2BB891343BB813B685B8A9B009AB2CD
S31520004C30BB891343BB817B68BA899A807B687A8952
S31520004C401A833B689A687B689A637B68FA891A8418
S31520004C5000BF1437BD465DF8047B70470000014055
S31520004C600004014080B485B000AF7860396000232D
S31520004C707B810023FB810023BB817B681B8C9BB23D
S31520004C8023F480739AB27B681A847B681B8CFB8121
S31520004C907B689B88BB817B689B8B7B817B8923F090
S31520004CA070037B817B8923F003037B813B681A8811
S31520004CB07B8913437B81FB8923F40073FB813B684B
S31520004CC09B891B029AB2FB891343FB813B685B8855
S31520004CD01B029AB2FB891343FB817B68224A9342CB
S31520004CE003D07B68214A93422BD1FB8923F40063AE
S31520004CF0FB813B68DB891B029AB2FB891343FB814C
S31520004D00FB8923F48063FB813B689B881B029AB254
S31520004D10FB891343FB81BB8923F48053BB81BB8969
S31520004D2023F40053BB813B681B8A1B019AB2BB89C3
S31520004D301343BB813B685B8A1B019AB2BB89134331
S31520004D40BB817B68BA899A807B687A899A833B681B
S31520004D509A687B68DA637B68FA891A8400BF1437FD
S31520004D60BD465DF8047B7047000001400004014009
S31520004D7080B485B000AF786039600023BB81002302
S31520004D807B810023FB817B681B8C9BB223F48053A1
S31520004D909AB27B681A847B681B8C7B817B689B8894
S31520004DA0FB817B689B8BBB81BB8923F4E043BB8162
S31520004DB0BB8923F44073BB813B681B881B029AB2D4
S31520004DC0BB891343BB817B8923F400537B813B68DA
S31520004DD09B891B039AB27B8913437B813B685B8843
S31520004DE01B039AB27B8913437B817B68124A9342C9
S31520004DF003D07B68114A93420AD1FB8923F480436E
S31520004E00FB813B681B8A9B019AB2FB891343FB817A
S31520004E107B68FA899A807B68BA899A833B689A6804
S31520004E207B681A647B687A891A8400BF1437BD466A
S31520004E305DF8047B704700BF00000140000401407C
S31520004E4080B483B000AF78607B6800221A807B68CC
S31520004E5000225A807B6800229A807B6800229A6012
S31520004E607B6800229A817B680022DA817B68002297
S31520004E701A827B6800225A8200BF0C37BD465DF835
S31520004E80047B704780B485B000AF78600B467B808A
S31520004E9013463B800023FB6000237B817B68FB60FD
S31520004EA0FB681833FB607B88012202FA03F37B81BF
S31520004EB07B681B8C9AB27B89DB439BB213409AB2E8
S31520004EC07B681A847B88002B02D07B88082B14D120
S31520004ED07B885B089BB21A46FB681344FB60FB6821
S31520004EE01968FA684FF68F730B401360FB681968D0
S31520004EF03A88FB680A431A6019E07B88043B9BB218
S31520004F005B089BB21A46FB681344FB60FB68196872
S31520004F10FA6848F6FF730B401360FB681A683B88F3
S31520004F201B029BB21946FB680A431A6000BF00BFEA
S31520004F301437BD465DF8047B704780B483B000AF5C
S31520004F40786039607B683A685A6300BF0C37BD4683
S31520004F505DF8047B704780B483B000AF7860396019
S31520004F607B683A689A6300BF0C37BD465DF8047BC0
S31520004F70704780B483B000AF786039607B683A6848
S31520004F80DA6300BF0C37BD465DF8047B704780B4FA
S31520004F9083B000AF786039607B683A681A6400BFD6
S31520004FA00C37BD465DF8047B704780B485B000AFF2
S31520004FB078600B467B800023FB817B681B8BFB8103
S31520004FC0FB8923F07003FB81FA897B881343FB81DD
S31520004FD07B68FA891A8300BF1437BD465DF8047BC7
S31520004FE0704780B485B000AF78600B467B80002385
S31520004FF0FB817B681B8BFB81FB8923F4E043FB81D0
S315200050007B881B029AB2FB891343FB817B68FA8952
S315200050101A8300BF1437BD465DF8047B704780B401
S3152000502085B000AF78600B467B800023FB817B68D0
S315200050309B8BFB81FB8923F07003FB81FA897B889C
S315200050401343FB817B68FA899A8300BF1437BD46D8
S315200050505DF8047B704780B485B000AF78600B465E
S315200050607B800023FB817B689B8BFB81FB8923F460
S31520005070E043FB817B881B029AB2FB891343FB81A9
S315200050807B68FA899A8300BF1437BD465DF8047B96
S31520005090704780B485B000AF78600B467B800023D4
S315200050A0FB817B681B8BFB81FB8923F00803FB813B
S315200050B0FA897B881343FB817B68FA891A8300BFB0
S315200050C01437BD465DF8047B704780B485B000AFC9
S315200050D078600B467B800023FB817B681B8BFB81E2
S315200050E0FB8923F40063FB817B881B029AB2FB8930
S315200050F01343FB817B68FA891A8300BF1437BD46A8
S315200051005DF8047B704780B485B000AF78600B46AD
S315200051107B800023FB817B689B8BFB81FB8923F0B3
S315200051200803FB81FA897B881343FB817B68FA8914
S315200051309A8300BF1437BD465DF8047B704780B460
S3152000514085B000AF78600B467B800023FB817B68AF
S315200051509B8BFB81FB8923F40063FB817B881B02ED
S315200051609AB2FB891343FB817B68FA899A8300BF35
S315200051701437BD465DF8047B704780B485B000AF18
S3152000518078600B467B800023FB817B681B8BFB8131
S31520005190FB8923F00403FB81FA897B881343FB8177
S315200051A07B68FA891A8300BF1437BD465DF8047BF5
S315200051B0704780B485B000AF78600B467B800023B3
S315200051C0FB817B681B8BFB81FB8923F48063FB813E
S315200051D07B881B029AB2FB891343FB817B68FA8981
S315200051E01A8300BF1437BD465DF8047B704780B430
S315200051F085B000AF78600B467B800023FB817B68FF
S315200052009B8BFB81FB8923F00403FB81FA897B8836
S315200052101343FB817B68FA899A8300BF1437BD4606
S315200052205DF8047B704780B485B000AF78600B468C
S315200052307B800023FB817B689B8BFB81FB8923F48E
S315200052408063FB817B881B029AB2FB891343FB8117
S315200052507B68FA899A8300BF1437BD465DF8047BC4
S31520005260704780B485B000AF78600B467B80002302
S31520005270FB817B681B8BFB81FB8923F08003FB81F1
S31520005280FA897B881343FB817B68FA891A8300BFDE
S315200052901437BD465DF8047B704780B485B000AFF7
S315200052A078600B467B800023FB817B681B8BFB8110
S315200052B0FB89C3F30E03FB817B881B029AB2FB8911
S315200052C01343FB817B68FA891A8300BF1437BD46D6
S315200052D05DF8047B704780B485B000AF78600B46DC
S315200052E07B800023FB817B689B8BFB81FB8923F0E2
S315200052F08003FB81FA897B881343FB817B68FA89CB
S315200053009A8300BF1437BD465DF8047B704780B48E
S3152000531085B000AF78600B467B800023FB817B68DD
S315200053209B8BFB81FB89C3F30E03FB817B881B02CE
S315200053309AB2FB891343FB817B68FA899A8300BF63
S315200053401437BD465DF8047B704780B485B000AF46
S3152000535078600B467B800023FB817B681B8CFB815E
S31520005360FB8923F00203FB81FA897B881343FB81A7
S315200053707B68FA891A8400BF1437BD465DF8047B22
S31520005380704780B485B000AF78600B467B800023E1
S31520005390FB817B681B8CFB81FB8923F00803FB8147
S315200053A0FA897B881343FB817B68FA891A8400BFBC
S315200053B01437BD465DF8047B704780B485B000AFD6
S315200053C078600B467B800023FB817B681B8CFB81EE
S315200053D0FB8923F02003FB817B881B019AB2FB8982
S315200053E01343FB817B68FA891A8400BF1437BD46B4
S315200053F05DF8047B704780B485B000AF78600B46BB
S315200054007B800023FB817B681B8CFB81FB8923F03F
S315200054108003FB817B881B019AB2FB891343FB81A6
S315200054207B68FA891A8400BF1437BD465DF8047B71
S31520005430704780B485B000AF78600B467B80002330
S31520005440FB817B681B8CFB81FB8923F40073FB812A
S315200054507B881B029AB2FB891343FB817B68FA89FE
S315200054601A8400BF1437BD465DF8047B704780B4AC
S3152000547085B000AF78600B467B800023FB817B687C
S315200054801B8CFB81FB8923F40063FB817B881B0239
S315200054909AB2FB891343FB817B68FA891A8400BF81
S315200054A01437BD465DF8047B704780B485B000AFE5
S315200054B078600B467B800023FB817B681B8CFB81FD
S315200054C0FB8923F40053FB817B881B039AB2FB895B
S315200054D01343FB817B68FA891A8400BF1437BD46C3
S315200054E05DF8047B704780B485B000AF78600B46CA
S315200054F07B8013463B800023FB817B88012202FAB6
