S01600002E2F44656275672F5254532D4C61622E73313936
S3152000000000BFDFF814D000F0FCF902F0A9FE00F0E2
S315200000100ABAFEE700BF000000C00120314900E017
S315200000203149EFF3088020ED108A7246EFF31183F1
S3152000003020E9FC0F2D4FD7F80080C8F800001EE0FD
S31520000040084600F03FFA2A4800F03CFA294800F01A
S3152000005039FAD8F8040000F081FA274800F032FA7D
S31520000060D8F8000000F04BFA244800F02BFAD8F814
S315200000700000006800F043FA1D4800F023FADFF87C
S315200000808080D8F80080C7F8008018E01D4800F06E
S3152000009019FAD8F8040000F061FA1B4800F012FAA9
S315200000A0D8F8000000F02BFA144800F00BFAD8F824
S315200000B00000006800F023FA0D4800F003FA134A06
S315200000C0536843F00063536000BFD8F80000B0E8DF
S315200000D0FC0F83F311889646B0EC108A80F30888CB
S315200000E070470000188F0020298F0020BC8F002029
S315200000F0998F00204A8F0020628F00206A8F00206F
S3152000010094180120738F0020888F002000ED00E0D6
S3152000011080B400AF00BFBD465DF8047B704780B554
S3152000012086B000AF454805F001F8454806F06CF862
S31520000130444806F069F801214FF0007001F062FD95
S3152000014001214FF0806001F05DFD0121022001F0C8
S31520000150F9FC09220921394805F00AFA0922082161
S31520000160364805F005FA07F11003184605F01FF981
S315200001704FF400733B6102233B750023BB750023BC
S31520000180FB7502237B7507F1100319462B4805F0F2
S315200001907FF84FF480733B6102233B750023BB75C8
S315200001A00123FB7502237B7507F1100319462348AB
S315200001B005F06EF809220621204805F0D9F9092212
S315200001C005211E4805F0D4F940233B6102233B75E7
S315200001D00023BB750023FB7502237B7507F11003F3
S315200001E01946164805F054F820233B6102233B7537
S315200001F00023BB750123FB7502237B7507F11003D2
S3152000020019460E4805F044F80023BB720023FB7202
S3152000021001233B7300233B8000237B800023BB808C
S315200002200023FB8000233B8101237B733B4618463A
S3152000023006F0DFF800BF1837BD4680BD0004024037
S31520000240006400400068004080B586B000AF012100
S315200002504FF0005001F0D6FC07F11003184605F0C8
S31520000260A6F820233B6103233B750023FB7507F18A
S31520000270100319460F4805F00BF802F091FD3B4696
S31520000280184602F0CFFD00233B6000237B6000234D
S31520000290FB603B461946102002F090FD01211020FC
S315200002A002F0D6FD0021082002F080FE00BF18379C
S315200002B0BD4680BD0000024080B584B000AF01215C
S315200002C04FF4804001F0BEFC0721012007F0A4F87E
S315200002D002F08EFF3B46184603F016F880233B605B
S315200002E000233B710C237B710123BB713B461846CF
S315200002F002F098FF07F10803184605F058F8022384
S31520000300BB6001233B730123BB730023FB730123D3
S315200003107B7307F108031946184804F0B9FF012337
S31520000320BB6001233B730123BB730023FB730123B3
S315200003307B7307F108031946104804F0A9FF012230
S3152000034002210E4805F0DBF8012201210B4805F0B9
S31520000350D6F88023BB6000233B730023BB730023A6
S31520000360FB7301237B7307F108031946034804F046
S315200003708FFF00BF1037BD4680BD00BF000402407E
S3152000038080B483B000AFEFF314833B603B6823F067
S3152000039003037B607B6883F3148800BF094B4FF40B
S315200003A004725A61074B5B69064A43F0080353619E
S315200003B0054B4FF000425A6000BF0C37BD465DF832
S315200003C0047B704700ED00E030EF00E080B500AF21
S315200003D00121082001F016FC0121082001F052FD20
S315200003E000BF80BD80B400AF124A02E0002342F86D
S315200003F0043B114B9A42F9D300BFBD465DF8047BFE
S31520000400704780B500AFFFF7EDFFFFF781FEFFF7DE
S3152000041086FEFFF719FFFFF74FFFFFF7B1FFFFF744
S31520000420D5FF00BF80BD80B400AF00BFBD465DF8DC
S31520000430047B704740950020D018012080B483B0FB
S3152000044000AF0346FB71FB7903F01F03012202FA7A
S3152000045003F1064A97F907305B0942F8231000BFDB
S315200004600C37BD465DF8047B704700BF00E100E015
S3152000047080B483B000AF03463960FB7197F907302B
S31520000480002B0BDA3B68DAB20C49FB7903F00F0339
S31520000490043B1201D2B20B441A7609E03B68DAB269
S315200004A0074997F907301201D2B20B4483F800238B
S315200004B000BF0C37BD465DF8047B704700ED00E0B9
S315200004C000E100E080B582B000AF78600EE07B6886
S315200004D01B780D2B07D07B685A1C7A601B78184630
S315200004E000F05EF902E07B6801337B607B681B7855
S315200004F0002BECD100BF00BF0837BD4680BD80B5BC
S3152000050086B000AF786000237B617B6803F00F0222
S315200005107B69591C796110498A5C18333B4403F87E
S315200005200C2C7B681B097B607B68002BEDD10AE0D5
S315200005307B69013B7B6107F10C027B6913441B78C5
S31520000540184600F02DF97B69002BF1D100BF00BFC2
S315200005501837BD4680BD00BF9C8F002080B59EB059
S3152000056000AF78607B68002B02DA4FF0FF3300E0A3
S3152000057001233B677B683A6F02FB03F37B60002312
S315200005807B6779681C4B83FB01239A10CB17D21A01
S3152000059013469B0013445B00CA1A7B6F591C79676C
S315200005A016498A5C78333B4403F86C2C7B68124AE4
S315200005B082FB03129210DB17D31A7B607B68002B19
S315200005C0DFD13B6F002B0EDA2D2000F0E9F80AE090
S315200005D07B6F013B7B6707F10C027B6F13441B7813
S315200005E0184600F0DDF87B6F002BF1D100BF00BF6D
S315200005F07837BD4680BD00BF676666669C8F002043
S3152000060080B483B000AF10237B607B6883F31188AE
S3152000061000BF00BF0C37BD465DF8047B704780B431
S3152000062083B000AF30237B607B6883F3118800BFE3
S3152000063000BF0C37BD465DF8047B704780B584B09B
S3152000064000AF78600B48FFF73DFF0B4B1B68002B74
S3152000065002D1094B094A1A60074B1B68FB60064BFF
S315200006601A687B681344044A1360FB6818461037DF
S31520000670BD4680BD2488002040950020D01801204A
S3152000068080B485B000AF786039603B6803F5F953D4
S3152000069010337A6813607B681B68BB600023FB609D
S315200006A009E0FB689A00BB6813441A4600231360CE
S315200006B0FB680133FB60FB68332BF2DDBB686FF010
S315200006C016021A60BB6804331A4603231360BB68FC
S315200006D084331A464FF08073136000BF1437BD462B
S315200006E05DF8047B704780B485B000AF78603960D0
S315200006F07B681B688033FB60FB683A681A6000BF22
S315200007001437BD465DF8047B704780B584B000AFD2
S315200007101C4802F075FE3B1D184602F0BDFF40F254
S315200007204733BB803B1D1946164802F049FF164B3E
S31520000730164A1A6002216FF00100FFF799FE144B4A
S31520000740144A1A6000216FF00400FFF791FE124B45
S31520000750124A1A6002213220FFF78AFE3220FFF762
S315200007606DFE0021074802F0E1FF0121054803F054
S31520000770AAF801220221034804F079F800BF1037B5
S31520000780BD4680BD000C004038C00120210000205D
S315200007902CC001201D00002008C10120270B0020AD
S315200007A080B582B000AF0346FB71FB799BB2194638
S315200007B0074805F094FA00BF8021054805F07EFC25
S315200007C00346002BF8D000BF00BF0837BD4680BDCA
S315200007D00010014080B500AF124802F0C3FF034667
S315200007E01A46114B1A60114B01221A60104B002237
S315200007F01A60104B1B68002B06D00E4B1B680E4A46
S315200008001268002110469847084B00221A60084BB0
S315200008101B68002B01D000F05DFA054B00221A6000
S3152000082080BD00BF000C00408C18012084180120D8
S315200008308818012098180120A418012080B500AF3F
S31520000840124802F08FFF03461A46114B1A60114BCD
S3152000085001221A60104B00221A60104B5B68002B95
S3152000086006D00E4B5B680E4A526801211046984707
S31520000870084B00221A60084B1B68002B01D000F0A1
S3152000088029FA054B00221A6080BD00BF000C0040EB
S315200008908C1801208418012088180120981801201E
S315200008A0A418012080B500AF124802F05BFF034672
S315200008B01A46114B1A60114B01221A60104B002266
S315200008C01A60104B9B68002B06D00E4B9B680E4A75
S315200008D09268022110469847084B00221A60084B5E
S315200008E01B68002B01D000F0F5F9054B00221A6099
S315200008F080BD00BF000C00408C1801208418012008
S315200009008818012098180120A418012080B485B0E9
S3152000091000AF786039600023FB603B681B68BB60D2
S3152000092004E0BB68FB60BB681B68BB60BB68002B30
S3152000093005D0BB689A687B689B689A42F1DD7B6824
S31520000940BA681A60FB68002B03D13B687A681A6084
S3152000095002E0FB687A681A6000BF1437BD465DF86E
S31520000960047B704780B485B000AF7860396000237F
S31520000970FB603B681B68BB6004E0BB68FB60BB6830
S315200009801B68BB60BB68002B05D0BB685A687B68B8
S315200009905B689A42F1DD7B68BA681A60FB68002BB7
S315200009A003D13B687A681A6002E0FB687A681A60AD
S315200009B000BF1437BD465DF8047B704780B584B010
S315200009C000AF78607B681B68FB60FB68002B04D057
S315200009D0FB681A687B681A600CE00948FFF772FD0D
S315200009E000220221074804F08AFD0748FFF76AFD26
S315200009F030BFFDE7FB6818461037BD4680BD00BFF7
S31520000A003C880020000402404888002080B584B03D
S31520000A1000AF78607B681B68FB60FB68002B04D006
S31520000A20FB681A687B681A600CE00948FFF74AFDE4
S31520000A3000220221074804F062FD0748FFF742FD25
S31520000A4030BFFDE7FB6818461037BD4680BD00BFA6
S31520000A503C880020000402405488002080B483B0E3
S31520000A6000AF786039603B681A687B681A603B681B
S31520000A707A681A6000BF0C37BD465DF8047B704764
S31520000A8080B483B000AF786039603B681A687B68B1
S31520000A909A603B687A681A6000BF0C37BD465DF8DD
S31520000AA0047B704780B485B000AF78607B681B6894
S31520000AB0FB60FB689A687B681A60FB6818461437E7
S31520000AC0BD465DF8047B704780B485B000AF786082
S31520000AD039600023FB603B681B68BB6004E0BB6891
S31520000AE0FB60BB681B68BB60BB68002B03D0BA6881
S31520000AF07B689A42F3D1BB68002B0DD0FB68002B94
S31520000B0004D0BB681A68FB681A6003E0BB681A68E1
S31520000B103B681A60012300E0002318461437BD46BF
S31520000B205DF8047B704780B582B000AF02211E4875
S31520000B3003F027FF1C4802F015FE03467B6007E002
S31520000B401A48FFF73BFF034619491846FFF7DEFE12
S31520000B50164B1B68002B06D0144B1B685A687B6803
S31520000B60D31A002BECDD114B1B68002B16D00E4838
S31520000B7002F0F8FD03463B600C4B1B685B683A6845
S31520000B809A4204DD002202210A4804F0B8FC074BF1
S31520000B901B685B681946044803F023F900F09AF8AD
S31520000BA000BF0837BD4680BD000C004080180120DC
S31520000BB07C180120000402400346024A136010DF1D
S31520000BC0F74600BF941801200346054A1360054BDB
S31520000BD05B68044A43F080535360F74600BF00BF6A
S31520000BE09418012000ED00E080B582B000AF786057
S31520000BF0094B5B68C3F30803002B03D17868FFF722
S31520000C00DBFF02E07868FFF7DFFFFFF708FD00BF94
S31520000C100837BD4680BD00BF00ED00E090B585B029
S31520000C2000AF234B1C682348FFF7C8FE0346E3604A
S31520000C30E368BB60FFF7F3FCBB68D868BB6819693B
S31520000C40BB685B691A4600F015F9FFF7D9FC1A490B
S31520000C50B868FFF703FF194B1B689B68DB687B604E
S31520000C60144B1B68002B0AD07B68002BD9D0114B64
S31520000C701B689A687B689B68D31A002BD1DD0F48C6
S31520000C80FFF710FF03460E491846FFF7F9FE0B4BF8
S31520000C901B68FB6003E0FB681B691B68FB60FB6845
S31520000CA01B69002BF7D1F868FFF79EFFB9E700BF55
S31520000CB0BC8F00207C180120B08F0020B88F002028
S31520000CC0B48F002080B500AF00F004F8FFF7A7FC32
S31520000CD030BFFBE780B582B000AF144B1B68DB68E2
S31520000CE07B60134B1B68002B1BD0124B1B68002B01
S31520000CF017D07B68002B07D00D4B1B689A687B6842
S31520000D009B68D31A002B0CDA0A48FFF7CBFE034662
S31520000D1006491846FFF7B4FE044B1B681846FFF732
S31520000D2063FF00BF0837BD4680BD00BFB88F0020D7
S31520000D307C180120B48F002080B588B000AFF86001
S31520000D40B9607A603B60EFF312833B613B691B0914
S31520000D50012B14BF01230023DBB2FB77FFF750FCE6
S31520000D603A48FFF753FEB861BB697A68DA60BB6917
S31520000D703A681A61BB69BA6A5A61354B1B68002BFF
S31520000D8004D1344B1B68DB685B6801E0324B1B687F
S31520000D90FA681A44BB695A60BB695A68BB68002B5B
S31520000DA001DDBB6801E06FF000431A44BB699A601D
S31520000DB02A4802F0D7FC03467B61BB695A687B69E7
S31520000DC0D31A002B16DD2649B869FFF7CBFD244B35
S31520000DD01B685B687A699A4204DD00220221214859
S31520000DE004F08DFB1E4B1B685B6819461B4802F0FE
S31520000DF0F8FF21E01C49B869FFF788FDFB7F002B2F
S31520000E001AD01A4B1B68002B16D0174B1B689A68F2
S31520000E10174B1B68DB689B68D31A002B0CDA134828
S31520000E20FFF740FE034612491846FFF729FE104BEE
S31520000E301B681846FFF7D8FEFB7F002B01D0FFF773
S31520000E40EEFBBB6918462037BD4680BDB08F00201B
S31520000E5084180120BC8F00208C180120000C004033
S31520000E6080180120000402407C180120B48F002045
S31520000E70B88F002080B588B000AFF860B9607A607E
S31520000E80EFF312833B613B691B09012B14BF01233E
S31520000E900023DBB2FB76FFF7B3FBFB681B68FB6125
S31520000EA0FB69002B37D003E0FB691B691B68FB61DC
S31520000EB0FB691B69002BF7D1304B1B68FA699A42F4
S31520000EC002D0FB7E002B07D1FB7E002B01D0FFF743
S31520000ED0A6FB4FF0FF334DE0FB685B68002B03D089
S31520000EE0FB685B6800221A61244B1A68FB685A600B
S31520000EF0224B1B68FA681A61F869FFF775FE1F4BCB
S31520000F001B68DB68002B06D1FB7E002B01D0FFF788
S31520000F1086FB00232EE0194B1A68FB681A60FB7EBD
S31520000F20002B05D0FB685B68012B01D0FFF777FB10
S31520000F30BB687968F86898477861FFF761FBFB68BA
S31520000F4000221A60FB685B68FB61FB69002B0BD0F3
S31520000F50FB69012B08D0FB6800225A60FB6900223E
S31520000F601A61F869FFF740FEFB7E002B01D0FFF7E0
S31520000F7056FB7B6918462037BD4680BDBC8F0020B6
S31520000F8080B586B000AF7860EFF31283FB60FB6814
S31520000F901B09012B14BF01230023DBB2FB74FFF7CF
S31520000FA02FFB1F497868FFF78FFD0346002B06D1DC
S31520000FB01C497868FFF788FD0346002B04D01A49A0
S31520000FC07868FFF74BFD21E0184B1B687B611AE020
S31520000FD0174B1B687A699A4212D07B69DB687A685C
S31520000FE09A420DD17B691A697B68DB689A4207D1E0
S31520000FF07B690022DA600C497868FFF72FFD05E04F
S315200010007B699B687B617B69002BE1D1FB7C002B94
S3152000101001D0FFF704FB00BF1837BD4680BD00BFD7
S31520001020801801207C180120B08F0020B88F002066
S31520001030BC8F002080B485B000AF7860EFF31283B8
S31520001040FB60FB681B09012B04D0074B1B68DB6880
S315200010505B6801E0054B1B687A68136000BF143794
S31520001060BD465DF8047B7047BC8F00208C1801209C
S3152000107080B485B000AF7860EFF31283FB60FB6825
S315200010801B09012B04D0084B1B68DB685B6801E059
S31520001090064B1B687A6812689B1A18461437BD4699
S315200010A05DF8047B704700BFBC8F00208C180120A0
S315200010B080B584B000AFEFF312837B607B681B0999
S315200010C0012B14BF01230023DBB2FB73FFF798FA31
S315200010D00C4802F047FB0346BB60FB7B002B01D08C
S315200010E0FFF79DFAFB7B002B04D0074B1B68DB68C0
S315200010F05B6801E0054B1B68BA68D31A184610379F
S31520001100BD4680BD000C0040BC8F00208C180120FD
S3152000111080B582B000AF00237B6012E07B685A1C4A
S3152000112013465B001344DB00444A991843487A6807
S3152000113013465B001344DB00034419607B680133CC
S315200011407B607B681C2BE9DD3C4B0022C3F8B82270
S3152000115000237B6013E07B685A1C13469B001344D4
S315200011609B00374A991836487A6813469B001344E1
S315200011709B000344083319607B6801337B607B68DE
S31520001180022BE8DD2E4B00225A6400237B6030E0E0
S315200011902B497A6813469B0013449B000B44043367
S315200011A07A681A607A6813469B0013449B00244A87
S315200011B01A447B685B0323490B4419461046FFF704
S315200011C05FFA7A6813469B0013449B001C4A13441B
S315200011D01D491846FFF787FA19497A6813469B0076
S315200011E013449B000B44103300221A607B680133A2
S315200011F07B607B68032BCBDD144B4FF0FF325A60AC
S31520001200124B00229A60114B00221A610F4B0022CA
S31520001210DA600F48FFF756F90E48FFF753F90E48E4
S31520001220FFF750F90A48FFF74DF90948FFF74AF941
S31520001230FFF76BFA00BF0837BD4680BD44950020F6
S3152000124014980020689800201D0C002068180120A2
S3152000125060880020648800207088002080B586B0D1
S3152000126000AFF860B9601346FB71FB79022B41D8B9
S31520001270EFF312833B613B691B09012B14BF01234A
S315200012800023DBB2FB75FFF7BBF9FB79022B0ED0EF
S31520001290022B10DC002B02D0012B04D00BE0174BC5
S315200012A0174A1A6014E0174B174A1A6010E0174BBA
S315200012B0174A1A600CE01748FFF704F900220221AA
S315200012C0154804F01CF91548FFF7FCF830BFFDE778
S315200012D0FB791349FA6841F82320FB791149BA684A
S315200012E041F82320FB6801225A60FB7D002B01D0A8
S315200012F0FFF795F900BF1837BD4680BDD4C0012041
S31520001300D507002090C001203D0800209CC0012068
S31520001310A50800203C880020000402408888002080
S31520001320A41801209818012080B586B002AFF86075
S31520001330B9607A60FFF764F9FFF7EAFEBB68002B15
S3152000134016D00F4802F00EFA03461A460D4B1A60C5
S315200013500D4B01221A607B680093BB68FA68002156
S315200013600020FFF7E9FC084B00221A60FFF7B2FCC9
S31520001370FFF7A8FC002318461037BD4680BD00BFE6
S31520001380000C00408C1801208418012080B400AF86
S31520001390164B1B68154A43F001031360134B0022BA
S315200013A09A60124B1B68114A23F0A85323F410238A
S315200013B013600E4B0E4A5A600C4B0E4AC3F884201B
S315200013C00A4B0D4AC3F88820084B1B68074A23F4AA
S315200013D080231360054B0022DA60044B0022C3F8F9
S315200013E08C2000BFBD465DF8047B70470038024064
S315200013F010300024003000200030002480B483B058
S3152000140000AF0346FB71064B00221A70044AFB7993
S31520001410137000BF0C37BD465DF8047B704700BFD4
S315200014200238024080B582B000AF00233B60002323
S31520001430FB710023BB71312000F08AFD0346BB718E
S315200014403B6801333B603B68B3F5A04F02D0BB79C4
S31520001450002BF0D0312000F07BFD0346002B02D07C
S315200014600123FB7101E00023FB71FB791846083745
S31520001470BD4680BD80B485B000AF0346FB71002316
S31520001480FB600A4B1B68FB60FB6823F0F803FB60DC
S31520001490FB79DB00FA681343FB60044AFB681360A0
S315200014A000BF1437BD465DF8047B70470038024004
S315200014B080B483B000AF0346FB71044AFB79136006
S315200014C000BF0C37BD465DF8047B704700004742DD
S315200014D080B483B000AF0346FB710D4B00221A7017
S315200014E00B4B00221A70FB79012B02D0042B04D05F
S315200014F007E0074B01221A7003E0054B05221A70FC
S3152000150000BF00BF0C37BD465DF8047B704700BFA7
S315200015107038024080B483B000AF0346FB71044AA2
S31520001520FB79136000BF0C37BD465DF8047B70471E
S31520001530800E474280B485B000AFF860B9607A600B
S315200015403B607B689A01BB681A433B685B08013B9A
S315200015501B041A43FB681A43BB691B060449134341
S315200015604B6000BF1437BD465DF8047B704700BF53
S315200015700038024080B483B000AF0346FB71044AB2
S31520001580FB79136000BF0C37BD465DF8047B7047BE
S315200015906000474280B483B000AF786039607B68D2
S315200015A09A013B681B0705491343C1F8843000BFE5
S315200015B00C37BD465DF8047B704700BF00380240FB
S315200015C080B483B000AF0346FB71044AFB791360F5
S315200015D000BF0C37BD465DF8047B70476800474264
S315200015E080B485B000AFF860B9607A60FB689A0174
S315200015F0BB681B061A437B681B0705491343C1F8C2
S31520001600883000BF1437BD465DF8047B704700BFA5
S315200016100038024080B483B000AF0346FB71044A11
S31520001620FB79136000BF0C37BD465DF8047B70471D
S315200016307000474280B483B000AF0346FB71044A72
S31520001640FB79136000BF0C37BD465DF8047B7047FD
S315200016504C00474280B485B000AF786039600023E3
S31520001660FB600B4B9B68FB60FB6823F0EC63FB6025
S315200016707A683B681343FA681343FB60044AFB68A5
S31520001680936000BF1437BD465DF8047B704700BFEA
S315200016900038024080B485B000AF786039600023FE
S315200016A0FB600B4B9B68FB60FB6823F07843FB6079
S315200016B07A683B681343FA681343FB60044AFB6865
S315200016C0936000BF1437BD465DF8047B704700BFAA
S315200016D00038024080B485B000AF78600023FB60FC
S315200016E0094B9B68FB60FB6823F00303FB60FA68E9
S315200016F07B681343FB60044AFB68936000BF143782
S31520001700BD465DF8047B70470038024080B400AFC8
S31520001710054B9B68DBB203F00C03DBB21846BD46D3
S315200017205DF8047B704700BF0038024080B485B066
S3152000173000AF78600023FB60094B9B68FB60FB6869
S3152000174023F0F003FB60FA687B681343FB60044ACE
S31520001750FB68936000BF1437BD465DF8047B704775
S315200017600038024080B485B000AF78600023FB606B
S31520001770094B9B68FB60FB6823F4E053FB60FA6827
S315200017807B681343FB60044AFB68936000BF1437F1
S31520001790BD465DF8047B70470038024080B485B0B2
S315200017A000AF78600023FB600A4B9B68FB60FB68F8
S315200017B023F46043FB607B68DB00FA681343FB601D
S315200017C0044AFB68936000BF1437BD465DF8047B6E
S315200017D0704700BF0038024080B489B000AF7860FF
S315200017E00023BB6100237B610023FB6102233B6155
S315200017F00023FB600223BB604A4B9B6803F00C036B
S31520001800BB61BB69082B11D0BB69082B44D8BB69C7
S31520001810002B03D0BB69042B04D03DE07B68424AF1
S315200018201A603DE07B68414A1A6039E03D4B5B68AF
S315200018309B0D03F00103FB603A4B5B6803F03F030B
S31520001840BB60FB68002B0CD0384ABB68B2FBF3F3B5
S31520001850344A52689209C2F3080202FB03F3FB6181
S315200018600BE0314ABB68B2FBF3F32E4A5268920969
S31520001870C2F3080202FB03F3FB612A4B5B681B0CD5
S3152000188003F0030301335B003B61FA693B69B2FB5A
S31520001890F3F27B681A6003E07B68234A1A6000BF74
S315200018A0204B9B6803F0F003BB61BB691B09BB613E
S315200018B01F4ABB6913441B78DBB27B617B681A68BD
S315200018C07B69DA407B685A60164B9B6803F4E053C9
S315200018D0BB61BB699B0ABB61154ABB6913441B7874
S315200018E0DBB27B617B685A687B69DA407B689A60E9
S315200018F00C4B9B6803F46043BB61BB695B0BBB610C
S315200019000B4ABB6913441B78DBB27B617B685A6840
S315200019107B69DA407B68DA6000BF2437BD465DF814
S31520001920047B7047003802400024F40000127A003D
S31520001930A888002080B485B000AF78600023FB60C3
S315200019407B6803F44073B3F5407F11D10F4B9B683E
S31520001950FB60FB6823F4F813FB607B6823F070437D
S3152000196023F44073FA681343FB60084AFB689360CC
S31520001970064B1A6F7B68C3F30B03044913430B67AB
S3152000198000BF1437BD465DF8047B7047003802401F
S3152000199080B483B000AF0346FB71044AFB79136021
S315200019A000BF0C37BD465DF8047B70473C0E4742AE
S315200019B080B483B000AF0346FB71044AFB79136001
S315200019C000BF0C37BD465DF8047B7047400E47428A
S315200019D080B483B000AF7860044A7B68136000BF90
S315200019E00C37BD465DF8047B704700BF5C0147425B
S315200019F080B485B000AF78600023FB600B4BD3F832
S31520001A008C30FB60FB6823F01F03FB607B68013B87
S31520001A10FA681343FB60054AFB68C2F88C3000BFA6
S31520001A201437BD465DF8047B704700BF003802407E
S31520001A3080B485B000AF78600023FB600B4BD3F8F1
S31520001A408C30FB60FB6823F4F853FB607B68013B1A
S31520001A501B02FA681343FB60044AFB68C2F88C3009
S31520001A6000BF1437BD465DF8047B7047003802403E
S31520001A7080B485B000AF78600023FB600A4BD3F8B2
S31520001A808C30FB60FB6823F44013FB60FA687B68AC
S31520001A901343FB60044AFB68C2F88C3000BF14373E
S31520001AA0BD465DF8047B70470038024080B485B09F
S31520001AB000AF78600023FB600A4BD3F88C30FB60C4
S31520001AC0FB6823F44003FB60FA687B681343FB60E2
S31520001AD0044AFB68C2F88C3000BF1437BD465DF857
S31520001AE0047B70470038024080B485B000AF786030
S31520001AF00023FB600A4BD3F88C30FB60FB6823F491
S31520001B004033FB60FA687B681343FB60044AFB683A
S31520001B10C2F88C3000BF1437BD465DF8047B704791
S31520001B200038024080B483B000AF7860044A7B68F6
S31520001B30136000BF0C37BD465DF8047B704700BFBD
S31520001B40E011474280B483B000AF78600B46FB704B
S31520001B50FB78002B06D00A4B1A6B09497B68134386
S31520001B600B6306E0064B1A6B7B68DB430449134084
S31520001B700B6300BF0C37BD465DF8047B704700BF82
S31520001B800038024080B483B000AF78600B46FB700B
S31520001B90FB78002B06D00A4B5A6B09497B68134306
S31520001BA04B6306E0064B5A6B7B68DB4304491340C4
S31520001BB04B6300BF0C37BD465DF8047B704700BF02
S31520001BC00038024080B483B000AF78600B46FB70CB
S31520001BD0FB78002B06D00A4B9A6B09497B68134386
S31520001BE08B6306E0064B9A6B7B68DB430449134004
S31520001BF08B6300BF0C37BD465DF8047B704700BF82
S31520001C000038024080B483B000AF78600B46FB708A
S31520001C10FB78002B06D00A4B1A6C09497B681343C4
S31520001C200B6406E0064B1A6C7B68DB4304491340C1
S31520001C300B6400BF0C37BD465DF8047B704700BFC0
S31520001C400038024080B483B000AF78600B46FB704A
S31520001C50FB78002B06D00A4B5A6C09497B68134344
S31520001C604B6406E0064B5A6C7B68DB430449134001
S31520001C704B6400BF0C37BD465DF8047B704700BF40
S31520001C800038024080B483B000AF78600B46FB700A
S31520001C90FB78002B06D00A4B1A6909497B68134347
S31520001CA00B6106E0064B1A697B68DB430449134047
S31520001CB00B6100BF0C37BD465DF8047B704700BF43
S31520001CC00038024080B483B000AF78600B46FB70CA
S31520001CD0FB78002B06D00A4B5A6909497B681343C7
S31520001CE04B6106E0064B5A697B68DB430449134087
S31520001CF04B6100BF0C37BD465DF8047B704700BFC3
S31520001D000038024080B483B000AF78600B46FB7089
S31520001D10FB78002B06D00A4B9A6909497B68134346
S31520001D208B6106E0064B9A697B68DB4304491340C6
S31520001D308B6100BF0C37BD465DF8047B704700BF42
S31520001D400038024080B483B000AF78600B46FB7049
S31520001D50FB78002B06D00A4B1A6A09497B68134385
S31520001D600B6206E0064B1A6A7B68DB430449134084
S31520001D700B6200BF0C37BD465DF8047B704700BF81
S31520001D800038024080B483B000AF78600B46FB7009
S31520001D90FB78002B06D00A4B5A6A09497B68134305
S31520001DA04B6206E0064B5A6A7B68DB4304491340C4
S31520001DB04B6200BF0C37BD465DF8047B704700BF01
S31520001DC00038024080B483B000AF78600B46FB70C9
S31520001DD0FB78002B06D00A4B1A6D09497B68134302
S31520001DE00B6506E0064B1A6D7B68DB4304491340FE
S31520001DF00B6500BF0C37BD465DF8047B704700BFFE
S31520001E000038024080B483B000AF78600B46FB7088
S31520001E10FB78002B06D00A4B5A6D09497B68134381
S31520001E204B6506E0064B5A6D7B68DB43044913403D
S31520001E304B6500BF0C37BD465DF8047B704700BF7D
S31520001E400038024080B483B000AF78600B46FB7048
S31520001E50FB78002B06D00A4B9A6D09497B68134301
S31520001E608B6506E0064B9A6D7B68DB43044913407D
S31520001E708B6500BF0C37BD465DF8047B704700BFFD
S31520001E800038024080B483B000AF78600B46FB7008
S31520001E90FB78002B06D00A4B1A6E09497B68134340
S31520001EA00B6606E0064B1A6E7B68DB43044913403B
S31520001EB00B6600BF0C37BD465DF8047B704700BF3C
S31520001EC00038024080B483B000AF78600B46FB70C8
S31520001ED0FB78002B06D00A4B5A6E09497B681343C0
S31520001EE04B6606E0064B5A6E7B68DB43044913407B
S31520001EF04B6600BF0C37BD465DF8047B704700BFBC
S31520001F000038024080B483B000AF03460A46FB7116
S31520001F101346BB71BB79002B08D00C4B1B78DAB269
S31520001F200A49FB791343DBB20B7009E0074B1B7898
S31520001F30DAB2FB79DB43DBB204491340DBB20B7028
S31520001F4000BF0C37BD465DF8047B70470D38024054
S31520001F5080B487B000AF0346FB710023FB600023EB
S31520001F607B610023FB74FB795B09DBB2FB60FB68BA
S31520001F70012B03D1124B1B687B6109E0FB68022B06
S31520001F8003D10F4B1B6F7B6102E00D4B5B6F7B61B7
S31520001F90FB7903F01F03FB607A69FB6822FA03F3DF
S31520001FA003F00103002B02D00123FB7401E0002380
S31520001FB0FB74FB7C18461C37BD465DF8047B7047D6
S31520001FC00038024080B400AF054B5B6F044A43F0F3
S31520001FD08073536700BFBD465DF8047B704700BF22
S31520001FE00038024080B485B000AF0346FB71002361
S31520001FF0FB73094BDA68FB791340002B02D00123CF
S31520002000FB7301E00023FB73FB7B18461437BD46A8
S315200020105DF8047B704700BF0038024080B483B06F
S3152000202000AF0346FB71044AFB79137000BF0C37DF
S31520002030BD465DF8047B70470E38024080B483B0FD
S3152000204000AF0346FB71FB7903F01F03012202FA5E
S3152000205003F1064A97F907305B0942F8231000BFBF
S315200020600C37BD465DF8047B704700BF00E100E0F9
S3152000207080B483B000AF03463960FB7197F907300F
S31520002080002B0BDA3B68DAB20C49FB7903F00F031D
S31520002090043B1201D2B20B441A7609E03B68DAB24D
S315200020A0074997F907301201D2B20B4483F800236F
S315200020B000BF0C37BD465DF8047B704700ED00E09D
S315200020C000E100E080B586B000AF786039607B68BB
S315200020D000229A617B689A697B685A617B685A6993
S315200020E07B68DA6107F10C03184604F045FA0023F1
S315200020F0BB740023FB7400233B7500237B750023F0
S31520002100BB750023FB750023BB730023FB730223DF
S315200021103B7403237B740723BB8107F10C03194609
S31520002120124804F095F80346002B02D11048FEF71A
S31520002130C9F907F10C0319460E4804F089F803463D
S31520002140002B02D10C48FEF7BDF902211420FFF71F
S315200021508FFF1420FFF772FF01220221034804F0AB
S3152000216049FE00BF1837BD4680BD00BF0064004051
S31520002170B888002000680040D0880020B0B58AB01A
S3152000218002AF786039607B689B685A49184604F02C
S315200021904FFE0346012B02D05748FEF793F97B6882
S315200021A0DB69072B00F39E807B689B6807F108029A
S315200021B00021184604F024FCBB681B09DBB27A68B0
S315200021C0526903F07F03D8B2796813469B00134403
S315200021D05B0013440B44203302461A70BB68DBB203
S315200021E07A68526903F00F03D8B2796813469B00C8
S315200021F013445B0013440B44213302461A70BB7C04
S315200022007A68526903F00F03D8B2796813469B00A7
S3152000221013445B0013440B44223302461A700023F6
S31520002220FB7715E0FB7F7A685269F97F20333B44C0
S3152000223013F80D4C786813469B0013445B00134437
S3152000224003440B44233322461A70FB7F0133FB776A
S315200022507B685A69796813469B0013445B001344D4
S315200022600B4422331B78FA7F9A42DBD37B68DB68E8
S31520002270002B25D07B68DC687B681D697B685A69E2
S31520002280796813469B0013445B0013440B442033A8
S315200022901B7819017B685A69786813469B0013449A
S315200022A05B001344034421331B780B4400932B46D5
S315200022B0224600210020FEF73FFD104B01221A6026
S315200022C07B685B6901335A4203F0070302F0070279
S315200022D058BF53427A6853617B68DB695A1C7B6816
S315200022E0DA6102E00648FEF7EDF800BF2037BD466A
S315200022F0B0BD00BF03000012E88800208818012026
S315200023001089002090B484B000AF786039607B6873
S31520002310DB69002B55DD7B689A69796813469B003B
S3152000232013445B0013440B4420331A783B681A701D
S315200023307B689A69796813469B0013445B001344B3
S315200023400B4421331A783B685A707B689A697968FE
S3152000235013469B0013445B0013440B4422331A7824
S315200023603B689A700023FB7313E07B689A69F87BBD
S31520002370F97B7C6813469B0013445B00134423447B
S31520002380034423331A783B680B44DA70FB7B013312
S31520002390FB733B689B78FA7B9A42E6D37B689B6902
S315200023A001335A4203F0070302F0070258BF534293
S315200023B07A6893617B68DB695A1E7B68DA61002341
S315200023C000E0012318461037BD4690BC704780B503
S315200023D08AB000AF786039607B689B683B620023D7
S315200023E0FB773B681B781B013A6852781344BB6025
S315200023F000237B7400233B743B689B78082B02D90F
S315200024003B6808229A703B689B78BB74002387F848
S3152000241027300FE097F8272097F8273039680A44A5
S31520002420D27828333B4403F8152C97F8273001330C
S3152000243087F827303B689B7897F827209A42E9D37C
S3152000244007F108031946386A04F05AF90346FB7760
S31520002450FB7F042B04D10548FEF734F8012300E066
S31520002460002318462837BD4680BD00BF308900208E
S3152000247080B586B000AF7860396007F10C031A4644
S315200024800A490B48FEF7F6FC0A4B1A460A490B483E
S31520002490FEF7F0FC07F10C0303331A4606490748FA
S315200024A0FEF7E8FC00BF1837BD4680BD0523002097
S315200024B078940020948A00203357002058900020DA
S315200024C080B5C2B002AF786007F58073A3F580733C
S315200024D01960B74B1A46B749B748FEF7CBFC07F544
S315200024E08073A3F580731A68B449B348FEF7C2FC1B
S315200024F0B34B1A46AF49B048FEF7BCFC07F58073CC
S31520002500A3F580731B682D3B382B00F2B48201A201
S3152000251052F823F0F9250020772A0020772A002078
S31520002520F9250020F9250020F9250020F92500208D
S31520002530F9250020F9250020F9250020F92500207D
S31520002540F9250020F9250020772A0020772A002067
S31520002550772A0020772A0020772A0020772A002051
S31520002560772A0020772A0020772A0020772A002041
S31520002570772A0020772A0020B5260020772A0020F7
S31520002580772A0020772A0020772A0020DB260020C1
S31520002590772A002041290020772A0020772A002048
S315200025A0572A0020772A0020772A0020772A002021
S315200025B0772A0020772A002041280020772A002029
S315200025C06B290020772A0020E1290020772A002085
S315200025D0772A0020772A0020772A0020772A0020D1
S315200025E0772A0020772A0020772A0020772A0020C1
S315200025F0772A0020192600207B689B68591C7A6858
S31520002600916007F58072A2F580721268D1B27A685D
S3152000261013440A465A732FE27B689B687A681344F0
S3152000262000225A737B6800229A607B685A6C7B680A
S315200026309A647B681A6C7B685A647B680D331846EB
S3152000264005F02AFB02467B681A640323C7F8F83094
S315200026507B68DB6CD7F8F8209A4204DD7B68DB6C5C
S315200026605A1C7B68DA647B681A6C7B685B6C1A443C
S315200026707B689B6C1344C7F8F4300021786800F01F
S3152000268029FAC7F8F0007B681A6C07F10800D7F81A
S31520002690F0300193D7F8F43000931346494AC82105
S315200026A005F0C6FA07F108031A4642494248FEF7E2
S315200026B0E1FBE1E17B6800221A647B6800225A6410
S315200026C07B6800229A647B680022DA643E4B1A46B5
S315200026D038493948FEF7CEFBCEE107F108033B4ADD
S315200026E0C821184605F0A4FA07F108031A4631490D
S315200026F03148FEF7BFFB7B689B687A68134400224B
S315200027005A737B6800229A607B680D33184605F061
S31520002710C3FA02467B681A657B681B6D13F1040FAA
S31520002720C0F287807B681B6D042B00F38280284BC8
S315200027301A4620492048FEF79DFB7B681B6D07F152
S315200027400800244A202105F073FA07F108031A46E7
S3152000275018491948FEF78EFB1F4B1A46154916488D
S31520002760FEF788FB1D4B1A4612491348FEF782FBDB
S315200027700023C7F8FC3051E0194AD7F8FC3052F84C
S315200027802330C7F8D4307B681B6D1946D7F8D400A0
S3152000279000F026FAC7F8D000D7F8D030002B23D186
S315200027A0104B1A4603490448FEF764FB3AE000BF83
S315200027B0A88A0020335700205890002089570020EF
S315200027C0B08A0020B48A0020E48A0020048B0020EE
S315200027D0188B0020208B0020248B0020288B0020A3
S315200027E048890020388B002007F10800D7F8D03020
S315200027F0A44AC82105F01CFA07F108031A46A24983
S31520002800A248FEF737FBA24B1A469F499F48FEF780
S3152000281031FBD7F8FC300133C7F8FC30D7F8FC3051
S315200028201F2BA9DD9B4B1A4697499848FEF722FB9A
S3152000283022E1994B1A4694499448FEF71BFB1BE16B
S3152000284007F10803954AC821184605F0F1F907F162
S3152000285008031A468C498D48FEF70CFB7B689B685B
S315200028607A68134400225A737B6800229A607B6838
S315200028700D33184605F010FA02467B681A657B6808
S315200028801B6DC7F8EC3007F10800D7F8EC30844A06
S31520002890C82105F0CDF907F108031A467A497B4885
S315200028A0FEF7E8FAD7F8EC207E497F48FEF7E2FAF1
S315200028B00346002B20D17D4B1A4673497348FEF7F9
S315200028C0D9FAD7F8EC207A497748FEF7D3FA0346A7
S315200028D007F108006B4AC82105F0AAF907F1080399
S315200028E01A4669496948FEF7C5FA724B1A4666497F
S315200028F06648FEF7BFFABFE06F4B1A466249634847
S31520002900FEF7B8FAD7F8EC2069496748FEF7B2FA1D
S31520002910C7F8D80007F10800D7F8D830594AC82197
S3152000292005F086F907F108031A4657495748FEF776
S31520002930A1FA624B1A4654495448FEF79BFA9BE08B
S315200029407B689B687A68134400225A737B6800224E
S315200029509A6000225A495448FEF78CFA594B1A4677
S3152000296049494A48FEF786FA86E07B689B687A687A
S31520002970134400225A737B6800229A60D7F8EC2011
S315200029804B494948FEF776FAC7F8E000D7F8E03019
S3152000299001331A4643494448FEF76CFA7B68D7F858
S315200029A0E0201A65D7F8EC2041493F48FEF762FA45
S315200029B0C7F8DC0007F10800D7F8DC30314AC82117
S315200029C005F036F907F108031A462F492F48FEF776
S315200029D051FA3D4B1A462C492C48FEF74BFA4BE050
S315200029E0D7F8EC2032493048FEF744FAC7F8E80019
S315200029F0D7F8E830013B1A462A492B48FEF73AFA1F
S31520002A007B68D7F8E8201A65D7F8EC2028492648AD
S31520002A10FEF730FAC7F8E40007F10800D7F8E430EB
S31520002A20184AC82105F004F907F108031A46164981
S31520002A301648FEF71FFA244B1A4613491348FEF789
S31520002A4019FA7B689B687A68134400225A737B685C
S31520002A5000229A6010E01D4B1A461D491248FEF7C7
S31520002A6009FA7B689B687A68134400225A737B684C
S31520002A7000229A6000E000BF00BF07F58077BD46C0
S31520002A8080BD00BF208B00203357002058900020A7
S31520002A90248B00205C8B0020748B0020048B00206C
S31520002AA0888B00203750002014900020908B002027
S31520002AB01D500020A08B0020B08B0020C08B002052
S31520002AC087500020D48B0020DC8B0020E12B0020B7
S31520002AD06950002080B58AB000AF786039607B6885
S31520002AE0DB6C012B04D17B681B6CFB61FB6971E0FD
S31520002AF07B68DB6C022B16D17B681A6C7B685B6C5F
S31520002B001344184604F080FF4FF00002334B04F0C4
S31520002B10FFFC02460B461046194604F0DFFF03462B
S31520002B20FB61FB6956E07B68DB6C032B51D17B682C
S31520002B301B6CFB607B685B6C3B617B689B6C7B6181
S31520002B4000237B623CE000233B622FE03B6A9B0034
S31520002B5028333B4453F81C2C3B6A01339B00283313
S31520002B603B4453F81C3C9A421CDC3B6A9B002833AE
S31520002B703B4453F81C3CBB613B6A01339B00283322
S31520002B803B4453F81C2C3B6A9B0028333B4443F8B8
S31520002B901C2C3B6A01339B0028333B44BA6943F81B
S31520002BA01C2C00E000BF3B6A01333B627B68DA6C79
S31520002BB07B6AD31A3A6A9A42C8DD7B6A01337B6202
S31520002BC07B68DB6C7A6A9A42BDDB3B69FB61FB69F9
S31520002BD000E0002318462837BD4680BD0000E03FB0
S31520002BE080B485B000AF786039607A683B6813445A
S31520002BF00A221344FB60FB68002B02DBFB68192BBF
S31520002C0001DD002304E0054AFB68DB0013445B6812
S31520002C1018461437BD465DF8047B7047C8890020E6
S31520002C2080B483B000AF7860396000BF0C37BD46F2
S31520002C305DF8047B704780B588B002AF7860396054
S31520002C4000230093344B354A00210020FEF774F808
S31520002C50002233493348FEF70DF900223249334822
S31520002C60FEF708F9324B1A4632493048FEF702F988
S31520002C70314B1A462F492D48FEF7FCF82F4B1A46A2
S31520002C802C492A48FEF7F6F82D4B1A46294927489B
S31520002C90FEF7F0F82B4B1A4626492448FEF7EAF8A9
S31520002CA0294B1A4623492148FEF7E4F8274B1A46B2
S31520002CB020491E48FEF7DEF8254B1A461D491B48BB
S31520002CC0FEF7D8F8234B1A461A491848FEF7D2F8C9
S31520002CD0214B1A4617491548FEF7CCF801233B73BA
S31520002CE001237B730623BB734823FB7365233B7445
S31520002CF06C237B746C23BB746F23FB7400233B759E
S31520002D0007F10C031A4615490648FEF7B3F800BF2B
S31520002D101837BD4680BD00BFC1500020149000204A
S31520002D20C5200020789400208D5600205890002041
S31520002D30F08B002033570020048C0020248C0020A8
S31520002D40348C0020788C0020B08C0020F08C002061
S31520002D50148D00203C8D0020648D0020CF23002080
S31520002D6080B500AF002208490848FEF777FA01220D
S31520002D7007490848FEF772FA002207490748FEF776
S31520002D80D3FA0023184680BDBF5700205890002054
S31520002D907D21002078940020372C0020C08F002031
S31520002DA080B500AF01214FF00050FEF7CBFF002188
S31520002DB04FF00050FEF7C6FF00BF80BD80B485B03F
S31520002DC000AF786039600023FB600023BB60144BA2
S31520002DD01B68FB6040F6FE727B6802FA03F3DB4356
S31520002DE0FA681340FB603B681A683B685B681A43C5
S31520002DF03B689B681A433B68DB681343BB60BA6831
S31520002E007B6802FA03F3FA681343FB60044AFB6803
S31520002E10136000BF1437BD465DF8047B704700BFC2
S31520002E200074004080B483B000AF78607B680022D5
S31520002E301A607B6800225A607B6800229A607B6851
S31520002E400022DA6000BF0C37BD465DF8047B704770
S31520002E5080B483B000AF78600B46FB70FB78002B04
S31520002E6009D00D4B1A6801217B6801FA03F30A4940
S31520002E7013430B6009E0084B1A6801217B6801FAAD
S31520002E8003F3DB43044913400B6000BF0C37BD46F8
S31520002E905DF8047B704700BF0074004080B483B0A7
S31520002EA000AF78600B46FB70FB78002B0AD00E4BE8
S31520002EB05A687B681B09012101FA03F30A49134367
S31520002EC04B600AE0084B5A687B681B09012101FA0E
S31520002ED003F3DB43044913404B6000BF0C37BD4668
S31520002EE05DF8047B704700BF0074004080B483B057
S31520002EF000AF0346FB71FB79002B06D0094B5B68BC
S31520002F00084A43F00303536005E0064B5B68054A15
S31520002F1023F00303536000BF0C37BD465DF8047BE6
S31520002F20704700BF0074004080B485B000AFF860E1
S31520002F30B9601346FB71FB79002B09D00C4B1A683C
S31520002F40B968FB6801FA03F3094913430B6009E0EA
S31520002F50074B1A68B968FB6801FA03F3DB43044997
S31520002F6013400B6000BF1437BD465DF8047B7047E5
S31520002F700074004080B485B000AF78600B467B803B
S31520002F800023FB60084BFB60FA687B681344083318
S31520002F90FB60FB681A467B88136000BF1437BD466A
S31520002FA05DF8047B704700BF0074004080B485B094
S31520002FB000AF78600B467B800023FB60084BFB60EC
S31520002FC0FA687B6813441433FB60FB681A467B88D7
S31520002FD0136000BF1437BD465DF8047B704700BF01
S31520002FE00074004080B485B000AF78600B467B80CB
S31520002FF013463B800023FB600023BB607B68082BC5
S3152000300005D17B881A023B881343FB6004E07B884A
S315200030101A043B881343FB60074BBB607A68BB6886
S3152000302013442033BB60BB68FA681A6000BF1437AC
S31520003030BD465DF8047B70470074004080B485B0BF
S3152000304000AF78600023FB60084BFB607B689A0822
S31520003050FB6813442C33FB60FB681B689BB2184645
S315200030601437BD465DF8047B704700BF00740040EE
S3152000307080B483B000AF78600B46FB70FB78002BE2
S315200030800AD00E4B1A684FF480517B6801FA03F37D
S315200030900A4913430B600AE0084B1A684FF4805123
S315200030A07B6801FA03F3DB43044913400B6000BF3E
S315200030B00C37BD465DF8047B704700BF00740040A6
S315200030C080B485B000AFF860B9601346FB71FB7918
S315200030D0002B09D00C4B1A68B968FB6801FA03F378
S315200030E0094913430B6009E0074B1A68B968FB6866
S315200030F001FA03F3DB43044913400B6000BF143786
S31520003100BD465DF8047B70470074004080B485B0EE
S3152000311000AF786039600023FB730A4B5A6B39681D
S315200031207B6801FA03F31340002B02D00123FB73C3
S3152000313001E00023FB73FB7B18461437BD465DF880
S31520003140047B70470074004080B483B000AF786081
S31520003150396006493A687B6802FA03F34B6300BF7D
S315200031600C37BD465DF8047B704700BF00740040F5
S3152000317080B485B000AF786039600023FB730023EC
S31520003180BB60104B1A6839687B6801FA03F3134059
S31520003190BB600C4B5A6B39687B6801FA03F313400A
S315200031A0002B05D0BB68002B02D00123FB7301E066
S315200031B00023FB73FB7B18461437BD465DF8047B62
S315200031C0704700BF0074004080B483B000AF7860C1
S315200031D0396006493A687B6802FA03F34B6300BFFD
S315200031E00C37BD465DF8047B704700BF0074004075
S315200031F080B400AF094B00221A60084B00225A60A7
S31520003200064B00229A60054B0022DA60034B044AE3
S315200032105A6100BFBD465DF8047B7047003C014003
S31520003220FFFF7F0080B485B000AF78600023FB608D
S31520003230344BFB607B689B79002B4FD0314B1A684F
S315200032407B681B68DB432F4913400B602D4B5A6864
S315200032507B681B68DB432B4913404B607B681B79DB
S315200032601A46FB681344FB60FB6819687B681A687A
S31520003270FB680A431A60234B9A687B681B68DB430A
S31520003280204913408B601F4BDA687B681B68DB4341
S315200032901C491340CB607B685B79102B0ED1194BF0
S315200032A09A687B681B68174913438B60154BDA684D
S315200032B07B681B6813491343CB601DE0114BFB60F1
S315200032C07B685B791A46FB681344FB60FB681968C8
S315200032D07B681A68FB680A431A600DE07B681B79D5
S315200032E01A46FB681344FB60FB6819687B681B68F9
S315200032F0DA43FB680A401A6000BF1437BD465DF802
S31520003300047B7047003C014080B483B000AF7860F6
S315200033107B6800221A607B6800221A717B680C2267
S315200033205A717B6800229A7100BF0C37BD465DF842
S31520003330047B704780B483B000AF7860054B1A6970
S3152000334004497B6813430B6100BF0C37BD465DF80B
S31520003350047B7047003C014080B485B000AF7860A4
S315200033600023FB73084B5A697B681340002B02D05D
S315200033700123FB7301E00023FB73FB7B1846143704
S31520003380BD465DF8047B7047003C014080B483B0A5
S3152000339000AF7860044A7B68536100BF0C37BD4696
S315200033A05DF8047B704700BF003C014080B485B0C7
S315200033B000AF78600023FB73084B5A697B68134083
S315200033C0002B02D00123FB7301E00023FB73FB7B60
S315200033D018461437BD465DF8047B7047003C014013
S315200033E080B483B000AF7860044A7B68536100BF25
S315200033F00C37BD465DF8047B704700BF003C01409A
S3152000340080B582B000AF78607B68604A934208D16D
S3152000341001210120FEF7B6FC00210120FEF7B2FCB7
S31520003420AFE07B68B3F1804F08D101210120FEF780
S3152000343089FC00210120FEF785FCA2E07B68544A26
S31520003440934208D101210220FEF77CFC00210220B4
S31520003450FEF778FC95E07B684E4A934208D101211D
S315200034600420FEF76FFC00210420FEF76BFC88E0A9
S315200034707B68494A934208D101210820FEF762FC65
S3152000348000210820FEF75EFC7BE07B68434A9342DE
S3152000349008D101211020FEF755FC00211020FEF74F
S315200034A051FC6EE07B683E4A934208D101212020E0
S315200034B0FEF748FC00212020FEF744FC61E07B68F3
S315200034C0384A934208D101210220FEF75BFC0021F5
S315200034D00220FEF757FC54E07B68334A93420AD118
S315200034E001214FF48030FEF74DFC00214FF480304F
S315200034F0FEF748FC45E07B682C4A93420AD101211D
S315200035004FF40030FEF73EFC00214FF40030FEF76A
S3152000351039FC36E07B68264A93420AD101214FF4D2
S315200035208020FEF72FFC00214FF48020FEF72AFC96
S3152000353027E07B681F4A934208D101214020FEF7ED
S3152000354001FC00214020FEF7FDFB1AE07B681A4AA9
S31520003550934208D101218020FEF7F4FB0021802030
S31520003560FEF7F0FB0DE07B68144A934209D1012156
S315200035704FF48070FEF7E6FB00214FF48070FEF7D3
S31520003580E1FB00BF0837BD4680BD00BF00000140FB
S315200035900004004000080040000C004000100040DD
S315200035A00014004000040140004001400044014056
S315200035B00048014000180040001C00400020004048
S315200035C080B485B000AF786039600023FB817B68CA
S315200035D01B88FB817B68294A934213D07B68284A43
S315200035E093420FD07B68B3F1804F0BD07B68254A7E
S315200035F0934207D07B68244A934203D07B68234AB0
S31520003600934208D1FB8923F07003FB813B685A88DB
S31520003610FB891343FB817B681D4A93420CD07B6850
S315200036201C4A934208D0FB8923F44073FB813B68F4
S315200036301A89FB891343FB817B68FA891A803B68C8
S315200036405A687B68DA623B681A887B681A857B68C9
S315200036500A4A934203D07B68094A934204D13B68C5
S315200036609B7A1A467B681A867B6801229A8200BF5B
S315200036701437BD465DF8047B704700BF000001404B
S31520003680000401400004004000080040000C0040F7
S31520003690001000400014004080B483B000AF786072
S315200036A07B684FF0FF325A607B6800221A807B6865
S315200036B000221A817B6800225A807B6800229A7237
S315200036C000BF0C37BD465DF8047B704780B483B0DD
S315200036D000AF78600B467B8013463B807B687A88F8
S315200036E01A857B683A889A8200BF0C37BD465DF8FA
S315200036F0047B704780B485B000AF78600B467B8032
S315200037000023FB817B681B88FB81FB8923F07003E8
S31520003710FB81FA897B881343FB817B68FA891A80AF
S3152000372000BF1437BD465DF8047B704780B483B074
S3152000373000AF786039607B683A685A6200BF0C3700
S31520003740BD465DF8047B704780B483B000AF7860D7
S3152000375039607B683A68DA6200BF0C37BD465DF88F
S31520003760047B704780B483B000AF78607B685B6A67
S3152000377018460C37BD465DF8047B704780B483B08D
S3152000378000AF78607B681B8D9BB218460C37BD4610
S315200037905DF8047B704780B483B000AF78600B4639
S315200037A0FB70FB78002B08D07B681B889BB243F00C
S315200037B002039AB27B681A8007E07B681B889BB25B
S315200037C023F002039AB27B681A8000BF0C37BD46ED
S315200037D05DF8047B704780B483B000AF78600B46F9
S315200037E07B807B88002B08D07B681B889BB243F0AC
S315200037F004039AB27B681A8007E07B681B889BB219
S3152000380023F004039AB27B681A8000BF0C37BD46AA
S315200038105DF8047B704780B483B000AF78600B46B8
S31520003820FB70FB78002B08D07B681B889BB243F08B
S3152000383080039AB27B681A8007E07B681B889BB25C
S3152000384023F080039AB27B681A8000BF0C37BD46EE
S315200038505DF8047B704780B483B000AF78600B4678
S315200038607B807B681B889BB223F008039AB27B6817
S315200038701A807B681B889AB27B8813439AB27B682E
S315200038801A8000BF0C37BD465DF8047B704780B4B4
S3152000389083B000AF78600B467B807B681B889BB229
S315200038A023F440739AB27B681A807B681B889AB28D
S315200038B07B8813439AB27B681A8000BF0C37BD46BB
S315200038C05DF8047B704780B483B000AF78600B4608
S315200038D0FB70FB78002B08D07B681B889BB243F0DB
S315200038E001039AB27B681A8007E07B681B889BB22B
S315200038F023F001039AB27B681A8000BF0C37BD46BD
S315200039005DF8047B704780B485B000AF786039607D
S3152000391000237B810023FB810023BB817B681B8CDA
S315200039209BB223F001039AB27B681A847B681B8CB6
S31520003930FB817B689B88BB817B681B8B7B817B891A
S3152000394023F070037B817B8923F003037B813B6813
S315200039501A887B8913437B81FB8923F00203FB8131
S315200039603B689A89FB891343FB813B685A88FB890C
S315200039701343FB817B681F4A934203D07B681E4A10
S31520003980934223D1FB8923F00803FB813B68DA8924
S31520003990FB891343FB81FB8923F00403FB813B68EE
S315200039A09A88FB891343FB81BB8923F48073BB81EF
S315200039B0BB8923F40073BB813B681A8ABB891343F6
S315200039C0BB813B685A8ABB891343BB817B68BA8912
S315200039D09A807B687A891A833B689A687B685A63DF
S315200039E07B68FA891A8400BF1437BD465DF8047BCC
S315200039F0704700BF000001400004014080B485B03C
S31520003A0000AF7860396000237B810023FB8100238F
S31520003A10BB817B681B8C9BB223F010039AB27B6818
S31520003A201A847B681B8CFB817B689B88BB817B68A7
S31520003A301B8B7B817B8923F4E0437B817B8923F469
S31520003A4040737B813B681B881B029AB27B89134398
S31520003A507B81FB8923F02003FB813B689B891B012B
S31520003A609AB2FB891343FB813B685B881B019AB2A0
S31520003A70FB891343FB817B68224A934203D07B68F0
S31520003A80214A93422BD1FB8923F08003FB813B689B
S31520003A90DB891B019AB2FB891343FB81FB8923F047
S31520003AA04003FB813B689B881B019AB2FB89134329
S31520003AB0FB81BB8923F48063BB81BB8923F400632C
S31520003AC0BB813B681B8A9B009AB2BB891343BB818F
S31520003AD03B685B8A9B009AB2BB891343BB817B6898
S31520003AE0BA899A807B687A891A833B689A687B6848
S31520003AF09A637B68FA891A8400BF1437BD465DF83D
S31520003B00047B7047000001400004014080B485B06A
S31520003B1000AF7860396000237B810023FB8100237E
S31520003B20BB817B681B8C9BB223F480739AB27B6823
S31520003B301A847B681B8CFB817B689B88BB817B6896
S31520003B409B8B7B817B8923F070037B817B8923F090
S31520003B5003037B813B681A887B8913437B81FB891E
S31520003B6023F40073FB813B689B891B029AB2FB8975
S31520003B701343FB813B685B881B029AB2FB89134384
S31520003B80FB817B68224A934203D07B68214A934279
S31520003B902BD1FB8923F40063FB813B68DB891B0265
S31520003BA09AB2FB891343FB81FB8923F48063FB8153
S31520003BB03B689B881B029AB2FB891343FB81BB8916
S31520003BC023F48053BB81BB8923F40053BB813B681C
S31520003BD01B8A1B019AB2BB891343BB813B685B8A54
S31520003BE01B019AB2BB891343BB817B68BA899A8031
S31520003BF07B687A899A833B689A687B68DA637B68F4
S31520003C00FA891A8400BF1437BD465DF8047B7047D5
S31520003C10000001400004014080B485B000AF786008
S31520003C2039600023BB8100237B810023FB817B68D5
S31520003C301B8C9BB223F480539AB27B681A847B68D0
S31520003C401B8C7B817B689B88FB817B689B8BBB81E4
S31520003C50BB8923F4E043BB81BB8923F44073BB813A
S31520003C603B681B881B029AB2BB891343BB817B89A5
S31520003C7023F400537B813B689B891B039AB27B8983
S31520003C8013437B813B685B881B039AB27B89134372
S31520003C907B817B68124A934203D07B68114A934208
S31520003CA00AD1FB8923F48043FB813B681B8A9B0155
S31520003CB09AB2FB891343FB817B68FA899A807B68D9
S31520003CC0BA899A833B689A687B681A647B687A8982
S31520003CD01A8400BF1437BD465DF8047B704700BFC9
S31520003CE0000001400004014080B483B000AF78603A
S31520003CF07B6800221A807B6800225A807B6800221B
S31520003D009A807B6800229A607B6800229A817B6871
S31520003D100022DA817B6800221A827B6800225A827E
S31520003D2000BF0C37BD465DF8047B704780B485B074
S31520003D3000AF78600B467B8013463B800023FB60F8
S31520003D4000237B817B68FB60FB681833FB607B88E4
S31520003D50012202FA03F37B817B681B8C9AB27B8952
S31520003D60DB439BB213409AB27B681A847B88002B74
S31520003D7002D07B88082B14D17B885B089BB21A461D
S31520003D80FB681344FB60FB681968FA684FF68F736B
S31520003D900B401360FB6819683A88FB680A431A606F
S31520003DA019E07B88043B9BB25B089BB21A46FB68F2
S31520003DB01344FB60FB681968FA6848F6FF730B40EA
S31520003DC01360FB681A683B881B029BB21946FB6886
S31520003DD00A431A6000BF00BF1437BD465DF8047B56
S31520003DE0704780B483B000AF786039607B683A68EA
S31520003DF05A6300BF0C37BD465DF8047B704780B41C
S31520003E0083B000AF786039607B683A689A6300BFF8
S31520003E100C37BD465DF8047B704780B483B000AF95
S31520003E20786039607B683A68DA6300BF0C37BD4634
S31520003E305DF8047B704780B483B000AF786039604A
S31520003E407B683A681A6400BF0C37BD465DF8047B70
S31520003E50704780B485B000AF78600B467B80002326
S31520003E60FB817B681B8BFB81FB8923F07003FB8125
S31520003E70FA897B881343FB817B68FA891A8300BF02
S31520003E801437BD465DF8047B704780B485B000AF1B
S31520003E9078600B467B800023FB817B681B8BFB8134
S31520003EA0FB8923F4E043FB817B881B029AB2FB89C2
S31520003EB01343FB817B68FA891A8300BF1437BD46FA
S31520003EC05DF8047B704780B485B000AF78600B4600
S31520003ED07B800023FB817B689B8BFB81FB8923F006
S31520003EE07003FB81FA897B881343FB817B68FA89FF
S31520003EF09A8300BF1437BD465DF8047B704780B4B3
S31520003F0085B000AF78600B467B800023FB817B6801
S31520003F109B8BFB81FB8923F4E043FB817B881B027F
S31520003F209AB2FB891343FB817B68FA899A8300BF87
S31520003F301437BD465DF8047B704780B485B000AF6A
S31520003F4078600B467B800023FB817B681B8BFB8183
S31520003F50FB8923F00803FB81FA897B881343FB81C5
S31520003F607B68FA891A8300BF1437BD465DF8047B47
S31520003F70704780B485B000AF78600B467B80002305
S31520003F80FB817B681B8BFB81FB8923F40063FB8110
S31520003F907B881B029AB2FB891343FB817B68FA89D3
S31520003FA01A8300BF1437BD465DF8047B704780B482
S31520003FB085B000AF78600B467B800023FB817B6851
S31520003FC09B8BFB81FB8923F00803FB81FA897B8885
S31520003FD01343FB817B68FA899A8300BF1437BD4659
S31520003FE05DF8047B704780B485B000AF78600B46DF
S31520003FF07B800023FB817B689B8BFB81FB8923F4E1
S315200040000063FB817B881B029AB2FB891343FB81E9
S315200040107B68FA899A8300BF1437BD465DF8047B16
S31520004020704780B485B000AF78600B467B80002354
S31520004030FB817B681B8BFB81FB8923F00403FB81BF
S31520004040FA897B881343FB817B68FA891A8300BF30
S315200040501437BD465DF8047B704780B485B000AF49
S3152000406078600B467B800023FB817B681B8BFB8162
S31520004070FB8923F48063FB817B881B029AB2FB8930
S315200040801343FB817B68FA891A8300BF1437BD4628
S315200040905DF8047B704780B485B000AF78600B462E
S315200040A07B800023FB817B689B8BFB81FB8923F034
S315200040B00403FB81FA897B881343FB817B68FA8999
S315200040C09A8300BF1437BD465DF8047B704780B4E1
S315200040D085B000AF78600B467B800023FB817B6830
S315200040E09B8BFB81FB8923F48063FB817B881B02EE
S315200040F09AB2FB891343FB817B68FA899A8300BFB6
S315200041001437BD465DF8047B704780B485B000AF98
S3152000411078600B467B800023FB817B681B8BFB81B1
S31520004120FB8923F08003FB81FA897B881343FB817B
S315200041307B68FA891A8300BF1437BD465DF8047B75
S31520004140704780B485B000AF78600B467B80002333
S31520004150FB817B681B8BFB81FB89C3F30E03FB81F1
S315200041607B881B029AB2FB891343FB817B68FA8901
S315200041701A8300BF1437BD465DF8047B704780B4B0
S3152000418085B000AF78600B467B800023FB817B687F
S315200041909B8BFB81FB8923F08003FB81FA897B883B
S315200041A01343FB817B68FA899A8300BF1437BD4687
S315200041B05DF8047B704780B485B000AF78600B460D
S315200041C07B800023FB817B689B8BFB81FB89C3F370
S315200041D00E03FB817B881B029AB2FB891343FB816A
S315200041E07B68FA899A8300BF1437BD465DF8047B45
S315200041F0704780B485B000AF78600B467B80002383
S31520004200FB817B681B8CFB81FB8923F00203FB81EE
S31520004210FA897B881343FB817B68FA891A8400BF5D
S315200042201437BD465DF8047B704780B485B000AF77
S3152000423078600B467B800023FB817B681B8CFB818F
S31520004240FB8923F00803FB81FA897B881343FB81D2
S315200042507B68FA891A8400BF1437BD465DF8047B53
S31520004260704780B485B000AF78600B467B80002312
S31520004270FB817B681B8CFB81FB8923F02003FB8160
S315200042807B881B019AB2FB891343FB817B68FA89E1
S315200042901A8400BF1437BD465DF8047B704780B48E
S315200042A085B000AF78600B467B800023FB817B685E
S315200042B01B8CFB81FB8923F08003FB817B881B0100
S315200042C09AB2FB891343FB817B68FA891A8400BF63
S315200042D01437BD465DF8047B704780B485B000AFC7
S315200042E078600B467B800023FB817B681B8CFB81DF
S315200042F0FB8923F40073FB817B881B029AB2FB891E
S315200043001343FB817B68FA891A8400BF1437BD46A4
S315200043105DF8047B704780B485B000AF78600B46AB
S315200043207B800023FB817B681B8CFB81FB8923F42C
S315200043300063FB817B881B029AB2FB891343FB81B6
S315200043407B68FA891A8400BF1437BD465DF8047B62
S31520004350704780B485B000AF78600B467B80002321
S31520004360FB817B681B8CFB81FB8923F40053FB813B
S315200043707B881B039AB2FB891343FB817B68FA89EE
S315200043801A8400BF1437BD465DF8047B704780B49D
S3152000439085B000AF78600B467B8013463B800023B8
S315200043A0FB817B88012202FA03F3FB817B681B8C4D
S315200043B09AB2FB89DB439BB213409AB27B681A847C
S315200043C07B681B8C9AB239887B8801FA03F39BB2EF
S315200043D013439AB27B681A8400BF1437BD465DF832
S315200043E0047B704780B485B000AF78600B467B8035
S315200043F013463B800023FB817B88042202FA03F3C9
S31520004400FB817B681B8C9AB2FB89DB439BB21340F2
S315200044109AB27B681A847B681B8C9AB239887B880F
S3152000442001FA03F39BB213439AB27B681A8400BF46
S315200044301437BD465DF8047B704780B582B000AF67
S31520004440786039603B681B88002B0FD13B68598800
S315200044503B689A883B681B89786800F0B7FC3B6804
S31520004460DB881946786800F0E1F836E03B681B885F
S31520004470042B0FD13B6859883B689A883B681B8977
S31520004480786800F0E6FC3B68DB881946786800F01F
S31520004490E9F822E03B681B88082B0FD13B68598836
S315200044A03B689A883B681B89786800F01FFD3B684B
S315200044B0DB881946786800F0F3F80EE03B685988E7
S315200044C03B689A883B681B89786800F057FD3B68F3
S315200044D0DB881946786800F0FFF800BF0837BD462C
S315200044E080BD80B483B000AF78607B6800221A80DC
S315200044F07B6800225A807B6801229A807B68002292
S31520004500DA807B6800221A8100BF0C37BD465DF831
S31520004510047B704780B584B000AF78603960002393
S31520004520FB810123BB813B685B88002B02D10223E0
S31520004530FB8101E00023FB813B689B88012B02D194
S315200045400223BB8101E00123BB813B681B88002B32
S315200045501CD13B6859883B689A883B681B897868D8
S3152000456000F034FC3B68DB881946786800F05EF87A
S315200045703B681B89BA89F989786800F06AFC3B6830
S31520004580DB881946786800F06DF81BE03B6859888F
S315200045903B689A883B681B89786800F05AFC3B6820
S315200045A0DB881946786800F05DF83B681B89BA8974
S315200045B0F989786800F00AFC3B68DB881946786838
S315200045C000F034F800BF1037BD4680BD80B483B0FC
S315200045D000AF78607B685B6B18460C37BD465DF88C
S315200045E0047B704780B483B000AF78607B689B6B98
S315200045F018460C37BD465DF8047B704780B483B0FF
S3152000460000AF78607B68DB6B18460C37BD465DF8DB
S31520004610047B704780B483B000AF78607B681B6CE6
S3152000462018460C37BD465DF8047B704780B483B0CE
S3152000463000AF78600B467B807B681B8B9BB223F098
S315200046400C039AB27B681A837B681B8B9AB27B8891
S3152000465013439AB27B681A8300BF0C37BD465DF8B8
S31520004660047B704780B483B000AF78600B467B80B4
S315200046707B681B8B9BB223F440639AB27B681A83B8
S315200046807B681B8B9AB27B881B029BB213439AB220
S315200046907B681A8300BF0C37BD465DF8047B7047E4
S315200046A080B483B000AF78600B467B807B689B8BA1
S315200046B09BB223F00C039AB27B689A837B689B8B10
S315200046C09AB27B8813439AB27B689A8300BF0C37D1
S315200046D0BD465DF8047B704780B483B000AF786038
S315200046E00B467B807B689B8B9BB223F440639AB2FC
S315200046F07B689A837B689B8B9AB27B881B029BB2D2
S3152000470013439AB27B689A8300BF0C37BD465DF887
S31520004710047B704780B483B000AF786039603B6813
S315200047201A883B685B8813439AB23B689B8813437D
S315200047309AB23B68DB8813439AB23B681B891343C2
S315200047409AB23B685B8913439AB23B689B891343B1
S315200047509AB27B68A3F8442000BF0C37BD465DF8AB
S31520004760047B704780B483B000AF78607B680022FA
S315200047701A807B6800225A807B6800229A807B6898
S315200047800022DA807B6800221A817B6800225A8107
S315200047907B6800229A8100BF0C37BD465DF8047BFA
S315200047A0704780B483B000AF78600B46FB70FB780F
S315200047B0002B0CD07B68B3F844309BB26FEA43439E
S315200047C06FEA53439AB27B68A3F8442009E07B68DA
S315200047D0B3F844309BB2C3F30E039AB27B68A3F8B6
S315200047E0442000BF0C37BD465DF8047B704780B47B
S315200047F083B000AF78600B46FB70FB78002B08D0A7
S315200048007B689B889BB243F004039AB27B689A80AC
S3152000481007E07B689B889BB223F004039AB27B68EF
S315200048209A8000BF0C37BD465DF8047B704780B484
S3152000483083B000AF78600B46FB70FB78002B08D066
S315200048407B689B889BB243F001039AB27B689A806F
S3152000485007E07B689B889BB223F001039AB27B68B2
S315200048609A8000BF0C37BD465DF8047B704780B444
S3152000487083B000AF78600B467B8013467B707B78D5
S31520004880002B08D07B689B899AB27B8813439AB207
S315200048907B689A8109E07B689B899AB27B88DB4397
S315200048A09BB213409AB27B689A8100BF0C37BD46F3
S315200048B05DF8047B704780B483B000AF78600B4608
S315200048C07B807B687A889A8200BF0C37BD465DF86C
S315200048D0047B704780B485B000AF78600B467B8040
S315200048E00023FB737B681B8A9AB27B8813409BB29A
S315200048F0002B02D00123FB7301E00023FB73FB7B1B
S3152000490018461437BD465DF8047B704780B483B0E3
S3152000491000AF78600B467B807B88DB439AB27B684E
S315200049201A8200BF0C37BD465DF8047B704780B401
S3152000493085B000AF78600B467B800023FB73002395
S31520004940BB8100237B817B681B8A9AB27B881340BC
S31520004950BB817B689B899AB27B8813407B81BB890C
S31520004960002B05D07B89002B02D00123FB7301E0AD
S315200049700023FB73FB7B18461437BD465DF8047B8A
S31520004980704780B483B000AF78600B467B807B880D
S31520004990DB439AB27B681A8200BF0C37BD465DF8AE
S315200049A0047B704780B483B000AF78600B467B8071
S315200049B013463B807A883B8813439AB27B68A3F8D8
S315200049C0482000BF0C37BD465DF8047B704780B495
S315200049D083B000AF78600B467B8013467B707B7874
S315200049E0002B08D07B689B899AB27B8813439AB2A6
S315200049F07B689A8109E07B689B899AB27B88DB4336
S31520004A009BB213409AB27B689A8100BF0C37BD4691
S31520004A105DF8047B704780B483B000AF78600B46A6
S31520004A20FB70FB78002B08D07B689B889BB243F0F9
S31520004A3008039AB27B689A8007E07B689B889BB2C2
S31520004A4023F008039AB27B689A8000BF0C37BD46D4
S31520004A505DF8047B704780B483B000AF78607B68D4
S31520004A601B899BB223F007039AB27B681A8100BF89
S31520004A700C37BD465DF8047B704780B582B000AF29
S31520004A8078600B467B807B881946786800F088F82A
S31520004A907B681B899BB243F007039AB27B681A8115
S31520004AA000BF0837BD4680BD80B584B000AFF86032
S31520004AB0084611461A4603467B810B463B81134620
S31520004AC0FB807B89602B06D1FB8839890122F86817
S31520004AD000F0BFF905E0FB8839890122F86800F06B
S31520004AE075F97B891946F86800F05AF8FB681B8926
S31520004AF09BB243F007039AB2FB681A8100BF1037B6
S31520004B00BD4680BD80B586B000AFF8600846114628
S31520004B101A4603467B810B463B811346FB800023C6
S31520004B20FB82FB883A897989F86800F0A9F8FB6846
S31520004B301B89FB82FB8A23F00703FB82FB8A43F057
S31520004B400703FB82FB8A23F07003FB82FB8A43F078
S31520004B507003FB82FB68FA8A1A8100BF1837BD46AC
S31520004B6080BD80B584B000AFF860084611461A466D
S31520004B7003467B810B463B811346FB80FB883A89A3
S31520004B807989F86800F07CF8FB681B899BB243F4AE
S31520004B9080439AB2FB681A8100BF1037BD4680BD9C
S31520004BA080B485B000AF78600B467B800023FB8104
S31520004BB07B681B89FB81FB8923F07003FB81FA89C3
S31520004BC07B881343FB817B68FA891A8100BF1437DF
S31520004BD0BD465DF8047B704780B483B000AF786033
S31520004BE00B467B807B689B889BB223F070039AB22E
S31520004BF07B689A807B689B889AB27B8813439AB29B
S31520004C007B689A8000BF0C37BD465DF8047B7047F1
S31520004C1080B483B000AF78600B467B807B681B89AD
S31520004C209BB223F007039AB27B681A817B681B89A3
S31520004C309AB27B8813439AB27B681A8100BF0C37DD
S31520004C40BD465DF8047B704780B483B000AF7860C2
S31520004C500B467B807B681B899BB223F080039AB22C
S31520004C607B681A817B681B899AB27B8813439AB228
S31520004C707B681A8100BF0C37BD465DF8047B704700
S31520004C8080B487B000AFF860084611461A4603463E
S31520004C907B810B463B811346FB800023FB82FB680E
S31520004CA01B89FB82FB8ADBB2FB82FB881B029AB242
S31520004CB03B8913439AB27B8913439AB2FB8A1343E7
S31520004CC0FB82FB68FA8A1A8100BF1C37BD465DF855
S31520004CD0047B704780B487B000AFF8600846114661
S31520004CE01A4603467B810B463B811346FB800023F5
S31520004CF0FB820023BB8200237B82FB681B89FB820D
S31520004D00FB681B8BBB82FB681B8C7B82FB8A23F098
S31520004D100703FB82FA8A7B891343FB82BB8A23F42F
S31520004D20407323F00303BB82BB8A43F4807343F0B2
S31520004D300103BB827B8A23F022037B82FB881B0133
S31520004D409AB23B8913439AB27B8A13437B82FB68D0
S31520004D50FA8A1A81FB68BA8A1A83FB687A8A1A84C5
S31520004D6000BF1C37BD465DF8047B704780B483B016
S31520004D7000AF78600B46FB70FB78002B08D07B6871
S31520004D809B889BB243F080039AB27B689A8007E0A7
S31520004D907B689B889BB223F080039AB27B689A80BB
S31520004DA000BF0C37BD465DF8047B704780B483B0E6
S31520004DB000AF78600B467B807B687A88A3F850200A
S31520004DC000BF0C37BD465DF8047B704780B487B0C2
S31520004DD000AFF860084611461A4603467B810B460B
S31520004DE03B811346FB800023FB820023BB82FB68AA
S31520004DF01B8C9BB223F001039AB2FB681A84FB68D2
S31520004E001B8BFB82FB681B8CBB82FB8A23F0F30384
S31520004E10FB82FB881B019AB23B8913439AB2FB8A19
S31520004E201343FB82BB8A23F00A03BB827A89BB8A9F
S31520004E3013439BB243F00103BB82FB68FA8A1A83B1
S31520004E40FB68BA8A1A8400BF1C37BD465DF8047B0E
S31520004E50704780B487B000AFF860084611461A46FE
S31520004E6003467B810B463B811346FB800023FB8256
S31520004E700023BB8200237B82FB681B8C9BB223F022
S31520004E8010039AB2FB681A84FB681B8BFB82FB68B3
S31520004E901B8CBB827B891B017B82FB8A23F440739C
S31520004EA01B051B0DFB82FB881B039AB2FB8A13434F
S31520004EB0FB823B891B029AB2FB8A1343FB82BB8A85
S31520004EC023F0A003BB827A8ABB8A13439BB243F0AA
S31520004ED01003BB82FB68FA8A1A83FB68BA8A1A8493
S31520004EE000BF1C37BD465DF8047B704780B487B091
S31520004EF000AFF860084611461A4603467B810B46EA
S31520004F003B811346FB800023FB820023BB820023C8
S31520004F107B82FB681B8C9BB223F480739AB2FB685E
S31520004F201A84FB689B8BFB82FB681B8CBB827B896C
S31520004F301B027B82FB8A23F0F303FB82FB881B0187
S31520004F409AB23B8913439AB2FB8A1343FB82BB8AEC
S31520004F5023F42063BB827A8ABB8A13439BB243F431
S31520004F608073BB82FB68FA8A9A83FB68BA8A1A84A2
S31520004F7000BF1C37BD465DF8047B704780B487B000
S31520004F8000AFF860084611461A4603467B810B4659
S31520004F903B811346FB800023FB820023BB82002338
S31520004FA07B82FB681B8C9BB223F480539AB2FB68EE
S31520004FB01A84FB689B8BFB82FB681B8CBB827B89DC
S31520004FC01B037B82FB8A23F440731B051B0DFB828C
S31520004FD03B891B029AB2FB8A1343FB82FB881B0385
S31520004FE09AB2FB8A1343FB82BB8A23F400535B04E9
S31520004FF05B0CBB827A8ABB8A13439BB243F48053F1
S31520005000BB82FB68FA8A9A83FB68BA8A1A8400BF35
S315200050101C37BD465DF8047B704700BF80B483B063
S3152000502000AF786039607B681B7A18460C37BD461E
S315200050305DF8047B704780B483B000AF7860396038
S315200050403B68002B08DB3B68142B05DC3B68DAB297
S315200050507B681A72002301E04FF0FF3318460C37A5
S31520005060BD465DF8047B704780B483B000AF78609E
S3152000507039607B683222DA60002318460C37BD4639
S315200050805DF8047B704780B485B000AFF860B960E6
S315200050907A60FB681B7A002B04D1FB685A7AFB687E
S315200050A01A7206E0FB681A7AFB685A72FB680022BD
S315200050B01A72002318461437BD465DF8047B7047E4
S315200050C080B584B002AF786039603B68002B03D18D
S315200050D0124B00221A6004E07B681B7A1A460F4B9B
S315200050E01A600E4B1A680E4BD2B21A707B68DB68B8
S315200050F00C4A82FB03129210DB17D01A3B68002B56
S315200051000CBF01230023DBB20093074B7A680021F2
S31520005110FBF712FE00BF0837BD4680BDB818012038
S315200051201C74004067666666C150002080B582B058
S3152000513000AF78607B684B4A934208D10121012059
S31520005140FCF7A0FD00210120FCF79CFD86E07B6892
S31520005150454A934208D101210220FCF793FD002104
S315200051600220FCF78FFD79E07B68404A934208D104
S3152000517001210420FCF786FD00210420FCF782FD96
S315200051806CE07B683A4A934208D101210820FCF75B
S3152000519079FD00210820FCF775FD5FE07B68354A24
S315200051A0934208D101211020FCF76CFD002110202C
S315200051B0FCF768FD52E07B682F4A934208D1012113
S315200051C02020FCF75FFD00212020FCF75BFD45E059
S315200051D07B682A4A934208D101214020FCF752FDE0
S315200051E000214020FCF74EFD38E07B68244A93429C
S315200051F008D101218020FCF745FD00218020FCF705
S3152000520041FD2BE07B681F4A93420AD101214FF4CE
S315200052108070FCF737FD00214FF48070FCF732FDDB
S315200052201CE07B68184A93420AD101214FF4007092
S31520005230FCF728FD00214FF40070FCF723FD0DE05C
S315200052407B68124A934209D101214FF48060FCF712
S3152000525019FD00214FF48060FCF714FD00BF0837CC
S31520005260BD4680BD00000240000402400008024006
S31520005270000C0240001002400014024000180240B8
S31520005280001C024000200240002402400028024068
S3152000529080B487B000AF7860396000237B6100233B
S315200052A03B610023FB6000237B6176E001227B6962
S315200052B002FA03F33B613B681B683A691340FB60C3
S315200052C0FA683B699A4265D17B681A687B695B00FC
S315200052D0032101FA03F3DB431A407B681A607B68DB
S315200052E01A683B681B7919467B695B0001FA03F350
S315200052F01A437B681A603B681B79012B03D03B68F5
S315200053001B79022B2ED17B689A687B695B0003216F
S3152000531001FA03F3DB431A407B689A607B689A683C
S315200053203B685B7919467B695B0001FA03F31A43F4
S315200053307B689A607B685A687B699BB21946012311
S315200053408B40DB431A407B685A607B685B683A680F
S31520005350927911467A6992B201FA02F292B21A430E
S315200053607B685A607B68DA687B699BB25B000321A5
S3152000537001FA03F3DB431A407B68DA607B68DA685C
S315200053803B68DB7919467B695B0001FA03F31A4314
S315200053907B68DA607B6901337B617B690F2B85D95A
S315200053A000BF00BF1C37BD465DF8047B704780B444
S315200053B083B000AF78607B684FF6FF721A607B6817
S315200053C000221A717B6800225A717B6800229A712A
S315200053D07B680022DA7100BF0C37BD465DF8047B7E
S315200053E0704780B485B000AF78600B467B804FF461
S315200053F08033FB607A88FB681343FB60FA687B681E
S31520005400DA617A887B68DA61FA687B68DA617B68B8
S31520005410DB69FB607B68DB69FB6000BF1437BD4638
S315200054205DF8047B704780B485B000AF78600B468A
S315200054307B800023FB737B681A697B881340002BD3
S3152000544002D00123FB7301E00023FB73FB7B18468C
S315200054501437BD465DF8047B704780B483B000AF37
S3152000546078607B681B699BB218460C37BD465DF891
S31520005470047B704780B485B000AF78600B467B8094
S315200054800023FB737B685A697B881340002B02D06C
S315200054900123FB7301E00023FB73FB7B18461437C3
S315200054A0BD465DF8047B704780B483B000AF78605A
S315200054B07B685B699BB218460C37BD465DF8047B5A
S315200054C0704780B483B000AF78600B467B807B68E2
S315200054D07A881A8300BF0C37BD465DF8047B704777
S315200054E080B483B000AF78600B467B807B687A8877
S315200054F05A8300BF0C37BD465DF8047B704780B4E5
